{
  "contracts/WillRegistry.sol": {
    "WillRegistry": {
      "abi": [
        {
          "inputs": [],
          "stateMutability": "nonpayable",
          "type": "constructor"
        },
        {
          "inputs": [
            {
              "internalType": "uint256",
              "name": "provided",
              "type": "uint256"
            },
            {
              "internalType": "uint256",
              "name": "min",
              "type": "uint256"
            },
            {
              "internalType": "uint256",
              "name": "max",
              "type": "uint256"
            }
          ],
          "name": "ActivityThresholdInvalid",
          "type": "error"
        },
        {
          "inputs": [],
          "name": "ActivityThresholdOutOfRange",
          "type": "error"
        },
        {
          "inputs": [],
          "name": "ActivityThresholdTooShort",
          "type": "error"
        },
        {
          "inputs": [
            {
              "internalType": "uint256",
              "name": "activityThreshold",
              "type": "uint256"
            },
            {
              "internalType": "uint256",
              "name": "gracePeriod",
              "type": "uint256"
            }
          ],
          "name": "ActivityThresholdTooShortForGracePeriod",
          "type": "error"
        },
        {
          "inputs": [],
          "name": "AlreadyClaimed",
          "type": "error"
        },
        {
          "inputs": [],
          "name": "BeneficiaryAlreadyExists",
          "type": "error"
        },
        {
          "inputs": [],
          "name": "BeneficiaryDoesNotExist",
          "type": "error"
        },
        {
          "inputs": [],
          "name": "DeadManSwitchAlreadyTriggered",
          "type": "error"
        },
        {
          "inputs": [],
          "name": "DeadManSwitchNotTriggered",
          "type": "error"
        },
        {
          "inputs": [],
          "name": "EtherTransferFailed",
          "type": "error"
        },
        {
          "inputs": [
            {
              "internalType": "uint256",
              "name": "provided",
              "type": "uint256"
            },
            {
              "internalType": "uint256",
              "name": "min",
              "type": "uint256"
            },
            {
              "internalType": "uint256",
              "name": "max",
              "type": "uint256"
            }
          ],
          "name": "GracePeriodInvalid",
          "type": "error"
        },
        {
          "inputs": [],
          "name": "GracePeriodNotEnded",
          "type": "error"
        },
        {
          "inputs": [],
          "name": "GracePeriodOutOfRange",
          "type": "error"
        },
        {
          "inputs": [],
          "name": "InvalidBeneficiaryAddress",
          "type": "error"
        },
        {
          "inputs": [],
          "name": "InvalidTokenType",
          "type": "error"
        },
        {
          "inputs": [],
          "name": "NoAllocationsOrEtherProvided",
          "type": "error"
        },
        {
          "inputs": [],
          "name": "NotABeneficiary",
          "type": "error"
        },
        {
          "inputs": [],
          "name": "NotAuthorizedBackend",
          "type": "error"
        },
        {
          "inputs": [],
          "name": "NotWillOwner",
          "type": "error"
        },
        {
          "inputs": [
            {
              "internalType": "address",
              "name": "owner",
              "type": "address"
            }
          ],
          "name": "OwnableInvalidOwner",
          "type": "error"
        },
        {
          "inputs": [
            {
              "internalType": "address",
              "name": "account",
              "type": "address"
            }
          ],
          "name": "OwnableUnauthorizedAccount",
          "type": "error"
        },
        {
          "inputs": [],
          "name": "ReentrancyGuardReentrantCall",
          "type": "error"
        },
        {
          "inputs": [],
          "name": "WillDoesNotExist",
          "type": "error"
        },
        {
          "inputs": [],
          "name": "WillIdInvalid",
          "type": "error"
        },
        {
          "inputs": [
            {
              "internalType": "uint256",
              "name": "willId",
              "type": "uint256"
            }
          ],
          "name": "WillIdNotFound",
          "type": "error"
        },
        {
          "inputs": [],
          "name": "WillNotActive",
          "type": "error"
        },
        {
          "anonymous": false,
          "inputs": [
            {
              "indexed": true,
              "internalType": "address",
              "name": "owner",
              "type": "address"
            },
            {
              "indexed": false,
              "internalType": "uint256",
              "name": "timestamp",
              "type": "uint256"
            }
          ],
          "name": "ActivityUpdated",
          "type": "event"
        },
        {
          "anonymous": false,
          "inputs": [
            {
              "indexed": true,
              "internalType": "address",
              "name": "owner",
              "type": "address"
            },
            {
              "indexed": true,
              "internalType": "address",
              "name": "beneficiary",
              "type": "address"
            }
          ],
          "name": "BeneficiaryAdded",
          "type": "event"
        },
        {
          "anonymous": false,
          "inputs": [
            {
              "indexed": true,
              "internalType": "address",
              "name": "beneficiary",
              "type": "address"
            },
            {
              "indexed": true,
              "internalType": "address",
              "name": "token",
              "type": "address"
            },
            {
              "indexed": false,
              "internalType": "uint256",
              "name": "tokenId",
              "type": "uint256"
            },
            {
              "indexed": false,
              "internalType": "uint256",
              "name": "amount",
              "type": "uint256"
            }
          ],
          "name": "BeneficiaryClaimed",
          "type": "event"
        },
        {
          "anonymous": false,
          "inputs": [
            {
              "indexed": true,
              "internalType": "address",
              "name": "owner",
              "type": "address"
            },
            {
              "indexed": true,
              "internalType": "address",
              "name": "beneficiary",
              "type": "address"
            }
          ],
          "name": "BeneficiaryRemoved",
          "type": "event"
        },
        {
          "anonymous": false,
          "inputs": [
            {
              "indexed": true,
              "internalType": "address",
              "name": "owner",
              "type": "address"
            },
            {
              "indexed": false,
              "internalType": "uint256",
              "name": "timestamp",
              "type": "uint256"
            }
          ],
          "name": "DeadManSwitchActivated",
          "type": "event"
        },
        {
          "anonymous": false,
          "inputs": [
            {
              "indexed": true,
              "internalType": "address",
              "name": "owner",
              "type": "address"
            }
          ],
          "name": "DeadManSwitchTriggered",
          "type": "event"
        },
        {
          "anonymous": false,
          "inputs": [
            {
              "indexed": true,
              "internalType": "address",
              "name": "owner",
              "type": "address"
            },
            {
              "indexed": false,
              "internalType": "uint256",
              "name": "amount",
              "type": "uint256"
            },
            {
              "indexed": true,
              "internalType": "address",
              "name": "beneficiary",
              "type": "address"
            }
          ],
          "name": "EtherAllocated",
          "type": "event"
        },
        {
          "anonymous": false,
          "inputs": [
            {
              "indexed": true,
              "internalType": "address",
              "name": "owner",
              "type": "address"
            },
            {
              "indexed": false,
              "internalType": "uint256",
              "name": "timestamp",
              "type": "uint256"
            },
            {
              "indexed": false,
              "internalType": "uint256",
              "name": "gracePeriod",
              "type": "uint256"
            }
          ],
          "name": "GracePeriodStarted",
          "type": "event"
        },
        {
          "anonymous": false,
          "inputs": [
            {
              "indexed": true,
              "internalType": "address",
              "name": "previousOwner",
              "type": "address"
            },
            {
              "indexed": true,
              "internalType": "address",
              "name": "newOwner",
              "type": "address"
            }
          ],
          "name": "OwnershipTransferred",
          "type": "event"
        },
        {
          "anonymous": false,
          "inputs": [
            {
              "indexed": true,
              "internalType": "address",
              "name": "owner",
              "type": "address"
            }
          ],
          "name": "PanicButtonPressed",
          "type": "event"
        },
        {
          "anonymous": false,
          "inputs": [
            {
              "indexed": true,
              "internalType": "address",
              "name": "owner",
              "type": "address"
            },
            {
              "indexed": false,
              "internalType": "uint256",
              "name": "gracePeriod",
              "type": "uint256"
            },
            {
              "indexed": false,
              "internalType": "uint256",
              "name": "activityThreshold",
              "type": "uint256"
            }
          ],
          "name": "TimeframesUpdated",
          "type": "event"
        },
        {
          "anonymous": false,
          "inputs": [
            {
              "indexed": true,
              "internalType": "address",
              "name": "owner",
              "type": "address"
            },
            {
              "indexed": true,
              "internalType": "address",
              "name": "token",
              "type": "address"
            },
            {
              "indexed": false,
              "internalType": "enum WillRegistry.TokenType",
              "name": "tokenType",
              "type": "uint8"
            },
            {
              "indexed": true,
              "internalType": "address",
              "name": "beneficiary",
              "type": "address"
            },
            {
              "indexed": false,
              "internalType": "uint256",
              "name": "tokenId",
              "type": "uint256"
            },
            {
              "indexed": false,
              "internalType": "uint256",
              "name": "amount",
              "type": "uint256"
            }
          ],
          "name": "TokenAllocated",
          "type": "event"
        },
        {
          "anonymous": false,
          "inputs": [
            {
              "indexed": true,
              "internalType": "address",
              "name": "beneficiary",
              "type": "address"
            },
            {
              "indexed": true,
              "internalType": "address",
              "name": "willOwner",
              "type": "address"
            }
          ],
          "name": "WillClaimed",
          "type": "event"
        },
        {
          "anonymous": false,
          "inputs": [
            {
              "indexed": true,
              "internalType": "address",
              "name": "owner",
              "type": "address"
            },
            {
              "indexed": false,
              "internalType": "string",
              "name": "name",
              "type": "string"
            },
            {
              "indexed": false,
              "internalType": "address[]",
              "name": "beneficiaries",
              "type": "address[]"
            }
          ],
          "name": "WillCreated",
          "type": "event"
        },
        {
          "inputs": [
            {
              "internalType": "uint256",
              "name": "willId",
              "type": "uint256"
            },
            {
              "internalType": "address",
              "name": "beneficiary",
              "type": "address"
            },
            {
              "components": [
                {
                  "internalType": "address",
                  "name": "tokenAddress",
                  "type": "address"
                },
                {
                  "internalType": "enum WillRegistry.TokenType",
                  "name": "tokenType",
                  "type": "uint8"
                },
                {
                  "internalType": "uint256[]",
                  "name": "tokenIds",
                  "type": "uint256[]"
                },
                {
                  "internalType": "uint256[]",
                  "name": "amounts",
                  "type": "uint256[]"
                },
                {
                  "internalType": "address[]",
                  "name": "beneficiaries",
                  "type": "address[]"
                }
              ],
              "internalType": "struct WillRegistry.TokenAllocation[]",
              "name": "allocations",
              "type": "tuple[]"
            }
          ],
          "name": "addBeneficiaryWithAllocation",
          "outputs": [],
          "stateMutability": "payable",
          "type": "function"
        },
        {
          "inputs": [
            {
              "internalType": "address",
              "name": "",
              "type": "address"
            }
          ],
          "name": "authorizedBackends",
          "outputs": [
            {
              "internalType": "bool",
              "name": "",
              "type": "bool"
            }
          ],
          "stateMutability": "view",
          "type": "function"
        },
        {
          "inputs": [
            {
              "internalType": "address",
              "name": "",
              "type": "address"
            },
            {
              "internalType": "uint256",
              "name": "",
              "type": "uint256"
            }
          ],
          "name": "beneficiaryWills",
          "outputs": [
            {
              "internalType": "address",
              "name": "",
              "type": "address"
            }
          ],
          "stateMutability": "view",
          "type": "function"
        },
        {
          "inputs": [
            {
              "internalType": "address",
              "name": "willOwner",
              "type": "address"
            }
          ],
          "name": "checkAndTriggerDeadManSwitch",
          "outputs": [],
          "stateMutability": "nonpayable",
          "type": "function"
        },
        {
          "inputs": [
            {
              "internalType": "uint256",
              "name": "willId",
              "type": "uint256"
            }
          ],
          "name": "claimInheritance",
          "outputs": [],
          "stateMutability": "nonpayable",
          "type": "function"
        },
        {
          "inputs": [
            {
              "internalType": "string",
              "name": "_name",
              "type": "string"
            },
            {
              "components": [
                {
                  "internalType": "address",
                  "name": "tokenAddress",
                  "type": "address"
                },
                {
                  "internalType": "enum WillRegistry.TokenType",
                  "name": "tokenType",
                  "type": "uint8"
                },
                {
                  "internalType": "uint256[]",
                  "name": "tokenIds",
                  "type": "uint256[]"
                },
                {
                  "internalType": "uint256[]",
                  "name": "amounts",
                  "type": "uint256[]"
                },
                {
                  "internalType": "address[]",
                  "name": "beneficiaries",
                  "type": "address[]"
                }
              ],
              "internalType": "struct WillRegistry.TokenAllocation[]",
              "name": "_allocations",
              "type": "tuple[]"
            },
            {
              "internalType": "uint256",
              "name": "_gracePeriod",
              "type": "uint256"
            },
            {
              "internalType": "uint256",
              "name": "_activityThreshold",
              "type": "uint256"
            }
          ],
          "name": "createWill",
          "outputs": [],
          "stateMutability": "payable",
          "type": "function"
        },
        {
          "inputs": [
            {
              "internalType": "uint256",
              "name": "willId",
              "type": "uint256"
            }
          ],
          "name": "getActivityThreshold",
          "outputs": [
            {
              "internalType": "uint256",
              "name": "",
              "type": "uint256"
            }
          ],
          "stateMutability": "view",
          "type": "function"
        },
        {
          "inputs": [
            {
              "internalType": "address",
              "name": "owner",
              "type": "address"
            }
          ],
          "name": "getBeneficiaries",
          "outputs": [
            {
              "internalType": "address[]",
              "name": "",
              "type": "address[]"
            }
          ],
          "stateMutability": "view",
          "type": "function"
        },
        {
          "inputs": [
            {
              "internalType": "uint256",
              "name": "willId",
              "type": "uint256"
            },
            {
              "internalType": "address",
              "name": "beneficiary",
              "type": "address"
            }
          ],
          "name": "getBeneficiaryAllocations",
          "outputs": [
            {
              "components": [
                {
                  "internalType": "address",
                  "name": "tokenAddress",
                  "type": "address"
                },
                {
                  "internalType": "enum WillRegistry.TokenType",
                  "name": "tokenType",
                  "type": "uint8"
                },
                {
                  "internalType": "uint256",
                  "name": "tokenId",
                  "type": "uint256"
                },
                {
                  "internalType": "uint256",
                  "name": "amount",
                  "type": "uint256"
                },
                {
                  "internalType": "bool",
                  "name": "claimed",
                  "type": "bool"
                }
              ],
              "internalType": "struct WillRegistry.BeneficiaryAllocation[]",
              "name": "",
              "type": "tuple[]"
            }
          ],
          "stateMutability": "view",
          "type": "function"
        },
        {
          "inputs": [
            {
              "internalType": "uint256",
              "name": "willId",
              "type": "uint256"
            }
          ],
          "name": "getRemainingGracePeriod",
          "outputs": [
            {
              "internalType": "uint256",
              "name": "",
              "type": "uint256"
            }
          ],
          "stateMutability": "view",
          "type": "function"
        },
        {
          "inputs": [
            {
              "internalType": "uint256",
              "name": "willId",
              "type": "uint256"
            }
          ],
          "name": "getTimeUntilDeadManSwitch",
          "outputs": [
            {
              "internalType": "uint256",
              "name": "",
              "type": "uint256"
            }
          ],
          "stateMutability": "view",
          "type": "function"
        },
        {
          "inputs": [
            {
              "internalType": "address",
              "name": "beneficiary",
              "type": "address"
            }
          ],
          "name": "getWillsAsBeneficiary",
          "outputs": [
            {
              "internalType": "address[]",
              "name": "",
              "type": "address[]"
            }
          ],
          "stateMutability": "view",
          "type": "function"
        },
        {
          "inputs": [
            {
              "internalType": "address",
              "name": "owner",
              "type": "address"
            }
          ],
          "name": "getWillsByOwner",
          "outputs": [
            {
              "internalType": "uint256[]",
              "name": "",
              "type": "uint256[]"
            }
          ],
          "stateMutability": "view",
          "type": "function"
        },
        {
          "inputs": [
            {
              "internalType": "uint256",
              "name": "willId",
              "type": "uint256"
            }
          ],
          "name": "hasGracePeriodEnded",
          "outputs": [
            {
              "internalType": "bool",
              "name": "",
              "type": "bool"
            }
          ],
          "stateMutability": "view",
          "type": "function"
        },
        {
          "inputs": [],
          "name": "owner",
          "outputs": [
            {
              "internalType": "address",
              "name": "",
              "type": "address"
            }
          ],
          "stateMutability": "view",
          "type": "function"
        },
        {
          "inputs": [
            {
              "internalType": "address",
              "name": "",
              "type": "address"
            },
            {
              "internalType": "uint256",
              "name": "",
              "type": "uint256"
            }
          ],
          "name": "ownerWillIds",
          "outputs": [
            {
              "internalType": "uint256",
              "name": "",
              "type": "uint256"
            }
          ],
          "stateMutability": "view",
          "type": "function"
        },
        {
          "inputs": [
            {
              "internalType": "address",
              "name": "beneficiary",
              "type": "address"
            }
          ],
          "name": "removeBeneficiary",
          "outputs": [],
          "stateMutability": "nonpayable",
          "type": "function"
        },
        {
          "inputs": [],
          "name": "renounceOwnership",
          "outputs": [],
          "stateMutability": "nonpayable",
          "type": "function"
        },
        {
          "inputs": [
            {
              "internalType": "address",
              "name": "backend",
              "type": "address"
            },
            {
              "internalType": "bool",
              "name": "authorized",
              "type": "bool"
            }
          ],
          "name": "setAuthorizedBackend",
          "outputs": [],
          "stateMutability": "nonpayable",
          "type": "function"
        },
        {
          "inputs": [
            {
              "internalType": "address",
              "name": "newOwner",
              "type": "address"
            }
          ],
          "name": "transferOwnership",
          "outputs": [],
          "stateMutability": "nonpayable",
          "type": "function"
        },
        {
          "inputs": [
            {
              "internalType": "uint256",
              "name": "willId",
              "type": "uint256"
            },
            {
              "internalType": "uint256",
              "name": "_gracePeriod",
              "type": "uint256"
            },
            {
              "internalType": "uint256",
              "name": "_activityThreshold",
              "type": "uint256"
            }
          ],
          "name": "updateTimeframes",
          "outputs": [],
          "stateMutability": "nonpayable",
          "type": "function"
        },
        {
          "inputs": [
            {
              "internalType": "address",
              "name": "",
              "type": "address"
            }
          ],
          "name": "wills",
          "outputs": [
            {
              "internalType": "uint256",
              "name": "id",
              "type": "uint256"
            },
            {
              "internalType": "address",
              "name": "owner",
              "type": "address"
            },
            {
              "internalType": "string",
              "name": "name",
              "type": "string"
            },
            {
              "internalType": "uint256",
              "name": "lastActivity",
              "type": "uint256"
            },
            {
              "internalType": "bool",
              "name": "isActive",
              "type": "bool"
            },
            {
              "internalType": "uint256",
              "name": "etherAllocation",
              "type": "uint256"
            },
            {
              "internalType": "uint256",
              "name": "gracePeriod",
              "type": "uint256"
            },
            {
              "internalType": "uint256",
              "name": "activityThreshold",
              "type": "uint256"
            },
            {
              "internalType": "bool",
              "name": "deadManSwitchTriggered",
              "type": "bool"
            },
            {
              "internalType": "uint256",
              "name": "deadManSwitchTimestamp",
              "type": "uint256"
            }
          ],
          "stateMutability": "view",
          "type": "function"
        },
        {
          "inputs": [
            {
              "internalType": "uint256",
              "name": "",
              "type": "uint256"
            }
          ],
          "name": "willsById",
          "outputs": [
            {
              "internalType": "uint256",
              "name": "id",
              "type": "uint256"
            },
            {
              "internalType": "address",
              "name": "owner",
              "type": "address"
            },
            {
              "internalType": "string",
              "name": "name",
              "type": "string"
            },
            {
              "internalType": "uint256",
              "name": "lastActivity",
              "type": "uint256"
            },
            {
              "internalType": "bool",
              "name": "isActive",
              "type": "bool"
            },
            {
              "internalType": "uint256",
              "name": "etherAllocation",
              "type": "uint256"
            },
            {
              "internalType": "uint256",
              "name": "gracePeriod",
              "type": "uint256"
            },
            {
              "internalType": "uint256",
              "name": "activityThreshold",
              "type": "uint256"
            },
            {
              "internalType": "bool",
              "name": "deadManSwitchTriggered",
              "type": "bool"
            },
            {
              "internalType": "uint256",
              "name": "deadManSwitchTimestamp",
              "type": "uint256"
            }
          ],
          "stateMutability": "view",
          "type": "function"
        }
      ],
      "evm": {
        "bytecode": {
          "linkReferences": {},
          "object": "608060405260016002553480156200001657600080fd5b5033600073ffffffffffffffffffffffffffffffffffffffff168173ffffffffffffffffffffffffffffffffffffffff16036200008d5760006040517f1e4fbdf7000000000000000000000000000000000000000000000000000000008152600401620000849190620001b5565b60405180910390fd5b6200009e81620000ac60201b60201c565b5060018081905550620001d2565b60008060009054906101000a900473ffffffffffffffffffffffffffffffffffffffff169050816000806101000a81548173ffffffffffffffffffffffffffffffffffffffff021916908373ffffffffffffffffffffffffffffffffffffffff1602179055508173ffffffffffffffffffffffffffffffffffffffff168173ffffffffffffffffffffffffffffffffffffffff167f8be0079c531659141344cd1fd0a4f28419497f9722a3daafe3b4186f6b6457e060405160405180910390a35050565b600073ffffffffffffffffffffffffffffffffffffffff82169050919050565b60006200019d8262000170565b9050919050565b620001af8162000190565b82525050565b6000602082019050620001cc6000830184620001a4565b92915050565b615cea80620001e26000396000f3fe6080604052600436106101405760003560e01c806369f196bb116100b657806392ccb8ff1161006f57806392ccb8ff146104b25780639516e033146104db578063a4cb92fa146104f7578063cfd35b8a1461053d578063e712a35d1461057a578063f2fde38b146105b757610140565b806369f196bb1461039d5780636bd6cfd6146103b9578063715018a6146103f65780637de00a9d1461040d578063888253e41461044a5780638da5cb5b1461048757610140565b80631ed22bd7116101085780631ed22bd7146102625780633d9c68fc146102a8578063479b7676146102d15780634a4d67141461030e5780634fb37f3c1461034b57806359633a1c1461037457610140565b806314f93bf81461014557806318957836146101825780631a2cd78f146101bf5780631cab59a4146101e85780631cba3af914610225575b600080fd5b34801561015157600080fd5b5061016c60048036038101906101679190614947565b6105e0565b6040516101799190614b4e565b60405180910390f35b34801561018e57600080fd5b506101a960048036038101906101a49190614b70565b6107d4565b6040516101b69190614bac565b60405180910390f35b3480156101cb57600080fd5b506101e660048036038101906101e19190614bc7565b610886565b005b3480156101f457600080fd5b5061020f600480360381019061020a9190614c1a565b610a77565b60405161021c9190614cf6565b60405180910390f35b34801561023157600080fd5b5061024c60048036038101906102479190614b70565b610bcd565b6040516102599190614d27565b60405180910390f35b34801561026e57600080fd5b5061028960048036038101906102849190614b70565b610cb1565b60405161029f9a99989796959493929190614de1565b60405180910390f35b3480156102b457600080fd5b506102cf60048036038101906102ca9190614c1a565b610dc7565b005b3480156102dd57600080fd5b506102f860048036038101906102f39190614e84565b610fb8565b6040516103059190614bac565b60405180910390f35b34801561031a57600080fd5b5061033560048036038101906103309190614b70565b610fe9565b6040516103429190614bac565b60405180910390f35b34801561035757600080fd5b50610372600480360381019061036d9190614ef0565b6110fd565b005b34801561038057600080fd5b5061039b60048036038101906103969190614c1a565b611160565b005b6103b760048036038101906103b291906150c5565b6117e4565b005b3480156103c557600080fd5b506103e060048036038101906103db9190614c1a565b612607565b6040516103ed9190614cf6565b60405180910390f35b34801561040257600080fd5b5061040b6126d4565b005b34801561041957600080fd5b50610434600480360381019061042f9190614c1a565b6126e8565b6040516104419190615218565b60405180910390f35b34801561045657600080fd5b50610471600480360381019061046c9190614e84565b61277f565b60405161047e919061523a565b60405180910390f35b34801561049357600080fd5b5061049c6127cd565b6040516104a9919061523a565b60405180910390f35b3480156104be57600080fd5b506104d960048036038101906104d49190614b70565b6127f6565b005b6104f560048036038101906104f09190615255565b6131e1565b005b34801561050357600080fd5b5061051e60048036038101906105199190614c1a565b613d24565b6040516105349a99989796959493929190614de1565b60405180910390f35b34801561054957600080fd5b50610564600480360381019061055f9190614b70565b613e3a565b6040516105719190614bac565b60405180910390f35b34801561058657600080fd5b506105a1600480360381019061059c9190614c1a565b613f44565b6040516105ae9190614d27565b60405180910390f35b3480156105c357600080fd5b506105de60048036038101906105d99190614c1a565b613f64565b005b606060006105ed84613fea565b90508060070160008473ffffffffffffffffffffffffffffffffffffffff1673ffffffffffffffffffffffffffffffffffffffff16815260200190815260200160002060009054906101000a900460ff16610674576040517f43290f5b00000000000000000000000000000000000000000000000000000000815260040160405180910390fd5b8060090160008473ffffffffffffffffffffffffffffffffffffffff1673ffffffffffffffffffffffffffffffffffffffff168152602001908152602001600020805480602002602001604051908101604052809291908181526020016000905b828210156107c757838290600052602060002090600402016040518060a00160405290816000820160009054906101000a900473ffffffffffffffffffffffffffffffffffffffff1673ffffffffffffffffffffffffffffffffffffffff1673ffffffffffffffffffffffffffffffffffffffff1681526020016000820160149054906101000a900460ff166004811115610773576107726149c2565b5b6004811115610785576107846149c2565b5b815260200160018201548152602001600282015481526020016003820160009054906101000a900460ff161515151581525050815260200190600101906106d5565b5050505091505092915050565b600080820361080f576040517f97643b5200000000000000000000000000000000000000000000000000000000815260040160405180910390fd5b60006006600084815260200190815260200160002090508060040160009054906101000a900460ff1661087957826040517f8c209e560000000000000000000000000000000000000000000000000000000081526004016108709190614bac565b60405180910390fd5b80600b0154915050919050565b600083036108c0576040517f97643b5200000000000000000000000000000000000000000000000000000000815260040160405180910390fd5b60006006600085815260200190815260200160002090508060040160009054906101000a900460ff1661092a57836040517f8c209e560000000000000000000000000000000000000000000000000000000081526004016109219190614bac565b60405180910390fd5b3373ffffffffffffffffffffffffffffffffffffffff168160010160009054906101000a900473ffffffffffffffffffffffffffffffffffffffff1673ffffffffffffffffffffffffffffffffffffffff16146109b3576040517f0f5e6bd800000000000000000000000000000000000000000000000000000000815260040160405180910390fd5b6109bd8383614098565b80600c0160009054906101000a900460ff1615610a06576040517f4a3ce08200000000000000000000000000000000000000000000000000000000815260040160405180910390fd5b8281600a01819055508181600b01819055504281600301819055503373ffffffffffffffffffffffffffffffffffffffff167fb84522da2d2039e8f4a7a0993eea2cf0dd5c31c0d7265951c4c4e7985dcda7be8484604051610a699291906152c9565b60405180910390a250505050565b6060600360008373ffffffffffffffffffffffffffffffffffffffff1673ffffffffffffffffffffffffffffffffffffffff16815260200190815260200160002060040160009054906101000a900460ff16610aff576040517fa118a90600000000000000000000000000000000000000000000000000000000815260040160405180910390fd5b600360008373ffffffffffffffffffffffffffffffffffffffff1673ffffffffffffffffffffffffffffffffffffffff168152602001908152602001600020600801805480602002602001604051908101604052809291908181526020018280548015610bc157602002820191906000526020600020905b8160009054906101000a900473ffffffffffffffffffffffffffffffffffffffff1673ffffffffffffffffffffffffffffffffffffffff1681526020019060010190808311610b77575b50505050509050919050565b6000808203610c08576040517f97643b5200000000000000000000000000000000000000000000000000000000815260040160405180910390fd5b60006006600084815260200190815260200160002090508060040160009054906101000a900460ff16610c7257826040517f8c209e56000000000000000000000000000000000000000000000000000000008152600401610c699190614bac565b60405180910390fd5b80600c0160009054906101000a900460ff16610c92576000915050610cac565b80600a015481600d0154610ca69190615321565b42119150505b919050565b60066020528060005260406000206000915090508060000154908060010160009054906101000a900473ffffffffffffffffffffffffffffffffffffffff1690806002018054610d0090615384565b80601f0160208091040260200160405190810160405280929190818152602001828054610d2c90615384565b8015610d795780601f10610d4e57610100808354040283529160200191610d79565b820191906000526020600020905b815481529060010190602001808311610d5c57829003601f168201915b5050505050908060030154908060040160009054906101000a900460ff169080600601549080600a01549080600b01549080600c0160009054906101000a900460ff169080600d015490508a565b600460003373ffffffffffffffffffffffffffffffffffffffff1673ffffffffffffffffffffffffffffffffffffffff16815260200190815260200160002060009054906101000a900460ff16610e4a576040517f9b6ceb4800000000000000000000000000000000000000000000000000000000815260040160405180910390fd5b6000600360008373ffffffffffffffffffffffffffffffffffffffff1673ffffffffffffffffffffffffffffffffffffffff16815260200190815260200160002090508060040160009054906101000a900460ff16610ed5576040517f40fcc2f600000000000000000000000000000000000000000000000000000000815260040160405180910390fd5b80600c0160009054906101000a900460ff1615610f1e576040517f4a3ce08200000000000000000000000000000000000000000000000000000000815260040160405180910390fd5b80600b0154816003015442610f3391906153b5565b1115610fb457600181600c0160006101000a81548160ff0219169083151502179055504281600d01819055508173ffffffffffffffffffffffffffffffffffffffff167f674b29eac3f8db4186c76e9429fa4d70125d68fed7b9a0d862732a7d2fcf4e364283600a0154604051610fab9291906152c9565b60405180910390a25b5050565b60076020528160005260406000208181548110610fd457600080fd5b90600052602060002001600091509150505481565b6000808203611024576040517f97643b5200000000000000000000000000000000000000000000000000000000815260040160405180910390fd5b60006006600084815260200190815260200160002090508060040160009054906101000a900460ff1661108e57826040517f8c209e560000000000000000000000000000000000000000000000000000000081526004016110859190614bac565b60405180910390fd5b80600c0160009054906101000a900460ff1615806110b157506110b083610bcd565b5b156110c05760009150506110f8565b600081600a015482600d01546110d69190615321565b90504281116110e65760006110f3565b42816110f291906153b5565b5b925050505b919050565b6111056141a2565b80600460008473ffffffffffffffffffffffffffffffffffffffff1673ffffffffffffffffffffffffffffffffffffffff16815260200190815260200160002060006101000a81548160ff0219169083151502179055505050565b600360003373ffffffffffffffffffffffffffffffffffffffff1673ffffffffffffffffffffffffffffffffffffffff16815260200190815260200160002060040160009054906101000a900460ff16158061124a57503373ffffffffffffffffffffffffffffffffffffffff16600360003373ffffffffffffffffffffffffffffffffffffffff1673ffffffffffffffffffffffffffffffffffffffff16815260200190815260200160002060010160009054906101000a900473ffffffffffffffffffffffffffffffffffffffff1673ffffffffffffffffffffffffffffffffffffffff1614155b15611281576040517f0f5e6bd800000000000000000000000000000000000000000000000000000000815260040160405180910390fd5b600360003373ffffffffffffffffffffffffffffffffffffffff1673ffffffffffffffffffffffffffffffffffffffff16815260200190815260200160002060070160008273ffffffffffffffffffffffffffffffffffffffff1673ffffffffffffffffffffffffffffffffffffffff16815260200190815260200160002060009054906101000a900460ff16611344576040517f9ac30a7300000000000000000000000000000000000000000000000000000000815260040160405180910390fd5b6000600360003373ffffffffffffffffffffffffffffffffffffffff1673ffffffffffffffffffffffffffffffffffffffff168152602001908152602001600020905060008160070160008473ffffffffffffffffffffffffffffffffffffffff1673ffffffffffffffffffffffffffffffffffffffff16815260200190815260200160002060006101000a81548160ff02191690831515021790555060005b8160080180549050811015611573578273ffffffffffffffffffffffffffffffffffffffff168260080182815481106114205761141f6153e9565b5b9060005260206000200160009054906101000a900473ffffffffffffffffffffffffffffffffffffffff1673ffffffffffffffffffffffffffffffffffffffff160361156657816008016001836008018054905061147e91906153b5565b8154811061148f5761148e6153e9565b5b9060005260206000200160009054906101000a900473ffffffffffffffffffffffffffffffffffffffff168260080182815481106114d0576114cf6153e9565b5b9060005260206000200160006101000a81548173ffffffffffffffffffffffffffffffffffffffff021916908373ffffffffffffffffffffffffffffffffffffffff1602179055508160080180548061152c5761152b615418565b5b6001900381819060005260206000200160006101000a81549073ffffffffffffffffffffffffffffffffffffffff02191690559055611573565b80806001019150506113e4565b506000600560008473ffffffffffffffffffffffffffffffffffffffff1673ffffffffffffffffffffffffffffffffffffffff168152602001908152602001600020905060005b8180549050811015611737573373ffffffffffffffffffffffffffffffffffffffff168282815481106115f0576115ef6153e9565b5b9060005260206000200160009054906101000a900473ffffffffffffffffffffffffffffffffffffffff1673ffffffffffffffffffffffffffffffffffffffff160361172a57816001838054905061164891906153b5565b81548110611659576116586153e9565b5b9060005260206000200160009054906101000a900473ffffffffffffffffffffffffffffffffffffffff16828281548110611697576116966153e9565b5b9060005260206000200160006101000a81548173ffffffffffffffffffffffffffffffffffffffff021916908373ffffffffffffffffffffffffffffffffffffffff160217905550818054806116f0576116ef615418565b5b6001900381819060005260206000200160006101000a81549073ffffffffffffffffffffffffffffffffffffffff02191690559055611737565b80806001019150506115ba565b508160090160008473ffffffffffffffffffffffffffffffffffffffff1673ffffffffffffffffffffffffffffffffffffffff16815260200190815260200160002060006117859190614805565b8273ffffffffffffffffffffffffffffffffffffffff163373ffffffffffffffffffffffffffffffffffffffff167f1a6590bd0cabbfcc7c86bef99e1034054e179905cfcc294598fcd426c092244260405160405180910390a3505050565b6117ec614229565b6000848490501480156117ff5750600034145b15611836576040517f7658e18e00000000000000000000000000000000000000000000000000000000815260040160405180910390fd5b6118408282614098565b60006002600081548092919061185590615447565b9190505590506000600660008381526020019081526020016000209050818160000181905550338160010160006101000a81548173ffffffffffffffffffffffffffffffffffffffff021916908373ffffffffffffffffffffffffffffffffffffffff160217905550868160020190816118cf919061563b565b508381600a01819055508281600b018190555042816003018190555060018160040160006101000a81548160ff021916908315150217905550600760003373ffffffffffffffffffffffffffffffffffffffff1673ffffffffffffffffffffffffffffffffffffffff1681526020019081526020016000208290806001815401808255809150506001900390600052602060002001600090919091909150556000341115611adf5734816006018190555060005b86866000818110611997576119966153e9565b5b90506020028101906119a9919061571c565b80608001906119b89190615744565b9050811015611add576000878760008181106119d7576119d66153e9565b5b90506020028101906119e9919061571c565b80608001906119f89190615744565b83818110611a0957611a086153e9565b5b9050602002016020810190611a1e9190614c1a565b90508260070160008273ffffffffffffffffffffffffffffffffffffffff1673ffffffffffffffffffffffffffffffffffffffff16815260200190815260200160002060009054906101000a900460ff16611a7e57611a7d818561426f565b5b611acf838260008060008d8d6000818110611a9c57611a9b6153e9565b5b9050602002810190611aae919061571c565b8060800190611abd9190615744565b905034611aca91906157d6565b6145b9565b508080600101915050611983565b505b60005b86869050811015612552576000878783818110611b0257611b016153e9565b5b9050602002810190611b14919061571c565b6020016020810190611b26919061582c565b9050600480811115611b3b57611b3a6149c2565b5b816004811115611b4e57611b4d6149c2565b5b03611b85576040517fa1e9dd9d00000000000000000000000000000000000000000000000000000000815260040160405180910390fd5b60016004811115611b9957611b986149c2565b5b816004811115611bac57611bab6149c2565b5b03611d0c5760005b888884818110611bc757611bc66153e9565b5b9050602002810190611bd9919061571c565b8060800190611be89190615744565b9050811015611d06576000898985818110611c0657611c056153e9565b5b9050602002810190611c18919061571c565b8060600190611c279190615859565b83818110611c3857611c376153e9565b5b905060200201359050898985818110611c5457611c536153e9565b5b9050602002810190611c66919061571c565b6000016020810190611c789190614c1a565b73ffffffffffffffffffffffffffffffffffffffff166323b872dd3330846040518463ffffffff1660e01b8152600401611cb4939291906158bc565b6020604051808303816000875af1158015611cd3573d6000803e3d6000fd5b505050506040513d601f19601f82011682018060405250810190611cf79190615908565b50508080600101915050611bb4565b50612047565b60026004811115611d2057611d1f6149c2565b5b816004811115611d3357611d326149c2565b5b03611e815760005b888884818110611d4e57611d4d6153e9565b5b9050602002810190611d60919061571c565b8060800190611d6f9190615744565b9050811015611e7b576000898985818110611d8d57611d8c6153e9565b5b9050602002810190611d9f919061571c565b8060400190611dae9190615859565b83818110611dbf57611dbe6153e9565b5b905060200201359050898985818110611ddb57611dda6153e9565b5b9050602002810190611ded919061571c565b6000016020810190611dff9190614c1a565b73ffffffffffffffffffffffffffffffffffffffff166342842e0e3330846040518463ffffffff1660e01b8152600401611e3b939291906158bc565b600060405180830381600087803b158015611e5557600080fd5b505af1158015611e69573d6000803e3d6000fd5b50505050508080600101915050611d3b565b50612046565b60036004811115611e9557611e946149c2565b5b816004811115611ea857611ea76149c2565b5b036120455760005b888884818110611ec357611ec26153e9565b5b9050602002810190611ed5919061571c565b8060800190611ee49190615744565b9050811015612043576000898985818110611f0257611f016153e9565b5b9050602002810190611f14919061571c565b8060400190611f239190615859565b83818110611f3457611f336153e9565b5b90506020020135905060008a8a86818110611f5257611f516153e9565b5b9050602002810190611f64919061571c565b8060600190611f739190615859565b84818110611f8457611f836153e9565b5b9050602002013590508a8a86818110611fa057611f9f6153e9565b5b9050602002810190611fb2919061571c565b6000016020810190611fc49190614c1a565b73ffffffffffffffffffffffffffffffffffffffff1663f242432a333085856040518563ffffffff1660e01b8152600401612002949392919061596c565b600060405180830381600087803b15801561201c57600080fd5b505af1158015612030573d6000803e3d6000fd5b5050505050508080600101915050611eb0565b505b5b5b60005b88888481811061205d5761205c6153e9565b5b905060200281019061206f919061571c565b806080019061207e9190615744565b905081101561254357600089898581811061209c5761209b6153e9565b5b90506020028101906120ae919061571c565b80608001906120bd9190615744565b838181106120ce576120cd6153e9565b5b90506020020160208101906120e39190614c1a565b90508460070160008273ffffffffffffffffffffffffffffffffffffffff1673ffffffffffffffffffffffffffffffffffffffff16815260200190815260200160002060009054906101000a900460ff1661214357612142818761426f565b5b61230385828c8c8881811061215b5761215a6153e9565b5b905060200281019061216d919061571c565b600001602081019061217f9190614c1a565b8660026004811115612194576121936149c2565b5b8860048111156121a7576121a66149c2565b5b146121b3576000612200565b8e8e8a8181106121c6576121c56153e9565b5b90506020028101906121d8919061571c565b80604001906121e79190615859565b888181106121f8576121f76153e9565b5b905060200201355b60016004811115612214576122136149c2565b5b896004811115612227576122266149c2565b5b146122b157600360048111156122405761223f6149c2565b5b896004811115612253576122526149c2565b5b1461225f5760016122ac565b8f8f8b818110612272576122716153e9565b5b9050602002810190612284919061571c565b80606001906122939190615859565b898181106122a4576122a36153e9565b5b905060200201355b6122fe565b8f8f8b8181106122c4576122c36153e9565b5b90506020028101906122d6919061571c565b80606001906122e59190615859565b898181106122f6576122f56153e9565b5b905060200201355b6145b9565b8073ffffffffffffffffffffffffffffffffffffffff168a8a8681811061232d5761232c6153e9565b5b905060200281019061233f919061571c565b60000160208101906123519190614c1a565b73ffffffffffffffffffffffffffffffffffffffff163373ffffffffffffffffffffffffffffffffffffffff167fb44510937e7a7a5dd39439c63df574818db53dac575444d730f4cc88dda6d1c886600260048111156123b4576123b36149c2565b5b8860048111156123c7576123c66149c2565b5b146123d3576000612420565b8e8e8a8181106123e6576123e56153e9565b5b90506020028101906123f8919061571c565b80604001906124079190615859565b88818110612418576124176153e9565b5b905060200201355b60016004811115612434576124336149c2565b5b896004811115612447576124466149c2565b5b146124d157600360048111156124605761245f6149c2565b5b896004811115612473576124726149c2565b5b1461247f5760016124cc565b8f8f8b818110612492576124916153e9565b5b90506020028101906124a4919061571c565b80606001906124b39190615859565b898181106124c4576124c36153e9565b5b905060200201355b61251e565b8f8f8b8181106124e4576124e36153e9565b5b90506020028101906124f6919061571c565b80606001906125059190615859565b89818110612516576125156153e9565b5b905060200201355b60405161252d939291906159d3565b60405180910390a450808060010191505061204a565b50508080600101915050611ae2565b503373ffffffffffffffffffffffffffffffffffffffff167fdfe6dd715d896ca6c4a17441d3e7a45cb92ec36b4f4a8cdf60a7498ec1341b4f888360080160405161259e929190615af6565b60405180910390a23373ffffffffffffffffffffffffffffffffffffffff167fb84522da2d2039e8f4a7a0993eea2cf0dd5c31c0d7265951c4c4e7985dcda7be85856040516125ee9291906152c9565b60405180910390a25050612600614730565b5050505050565b6060600560008373ffffffffffffffffffffffffffffffffffffffff1673ffffffffffffffffffffffffffffffffffffffff1681526020019081526020016000208054806020026020016040519081016040528092919081815260200182805480156126c857602002820191906000526020600020905b8160009054906101000a900473ffffffffffffffffffffffffffffffffffffffff1673ffffffffffffffffffffffffffffffffffffffff168152602001906001019080831161267e575b50505050509050919050565b6126dc6141a2565b6126e66000614739565b565b6060600760008373ffffffffffffffffffffffffffffffffffffffff1673ffffffffffffffffffffffffffffffffffffffff16815260200190815260200160002080548060200260200160405190810160405280929190818152602001828054801561277357602002820191906000526020600020905b81548152602001906001019080831161275f575b50505050509050919050565b6005602052816000526040600020818154811061279b57600080fd5b906000526020600020016000915091509054906101000a900473ffffffffffffffffffffffffffffffffffffffff1681565b60008060009054906101000a900473ffffffffffffffffffffffffffffffffffffffff16905090565b6127fe614229565b60008103612838576040517f97643b5200000000000000000000000000000000000000000000000000000000815260040160405180910390fd5b60006006600083815260200190815260200160002090508060040160009054906101000a900460ff16612897576040517f40fcc2f600000000000000000000000000000000000000000000000000000000815260040160405180910390fd5b8060070160003373ffffffffffffffffffffffffffffffffffffffff1673ffffffffffffffffffffffffffffffffffffffff16815260200190815260200160002060009054906101000a900460ff1661291c576040517f43290f5b00000000000000000000000000000000000000000000000000000000815260040160405180910390fd5b80600c0160009054906101000a900460ff16612964576040517f083d2f9700000000000000000000000000000000000000000000000000000000815260040160405180910390fd5b61296d82610bcd565b6129a3576040517f2850e4fb00000000000000000000000000000000000000000000000000000000815260040160405180910390fd5b80600e0160003373ffffffffffffffffffffffffffffffffffffffff1673ffffffffffffffffffffffffffffffffffffffff16815260200190815260200160002060009054906101000a900460ff1615612a29576040517f646cf55800000000000000000000000000000000000000000000000000000000815260040160405180910390fd5b600181600e0160003373ffffffffffffffffffffffffffffffffffffffff1673ffffffffffffffffffffffffffffffffffffffff16815260200190815260200160002060006101000a81548160ff02191690831515021790555060008160090160003373ffffffffffffffffffffffffffffffffffffffff1673ffffffffffffffffffffffffffffffffffffffff168152602001908152602001600020905060005b818054905081101561315557818181548110612aea57612ae96153e9565b5b906000526020600020906004020160030160009054906101000a900460ff166131485760006004811115612b2157612b206149c2565b5b828281548110612b3457612b336153e9565b5b906000526020600020906004020160000160149054906101000a900460ff166004811115612b6557612b646149c2565b5b03612c375760003373ffffffffffffffffffffffffffffffffffffffff16838381548110612b9657612b956153e9565b5b906000526020600020906004020160020154604051612bb490615b5b565b60006040518083038185875af1925050503d8060008114612bf1576040519150601f19603f3d011682016040523d82523d6000602084013e612bf6565b606091505b5050905080612c31576040517f6747a28800000000000000000000000000000000000000000000000000000000815260040160405180910390fd5b50613017565b60016004811115612c4b57612c4a6149c2565b5b828281548110612c5e57612c5d6153e9565b5b906000526020600020906004020160000160149054906101000a900460ff166004811115612c8f57612c8e6149c2565b5b03612d8057818181548110612ca757612ca66153e9565b5b906000526020600020906004020160000160009054906101000a900473ffffffffffffffffffffffffffffffffffffffff1673ffffffffffffffffffffffffffffffffffffffff1663a9059cbb33848481548110612d0857612d076153e9565b5b9060005260206000209060040201600201546040518363ffffffff1660e01b8152600401612d37929190615b70565b6020604051808303816000875af1158015612d56573d6000803e3d6000fd5b505050506040513d601f19601f82011682018060405250810190612d7a9190615908565b50613016565b60026004811115612d9457612d936149c2565b5b828281548110612da757612da66153e9565b5b906000526020600020906004020160000160149054906101000a900460ff166004811115612dd857612dd76149c2565b5b03612eb957818181548110612df057612def6153e9565b5b906000526020600020906004020160000160009054906101000a900473ffffffffffffffffffffffffffffffffffffffff1673ffffffffffffffffffffffffffffffffffffffff166342842e0e3033858581548110612e5257612e516153e9565b5b9060005260206000209060040201600101546040518463ffffffff1660e01b8152600401612e82939291906158bc565b600060405180830381600087803b158015612e9c57600080fd5b505af1158015612eb0573d6000803e3d6000fd5b50505050613015565b60036004811115612ecd57612ecc6149c2565b5b828281548110612ee057612edf6153e9565b5b906000526020600020906004020160000160149054906101000a900460ff166004811115612f1157612f106149c2565b5b0361301457818181548110612f2957612f286153e9565b5b906000526020600020906004020160000160009054906101000a900473ffffffffffffffffffffffffffffffffffffffff1673ffffffffffffffffffffffffffffffffffffffff1663f242432a3033858581548110612f8b57612f8a6153e9565b5b906000526020600020906004020160010154868681548110612fb057612faf6153e9565b5b9060005260206000209060040201600201546040518563ffffffff1660e01b8152600401612fe1949392919061596c565b600060405180830381600087803b158015612ffb57600080fd5b505af115801561300f573d6000803e3d6000fd5b505050505b5b5b5b600182828154811061302c5761302b6153e9565b5b906000526020600020906004020160030160006101000a81548160ff021916908315150217905550818181548110613067576130666153e9565b5b906000526020600020906004020160000160009054906101000a900473ffffffffffffffffffffffffffffffffffffffff1673ffffffffffffffffffffffffffffffffffffffff163373ffffffffffffffffffffffffffffffffffffffff167f2af1ba4c94053430820e17e81238044baf8bab1d5d1975376ca5bad693068bef8484815481106130fa576130f96153e9565b5b90600052602060002090600402016001015485858154811061311f5761311e6153e9565b5b90600052602060002090600402016002015460405161313f9291906152c9565b60405180910390a35b8080600101915050612acb565b508160010160009054906101000a900473ffffffffffffffffffffffffffffffffffffffff1673ffffffffffffffffffffffffffffffffffffffff163373ffffffffffffffffffffffffffffffffffffffff167fb7acaf12118f88f42ce2f08bb6327569f1fb61bee1b471032f28ec5eaaf44b8560405160405180910390a350506131de614730565b50565b6131e9614229565b600073ffffffffffffffffffffffffffffffffffffffff168373ffffffffffffffffffffffffffffffffffffffff160361324f576040517fd343d98400000000000000000000000000000000000000000000000000000000815260040160405180910390fd5b6000828290501480156132625750600034145b15613299576040517f7658e18e00000000000000000000000000000000000000000000000000000000815260040160405180910390fd5b600084036132d3576040517f97643b5200000000000000000000000000000000000000000000000000000000815260040160405180910390fd5b60006006600086815260200190815260200160002090508060040160009054906101000a900460ff1661333d57846040517f8c209e560000000000000000000000000000000000000000000000000000000081526004016133349190614bac565b60405180910390fd5b3373ffffffffffffffffffffffffffffffffffffffff168160010160009054906101000a900473ffffffffffffffffffffffffffffffffffffffff1673ffffffffffffffffffffffffffffffffffffffff16146133c6576040517f0f5e6bd800000000000000000000000000000000000000000000000000000000815260040160405180910390fd5b8060070160008573ffffffffffffffffffffffffffffffffffffffff1673ffffffffffffffffffffffffffffffffffffffff16815260200190815260200160002060009054906101000a900460ff1661342457613423848661426f565b5b60003411156134a35761343d81856000806000346145b9565b8373ffffffffffffffffffffffffffffffffffffffff163373ffffffffffffffffffffffffffffffffffffffff167f04f2134111e67cf4c9531998396b8bd87df7fa84ac8d32991efe6be8082f277b3460405161349a9190614bac565b60405180910390a35b60005b83839050811015613d0b5760008484838181106134c6576134c56153e9565b5b90506020028101906134d8919061571c565b60200160208101906134ea919061582c565b90506004808111156134ff576134fe6149c2565b5b816004811115613512576135116149c2565b5b03613549576040517fa1e9dd9d00000000000000000000000000000000000000000000000000000000815260040160405180910390fd5b6001600481111561355d5761355c6149c2565b5b8160048111156135705761356f6149c2565b5b036137cc5760005b85858481811061358b5761358a6153e9565b5b905060200281019061359d919061571c565b80606001906135ac9190615859565b90508110156137c65760008686858181106135ca576135c96153e9565b5b90506020028101906135dc919061571c565b80606001906135eb9190615859565b838181106135fc576135fb6153e9565b5b905060200201359050868685818110613618576136176153e9565b5b905060200281019061362a919061571c565b600001602081019061363c9190614c1a565b73ffffffffffffffffffffffffffffffffffffffff166323b872dd3330846040518463ffffffff1660e01b8152600401613678939291906158bc565b6020604051808303816000875af1158015613697573d6000803e3d6000fd5b505050506040513d601f19601f820116820180604052508101906136bb9190615908565b5061370185898989888181106136d4576136d36153e9565b5b90506020028101906136e6919061571c565b60000160208101906136f89190614c1a565b866000866145b9565b8773ffffffffffffffffffffffffffffffffffffffff1687878681811061372b5761372a6153e9565b5b905060200281019061373d919061571c565b600001602081019061374f9190614c1a565b73ffffffffffffffffffffffffffffffffffffffff163373ffffffffffffffffffffffffffffffffffffffff167fb44510937e7a7a5dd39439c63df574818db53dac575444d730f4cc88dda6d1c8866000866040516137b093929190615bd4565b60405180910390a4508080600101915050613578565b50613cfd565b600260048111156137e0576137df6149c2565b5b8160048111156137f3576137f26149c2565b5b03613a3d5760005b85858481811061380e5761380d6153e9565b5b9050602002810190613820919061571c565b806040019061382f9190615859565b9050811015613a3757600086868581811061384d5761384c6153e9565b5b905060200281019061385f919061571c565b806040019061386e9190615859565b8381811061387f5761387e6153e9565b5b90506020020135905086868581811061389b5761389a6153e9565b5b90506020028101906138ad919061571c565b60000160208101906138bf9190614c1a565b73ffffffffffffffffffffffffffffffffffffffff166342842e0e3330846040518463ffffffff1660e01b81526004016138fb939291906158bc565b600060405180830381600087803b15801561391557600080fd5b505af1158015613929573d6000803e3d6000fd5b505050506139728589898988818110613945576139446153e9565b5b9050602002810190613957919061571c565b60000160208101906139699190614c1a565b868560016145b9565b8773ffffffffffffffffffffffffffffffffffffffff1687878681811061399c5761399b6153e9565b5b90506020028101906139ae919061571c565b60000160208101906139c09190614c1a565b73ffffffffffffffffffffffffffffffffffffffff163373ffffffffffffffffffffffffffffffffffffffff167fb44510937e7a7a5dd39439c63df574818db53dac575444d730f4cc88dda6d1c886856001604051613a2193929190615c46565b60405180910390a45080806001019150506137fb565b50613cfc565b60036004811115613a5157613a506149c2565b5b816004811115613a6457613a636149c2565b5b03613cfb5760005b858584818110613a7f57613a7e6153e9565b5b9050602002810190613a91919061571c565b8060400190613aa09190615859565b9050811015613cf9576000868685818110613abe57613abd6153e9565b5b9050602002810190613ad0919061571c565b8060400190613adf9190615859565b83818110613af057613aef6153e9565b5b9050602002013590506000878786818110613b0e57613b0d6153e9565b5b9050602002810190613b20919061571c565b8060600190613b2f9190615859565b84818110613b4057613b3f6153e9565b5b905060200201359050878786818110613b5c57613b5b6153e9565b5b9050602002810190613b6e919061571c565b6000016020810190613b809190614c1a565b73ffffffffffffffffffffffffffffffffffffffff1663f242432a333085856040518563ffffffff1660e01b8152600401613bbe949392919061596c565b600060405180830381600087803b158015613bd857600080fd5b505af1158015613bec573d6000803e3d6000fd5b50505050613c34868a8a8a89818110613c0857613c076153e9565b5b9050602002810190613c1a919061571c565b6000016020810190613c2c9190614c1a565b8786866145b9565b8873ffffffffffffffffffffffffffffffffffffffff16888887818110613c5e57613c5d6153e9565b5b9050602002810190613c70919061571c565b6000016020810190613c829190614c1a565b73ffffffffffffffffffffffffffffffffffffffff163373ffffffffffffffffffffffffffffffffffffffff167fb44510937e7a7a5dd39439c63df574818db53dac575444d730f4cc88dda6d1c8878686604051613ce2939291906159d3565b60405180910390a450508080600101915050613a6c565b505b5b5b5080806001019150506134a6565b5042816003018190555050613d1e614730565b50505050565b60036020528060005260406000206000915090508060000154908060010160009054906101000a900473ffffffffffffffffffffffffffffffffffffffff1690806002018054613d7390615384565b80601f0160208091040260200160405190810160405280929190818152602001828054613d9f90615384565b8015613dec5780601f10613dc157610100808354040283529160200191613dec565b820191906000526020600020905b815481529060010190602001808311613dcf57829003601f168201915b5050505050908060030154908060040160009054906101000a900460ff169080600601549080600a01549080600b01549080600c0160009054906101000a900460ff169080600d015490508a565b6000808203613e75576040517f97643b5200000000000000000000000000000000000000000000000000000000815260040160405180910390fd5b60006006600084815260200190815260200160002090508060040160009054906101000a900460ff16613edf57826040517f8c209e56000000000000000000000000000000000000000000000000000000008152600401613ed69190614bac565b60405180910390fd5b80600c0160009054906101000a900460ff1615613f00576000915050613f3f565b6000816003015442613f1291906153b5565b905081600b01548110613f2a57600092505050613f3f565b8082600b0154613f3a91906153b5565b925050505b919050565b60046020528060005260406000206000915054906101000a900460ff1681565b613f6c6141a2565b600073ffffffffffffffffffffffffffffffffffffffff168173ffffffffffffffffffffffffffffffffffffffff1603613fde5760006040517f1e4fbdf7000000000000000000000000000000000000000000000000000000008152600401613fd5919061523a565b60405180910390fd5b613fe781614739565b50565b6000808203614025576040517f97643b5200000000000000000000000000000000000000000000000000000000815260040160405180910390fd5b60006006600084815260200190815260200160002090508060040160009054906101000a900460ff1661408f57826040517f8c209e560000000000000000000000000000000000000000000000000000000081526004016140869190614bac565b60405180910390fd5b80915050919050565b620151808210806140ab575062278d0082115b156140f757816201518062278d006040517f79ab45030000000000000000000000000000000000000000000000000000000081526004016140ee93929190615c7d565b60405180910390fd5b62278d0081108061410b57506301e1338081115b15614158578062278d006301e133806040517fc4e86f2900000000000000000000000000000000000000000000000000000000815260040161414f93929190615c7d565b60405180910390fd5b81811161419e5780826040517f2e85a8fc0000000000000000000000000000000000000000000000000000000081526004016141959291906152c9565b60405180910390fd5b5050565b6141aa6147fd565b73ffffffffffffffffffffffffffffffffffffffff166141c86127cd565b73ffffffffffffffffffffffffffffffffffffffff1614614227576141eb6147fd565b6040517f118cdaa700000000000000000000000000000000000000000000000000000000815260040161421e919061523a565b60405180910390fd5b565b600260015403614265576040517f3ee5aeb500000000000000000000000000000000000000000000000000000000815260040160405180910390fd5b6002600181905550565b600073ffffffffffffffffffffffffffffffffffffffff168273ffffffffffffffffffffffffffffffffffffffff16036142d5576040517fd343d98400000000000000000000000000000000000000000000000000000000815260040160405180910390fd5b60006006600083815260200190815260200160002090508060070160008473ffffffffffffffffffffffffffffffffffffffff1673ffffffffffffffffffffffffffffffffffffffff16815260200190815260200160002060009054906101000a900460ff1615614372576040517f5e6379d700000000000000000000000000000000000000000000000000000000815260040160405180910390fd5b3373ffffffffffffffffffffffffffffffffffffffff168160010160009054906101000a900473ffffffffffffffffffffffffffffffffffffffff1673ffffffffffffffffffffffffffffffffffffffff16146143fb576040517f0f5e6bd800000000000000000000000000000000000000000000000000000000815260040160405180910390fd5b60018160070160008573ffffffffffffffffffffffffffffffffffffffff1673ffffffffffffffffffffffffffffffffffffffff16815260200190815260200160002060006101000a81548160ff02191690831515021790555080600801839080600181540180825580915050600190039060005260206000200160009091909190916101000a81548173ffffffffffffffffffffffffffffffffffffffff021916908373ffffffffffffffffffffffffffffffffffffffff160217905550600560008473ffffffffffffffffffffffffffffffffffffffff1673ffffffffffffffffffffffffffffffffffffffff168152602001908152602001600020339080600181540180825580915050600190039060005260206000200160009091909190916101000a81548173ffffffffffffffffffffffffffffffffffffffff021916908373ffffffffffffffffffffffffffffffffffffffff1602179055508273ffffffffffffffffffffffffffffffffffffffff163373ffffffffffffffffffffffffffffffffffffffff167fbb39c36a7502b7256e1a687254146a9a2ea7b146c77cb9e40eb0e2b8793781e160405160405180910390a3505050565b60006040518060a001604052808673ffffffffffffffffffffffffffffffffffffffff1681526020018560048111156145f5576145f46149c2565b5b81526020018481526020018381526020016000151581525090508660090160008773ffffffffffffffffffffffffffffffffffffffff1673ffffffffffffffffffffffffffffffffffffffff16815260200190815260200160002081908060018154018082558091505060019003906000526020600020906004020160009091909190915060008201518160000160006101000a81548173ffffffffffffffffffffffffffffffffffffffff021916908373ffffffffffffffffffffffffffffffffffffffff16021790555060208201518160000160146101000a81548160ff021916908360048111156146ec576146eb6149c2565b5b0217905550604082015181600101556060820151816002015560808201518160030160006101000a81548160ff021916908315150217905550505050505050505050565b60018081905550565b60008060009054906101000a900473ffffffffffffffffffffffffffffffffffffffff169050816000806101000a81548173ffffffffffffffffffffffffffffffffffffffff021916908373ffffffffffffffffffffffffffffffffffffffff1602179055508173ffffffffffffffffffffffffffffffffffffffff168173ffffffffffffffffffffffffffffffffffffffff167f8be0079c531659141344cd1fd0a4f28419497f9722a3daafe3b4186f6b6457e060405160405180910390a35050565b600033905090565b50805460008255600402906000526020600020908101906148269190614829565b50565b5b8082111561489b57600080820160006101000a81549073ffffffffffffffffffffffffffffffffffffffff02191690556000820160146101000a81549060ff0219169055600182016000905560028201600090556003820160006101000a81549060ff02191690555060040161482a565b5090565b6000604051905090565b600080fd5b600080fd5b6000819050919050565b6148c6816148b3565b81146148d157600080fd5b50565b6000813590506148e3816148bd565b92915050565b600073ffffffffffffffffffffffffffffffffffffffff82169050919050565b6000614914826148e9565b9050919050565b61492481614909565b811461492f57600080fd5b50565b6000813590506149418161491b565b92915050565b6000806040838503121561495e5761495d6148a9565b5b600061496c858286016148d4565b925050602061497d85828601614932565b9150509250929050565b600081519050919050565b600082825260208201905092915050565b6000819050602082019050919050565b6149bc81614909565b82525050565b7f4e487b7100000000000000000000000000000000000000000000000000000000600052602160045260246000fd5b60058110614a0257614a016149c2565b5b50565b6000819050614a13826149f1565b919050565b6000614a2382614a05565b9050919050565b614a3381614a18565b82525050565b614a42816148b3565b82525050565b60008115159050919050565b614a5d81614a48565b82525050565b60a082016000820151614a7960008501826149b3565b506020820151614a8c6020850182614a2a565b506040820151614a9f6040850182614a39565b506060820151614ab26060850182614a39565b506080820151614ac56080850182614a54565b50505050565b6000614ad78383614a63565b60a08301905092915050565b6000602082019050919050565b6000614afb82614987565b614b058185614992565b9350614b10836149a3565b8060005b83811015614b41578151614b288882614acb565b9750614b3383614ae3565b925050600181019050614b14565b5085935050505092915050565b60006020820190508181036000830152614b688184614af0565b905092915050565b600060208284031215614b8657614b856148a9565b5b6000614b94848285016148d4565b91505092915050565b614ba6816148b3565b82525050565b6000602082019050614bc16000830184614b9d565b92915050565b600080600060608486031215614be057614bdf6148a9565b5b6000614bee868287016148d4565b9350506020614bff868287016148d4565b9250506040614c10868287016148d4565b9150509250925092565b600060208284031215614c3057614c2f6148a9565b5b6000614c3e84828501614932565b91505092915050565b600081519050919050565b600082825260208201905092915050565b6000819050602082019050919050565b6000614c7f83836149b3565b60208301905092915050565b6000602082019050919050565b6000614ca382614c47565b614cad8185614c52565b9350614cb883614c63565b8060005b83811015614ce9578151614cd08882614c73565b9750614cdb83614c8b565b925050600181019050614cbc565b5085935050505092915050565b60006020820190508181036000830152614d108184614c98565b905092915050565b614d2181614a48565b82525050565b6000602082019050614d3c6000830184614d18565b92915050565b614d4b81614909565b82525050565b600081519050919050565b600082825260208201905092915050565b60005b83811015614d8b578082015181840152602081019050614d70565b60008484015250505050565b6000601f19601f8301169050919050565b6000614db382614d51565b614dbd8185614d5c565b9350614dcd818560208601614d6d565b614dd681614d97565b840191505092915050565b600061014082019050614df7600083018d614b9d565b614e04602083018c614d42565b8181036040830152614e16818b614da8565b9050614e25606083018a614b9d565b614e326080830189614d18565b614e3f60a0830188614b9d565b614e4c60c0830187614b9d565b614e5960e0830186614b9d565b614e67610100830185614d18565b614e75610120830184614b9d565b9b9a5050505050505050505050565b60008060408385031215614e9b57614e9a6148a9565b5b6000614ea985828601614932565b9250506020614eba858286016148d4565b9150509250929050565b614ecd81614a48565b8114614ed857600080fd5b50565b600081359050614eea81614ec4565b92915050565b60008060408385031215614f0757614f066148a9565b5b6000614f1585828601614932565b9250506020614f2685828601614edb565b9150509250929050565b600080fd5b600080fd5b7f4e487b7100000000000000000000000000000000000000000000000000000000600052604160045260246000fd5b614f7282614d97565b810181811067ffffffffffffffff82111715614f9157614f90614f3a565b5b80604052505050565b6000614fa461489f565b9050614fb08282614f69565b919050565b600067ffffffffffffffff821115614fd057614fcf614f3a565b5b614fd982614d97565b9050602081019050919050565b82818337600083830152505050565b600061500861500384614fb5565b614f9a565b90508281526020810184848401111561502457615023614f35565b5b61502f848285614fe6565b509392505050565b600082601f83011261504c5761504b614f30565b5b813561505c848260208601614ff5565b91505092915050565b600080fd5b600080fd5b60008083601f84011261508557615084614f30565b5b8235905067ffffffffffffffff8111156150a2576150a1615065565b5b6020830191508360208202830111156150be576150bd61506a565b5b9250929050565b6000806000806000608086880312156150e1576150e06148a9565b5b600086013567ffffffffffffffff8111156150ff576150fe6148ae565b5b61510b88828901615037565b955050602086013567ffffffffffffffff81111561512c5761512b6148ae565b5b6151388882890161506f565b9450945050604061514b888289016148d4565b925050606061515c888289016148d4565b9150509295509295909350565b600081519050919050565b600082825260208201905092915050565b6000819050602082019050919050565b60006151a18383614a39565b60208301905092915050565b6000602082019050919050565b60006151c582615169565b6151cf8185615174565b93506151da83615185565b8060005b8381101561520b5781516151f28882615195565b97506151fd836151ad565b9250506001810190506151de565b5085935050505092915050565b6000602082019050818103600083015261523281846151ba565b905092915050565b600060208201905061524f6000830184614d42565b92915050565b6000806000806060858703121561526f5761526e6148a9565b5b600061527d878288016148d4565b945050602061528e87828801614932565b935050604085013567ffffffffffffffff8111156152af576152ae6148ae565b5b6152bb8782880161506f565b925092505092959194509250565b60006040820190506152de6000830185614b9d565b6152eb6020830184614b9d565b9392505050565b7f4e487b7100000000000000000000000000000000000000000000000000000000600052601160045260246000fd5b600061532c826148b3565b9150615337836148b3565b925082820190508082111561534f5761534e6152f2565b5b92915050565b7f4e487b7100000000000000000000000000000000000000000000000000000000600052602260045260246000fd5b6000600282049050600182168061539c57607f821691505b6020821081036153af576153ae615355565b5b50919050565b60006153c0826148b3565b91506153cb836148b3565b92508282039050818111156153e3576153e26152f2565b5b92915050565b7f4e487b7100000000000000000000000000000000000000000000000000000000600052603260045260246000fd5b7f4e487b7100000000000000000000000000000000000000000000000000000000600052603160045260246000fd5b6000615452826148b3565b91507fffffffffffffffffffffffffffffffffffffffffffffffffffffffffffffffff8203615484576154836152f2565b5b600182019050919050565b60008190508160005260206000209050919050565b60006020601f8301049050919050565b600082821b905092915050565b6000600883026154f17fffffffffffffffffffffffffffffffffffffffffffffffffffffffffffffffff826154b4565b6154fb86836154b4565b95508019841693508086168417925050509392505050565b6000819050919050565b600061553861553361552e846148b3565b615513565b6148b3565b9050919050565b6000819050919050565b6155528361551d565b61556661555e8261553f565b8484546154c1565b825550505050565b600090565b61557b61556e565b615586818484615549565b505050565b5b818110156155aa5761559f600082615573565b60018101905061558c565b5050565b601f8211156155ef576155c08161548f565b6155c9846154a4565b810160208510156155d8578190505b6155ec6155e4856154a4565b83018261558b565b50505b505050565b600082821c905092915050565b6000615612600019846008026155f4565b1980831691505092915050565b600061562b8383615601565b9150826002028217905092915050565b61564482614d51565b67ffffffffffffffff81111561565d5761565c614f3a565b5b6156678254615384565b6156728282856155ae565b600060209050601f8311600181146156a55760008415615693578287015190505b61569d858261561f565b865550615705565b601f1984166156b38661548f565b60005b828110156156db578489015182556001820191506020850194506020810190506156b6565b868310156156f857848901516156f4601f891682615601565b8355505b6001600288020188555050505b505050505050565b600080fd5b600080fd5b600080fd5b60008235600160a0038336030381126157385761573761570d565b5b80830191505092915050565b600080833560016020038436030381126157615761576061570d565b5b80840192508235915067ffffffffffffffff82111561578357615782615712565b5b60208301925060208202360383131561579f5761579e615717565b5b509250929050565b7f4e487b7100000000000000000000000000000000000000000000000000000000600052601260045260246000fd5b60006157e1826148b3565b91506157ec836148b3565b9250826157fc576157fb6157a7565b5b828204905092915050565b6005811061581457600080fd5b50565b60008135905061582681615807565b92915050565b600060208284031215615842576158416148a9565b5b600061585084828501615817565b91505092915050565b600080833560016020038436030381126158765761587561570d565b5b80840192508235915067ffffffffffffffff82111561589857615897615712565b5b6020830192506020820236038313156158b4576158b3615717565b5b509250929050565b60006060820190506158d16000830186614d42565b6158de6020830185614d42565b6158eb6040830184614b9d565b949350505050565b60008151905061590281614ec4565b92915050565b60006020828403121561591e5761591d6148a9565b5b600061592c848285016158f3565b91505092915050565b600082825260208201905092915050565b50565b6000615956600083615935565b915061596182615946565b600082019050919050565b600060a0820190506159816000830187614d42565b61598e6020830186614d42565b61599b6040830185614b9d565b6159a86060830184614b9d565b81810360808301526159b981615949565b905095945050505050565b6159cd81614a18565b82525050565b60006060820190506159e860008301866159c4565b6159f56020830185614b9d565b615a026040830184614b9d565b949350505050565b600081549050919050565b60008190508160005260206000209050919050565b60008160001c9050919050565b600073ffffffffffffffffffffffffffffffffffffffff82169050919050565b6000615a6a615a6583615a2a565b615a37565b9050919050565b6000615a7d8254615a57565b9050919050565b6000600182019050919050565b6000615a9c82615a0a565b615aa68185614c52565b9350615ab183615a15565b8060005b83811015615ae957615ac682615a71565b615ad08882614c73565b9750615adb83615a84565b925050600181019050615ab5565b5085935050505092915050565b60006040820190508181036000830152615b108185614da8565b90508181036020830152615b248184615a91565b90509392505050565b600081905092915050565b6000615b45600083615b2d565b9150615b5082615946565b600082019050919050565b6000615b6682615b38565b9150819050919050565b6000604082019050615b856000830185614d42565b615b926020830184614b9d565b9392505050565b6000819050919050565b6000615bbe615bb9615bb484615b99565b615513565b6148b3565b9050919050565b615bce81615ba3565b82525050565b6000606082019050615be960008301866159c4565b615bf66020830185615bc5565b615c036040830184614b9d565b949350505050565b6000819050919050565b6000615c30615c2b615c2684615c0b565b615513565b6148b3565b9050919050565b615c4081615c15565b82525050565b6000606082019050615c5b60008301866159c4565b615c686020830185614b9d565b615c756040830184615c37565b949350505050565b6000606082019050615c926000830186614b9d565b615c9f6020830185614b9d565b615cac6040830184614b9d565b94935050505056fea2646970667358221220881809f5063b5a40d82bb5a16bc1061be1111cc32e3f1150e4789e3c341a950964736f6c63430008180033",
          "opcodes": "PUSH1 0x80 PUSH1 0x40 MSTORE PUSH1 0x1 PUSH1 0x2 SSTORE CALLVALUE DUP1 ISZERO PUSH3 0x16 JUMPI PUSH1 0x0 DUP1 REVERT JUMPDEST POP CALLER PUSH1 0x0 PUSH20 0xFFFFFFFFFFFFFFFFFFFFFFFFFFFFFFFFFFFFFFFF AND DUP2 PUSH20 0xFFFFFFFFFFFFFFFFFFFFFFFFFFFFFFFFFFFFFFFF AND SUB PUSH3 0x8D JUMPI PUSH1 0x0 PUSH1 0x40 MLOAD PUSH32 0x1E4FBDF700000000000000000000000000000000000000000000000000000000 DUP2 MSTORE PUSH1 0x4 ADD PUSH3 0x84 SWAP2 SWAP1 PUSH3 0x1B5 JUMP JUMPDEST PUSH1 0x40 MLOAD DUP1 SWAP2 SUB SWAP1 REVERT JUMPDEST PUSH3 0x9E DUP2 PUSH3 0xAC PUSH1 0x20 SHL PUSH1 0x20 SHR JUMP JUMPDEST POP PUSH1 0x1 DUP1 DUP2 SWAP1 SSTORE POP PUSH3 0x1D2 JUMP JUMPDEST PUSH1 0x0 DUP1 PUSH1 0x0 SWAP1 SLOAD SWAP1 PUSH2 0x100 EXP SWAP1 DIV PUSH20 0xFFFFFFFFFFFFFFFFFFFFFFFFFFFFFFFFFFFFFFFF AND SWAP1 POP DUP2 PUSH1 0x0 DUP1 PUSH2 0x100 EXP DUP2 SLOAD DUP2 PUSH20 0xFFFFFFFFFFFFFFFFFFFFFFFFFFFFFFFFFFFFFFFF MUL NOT AND SWAP1 DUP4 PUSH20 0xFFFFFFFFFFFFFFFFFFFFFFFFFFFFFFFFFFFFFFFF AND MUL OR SWAP1 SSTORE POP DUP2 PUSH20 0xFFFFFFFFFFFFFFFFFFFFFFFFFFFFFFFFFFFFFFFF AND DUP2 PUSH20 0xFFFFFFFFFFFFFFFFFFFFFFFFFFFFFFFFFFFFFFFF AND PUSH32 0x8BE0079C531659141344CD1FD0A4F28419497F9722A3DAAFE3B4186F6B6457E0 PUSH1 0x40 MLOAD PUSH1 0x40 MLOAD DUP1 SWAP2 SUB SWAP1 LOG3 POP POP JUMP JUMPDEST PUSH1 0x0 PUSH20 0xFFFFFFFFFFFFFFFFFFFFFFFFFFFFFFFFFFFFFFFF DUP3 AND SWAP1 POP SWAP2 SWAP1 POP JUMP JUMPDEST PUSH1 0x0 PUSH3 0x19D DUP3 PUSH3 0x170 JUMP JUMPDEST SWAP1 POP SWAP2 SWAP1 POP JUMP JUMPDEST PUSH3 0x1AF DUP2 PUSH3 0x190 JUMP JUMPDEST DUP3 MSTORE POP POP JUMP JUMPDEST PUSH1 0x0 PUSH1 0x20 DUP3 ADD SWAP1 POP PUSH3 0x1CC PUSH1 0x0 DUP4 ADD DUP5 PUSH3 0x1A4 JUMP JUMPDEST SWAP3 SWAP2 POP POP JUMP JUMPDEST PUSH2 0x5CEA DUP1 PUSH3 0x1E2 PUSH1 0x0 CODECOPY PUSH1 0x0 RETURN INVALID PUSH1 0x80 PUSH1 0x40 MSTORE PUSH1 0x4 CALLDATASIZE LT PUSH2 0x140 JUMPI PUSH1 0x0 CALLDATALOAD PUSH1 0xE0 SHR DUP1 PUSH4 0x69F196BB GT PUSH2 0xB6 JUMPI DUP1 PUSH4 0x92CCB8FF GT PUSH2 0x6F JUMPI DUP1 PUSH4 0x92CCB8FF EQ PUSH2 0x4B2 JUMPI DUP1 PUSH4 0x9516E033 EQ PUSH2 0x4DB JUMPI DUP1 PUSH4 0xA4CB92FA EQ PUSH2 0x4F7 JUMPI DUP1 PUSH4 0xCFD35B8A EQ PUSH2 0x53D JUMPI DUP1 PUSH4 0xE712A35D EQ PUSH2 0x57A JUMPI DUP1 PUSH4 0xF2FDE38B EQ PUSH2 0x5B7 JUMPI PUSH2 0x140 JUMP JUMPDEST DUP1 PUSH4 0x69F196BB EQ PUSH2 0x39D JUMPI DUP1 PUSH4 0x6BD6CFD6 EQ PUSH2 0x3B9 JUMPI DUP1 PUSH4 0x715018A6 EQ PUSH2 0x3F6 JUMPI DUP1 PUSH4 0x7DE00A9D EQ PUSH2 0x40D JUMPI DUP1 PUSH4 0x888253E4 EQ PUSH2 0x44A JUMPI DUP1 PUSH4 0x8DA5CB5B EQ PUSH2 0x487 JUMPI PUSH2 0x140 JUMP JUMPDEST DUP1 PUSH4 0x1ED22BD7 GT PUSH2 0x108 JUMPI DUP1 PUSH4 0x1ED22BD7 EQ PUSH2 0x262 JUMPI DUP1 PUSH4 0x3D9C68FC EQ PUSH2 0x2A8 JUMPI DUP1 PUSH4 0x479B7676 EQ PUSH2 0x2D1 JUMPI DUP1 PUSH4 0x4A4D6714 EQ PUSH2 0x30E JUMPI DUP1 PUSH4 0x4FB37F3C EQ PUSH2 0x34B JUMPI DUP1 PUSH4 0x59633A1C EQ PUSH2 0x374 JUMPI PUSH2 0x140 JUMP JUMPDEST DUP1 PUSH4 0x14F93BF8 EQ PUSH2 0x145 JUMPI DUP1 PUSH4 0x18957836 EQ PUSH2 0x182 JUMPI DUP1 PUSH4 0x1A2CD78F EQ PUSH2 0x1BF JUMPI DUP1 PUSH4 0x1CAB59A4 EQ PUSH2 0x1E8 JUMPI DUP1 PUSH4 0x1CBA3AF9 EQ PUSH2 0x225 JUMPI JUMPDEST PUSH1 0x0 DUP1 REVERT JUMPDEST CALLVALUE DUP1 ISZERO PUSH2 0x151 JUMPI PUSH1 0x0 DUP1 REVERT JUMPDEST POP PUSH2 0x16C PUSH1 0x4 DUP1 CALLDATASIZE SUB DUP2 ADD SWAP1 PUSH2 0x167 SWAP2 SWAP1 PUSH2 0x4947 JUMP JUMPDEST PUSH2 0x5E0 JUMP JUMPDEST PUSH1 0x40 MLOAD PUSH2 0x179 SWAP2 SWAP1 PUSH2 0x4B4E JUMP JUMPDEST PUSH1 0x40 MLOAD DUP1 SWAP2 SUB SWAP1 RETURN JUMPDEST CALLVALUE DUP1 ISZERO PUSH2 0x18E JUMPI PUSH1 0x0 DUP1 REVERT JUMPDEST POP PUSH2 0x1A9 PUSH1 0x4 DUP1 CALLDATASIZE SUB DUP2 ADD SWAP1 PUSH2 0x1A4 SWAP2 SWAP1 PUSH2 0x4B70 JUMP JUMPDEST PUSH2 0x7D4 JUMP JUMPDEST PUSH1 0x40 MLOAD PUSH2 0x1B6 SWAP2 SWAP1 PUSH2 0x4BAC JUMP JUMPDEST PUSH1 0x40 MLOAD DUP1 SWAP2 SUB SWAP1 RETURN JUMPDEST CALLVALUE DUP1 ISZERO PUSH2 0x1CB JUMPI PUSH1 0x0 DUP1 REVERT JUMPDEST POP PUSH2 0x1E6 PUSH1 0x4 DUP1 CALLDATASIZE SUB DUP2 ADD SWAP1 PUSH2 0x1E1 SWAP2 SWAP1 PUSH2 0x4BC7 JUMP JUMPDEST PUSH2 0x886 JUMP JUMPDEST STOP JUMPDEST CALLVALUE DUP1 ISZERO PUSH2 0x1F4 JUMPI PUSH1 0x0 DUP1 REVERT JUMPDEST POP PUSH2 0x20F PUSH1 0x4 DUP1 CALLDATASIZE SUB DUP2 ADD SWAP1 PUSH2 0x20A SWAP2 SWAP1 PUSH2 0x4C1A JUMP JUMPDEST PUSH2 0xA77 JUMP JUMPDEST PUSH1 0x40 MLOAD PUSH2 0x21C SWAP2 SWAP1 PUSH2 0x4CF6 JUMP JUMPDEST PUSH1 0x40 MLOAD DUP1 SWAP2 SUB SWAP1 RETURN JUMPDEST CALLVALUE DUP1 ISZERO PUSH2 0x231 JUMPI PUSH1 0x0 DUP1 REVERT JUMPDEST POP PUSH2 0x24C PUSH1 0x4 DUP1 CALLDATASIZE SUB DUP2 ADD SWAP1 PUSH2 0x247 SWAP2 SWAP1 PUSH2 0x4B70 JUMP JUMPDEST PUSH2 0xBCD JUMP JUMPDEST PUSH1 0x40 MLOAD PUSH2 0x259 SWAP2 SWAP1 PUSH2 0x4D27 JUMP JUMPDEST PUSH1 0x40 MLOAD DUP1 SWAP2 SUB SWAP1 RETURN JUMPDEST CALLVALUE DUP1 ISZERO PUSH2 0x26E JUMPI PUSH1 0x0 DUP1 REVERT JUMPDEST POP PUSH2 0x289 PUSH1 0x4 DUP1 CALLDATASIZE SUB DUP2 ADD SWAP1 PUSH2 0x284 SWAP2 SWAP1 PUSH2 0x4B70 JUMP JUMPDEST PUSH2 0xCB1 JUMP JUMPDEST PUSH1 0x40 MLOAD PUSH2 0x29F SWAP11 SWAP10 SWAP9 SWAP8 SWAP7 SWAP6 SWAP5 SWAP4 SWAP3 SWAP2 SWAP1 PUSH2 0x4DE1 JUMP JUMPDEST PUSH1 0x40 MLOAD DUP1 SWAP2 SUB SWAP1 RETURN JUMPDEST CALLVALUE DUP1 ISZERO PUSH2 0x2B4 JUMPI PUSH1 0x0 DUP1 REVERT JUMPDEST POP PUSH2 0x2CF PUSH1 0x4 DUP1 CALLDATASIZE SUB DUP2 ADD SWAP1 PUSH2 0x2CA SWAP2 SWAP1 PUSH2 0x4C1A JUMP JUMPDEST PUSH2 0xDC7 JUMP JUMPDEST STOP JUMPDEST CALLVALUE DUP1 ISZERO PUSH2 0x2DD JUMPI PUSH1 0x0 DUP1 REVERT JUMPDEST POP PUSH2 0x2F8 PUSH1 0x4 DUP1 CALLDATASIZE SUB DUP2 ADD SWAP1 PUSH2 0x2F3 SWAP2 SWAP1 PUSH2 0x4E84 JUMP JUMPDEST PUSH2 0xFB8 JUMP JUMPDEST PUSH1 0x40 MLOAD PUSH2 0x305 SWAP2 SWAP1 PUSH2 0x4BAC JUMP JUMPDEST PUSH1 0x40 MLOAD DUP1 SWAP2 SUB SWAP1 RETURN JUMPDEST CALLVALUE DUP1 ISZERO PUSH2 0x31A JUMPI PUSH1 0x0 DUP1 REVERT JUMPDEST POP PUSH2 0x335 PUSH1 0x4 DUP1 CALLDATASIZE SUB DUP2 ADD SWAP1 PUSH2 0x330 SWAP2 SWAP1 PUSH2 0x4B70 JUMP JUMPDEST PUSH2 0xFE9 JUMP JUMPDEST PUSH1 0x40 MLOAD PUSH2 0x342 SWAP2 SWAP1 PUSH2 0x4BAC JUMP JUMPDEST PUSH1 0x40 MLOAD DUP1 SWAP2 SUB SWAP1 RETURN JUMPDEST CALLVALUE DUP1 ISZERO PUSH2 0x357 JUMPI PUSH1 0x0 DUP1 REVERT JUMPDEST POP PUSH2 0x372 PUSH1 0x4 DUP1 CALLDATASIZE SUB DUP2 ADD SWAP1 PUSH2 0x36D SWAP2 SWAP1 PUSH2 0x4EF0 JUMP JUMPDEST PUSH2 0x10FD JUMP JUMPDEST STOP JUMPDEST CALLVALUE DUP1 ISZERO PUSH2 0x380 JUMPI PUSH1 0x0 DUP1 REVERT JUMPDEST POP PUSH2 0x39B PUSH1 0x4 DUP1 CALLDATASIZE SUB DUP2 ADD SWAP1 PUSH2 0x396 SWAP2 SWAP1 PUSH2 0x4C1A JUMP JUMPDEST PUSH2 0x1160 JUMP JUMPDEST STOP JUMPDEST PUSH2 0x3B7 PUSH1 0x4 DUP1 CALLDATASIZE SUB DUP2 ADD SWAP1 PUSH2 0x3B2 SWAP2 SWAP1 PUSH2 0x50C5 JUMP JUMPDEST PUSH2 0x17E4 JUMP JUMPDEST STOP JUMPDEST CALLVALUE DUP1 ISZERO PUSH2 0x3C5 JUMPI PUSH1 0x0 DUP1 REVERT JUMPDEST POP PUSH2 0x3E0 PUSH1 0x4 DUP1 CALLDATASIZE SUB DUP2 ADD SWAP1 PUSH2 0x3DB SWAP2 SWAP1 PUSH2 0x4C1A JUMP JUMPDEST PUSH2 0x2607 JUMP JUMPDEST PUSH1 0x40 MLOAD PUSH2 0x3ED SWAP2 SWAP1 PUSH2 0x4CF6 JUMP JUMPDEST PUSH1 0x40 MLOAD DUP1 SWAP2 SUB SWAP1 RETURN JUMPDEST CALLVALUE DUP1 ISZERO PUSH2 0x402 JUMPI PUSH1 0x0 DUP1 REVERT JUMPDEST POP PUSH2 0x40B PUSH2 0x26D4 JUMP JUMPDEST STOP JUMPDEST CALLVALUE DUP1 ISZERO PUSH2 0x419 JUMPI PUSH1 0x0 DUP1 REVERT JUMPDEST POP PUSH2 0x434 PUSH1 0x4 DUP1 CALLDATASIZE SUB DUP2 ADD SWAP1 PUSH2 0x42F SWAP2 SWAP1 PUSH2 0x4C1A JUMP JUMPDEST PUSH2 0x26E8 JUMP JUMPDEST PUSH1 0x40 MLOAD PUSH2 0x441 SWAP2 SWAP1 PUSH2 0x5218 JUMP JUMPDEST PUSH1 0x40 MLOAD DUP1 SWAP2 SUB SWAP1 RETURN JUMPDEST CALLVALUE DUP1 ISZERO PUSH2 0x456 JUMPI PUSH1 0x0 DUP1 REVERT JUMPDEST POP PUSH2 0x471 PUSH1 0x4 DUP1 CALLDATASIZE SUB DUP2 ADD SWAP1 PUSH2 0x46C SWAP2 SWAP1 PUSH2 0x4E84 JUMP JUMPDEST PUSH2 0x277F JUMP JUMPDEST PUSH1 0x40 MLOAD PUSH2 0x47E SWAP2 SWAP1 PUSH2 0x523A JUMP JUMPDEST PUSH1 0x40 MLOAD DUP1 SWAP2 SUB SWAP1 RETURN JUMPDEST CALLVALUE DUP1 ISZERO PUSH2 0x493 JUMPI PUSH1 0x0 DUP1 REVERT JUMPDEST POP PUSH2 0x49C PUSH2 0x27CD JUMP JUMPDEST PUSH1 0x40 MLOAD PUSH2 0x4A9 SWAP2 SWAP1 PUSH2 0x523A JUMP JUMPDEST PUSH1 0x40 MLOAD DUP1 SWAP2 SUB SWAP1 RETURN JUMPDEST CALLVALUE DUP1 ISZERO PUSH2 0x4BE JUMPI PUSH1 0x0 DUP1 REVERT JUMPDEST POP PUSH2 0x4D9 PUSH1 0x4 DUP1 CALLDATASIZE SUB DUP2 ADD SWAP1 PUSH2 0x4D4 SWAP2 SWAP1 PUSH2 0x4B70 JUMP JUMPDEST PUSH2 0x27F6 JUMP JUMPDEST STOP JUMPDEST PUSH2 0x4F5 PUSH1 0x4 DUP1 CALLDATASIZE SUB DUP2 ADD SWAP1 PUSH2 0x4F0 SWAP2 SWAP1 PUSH2 0x5255 JUMP JUMPDEST PUSH2 0x31E1 JUMP JUMPDEST STOP JUMPDEST CALLVALUE DUP1 ISZERO PUSH2 0x503 JUMPI PUSH1 0x0 DUP1 REVERT JUMPDEST POP PUSH2 0x51E PUSH1 0x4 DUP1 CALLDATASIZE SUB DUP2 ADD SWAP1 PUSH2 0x519 SWAP2 SWAP1 PUSH2 0x4C1A JUMP JUMPDEST PUSH2 0x3D24 JUMP JUMPDEST PUSH1 0x40 MLOAD PUSH2 0x534 SWAP11 SWAP10 SWAP9 SWAP8 SWAP7 SWAP6 SWAP5 SWAP4 SWAP3 SWAP2 SWAP1 PUSH2 0x4DE1 JUMP JUMPDEST PUSH1 0x40 MLOAD DUP1 SWAP2 SUB SWAP1 RETURN JUMPDEST CALLVALUE DUP1 ISZERO PUSH2 0x549 JUMPI PUSH1 0x0 DUP1 REVERT JUMPDEST POP PUSH2 0x564 PUSH1 0x4 DUP1 CALLDATASIZE SUB DUP2 ADD SWAP1 PUSH2 0x55F SWAP2 SWAP1 PUSH2 0x4B70 JUMP JUMPDEST PUSH2 0x3E3A JUMP JUMPDEST PUSH1 0x40 MLOAD PUSH2 0x571 SWAP2 SWAP1 PUSH2 0x4BAC JUMP JUMPDEST PUSH1 0x40 MLOAD DUP1 SWAP2 SUB SWAP1 RETURN JUMPDEST CALLVALUE DUP1 ISZERO PUSH2 0x586 JUMPI PUSH1 0x0 DUP1 REVERT JUMPDEST POP PUSH2 0x5A1 PUSH1 0x4 DUP1 CALLDATASIZE SUB DUP2 ADD SWAP1 PUSH2 0x59C SWAP2 SWAP1 PUSH2 0x4C1A JUMP JUMPDEST PUSH2 0x3F44 JUMP JUMPDEST PUSH1 0x40 MLOAD PUSH2 0x5AE SWAP2 SWAP1 PUSH2 0x4D27 JUMP JUMPDEST PUSH1 0x40 MLOAD DUP1 SWAP2 SUB SWAP1 RETURN JUMPDEST CALLVALUE DUP1 ISZERO PUSH2 0x5C3 JUMPI PUSH1 0x0 DUP1 REVERT JUMPDEST POP PUSH2 0x5DE PUSH1 0x4 DUP1 CALLDATASIZE SUB DUP2 ADD SWAP1 PUSH2 0x5D9 SWAP2 SWAP1 PUSH2 0x4C1A JUMP JUMPDEST PUSH2 0x3F64 JUMP JUMPDEST STOP JUMPDEST PUSH1 0x60 PUSH1 0x0 PUSH2 0x5ED DUP5 PUSH2 0x3FEA JUMP JUMPDEST SWAP1 POP DUP1 PUSH1 0x7 ADD PUSH1 0x0 DUP5 PUSH20 0xFFFFFFFFFFFFFFFFFFFFFFFFFFFFFFFFFFFFFFFF AND PUSH20 0xFFFFFFFFFFFFFFFFFFFFFFFFFFFFFFFFFFFFFFFF AND DUP2 MSTORE PUSH1 0x20 ADD SWAP1 DUP2 MSTORE PUSH1 0x20 ADD PUSH1 0x0 KECCAK256 PUSH1 0x0 SWAP1 SLOAD SWAP1 PUSH2 0x100 EXP SWAP1 DIV PUSH1 0xFF AND PUSH2 0x674 JUMPI PUSH1 0x40 MLOAD PUSH32 0x43290F5B00000000000000000000000000000000000000000000000000000000 DUP2 MSTORE PUSH1 0x4 ADD PUSH1 0x40 MLOAD DUP1 SWAP2 SUB SWAP1 REVERT JUMPDEST DUP1 PUSH1 0x9 ADD PUSH1 0x0 DUP5 PUSH20 0xFFFFFFFFFFFFFFFFFFFFFFFFFFFFFFFFFFFFFFFF AND PUSH20 0xFFFFFFFFFFFFFFFFFFFFFFFFFFFFFFFFFFFFFFFF AND DUP2 MSTORE PUSH1 0x20 ADD SWAP1 DUP2 MSTORE PUSH1 0x20 ADD PUSH1 0x0 KECCAK256 DUP1 SLOAD DUP1 PUSH1 0x20 MUL PUSH1 0x20 ADD PUSH1 0x40 MLOAD SWAP1 DUP2 ADD PUSH1 0x40 MSTORE DUP1 SWAP3 SWAP2 SWAP1 DUP2 DUP2 MSTORE PUSH1 0x20 ADD PUSH1 0x0 SWAP1 JUMPDEST DUP3 DUP3 LT ISZERO PUSH2 0x7C7 JUMPI DUP4 DUP3 SWAP1 PUSH1 0x0 MSTORE PUSH1 0x20 PUSH1 0x0 KECCAK256 SWAP1 PUSH1 0x4 MUL ADD PUSH1 0x40 MLOAD DUP1 PUSH1 0xA0 ADD PUSH1 0x40 MSTORE SWAP1 DUP2 PUSH1 0x0 DUP3 ADD PUSH1 0x0 SWAP1 SLOAD SWAP1 PUSH2 0x100 EXP SWAP1 DIV PUSH20 0xFFFFFFFFFFFFFFFFFFFFFFFFFFFFFFFFFFFFFFFF AND PUSH20 0xFFFFFFFFFFFFFFFFFFFFFFFFFFFFFFFFFFFFFFFF AND PUSH20 0xFFFFFFFFFFFFFFFFFFFFFFFFFFFFFFFFFFFFFFFF AND DUP2 MSTORE PUSH1 0x20 ADD PUSH1 0x0 DUP3 ADD PUSH1 0x14 SWAP1 SLOAD SWAP1 PUSH2 0x100 EXP SWAP1 DIV PUSH1 0xFF AND PUSH1 0x4 DUP2 GT ISZERO PUSH2 0x773 JUMPI PUSH2 0x772 PUSH2 0x49C2 JUMP JUMPDEST JUMPDEST PUSH1 0x4 DUP2 GT ISZERO PUSH2 0x785 JUMPI PUSH2 0x784 PUSH2 0x49C2 JUMP JUMPDEST JUMPDEST DUP2 MSTORE PUSH1 0x20 ADD PUSH1 0x1 DUP3 ADD SLOAD DUP2 MSTORE PUSH1 0x20 ADD PUSH1 0x2 DUP3 ADD SLOAD DUP2 MSTORE PUSH1 0x20 ADD PUSH1 0x3 DUP3 ADD PUSH1 0x0 SWAP1 SLOAD SWAP1 PUSH2 0x100 EXP SWAP1 DIV PUSH1 0xFF AND ISZERO ISZERO ISZERO ISZERO DUP2 MSTORE POP POP DUP2 MSTORE PUSH1 0x20 ADD SWAP1 PUSH1 0x1 ADD SWAP1 PUSH2 0x6D5 JUMP JUMPDEST POP POP POP POP SWAP2 POP POP SWAP3 SWAP2 POP POP JUMP JUMPDEST PUSH1 0x0 DUP1 DUP3 SUB PUSH2 0x80F JUMPI PUSH1 0x40 MLOAD PUSH32 0x97643B5200000000000000000000000000000000000000000000000000000000 DUP2 MSTORE PUSH1 0x4 ADD PUSH1 0x40 MLOAD DUP1 SWAP2 SUB SWAP1 REVERT JUMPDEST PUSH1 0x0 PUSH1 0x6 PUSH1 0x0 DUP5 DUP2 MSTORE PUSH1 0x20 ADD SWAP1 DUP2 MSTORE PUSH1 0x20 ADD PUSH1 0x0 KECCAK256 SWAP1 POP DUP1 PUSH1 0x4 ADD PUSH1 0x0 SWAP1 SLOAD SWAP1 PUSH2 0x100 EXP SWAP1 DIV PUSH1 0xFF AND PUSH2 0x879 JUMPI DUP3 PUSH1 0x40 MLOAD PUSH32 0x8C209E5600000000000000000000000000000000000000000000000000000000 DUP2 MSTORE PUSH1 0x4 ADD PUSH2 0x870 SWAP2 SWAP1 PUSH2 0x4BAC JUMP JUMPDEST PUSH1 0x40 MLOAD DUP1 SWAP2 SUB SWAP1 REVERT JUMPDEST DUP1 PUSH1 0xB ADD SLOAD SWAP2 POP POP SWAP2 SWAP1 POP JUMP JUMPDEST PUSH1 0x0 DUP4 SUB PUSH2 0x8C0 JUMPI PUSH1 0x40 MLOAD PUSH32 0x97643B5200000000000000000000000000000000000000000000000000000000 DUP2 MSTORE PUSH1 0x4 ADD PUSH1 0x40 MLOAD DUP1 SWAP2 SUB SWAP1 REVERT JUMPDEST PUSH1 0x0 PUSH1 0x6 PUSH1 0x0 DUP6 DUP2 MSTORE PUSH1 0x20 ADD SWAP1 DUP2 MSTORE PUSH1 0x20 ADD PUSH1 0x0 KECCAK256 SWAP1 POP DUP1 PUSH1 0x4 ADD PUSH1 0x0 SWAP1 SLOAD SWAP1 PUSH2 0x100 EXP SWAP1 DIV PUSH1 0xFF AND PUSH2 0x92A JUMPI DUP4 PUSH1 0x40 MLOAD PUSH32 0x8C209E5600000000000000000000000000000000000000000000000000000000 DUP2 MSTORE PUSH1 0x4 ADD PUSH2 0x921 SWAP2 SWAP1 PUSH2 0x4BAC JUMP JUMPDEST PUSH1 0x40 MLOAD DUP1 SWAP2 SUB SWAP1 REVERT JUMPDEST CALLER PUSH20 0xFFFFFFFFFFFFFFFFFFFFFFFFFFFFFFFFFFFFFFFF AND DUP2 PUSH1 0x1 ADD PUSH1 0x0 SWAP1 SLOAD SWAP1 PUSH2 0x100 EXP SWAP1 DIV PUSH20 0xFFFFFFFFFFFFFFFFFFFFFFFFFFFFFFFFFFFFFFFF AND PUSH20 0xFFFFFFFFFFFFFFFFFFFFFFFFFFFFFFFFFFFFFFFF AND EQ PUSH2 0x9B3 JUMPI PUSH1 0x40 MLOAD PUSH32 0xF5E6BD800000000000000000000000000000000000000000000000000000000 DUP2 MSTORE PUSH1 0x4 ADD PUSH1 0x40 MLOAD DUP1 SWAP2 SUB SWAP1 REVERT JUMPDEST PUSH2 0x9BD DUP4 DUP4 PUSH2 0x4098 JUMP JUMPDEST DUP1 PUSH1 0xC ADD PUSH1 0x0 SWAP1 SLOAD SWAP1 PUSH2 0x100 EXP SWAP1 DIV PUSH1 0xFF AND ISZERO PUSH2 0xA06 JUMPI PUSH1 0x40 MLOAD PUSH32 0x4A3CE08200000000000000000000000000000000000000000000000000000000 DUP2 MSTORE PUSH1 0x4 ADD PUSH1 0x40 MLOAD DUP1 SWAP2 SUB SWAP1 REVERT JUMPDEST DUP3 DUP2 PUSH1 0xA ADD DUP2 SWAP1 SSTORE POP DUP2 DUP2 PUSH1 0xB ADD DUP2 SWAP1 SSTORE POP TIMESTAMP DUP2 PUSH1 0x3 ADD DUP2 SWAP1 SSTORE POP CALLER PUSH20 0xFFFFFFFFFFFFFFFFFFFFFFFFFFFFFFFFFFFFFFFF AND PUSH32 0xB84522DA2D2039E8F4A7A0993EEA2CF0DD5C31C0D7265951C4C4E7985DCDA7BE DUP5 DUP5 PUSH1 0x40 MLOAD PUSH2 0xA69 SWAP3 SWAP2 SWAP1 PUSH2 0x52C9 JUMP JUMPDEST PUSH1 0x40 MLOAD DUP1 SWAP2 SUB SWAP1 LOG2 POP POP POP POP JUMP JUMPDEST PUSH1 0x60 PUSH1 0x3 PUSH1 0x0 DUP4 PUSH20 0xFFFFFFFFFFFFFFFFFFFFFFFFFFFFFFFFFFFFFFFF AND PUSH20 0xFFFFFFFFFFFFFFFFFFFFFFFFFFFFFFFFFFFFFFFF AND DUP2 MSTORE PUSH1 0x20 ADD SWAP1 DUP2 MSTORE PUSH1 0x20 ADD PUSH1 0x0 KECCAK256 PUSH1 0x4 ADD PUSH1 0x0 SWAP1 SLOAD SWAP1 PUSH2 0x100 EXP SWAP1 DIV PUSH1 0xFF AND PUSH2 0xAFF JUMPI PUSH1 0x40 MLOAD PUSH32 0xA118A90600000000000000000000000000000000000000000000000000000000 DUP2 MSTORE PUSH1 0x4 ADD PUSH1 0x40 MLOAD DUP1 SWAP2 SUB SWAP1 REVERT JUMPDEST PUSH1 0x3 PUSH1 0x0 DUP4 PUSH20 0xFFFFFFFFFFFFFFFFFFFFFFFFFFFFFFFFFFFFFFFF AND PUSH20 0xFFFFFFFFFFFFFFFFFFFFFFFFFFFFFFFFFFFFFFFF AND DUP2 MSTORE PUSH1 0x20 ADD SWAP1 DUP2 MSTORE PUSH1 0x20 ADD PUSH1 0x0 KECCAK256 PUSH1 0x8 ADD DUP1 SLOAD DUP1 PUSH1 0x20 MUL PUSH1 0x20 ADD PUSH1 0x40 MLOAD SWAP1 DUP2 ADD PUSH1 0x40 MSTORE DUP1 SWAP3 SWAP2 SWAP1 DUP2 DUP2 MSTORE PUSH1 0x20 ADD DUP3 DUP1 SLOAD DUP1 ISZERO PUSH2 0xBC1 JUMPI PUSH1 0x20 MUL DUP3 ADD SWAP2 SWAP1 PUSH1 0x0 MSTORE PUSH1 0x20 PUSH1 0x0 KECCAK256 SWAP1 JUMPDEST DUP2 PUSH1 0x0 SWAP1 SLOAD SWAP1 PUSH2 0x100 EXP SWAP1 DIV PUSH20 0xFFFFFFFFFFFFFFFFFFFFFFFFFFFFFFFFFFFFFFFF AND PUSH20 0xFFFFFFFFFFFFFFFFFFFFFFFFFFFFFFFFFFFFFFFF AND DUP2 MSTORE PUSH1 0x20 ADD SWAP1 PUSH1 0x1 ADD SWAP1 DUP1 DUP4 GT PUSH2 0xB77 JUMPI JUMPDEST POP POP POP POP POP SWAP1 POP SWAP2 SWAP1 POP JUMP JUMPDEST PUSH1 0x0 DUP1 DUP3 SUB PUSH2 0xC08 JUMPI PUSH1 0x40 MLOAD PUSH32 0x97643B5200000000000000000000000000000000000000000000000000000000 DUP2 MSTORE PUSH1 0x4 ADD PUSH1 0x40 MLOAD DUP1 SWAP2 SUB SWAP1 REVERT JUMPDEST PUSH1 0x0 PUSH1 0x6 PUSH1 0x0 DUP5 DUP2 MSTORE PUSH1 0x20 ADD SWAP1 DUP2 MSTORE PUSH1 0x20 ADD PUSH1 0x0 KECCAK256 SWAP1 POP DUP1 PUSH1 0x4 ADD PUSH1 0x0 SWAP1 SLOAD SWAP1 PUSH2 0x100 EXP SWAP1 DIV PUSH1 0xFF AND PUSH2 0xC72 JUMPI DUP3 PUSH1 0x40 MLOAD PUSH32 0x8C209E5600000000000000000000000000000000000000000000000000000000 DUP2 MSTORE PUSH1 0x4 ADD PUSH2 0xC69 SWAP2 SWAP1 PUSH2 0x4BAC JUMP JUMPDEST PUSH1 0x40 MLOAD DUP1 SWAP2 SUB SWAP1 REVERT JUMPDEST DUP1 PUSH1 0xC ADD PUSH1 0x0 SWAP1 SLOAD SWAP1 PUSH2 0x100 EXP SWAP1 DIV PUSH1 0xFF AND PUSH2 0xC92 JUMPI PUSH1 0x0 SWAP2 POP POP PUSH2 0xCAC JUMP JUMPDEST DUP1 PUSH1 0xA ADD SLOAD DUP2 PUSH1 0xD ADD SLOAD PUSH2 0xCA6 SWAP2 SWAP1 PUSH2 0x5321 JUMP JUMPDEST TIMESTAMP GT SWAP2 POP POP JUMPDEST SWAP2 SWAP1 POP JUMP JUMPDEST PUSH1 0x6 PUSH1 0x20 MSTORE DUP1 PUSH1 0x0 MSTORE PUSH1 0x40 PUSH1 0x0 KECCAK256 PUSH1 0x0 SWAP2 POP SWAP1 POP DUP1 PUSH1 0x0 ADD SLOAD SWAP1 DUP1 PUSH1 0x1 ADD PUSH1 0x0 SWAP1 SLOAD SWAP1 PUSH2 0x100 EXP SWAP1 DIV PUSH20 0xFFFFFFFFFFFFFFFFFFFFFFFFFFFFFFFFFFFFFFFF AND SWAP1 DUP1 PUSH1 0x2 ADD DUP1 SLOAD PUSH2 0xD00 SWAP1 PUSH2 0x5384 JUMP JUMPDEST DUP1 PUSH1 0x1F ADD PUSH1 0x20 DUP1 SWAP2 DIV MUL PUSH1 0x20 ADD PUSH1 0x40 MLOAD SWAP1 DUP2 ADD PUSH1 0x40 MSTORE DUP1 SWAP3 SWAP2 SWAP1 DUP2 DUP2 MSTORE PUSH1 0x20 ADD DUP3 DUP1 SLOAD PUSH2 0xD2C SWAP1 PUSH2 0x5384 JUMP JUMPDEST DUP1 ISZERO PUSH2 0xD79 JUMPI DUP1 PUSH1 0x1F LT PUSH2 0xD4E JUMPI PUSH2 0x100 DUP1 DUP4 SLOAD DIV MUL DUP4 MSTORE SWAP2 PUSH1 0x20 ADD SWAP2 PUSH2 0xD79 JUMP JUMPDEST DUP3 ADD SWAP2 SWAP1 PUSH1 0x0 MSTORE PUSH1 0x20 PUSH1 0x0 KECCAK256 SWAP1 JUMPDEST DUP2 SLOAD DUP2 MSTORE SWAP1 PUSH1 0x1 ADD SWAP1 PUSH1 0x20 ADD DUP1 DUP4 GT PUSH2 0xD5C JUMPI DUP3 SWAP1 SUB PUSH1 0x1F AND DUP3 ADD SWAP2 JUMPDEST POP POP POP POP POP SWAP1 DUP1 PUSH1 0x3 ADD SLOAD SWAP1 DUP1 PUSH1 0x4 ADD PUSH1 0x0 SWAP1 SLOAD SWAP1 PUSH2 0x100 EXP SWAP1 DIV PUSH1 0xFF AND SWAP1 DUP1 PUSH1 0x6 ADD SLOAD SWAP1 DUP1 PUSH1 0xA ADD SLOAD SWAP1 DUP1 PUSH1 0xB ADD SLOAD SWAP1 DUP1 PUSH1 0xC ADD PUSH1 0x0 SWAP1 SLOAD SWAP1 PUSH2 0x100 EXP SWAP1 DIV PUSH1 0xFF AND SWAP1 DUP1 PUSH1 0xD ADD SLOAD SWAP1 POP DUP11 JUMP JUMPDEST PUSH1 0x4 PUSH1 0x0 CALLER PUSH20 0xFFFFFFFFFFFFFFFFFFFFFFFFFFFFFFFFFFFFFFFF AND PUSH20 0xFFFFFFFFFFFFFFFFFFFFFFFFFFFFFFFFFFFFFFFF AND DUP2 MSTORE PUSH1 0x20 ADD SWAP1 DUP2 MSTORE PUSH1 0x20 ADD PUSH1 0x0 KECCAK256 PUSH1 0x0 SWAP1 SLOAD SWAP1 PUSH2 0x100 EXP SWAP1 DIV PUSH1 0xFF AND PUSH2 0xE4A JUMPI PUSH1 0x40 MLOAD PUSH32 0x9B6CEB4800000000000000000000000000000000000000000000000000000000 DUP2 MSTORE PUSH1 0x4 ADD PUSH1 0x40 MLOAD DUP1 SWAP2 SUB SWAP1 REVERT JUMPDEST PUSH1 0x0 PUSH1 0x3 PUSH1 0x0 DUP4 PUSH20 0xFFFFFFFFFFFFFFFFFFFFFFFFFFFFFFFFFFFFFFFF AND PUSH20 0xFFFFFFFFFFFFFFFFFFFFFFFFFFFFFFFFFFFFFFFF AND DUP2 MSTORE PUSH1 0x20 ADD SWAP1 DUP2 MSTORE PUSH1 0x20 ADD PUSH1 0x0 KECCAK256 SWAP1 POP DUP1 PUSH1 0x4 ADD PUSH1 0x0 SWAP1 SLOAD SWAP1 PUSH2 0x100 EXP SWAP1 DIV PUSH1 0xFF AND PUSH2 0xED5 JUMPI PUSH1 0x40 MLOAD PUSH32 0x40FCC2F600000000000000000000000000000000000000000000000000000000 DUP2 MSTORE PUSH1 0x4 ADD PUSH1 0x40 MLOAD DUP1 SWAP2 SUB SWAP1 REVERT JUMPDEST DUP1 PUSH1 0xC ADD PUSH1 0x0 SWAP1 SLOAD SWAP1 PUSH2 0x100 EXP SWAP1 DIV PUSH1 0xFF AND ISZERO PUSH2 0xF1E JUMPI PUSH1 0x40 MLOAD PUSH32 0x4A3CE08200000000000000000000000000000000000000000000000000000000 DUP2 MSTORE PUSH1 0x4 ADD PUSH1 0x40 MLOAD DUP1 SWAP2 SUB SWAP1 REVERT JUMPDEST DUP1 PUSH1 0xB ADD SLOAD DUP2 PUSH1 0x3 ADD SLOAD TIMESTAMP PUSH2 0xF33 SWAP2 SWAP1 PUSH2 0x53B5 JUMP JUMPDEST GT ISZERO PUSH2 0xFB4 JUMPI PUSH1 0x1 DUP2 PUSH1 0xC ADD PUSH1 0x0 PUSH2 0x100 EXP DUP2 SLOAD DUP2 PUSH1 0xFF MUL NOT AND SWAP1 DUP4 ISZERO ISZERO MUL OR SWAP1 SSTORE POP TIMESTAMP DUP2 PUSH1 0xD ADD DUP2 SWAP1 SSTORE POP DUP2 PUSH20 0xFFFFFFFFFFFFFFFFFFFFFFFFFFFFFFFFFFFFFFFF AND PUSH32 0x674B29EAC3F8DB4186C76E9429FA4D70125D68FED7B9A0D862732A7D2FCF4E36 TIMESTAMP DUP4 PUSH1 0xA ADD SLOAD PUSH1 0x40 MLOAD PUSH2 0xFAB SWAP3 SWAP2 SWAP1 PUSH2 0x52C9 JUMP JUMPDEST PUSH1 0x40 MLOAD DUP1 SWAP2 SUB SWAP1 LOG2 JUMPDEST POP POP JUMP JUMPDEST PUSH1 0x7 PUSH1 0x20 MSTORE DUP2 PUSH1 0x0 MSTORE PUSH1 0x40 PUSH1 0x0 KECCAK256 DUP2 DUP2 SLOAD DUP2 LT PUSH2 0xFD4 JUMPI PUSH1 0x0 DUP1 REVERT JUMPDEST SWAP1 PUSH1 0x0 MSTORE PUSH1 0x20 PUSH1 0x0 KECCAK256 ADD PUSH1 0x0 SWAP2 POP SWAP2 POP POP SLOAD DUP2 JUMP JUMPDEST PUSH1 0x0 DUP1 DUP3 SUB PUSH2 0x1024 JUMPI PUSH1 0x40 MLOAD PUSH32 0x97643B5200000000000000000000000000000000000000000000000000000000 DUP2 MSTORE PUSH1 0x4 ADD PUSH1 0x40 MLOAD DUP1 SWAP2 SUB SWAP1 REVERT JUMPDEST PUSH1 0x0 PUSH1 0x6 PUSH1 0x0 DUP5 DUP2 MSTORE PUSH1 0x20 ADD SWAP1 DUP2 MSTORE PUSH1 0x20 ADD PUSH1 0x0 KECCAK256 SWAP1 POP DUP1 PUSH1 0x4 ADD PUSH1 0x0 SWAP1 SLOAD SWAP1 PUSH2 0x100 EXP SWAP1 DIV PUSH1 0xFF AND PUSH2 0x108E JUMPI DUP3 PUSH1 0x40 MLOAD PUSH32 0x8C209E5600000000000000000000000000000000000000000000000000000000 DUP2 MSTORE PUSH1 0x4 ADD PUSH2 0x1085 SWAP2 SWAP1 PUSH2 0x4BAC JUMP JUMPDEST PUSH1 0x40 MLOAD DUP1 SWAP2 SUB SWAP1 REVERT JUMPDEST DUP1 PUSH1 0xC ADD PUSH1 0x0 SWAP1 SLOAD SWAP1 PUSH2 0x100 EXP SWAP1 DIV PUSH1 0xFF AND ISZERO DUP1 PUSH2 0x10B1 JUMPI POP PUSH2 0x10B0 DUP4 PUSH2 0xBCD JUMP JUMPDEST JUMPDEST ISZERO PUSH2 0x10C0 JUMPI PUSH1 0x0 SWAP2 POP POP PUSH2 0x10F8 JUMP JUMPDEST PUSH1 0x0 DUP2 PUSH1 0xA ADD SLOAD DUP3 PUSH1 0xD ADD SLOAD PUSH2 0x10D6 SWAP2 SWAP1 PUSH2 0x5321 JUMP JUMPDEST SWAP1 POP TIMESTAMP DUP2 GT PUSH2 0x10E6 JUMPI PUSH1 0x0 PUSH2 0x10F3 JUMP JUMPDEST TIMESTAMP DUP2 PUSH2 0x10F2 SWAP2 SWAP1 PUSH2 0x53B5 JUMP JUMPDEST JUMPDEST SWAP3 POP POP POP JUMPDEST SWAP2 SWAP1 POP JUMP JUMPDEST PUSH2 0x1105 PUSH2 0x41A2 JUMP JUMPDEST DUP1 PUSH1 0x4 PUSH1 0x0 DUP5 PUSH20 0xFFFFFFFFFFFFFFFFFFFFFFFFFFFFFFFFFFFFFFFF AND PUSH20 0xFFFFFFFFFFFFFFFFFFFFFFFFFFFFFFFFFFFFFFFF AND DUP2 MSTORE PUSH1 0x20 ADD SWAP1 DUP2 MSTORE PUSH1 0x20 ADD PUSH1 0x0 KECCAK256 PUSH1 0x0 PUSH2 0x100 EXP DUP2 SLOAD DUP2 PUSH1 0xFF MUL NOT AND SWAP1 DUP4 ISZERO ISZERO MUL OR SWAP1 SSTORE POP POP POP JUMP JUMPDEST PUSH1 0x3 PUSH1 0x0 CALLER PUSH20 0xFFFFFFFFFFFFFFFFFFFFFFFFFFFFFFFFFFFFFFFF AND PUSH20 0xFFFFFFFFFFFFFFFFFFFFFFFFFFFFFFFFFFFFFFFF AND DUP2 MSTORE PUSH1 0x20 ADD SWAP1 DUP2 MSTORE PUSH1 0x20 ADD PUSH1 0x0 KECCAK256 PUSH1 0x4 ADD PUSH1 0x0 SWAP1 SLOAD SWAP1 PUSH2 0x100 EXP SWAP1 DIV PUSH1 0xFF AND ISZERO DUP1 PUSH2 0x124A JUMPI POP CALLER PUSH20 0xFFFFFFFFFFFFFFFFFFFFFFFFFFFFFFFFFFFFFFFF AND PUSH1 0x3 PUSH1 0x0 CALLER PUSH20 0xFFFFFFFFFFFFFFFFFFFFFFFFFFFFFFFFFFFFFFFF AND PUSH20 0xFFFFFFFFFFFFFFFFFFFFFFFFFFFFFFFFFFFFFFFF AND DUP2 MSTORE PUSH1 0x20 ADD SWAP1 DUP2 MSTORE PUSH1 0x20 ADD PUSH1 0x0 KECCAK256 PUSH1 0x1 ADD PUSH1 0x0 SWAP1 SLOAD SWAP1 PUSH2 0x100 EXP SWAP1 DIV PUSH20 0xFFFFFFFFFFFFFFFFFFFFFFFFFFFFFFFFFFFFFFFF AND PUSH20 0xFFFFFFFFFFFFFFFFFFFFFFFFFFFFFFFFFFFFFFFF AND EQ ISZERO JUMPDEST ISZERO PUSH2 0x1281 JUMPI PUSH1 0x40 MLOAD PUSH32 0xF5E6BD800000000000000000000000000000000000000000000000000000000 DUP2 MSTORE PUSH1 0x4 ADD PUSH1 0x40 MLOAD DUP1 SWAP2 SUB SWAP1 REVERT JUMPDEST PUSH1 0x3 PUSH1 0x0 CALLER PUSH20 0xFFFFFFFFFFFFFFFFFFFFFFFFFFFFFFFFFFFFFFFF AND PUSH20 0xFFFFFFFFFFFFFFFFFFFFFFFFFFFFFFFFFFFFFFFF AND DUP2 MSTORE PUSH1 0x20 ADD SWAP1 DUP2 MSTORE PUSH1 0x20 ADD PUSH1 0x0 KECCAK256 PUSH1 0x7 ADD PUSH1 0x0 DUP3 PUSH20 0xFFFFFFFFFFFFFFFFFFFFFFFFFFFFFFFFFFFFFFFF AND PUSH20 0xFFFFFFFFFFFFFFFFFFFFFFFFFFFFFFFFFFFFFFFF AND DUP2 MSTORE PUSH1 0x20 ADD SWAP1 DUP2 MSTORE PUSH1 0x20 ADD PUSH1 0x0 KECCAK256 PUSH1 0x0 SWAP1 SLOAD SWAP1 PUSH2 0x100 EXP SWAP1 DIV PUSH1 0xFF AND PUSH2 0x1344 JUMPI PUSH1 0x40 MLOAD PUSH32 0x9AC30A7300000000000000000000000000000000000000000000000000000000 DUP2 MSTORE PUSH1 0x4 ADD PUSH1 0x40 MLOAD DUP1 SWAP2 SUB SWAP1 REVERT JUMPDEST PUSH1 0x0 PUSH1 0x3 PUSH1 0x0 CALLER PUSH20 0xFFFFFFFFFFFFFFFFFFFFFFFFFFFFFFFFFFFFFFFF AND PUSH20 0xFFFFFFFFFFFFFFFFFFFFFFFFFFFFFFFFFFFFFFFF AND DUP2 MSTORE PUSH1 0x20 ADD SWAP1 DUP2 MSTORE PUSH1 0x20 ADD PUSH1 0x0 KECCAK256 SWAP1 POP PUSH1 0x0 DUP2 PUSH1 0x7 ADD PUSH1 0x0 DUP5 PUSH20 0xFFFFFFFFFFFFFFFFFFFFFFFFFFFFFFFFFFFFFFFF AND PUSH20 0xFFFFFFFFFFFFFFFFFFFFFFFFFFFFFFFFFFFFFFFF AND DUP2 MSTORE PUSH1 0x20 ADD SWAP1 DUP2 MSTORE PUSH1 0x20 ADD PUSH1 0x0 KECCAK256 PUSH1 0x0 PUSH2 0x100 EXP DUP2 SLOAD DUP2 PUSH1 0xFF MUL NOT AND SWAP1 DUP4 ISZERO ISZERO MUL OR SWAP1 SSTORE POP PUSH1 0x0 JUMPDEST DUP2 PUSH1 0x8 ADD DUP1 SLOAD SWAP1 POP DUP2 LT ISZERO PUSH2 0x1573 JUMPI DUP3 PUSH20 0xFFFFFFFFFFFFFFFFFFFFFFFFFFFFFFFFFFFFFFFF AND DUP3 PUSH1 0x8 ADD DUP3 DUP2 SLOAD DUP2 LT PUSH2 0x1420 JUMPI PUSH2 0x141F PUSH2 0x53E9 JUMP JUMPDEST JUMPDEST SWAP1 PUSH1 0x0 MSTORE PUSH1 0x20 PUSH1 0x0 KECCAK256 ADD PUSH1 0x0 SWAP1 SLOAD SWAP1 PUSH2 0x100 EXP SWAP1 DIV PUSH20 0xFFFFFFFFFFFFFFFFFFFFFFFFFFFFFFFFFFFFFFFF AND PUSH20 0xFFFFFFFFFFFFFFFFFFFFFFFFFFFFFFFFFFFFFFFF AND SUB PUSH2 0x1566 JUMPI DUP2 PUSH1 0x8 ADD PUSH1 0x1 DUP4 PUSH1 0x8 ADD DUP1 SLOAD SWAP1 POP PUSH2 0x147E SWAP2 SWAP1 PUSH2 0x53B5 JUMP JUMPDEST DUP2 SLOAD DUP2 LT PUSH2 0x148F JUMPI PUSH2 0x148E PUSH2 0x53E9 JUMP JUMPDEST JUMPDEST SWAP1 PUSH1 0x0 MSTORE PUSH1 0x20 PUSH1 0x0 KECCAK256 ADD PUSH1 0x0 SWAP1 SLOAD SWAP1 PUSH2 0x100 EXP SWAP1 DIV PUSH20 0xFFFFFFFFFFFFFFFFFFFFFFFFFFFFFFFFFFFFFFFF AND DUP3 PUSH1 0x8 ADD DUP3 DUP2 SLOAD DUP2 LT PUSH2 0x14D0 JUMPI PUSH2 0x14CF PUSH2 0x53E9 JUMP JUMPDEST JUMPDEST SWAP1 PUSH1 0x0 MSTORE PUSH1 0x20 PUSH1 0x0 KECCAK256 ADD PUSH1 0x0 PUSH2 0x100 EXP DUP2 SLOAD DUP2 PUSH20 0xFFFFFFFFFFFFFFFFFFFFFFFFFFFFFFFFFFFFFFFF MUL NOT AND SWAP1 DUP4 PUSH20 0xFFFFFFFFFFFFFFFFFFFFFFFFFFFFFFFFFFFFFFFF AND MUL OR SWAP1 SSTORE POP DUP2 PUSH1 0x8 ADD DUP1 SLOAD DUP1 PUSH2 0x152C JUMPI PUSH2 0x152B PUSH2 0x5418 JUMP JUMPDEST JUMPDEST PUSH1 0x1 SWAP1 SUB DUP2 DUP2 SWAP1 PUSH1 0x0 MSTORE PUSH1 0x20 PUSH1 0x0 KECCAK256 ADD PUSH1 0x0 PUSH2 0x100 EXP DUP2 SLOAD SWAP1 PUSH20 0xFFFFFFFFFFFFFFFFFFFFFFFFFFFFFFFFFFFFFFFF MUL NOT AND SWAP1 SSTORE SWAP1 SSTORE PUSH2 0x1573 JUMP JUMPDEST DUP1 DUP1 PUSH1 0x1 ADD SWAP2 POP POP PUSH2 0x13E4 JUMP JUMPDEST POP PUSH1 0x0 PUSH1 0x5 PUSH1 0x0 DUP5 PUSH20 0xFFFFFFFFFFFFFFFFFFFFFFFFFFFFFFFFFFFFFFFF AND PUSH20 0xFFFFFFFFFFFFFFFFFFFFFFFFFFFFFFFFFFFFFFFF AND DUP2 MSTORE PUSH1 0x20 ADD SWAP1 DUP2 MSTORE PUSH1 0x20 ADD PUSH1 0x0 KECCAK256 SWAP1 POP PUSH1 0x0 JUMPDEST DUP2 DUP1 SLOAD SWAP1 POP DUP2 LT ISZERO PUSH2 0x1737 JUMPI CALLER PUSH20 0xFFFFFFFFFFFFFFFFFFFFFFFFFFFFFFFFFFFFFFFF AND DUP3 DUP3 DUP2 SLOAD DUP2 LT PUSH2 0x15F0 JUMPI PUSH2 0x15EF PUSH2 0x53E9 JUMP JUMPDEST JUMPDEST SWAP1 PUSH1 0x0 MSTORE PUSH1 0x20 PUSH1 0x0 KECCAK256 ADD PUSH1 0x0 SWAP1 SLOAD SWAP1 PUSH2 0x100 EXP SWAP1 DIV PUSH20 0xFFFFFFFFFFFFFFFFFFFFFFFFFFFFFFFFFFFFFFFF AND PUSH20 0xFFFFFFFFFFFFFFFFFFFFFFFFFFFFFFFFFFFFFFFF AND SUB PUSH2 0x172A JUMPI DUP2 PUSH1 0x1 DUP4 DUP1 SLOAD SWAP1 POP PUSH2 0x1648 SWAP2 SWAP1 PUSH2 0x53B5 JUMP JUMPDEST DUP2 SLOAD DUP2 LT PUSH2 0x1659 JUMPI PUSH2 0x1658 PUSH2 0x53E9 JUMP JUMPDEST JUMPDEST SWAP1 PUSH1 0x0 MSTORE PUSH1 0x20 PUSH1 0x0 KECCAK256 ADD PUSH1 0x0 SWAP1 SLOAD SWAP1 PUSH2 0x100 EXP SWAP1 DIV PUSH20 0xFFFFFFFFFFFFFFFFFFFFFFFFFFFFFFFFFFFFFFFF AND DUP3 DUP3 DUP2 SLOAD DUP2 LT PUSH2 0x1697 JUMPI PUSH2 0x1696 PUSH2 0x53E9 JUMP JUMPDEST JUMPDEST SWAP1 PUSH1 0x0 MSTORE PUSH1 0x20 PUSH1 0x0 KECCAK256 ADD PUSH1 0x0 PUSH2 0x100 EXP DUP2 SLOAD DUP2 PUSH20 0xFFFFFFFFFFFFFFFFFFFFFFFFFFFFFFFFFFFFFFFF MUL NOT AND SWAP1 DUP4 PUSH20 0xFFFFFFFFFFFFFFFFFFFFFFFFFFFFFFFFFFFFFFFF AND MUL OR SWAP1 SSTORE POP DUP2 DUP1 SLOAD DUP1 PUSH2 0x16F0 JUMPI PUSH2 0x16EF PUSH2 0x5418 JUMP JUMPDEST JUMPDEST PUSH1 0x1 SWAP1 SUB DUP2 DUP2 SWAP1 PUSH1 0x0 MSTORE PUSH1 0x20 PUSH1 0x0 KECCAK256 ADD PUSH1 0x0 PUSH2 0x100 EXP DUP2 SLOAD SWAP1 PUSH20 0xFFFFFFFFFFFFFFFFFFFFFFFFFFFFFFFFFFFFFFFF MUL NOT AND SWAP1 SSTORE SWAP1 SSTORE PUSH2 0x1737 JUMP JUMPDEST DUP1 DUP1 PUSH1 0x1 ADD SWAP2 POP POP PUSH2 0x15BA JUMP JUMPDEST POP DUP2 PUSH1 0x9 ADD PUSH1 0x0 DUP5 PUSH20 0xFFFFFFFFFFFFFFFFFFFFFFFFFFFFFFFFFFFFFFFF AND PUSH20 0xFFFFFFFFFFFFFFFFFFFFFFFFFFFFFFFFFFFFFFFF AND DUP2 MSTORE PUSH1 0x20 ADD SWAP1 DUP2 MSTORE PUSH1 0x20 ADD PUSH1 0x0 KECCAK256 PUSH1 0x0 PUSH2 0x1785 SWAP2 SWAP1 PUSH2 0x4805 JUMP JUMPDEST DUP3 PUSH20 0xFFFFFFFFFFFFFFFFFFFFFFFFFFFFFFFFFFFFFFFF AND CALLER PUSH20 0xFFFFFFFFFFFFFFFFFFFFFFFFFFFFFFFFFFFFFFFF AND PUSH32 0x1A6590BD0CABBFCC7C86BEF99E1034054E179905CFCC294598FCD426C0922442 PUSH1 0x40 MLOAD PUSH1 0x40 MLOAD DUP1 SWAP2 SUB SWAP1 LOG3 POP POP POP JUMP JUMPDEST PUSH2 0x17EC PUSH2 0x4229 JUMP JUMPDEST PUSH1 0x0 DUP5 DUP5 SWAP1 POP EQ DUP1 ISZERO PUSH2 0x17FF JUMPI POP PUSH1 0x0 CALLVALUE EQ JUMPDEST ISZERO PUSH2 0x1836 JUMPI PUSH1 0x40 MLOAD PUSH32 0x7658E18E00000000000000000000000000000000000000000000000000000000 DUP2 MSTORE PUSH1 0x4 ADD PUSH1 0x40 MLOAD DUP1 SWAP2 SUB SWAP1 REVERT JUMPDEST PUSH2 0x1840 DUP3 DUP3 PUSH2 0x4098 JUMP JUMPDEST PUSH1 0x0 PUSH1 0x2 PUSH1 0x0 DUP2 SLOAD DUP1 SWAP3 SWAP2 SWAP1 PUSH2 0x1855 SWAP1 PUSH2 0x5447 JUMP JUMPDEST SWAP2 SWAP1 POP SSTORE SWAP1 POP PUSH1 0x0 PUSH1 0x6 PUSH1 0x0 DUP4 DUP2 MSTORE PUSH1 0x20 ADD SWAP1 DUP2 MSTORE PUSH1 0x20 ADD PUSH1 0x0 KECCAK256 SWAP1 POP DUP2 DUP2 PUSH1 0x0 ADD DUP2 SWAP1 SSTORE POP CALLER DUP2 PUSH1 0x1 ADD PUSH1 0x0 PUSH2 0x100 EXP DUP2 SLOAD DUP2 PUSH20 0xFFFFFFFFFFFFFFFFFFFFFFFFFFFFFFFFFFFFFFFF MUL NOT AND SWAP1 DUP4 PUSH20 0xFFFFFFFFFFFFFFFFFFFFFFFFFFFFFFFFFFFFFFFF AND MUL OR SWAP1 SSTORE POP DUP7 DUP2 PUSH1 0x2 ADD SWAP1 DUP2 PUSH2 0x18CF SWAP2 SWAP1 PUSH2 0x563B JUMP JUMPDEST POP DUP4 DUP2 PUSH1 0xA ADD DUP2 SWAP1 SSTORE POP DUP3 DUP2 PUSH1 0xB ADD DUP2 SWAP1 SSTORE POP TIMESTAMP DUP2 PUSH1 0x3 ADD DUP2 SWAP1 SSTORE POP PUSH1 0x1 DUP2 PUSH1 0x4 ADD PUSH1 0x0 PUSH2 0x100 EXP DUP2 SLOAD DUP2 PUSH1 0xFF MUL NOT AND SWAP1 DUP4 ISZERO ISZERO MUL OR SWAP1 SSTORE POP PUSH1 0x7 PUSH1 0x0 CALLER PUSH20 0xFFFFFFFFFFFFFFFFFFFFFFFFFFFFFFFFFFFFFFFF AND PUSH20 0xFFFFFFFFFFFFFFFFFFFFFFFFFFFFFFFFFFFFFFFF AND DUP2 MSTORE PUSH1 0x20 ADD SWAP1 DUP2 MSTORE PUSH1 0x20 ADD PUSH1 0x0 KECCAK256 DUP3 SWAP1 DUP1 PUSH1 0x1 DUP2 SLOAD ADD DUP1 DUP3 SSTORE DUP1 SWAP2 POP POP PUSH1 0x1 SWAP1 SUB SWAP1 PUSH1 0x0 MSTORE PUSH1 0x20 PUSH1 0x0 KECCAK256 ADD PUSH1 0x0 SWAP1 SWAP2 SWAP1 SWAP2 SWAP1 SWAP2 POP SSTORE PUSH1 0x0 CALLVALUE GT ISZERO PUSH2 0x1ADF JUMPI CALLVALUE DUP2 PUSH1 0x6 ADD DUP2 SWAP1 SSTORE POP PUSH1 0x0 JUMPDEST DUP7 DUP7 PUSH1 0x0 DUP2 DUP2 LT PUSH2 0x1997 JUMPI PUSH2 0x1996 PUSH2 0x53E9 JUMP JUMPDEST JUMPDEST SWAP1 POP PUSH1 0x20 MUL DUP2 ADD SWAP1 PUSH2 0x19A9 SWAP2 SWAP1 PUSH2 0x571C JUMP JUMPDEST DUP1 PUSH1 0x80 ADD SWAP1 PUSH2 0x19B8 SWAP2 SWAP1 PUSH2 0x5744 JUMP JUMPDEST SWAP1 POP DUP2 LT ISZERO PUSH2 0x1ADD JUMPI PUSH1 0x0 DUP8 DUP8 PUSH1 0x0 DUP2 DUP2 LT PUSH2 0x19D7 JUMPI PUSH2 0x19D6 PUSH2 0x53E9 JUMP JUMPDEST JUMPDEST SWAP1 POP PUSH1 0x20 MUL DUP2 ADD SWAP1 PUSH2 0x19E9 SWAP2 SWAP1 PUSH2 0x571C JUMP JUMPDEST DUP1 PUSH1 0x80 ADD SWAP1 PUSH2 0x19F8 SWAP2 SWAP1 PUSH2 0x5744 JUMP JUMPDEST DUP4 DUP2 DUP2 LT PUSH2 0x1A09 JUMPI PUSH2 0x1A08 PUSH2 0x53E9 JUMP JUMPDEST JUMPDEST SWAP1 POP PUSH1 0x20 MUL ADD PUSH1 0x20 DUP2 ADD SWAP1 PUSH2 0x1A1E SWAP2 SWAP1 PUSH2 0x4C1A JUMP JUMPDEST SWAP1 POP DUP3 PUSH1 0x7 ADD PUSH1 0x0 DUP3 PUSH20 0xFFFFFFFFFFFFFFFFFFFFFFFFFFFFFFFFFFFFFFFF AND PUSH20 0xFFFFFFFFFFFFFFFFFFFFFFFFFFFFFFFFFFFFFFFF AND DUP2 MSTORE PUSH1 0x20 ADD SWAP1 DUP2 MSTORE PUSH1 0x20 ADD PUSH1 0x0 KECCAK256 PUSH1 0x0 SWAP1 SLOAD SWAP1 PUSH2 0x100 EXP SWAP1 DIV PUSH1 0xFF AND PUSH2 0x1A7E JUMPI PUSH2 0x1A7D DUP2 DUP6 PUSH2 0x426F JUMP JUMPDEST JUMPDEST PUSH2 0x1ACF DUP4 DUP3 PUSH1 0x0 DUP1 PUSH1 0x0 DUP14 DUP14 PUSH1 0x0 DUP2 DUP2 LT PUSH2 0x1A9C JUMPI PUSH2 0x1A9B PUSH2 0x53E9 JUMP JUMPDEST JUMPDEST SWAP1 POP PUSH1 0x20 MUL DUP2 ADD SWAP1 PUSH2 0x1AAE SWAP2 SWAP1 PUSH2 0x571C JUMP JUMPDEST DUP1 PUSH1 0x80 ADD SWAP1 PUSH2 0x1ABD SWAP2 SWAP1 PUSH2 0x5744 JUMP JUMPDEST SWAP1 POP CALLVALUE PUSH2 0x1ACA SWAP2 SWAP1 PUSH2 0x57D6 JUMP JUMPDEST PUSH2 0x45B9 JUMP JUMPDEST POP DUP1 DUP1 PUSH1 0x1 ADD SWAP2 POP POP PUSH2 0x1983 JUMP JUMPDEST POP JUMPDEST PUSH1 0x0 JUMPDEST DUP7 DUP7 SWAP1 POP DUP2 LT ISZERO PUSH2 0x2552 JUMPI PUSH1 0x0 DUP8 DUP8 DUP4 DUP2 DUP2 LT PUSH2 0x1B02 JUMPI PUSH2 0x1B01 PUSH2 0x53E9 JUMP JUMPDEST JUMPDEST SWAP1 POP PUSH1 0x20 MUL DUP2 ADD SWAP1 PUSH2 0x1B14 SWAP2 SWAP1 PUSH2 0x571C JUMP JUMPDEST PUSH1 0x20 ADD PUSH1 0x20 DUP2 ADD SWAP1 PUSH2 0x1B26 SWAP2 SWAP1 PUSH2 0x582C JUMP JUMPDEST SWAP1 POP PUSH1 0x4 DUP1 DUP2 GT ISZERO PUSH2 0x1B3B JUMPI PUSH2 0x1B3A PUSH2 0x49C2 JUMP JUMPDEST JUMPDEST DUP2 PUSH1 0x4 DUP2 GT ISZERO PUSH2 0x1B4E JUMPI PUSH2 0x1B4D PUSH2 0x49C2 JUMP JUMPDEST JUMPDEST SUB PUSH2 0x1B85 JUMPI PUSH1 0x40 MLOAD PUSH32 0xA1E9DD9D00000000000000000000000000000000000000000000000000000000 DUP2 MSTORE PUSH1 0x4 ADD PUSH1 0x40 MLOAD DUP1 SWAP2 SUB SWAP1 REVERT JUMPDEST PUSH1 0x1 PUSH1 0x4 DUP2 GT ISZERO PUSH2 0x1B99 JUMPI PUSH2 0x1B98 PUSH2 0x49C2 JUMP JUMPDEST JUMPDEST DUP2 PUSH1 0x4 DUP2 GT ISZERO PUSH2 0x1BAC JUMPI PUSH2 0x1BAB PUSH2 0x49C2 JUMP JUMPDEST JUMPDEST SUB PUSH2 0x1D0C JUMPI PUSH1 0x0 JUMPDEST DUP9 DUP9 DUP5 DUP2 DUP2 LT PUSH2 0x1BC7 JUMPI PUSH2 0x1BC6 PUSH2 0x53E9 JUMP JUMPDEST JUMPDEST SWAP1 POP PUSH1 0x20 MUL DUP2 ADD SWAP1 PUSH2 0x1BD9 SWAP2 SWAP1 PUSH2 0x571C JUMP JUMPDEST DUP1 PUSH1 0x80 ADD SWAP1 PUSH2 0x1BE8 SWAP2 SWAP1 PUSH2 0x5744 JUMP JUMPDEST SWAP1 POP DUP2 LT ISZERO PUSH2 0x1D06 JUMPI PUSH1 0x0 DUP10 DUP10 DUP6 DUP2 DUP2 LT PUSH2 0x1C06 JUMPI PUSH2 0x1C05 PUSH2 0x53E9 JUMP JUMPDEST JUMPDEST SWAP1 POP PUSH1 0x20 MUL DUP2 ADD SWAP1 PUSH2 0x1C18 SWAP2 SWAP1 PUSH2 0x571C JUMP JUMPDEST DUP1 PUSH1 0x60 ADD SWAP1 PUSH2 0x1C27 SWAP2 SWAP1 PUSH2 0x5859 JUMP JUMPDEST DUP4 DUP2 DUP2 LT PUSH2 0x1C38 JUMPI PUSH2 0x1C37 PUSH2 0x53E9 JUMP JUMPDEST JUMPDEST SWAP1 POP PUSH1 0x20 MUL ADD CALLDATALOAD SWAP1 POP DUP10 DUP10 DUP6 DUP2 DUP2 LT PUSH2 0x1C54 JUMPI PUSH2 0x1C53 PUSH2 0x53E9 JUMP JUMPDEST JUMPDEST SWAP1 POP PUSH1 0x20 MUL DUP2 ADD SWAP1 PUSH2 0x1C66 SWAP2 SWAP1 PUSH2 0x571C JUMP JUMPDEST PUSH1 0x0 ADD PUSH1 0x20 DUP2 ADD SWAP1 PUSH2 0x1C78 SWAP2 SWAP1 PUSH2 0x4C1A JUMP JUMPDEST PUSH20 0xFFFFFFFFFFFFFFFFFFFFFFFFFFFFFFFFFFFFFFFF AND PUSH4 0x23B872DD CALLER ADDRESS DUP5 PUSH1 0x40 MLOAD DUP5 PUSH4 0xFFFFFFFF AND PUSH1 0xE0 SHL DUP2 MSTORE PUSH1 0x4 ADD PUSH2 0x1CB4 SWAP4 SWAP3 SWAP2 SWAP1 PUSH2 0x58BC JUMP JUMPDEST PUSH1 0x20 PUSH1 0x40 MLOAD DUP1 DUP4 SUB DUP2 PUSH1 0x0 DUP8 GAS CALL ISZERO DUP1 ISZERO PUSH2 0x1CD3 JUMPI RETURNDATASIZE PUSH1 0x0 DUP1 RETURNDATACOPY RETURNDATASIZE PUSH1 0x0 REVERT JUMPDEST POP POP POP POP PUSH1 0x40 MLOAD RETURNDATASIZE PUSH1 0x1F NOT PUSH1 0x1F DUP3 ADD AND DUP3 ADD DUP1 PUSH1 0x40 MSTORE POP DUP2 ADD SWAP1 PUSH2 0x1CF7 SWAP2 SWAP1 PUSH2 0x5908 JUMP JUMPDEST POP POP DUP1 DUP1 PUSH1 0x1 ADD SWAP2 POP POP PUSH2 0x1BB4 JUMP JUMPDEST POP PUSH2 0x2047 JUMP JUMPDEST PUSH1 0x2 PUSH1 0x4 DUP2 GT ISZERO PUSH2 0x1D20 JUMPI PUSH2 0x1D1F PUSH2 0x49C2 JUMP JUMPDEST JUMPDEST DUP2 PUSH1 0x4 DUP2 GT ISZERO PUSH2 0x1D33 JUMPI PUSH2 0x1D32 PUSH2 0x49C2 JUMP JUMPDEST JUMPDEST SUB PUSH2 0x1E81 JUMPI PUSH1 0x0 JUMPDEST DUP9 DUP9 DUP5 DUP2 DUP2 LT PUSH2 0x1D4E JUMPI PUSH2 0x1D4D PUSH2 0x53E9 JUMP JUMPDEST JUMPDEST SWAP1 POP PUSH1 0x20 MUL DUP2 ADD SWAP1 PUSH2 0x1D60 SWAP2 SWAP1 PUSH2 0x571C JUMP JUMPDEST DUP1 PUSH1 0x80 ADD SWAP1 PUSH2 0x1D6F SWAP2 SWAP1 PUSH2 0x5744 JUMP JUMPDEST SWAP1 POP DUP2 LT ISZERO PUSH2 0x1E7B JUMPI PUSH1 0x0 DUP10 DUP10 DUP6 DUP2 DUP2 LT PUSH2 0x1D8D JUMPI PUSH2 0x1D8C PUSH2 0x53E9 JUMP JUMPDEST JUMPDEST SWAP1 POP PUSH1 0x20 MUL DUP2 ADD SWAP1 PUSH2 0x1D9F SWAP2 SWAP1 PUSH2 0x571C JUMP JUMPDEST DUP1 PUSH1 0x40 ADD SWAP1 PUSH2 0x1DAE SWAP2 SWAP1 PUSH2 0x5859 JUMP JUMPDEST DUP4 DUP2 DUP2 LT PUSH2 0x1DBF JUMPI PUSH2 0x1DBE PUSH2 0x53E9 JUMP JUMPDEST JUMPDEST SWAP1 POP PUSH1 0x20 MUL ADD CALLDATALOAD SWAP1 POP DUP10 DUP10 DUP6 DUP2 DUP2 LT PUSH2 0x1DDB JUMPI PUSH2 0x1DDA PUSH2 0x53E9 JUMP JUMPDEST JUMPDEST SWAP1 POP PUSH1 0x20 MUL DUP2 ADD SWAP1 PUSH2 0x1DED SWAP2 SWAP1 PUSH2 0x571C JUMP JUMPDEST PUSH1 0x0 ADD PUSH1 0x20 DUP2 ADD SWAP1 PUSH2 0x1DFF SWAP2 SWAP1 PUSH2 0x4C1A JUMP JUMPDEST PUSH20 0xFFFFFFFFFFFFFFFFFFFFFFFFFFFFFFFFFFFFFFFF AND PUSH4 0x42842E0E CALLER ADDRESS DUP5 PUSH1 0x40 MLOAD DUP5 PUSH4 0xFFFFFFFF AND PUSH1 0xE0 SHL DUP2 MSTORE PUSH1 0x4 ADD PUSH2 0x1E3B SWAP4 SWAP3 SWAP2 SWAP1 PUSH2 0x58BC JUMP JUMPDEST PUSH1 0x0 PUSH1 0x40 MLOAD DUP1 DUP4 SUB DUP2 PUSH1 0x0 DUP8 DUP1 EXTCODESIZE ISZERO DUP1 ISZERO PUSH2 0x1E55 JUMPI PUSH1 0x0 DUP1 REVERT JUMPDEST POP GAS CALL ISZERO DUP1 ISZERO PUSH2 0x1E69 JUMPI RETURNDATASIZE PUSH1 0x0 DUP1 RETURNDATACOPY RETURNDATASIZE PUSH1 0x0 REVERT JUMPDEST POP POP POP POP POP DUP1 DUP1 PUSH1 0x1 ADD SWAP2 POP POP PUSH2 0x1D3B JUMP JUMPDEST POP PUSH2 0x2046 JUMP JUMPDEST PUSH1 0x3 PUSH1 0x4 DUP2 GT ISZERO PUSH2 0x1E95 JUMPI PUSH2 0x1E94 PUSH2 0x49C2 JUMP JUMPDEST JUMPDEST DUP2 PUSH1 0x4 DUP2 GT ISZERO PUSH2 0x1EA8 JUMPI PUSH2 0x1EA7 PUSH2 0x49C2 JUMP JUMPDEST JUMPDEST SUB PUSH2 0x2045 JUMPI PUSH1 0x0 JUMPDEST DUP9 DUP9 DUP5 DUP2 DUP2 LT PUSH2 0x1EC3 JUMPI PUSH2 0x1EC2 PUSH2 0x53E9 JUMP JUMPDEST JUMPDEST SWAP1 POP PUSH1 0x20 MUL DUP2 ADD SWAP1 PUSH2 0x1ED5 SWAP2 SWAP1 PUSH2 0x571C JUMP JUMPDEST DUP1 PUSH1 0x80 ADD SWAP1 PUSH2 0x1EE4 SWAP2 SWAP1 PUSH2 0x5744 JUMP JUMPDEST SWAP1 POP DUP2 LT ISZERO PUSH2 0x2043 JUMPI PUSH1 0x0 DUP10 DUP10 DUP6 DUP2 DUP2 LT PUSH2 0x1F02 JUMPI PUSH2 0x1F01 PUSH2 0x53E9 JUMP JUMPDEST JUMPDEST SWAP1 POP PUSH1 0x20 MUL DUP2 ADD SWAP1 PUSH2 0x1F14 SWAP2 SWAP1 PUSH2 0x571C JUMP JUMPDEST DUP1 PUSH1 0x40 ADD SWAP1 PUSH2 0x1F23 SWAP2 SWAP1 PUSH2 0x5859 JUMP JUMPDEST DUP4 DUP2 DUP2 LT PUSH2 0x1F34 JUMPI PUSH2 0x1F33 PUSH2 0x53E9 JUMP JUMPDEST JUMPDEST SWAP1 POP PUSH1 0x20 MUL ADD CALLDATALOAD SWAP1 POP PUSH1 0x0 DUP11 DUP11 DUP7 DUP2 DUP2 LT PUSH2 0x1F52 JUMPI PUSH2 0x1F51 PUSH2 0x53E9 JUMP JUMPDEST JUMPDEST SWAP1 POP PUSH1 0x20 MUL DUP2 ADD SWAP1 PUSH2 0x1F64 SWAP2 SWAP1 PUSH2 0x571C JUMP JUMPDEST DUP1 PUSH1 0x60 ADD SWAP1 PUSH2 0x1F73 SWAP2 SWAP1 PUSH2 0x5859 JUMP JUMPDEST DUP5 DUP2 DUP2 LT PUSH2 0x1F84 JUMPI PUSH2 0x1F83 PUSH2 0x53E9 JUMP JUMPDEST JUMPDEST SWAP1 POP PUSH1 0x20 MUL ADD CALLDATALOAD SWAP1 POP DUP11 DUP11 DUP7 DUP2 DUP2 LT PUSH2 0x1FA0 JUMPI PUSH2 0x1F9F PUSH2 0x53E9 JUMP JUMPDEST JUMPDEST SWAP1 POP PUSH1 0x20 MUL DUP2 ADD SWAP1 PUSH2 0x1FB2 SWAP2 SWAP1 PUSH2 0x571C JUMP JUMPDEST PUSH1 0x0 ADD PUSH1 0x20 DUP2 ADD SWAP1 PUSH2 0x1FC4 SWAP2 SWAP1 PUSH2 0x4C1A JUMP JUMPDEST PUSH20 0xFFFFFFFFFFFFFFFFFFFFFFFFFFFFFFFFFFFFFFFF AND PUSH4 0xF242432A CALLER ADDRESS DUP6 DUP6 PUSH1 0x40 MLOAD DUP6 PUSH4 0xFFFFFFFF AND PUSH1 0xE0 SHL DUP2 MSTORE PUSH1 0x4 ADD PUSH2 0x2002 SWAP5 SWAP4 SWAP3 SWAP2 SWAP1 PUSH2 0x596C JUMP JUMPDEST PUSH1 0x0 PUSH1 0x40 MLOAD DUP1 DUP4 SUB DUP2 PUSH1 0x0 DUP8 DUP1 EXTCODESIZE ISZERO DUP1 ISZERO PUSH2 0x201C JUMPI PUSH1 0x0 DUP1 REVERT JUMPDEST POP GAS CALL ISZERO DUP1 ISZERO PUSH2 0x2030 JUMPI RETURNDATASIZE PUSH1 0x0 DUP1 RETURNDATACOPY RETURNDATASIZE PUSH1 0x0 REVERT JUMPDEST POP POP POP POP POP POP DUP1 DUP1 PUSH1 0x1 ADD SWAP2 POP POP PUSH2 0x1EB0 JUMP JUMPDEST POP JUMPDEST JUMPDEST JUMPDEST PUSH1 0x0 JUMPDEST DUP9 DUP9 DUP5 DUP2 DUP2 LT PUSH2 0x205D JUMPI PUSH2 0x205C PUSH2 0x53E9 JUMP JUMPDEST JUMPDEST SWAP1 POP PUSH1 0x20 MUL DUP2 ADD SWAP1 PUSH2 0x206F SWAP2 SWAP1 PUSH2 0x571C JUMP JUMPDEST DUP1 PUSH1 0x80 ADD SWAP1 PUSH2 0x207E SWAP2 SWAP1 PUSH2 0x5744 JUMP JUMPDEST SWAP1 POP DUP2 LT ISZERO PUSH2 0x2543 JUMPI PUSH1 0x0 DUP10 DUP10 DUP6 DUP2 DUP2 LT PUSH2 0x209C JUMPI PUSH2 0x209B PUSH2 0x53E9 JUMP JUMPDEST JUMPDEST SWAP1 POP PUSH1 0x20 MUL DUP2 ADD SWAP1 PUSH2 0x20AE SWAP2 SWAP1 PUSH2 0x571C JUMP JUMPDEST DUP1 PUSH1 0x80 ADD SWAP1 PUSH2 0x20BD SWAP2 SWAP1 PUSH2 0x5744 JUMP JUMPDEST DUP4 DUP2 DUP2 LT PUSH2 0x20CE JUMPI PUSH2 0x20CD PUSH2 0x53E9 JUMP JUMPDEST JUMPDEST SWAP1 POP PUSH1 0x20 MUL ADD PUSH1 0x20 DUP2 ADD SWAP1 PUSH2 0x20E3 SWAP2 SWAP1 PUSH2 0x4C1A JUMP JUMPDEST SWAP1 POP DUP5 PUSH1 0x7 ADD PUSH1 0x0 DUP3 PUSH20 0xFFFFFFFFFFFFFFFFFFFFFFFFFFFFFFFFFFFFFFFF AND PUSH20 0xFFFFFFFFFFFFFFFFFFFFFFFFFFFFFFFFFFFFFFFF AND DUP2 MSTORE PUSH1 0x20 ADD SWAP1 DUP2 MSTORE PUSH1 0x20 ADD PUSH1 0x0 KECCAK256 PUSH1 0x0 SWAP1 SLOAD SWAP1 PUSH2 0x100 EXP SWAP1 DIV PUSH1 0xFF AND PUSH2 0x2143 JUMPI PUSH2 0x2142 DUP2 DUP8 PUSH2 0x426F JUMP JUMPDEST JUMPDEST PUSH2 0x2303 DUP6 DUP3 DUP13 DUP13 DUP9 DUP2 DUP2 LT PUSH2 0x215B JUMPI PUSH2 0x215A PUSH2 0x53E9 JUMP JUMPDEST JUMPDEST SWAP1 POP PUSH1 0x20 MUL DUP2 ADD SWAP1 PUSH2 0x216D SWAP2 SWAP1 PUSH2 0x571C JUMP JUMPDEST PUSH1 0x0 ADD PUSH1 0x20 DUP2 ADD SWAP1 PUSH2 0x217F SWAP2 SWAP1 PUSH2 0x4C1A JUMP JUMPDEST DUP7 PUSH1 0x2 PUSH1 0x4 DUP2 GT ISZERO PUSH2 0x2194 JUMPI PUSH2 0x2193 PUSH2 0x49C2 JUMP JUMPDEST JUMPDEST DUP9 PUSH1 0x4 DUP2 GT ISZERO PUSH2 0x21A7 JUMPI PUSH2 0x21A6 PUSH2 0x49C2 JUMP JUMPDEST JUMPDEST EQ PUSH2 0x21B3 JUMPI PUSH1 0x0 PUSH2 0x2200 JUMP JUMPDEST DUP15 DUP15 DUP11 DUP2 DUP2 LT PUSH2 0x21C6 JUMPI PUSH2 0x21C5 PUSH2 0x53E9 JUMP JUMPDEST JUMPDEST SWAP1 POP PUSH1 0x20 MUL DUP2 ADD SWAP1 PUSH2 0x21D8 SWAP2 SWAP1 PUSH2 0x571C JUMP JUMPDEST DUP1 PUSH1 0x40 ADD SWAP1 PUSH2 0x21E7 SWAP2 SWAP1 PUSH2 0x5859 JUMP JUMPDEST DUP9 DUP2 DUP2 LT PUSH2 0x21F8 JUMPI PUSH2 0x21F7 PUSH2 0x53E9 JUMP JUMPDEST JUMPDEST SWAP1 POP PUSH1 0x20 MUL ADD CALLDATALOAD JUMPDEST PUSH1 0x1 PUSH1 0x4 DUP2 GT ISZERO PUSH2 0x2214 JUMPI PUSH2 0x2213 PUSH2 0x49C2 JUMP JUMPDEST JUMPDEST DUP10 PUSH1 0x4 DUP2 GT ISZERO PUSH2 0x2227 JUMPI PUSH2 0x2226 PUSH2 0x49C2 JUMP JUMPDEST JUMPDEST EQ PUSH2 0x22B1 JUMPI PUSH1 0x3 PUSH1 0x4 DUP2 GT ISZERO PUSH2 0x2240 JUMPI PUSH2 0x223F PUSH2 0x49C2 JUMP JUMPDEST JUMPDEST DUP10 PUSH1 0x4 DUP2 GT ISZERO PUSH2 0x2253 JUMPI PUSH2 0x2252 PUSH2 0x49C2 JUMP JUMPDEST JUMPDEST EQ PUSH2 0x225F JUMPI PUSH1 0x1 PUSH2 0x22AC JUMP JUMPDEST DUP16 DUP16 DUP12 DUP2 DUP2 LT PUSH2 0x2272 JUMPI PUSH2 0x2271 PUSH2 0x53E9 JUMP JUMPDEST JUMPDEST SWAP1 POP PUSH1 0x20 MUL DUP2 ADD SWAP1 PUSH2 0x2284 SWAP2 SWAP1 PUSH2 0x571C JUMP JUMPDEST DUP1 PUSH1 0x60 ADD SWAP1 PUSH2 0x2293 SWAP2 SWAP1 PUSH2 0x5859 JUMP JUMPDEST DUP10 DUP2 DUP2 LT PUSH2 0x22A4 JUMPI PUSH2 0x22A3 PUSH2 0x53E9 JUMP JUMPDEST JUMPDEST SWAP1 POP PUSH1 0x20 MUL ADD CALLDATALOAD JUMPDEST PUSH2 0x22FE JUMP JUMPDEST DUP16 DUP16 DUP12 DUP2 DUP2 LT PUSH2 0x22C4 JUMPI PUSH2 0x22C3 PUSH2 0x53E9 JUMP JUMPDEST JUMPDEST SWAP1 POP PUSH1 0x20 MUL DUP2 ADD SWAP1 PUSH2 0x22D6 SWAP2 SWAP1 PUSH2 0x571C JUMP JUMPDEST DUP1 PUSH1 0x60 ADD SWAP1 PUSH2 0x22E5 SWAP2 SWAP1 PUSH2 0x5859 JUMP JUMPDEST DUP10 DUP2 DUP2 LT PUSH2 0x22F6 JUMPI PUSH2 0x22F5 PUSH2 0x53E9 JUMP JUMPDEST JUMPDEST SWAP1 POP PUSH1 0x20 MUL ADD CALLDATALOAD JUMPDEST PUSH2 0x45B9 JUMP JUMPDEST DUP1 PUSH20 0xFFFFFFFFFFFFFFFFFFFFFFFFFFFFFFFFFFFFFFFF AND DUP11 DUP11 DUP7 DUP2 DUP2 LT PUSH2 0x232D JUMPI PUSH2 0x232C PUSH2 0x53E9 JUMP JUMPDEST JUMPDEST SWAP1 POP PUSH1 0x20 MUL DUP2 ADD SWAP1 PUSH2 0x233F SWAP2 SWAP1 PUSH2 0x571C JUMP JUMPDEST PUSH1 0x0 ADD PUSH1 0x20 DUP2 ADD SWAP1 PUSH2 0x2351 SWAP2 SWAP1 PUSH2 0x4C1A JUMP JUMPDEST PUSH20 0xFFFFFFFFFFFFFFFFFFFFFFFFFFFFFFFFFFFFFFFF AND CALLER PUSH20 0xFFFFFFFFFFFFFFFFFFFFFFFFFFFFFFFFFFFFFFFF AND PUSH32 0xB44510937E7A7A5DD39439C63DF574818DB53DAC575444D730F4CC88DDA6D1C8 DUP7 PUSH1 0x2 PUSH1 0x4 DUP2 GT ISZERO PUSH2 0x23B4 JUMPI PUSH2 0x23B3 PUSH2 0x49C2 JUMP JUMPDEST JUMPDEST DUP9 PUSH1 0x4 DUP2 GT ISZERO PUSH2 0x23C7 JUMPI PUSH2 0x23C6 PUSH2 0x49C2 JUMP JUMPDEST JUMPDEST EQ PUSH2 0x23D3 JUMPI PUSH1 0x0 PUSH2 0x2420 JUMP JUMPDEST DUP15 DUP15 DUP11 DUP2 DUP2 LT PUSH2 0x23E6 JUMPI PUSH2 0x23E5 PUSH2 0x53E9 JUMP JUMPDEST JUMPDEST SWAP1 POP PUSH1 0x20 MUL DUP2 ADD SWAP1 PUSH2 0x23F8 SWAP2 SWAP1 PUSH2 0x571C JUMP JUMPDEST DUP1 PUSH1 0x40 ADD SWAP1 PUSH2 0x2407 SWAP2 SWAP1 PUSH2 0x5859 JUMP JUMPDEST DUP9 DUP2 DUP2 LT PUSH2 0x2418 JUMPI PUSH2 0x2417 PUSH2 0x53E9 JUMP JUMPDEST JUMPDEST SWAP1 POP PUSH1 0x20 MUL ADD CALLDATALOAD JUMPDEST PUSH1 0x1 PUSH1 0x4 DUP2 GT ISZERO PUSH2 0x2434 JUMPI PUSH2 0x2433 PUSH2 0x49C2 JUMP JUMPDEST JUMPDEST DUP10 PUSH1 0x4 DUP2 GT ISZERO PUSH2 0x2447 JUMPI PUSH2 0x2446 PUSH2 0x49C2 JUMP JUMPDEST JUMPDEST EQ PUSH2 0x24D1 JUMPI PUSH1 0x3 PUSH1 0x4 DUP2 GT ISZERO PUSH2 0x2460 JUMPI PUSH2 0x245F PUSH2 0x49C2 JUMP JUMPDEST JUMPDEST DUP10 PUSH1 0x4 DUP2 GT ISZERO PUSH2 0x2473 JUMPI PUSH2 0x2472 PUSH2 0x49C2 JUMP JUMPDEST JUMPDEST EQ PUSH2 0x247F JUMPI PUSH1 0x1 PUSH2 0x24CC JUMP JUMPDEST DUP16 DUP16 DUP12 DUP2 DUP2 LT PUSH2 0x2492 JUMPI PUSH2 0x2491 PUSH2 0x53E9 JUMP JUMPDEST JUMPDEST SWAP1 POP PUSH1 0x20 MUL DUP2 ADD SWAP1 PUSH2 0x24A4 SWAP2 SWAP1 PUSH2 0x571C JUMP JUMPDEST DUP1 PUSH1 0x60 ADD SWAP1 PUSH2 0x24B3 SWAP2 SWAP1 PUSH2 0x5859 JUMP JUMPDEST DUP10 DUP2 DUP2 LT PUSH2 0x24C4 JUMPI PUSH2 0x24C3 PUSH2 0x53E9 JUMP JUMPDEST JUMPDEST SWAP1 POP PUSH1 0x20 MUL ADD CALLDATALOAD JUMPDEST PUSH2 0x251E JUMP JUMPDEST DUP16 DUP16 DUP12 DUP2 DUP2 LT PUSH2 0x24E4 JUMPI PUSH2 0x24E3 PUSH2 0x53E9 JUMP JUMPDEST JUMPDEST SWAP1 POP PUSH1 0x20 MUL DUP2 ADD SWAP1 PUSH2 0x24F6 SWAP2 SWAP1 PUSH2 0x571C JUMP JUMPDEST DUP1 PUSH1 0x60 ADD SWAP1 PUSH2 0x2505 SWAP2 SWAP1 PUSH2 0x5859 JUMP JUMPDEST DUP10 DUP2 DUP2 LT PUSH2 0x2516 JUMPI PUSH2 0x2515 PUSH2 0x53E9 JUMP JUMPDEST JUMPDEST SWAP1 POP PUSH1 0x20 MUL ADD CALLDATALOAD JUMPDEST PUSH1 0x40 MLOAD PUSH2 0x252D SWAP4 SWAP3 SWAP2 SWAP1 PUSH2 0x59D3 JUMP JUMPDEST PUSH1 0x40 MLOAD DUP1 SWAP2 SUB SWAP1 LOG4 POP DUP1 DUP1 PUSH1 0x1 ADD SWAP2 POP POP PUSH2 0x204A JUMP JUMPDEST POP POP DUP1 DUP1 PUSH1 0x1 ADD SWAP2 POP POP PUSH2 0x1AE2 JUMP JUMPDEST POP CALLER PUSH20 0xFFFFFFFFFFFFFFFFFFFFFFFFFFFFFFFFFFFFFFFF AND PUSH32 0xDFE6DD715D896CA6C4A17441D3E7A45CB92EC36B4F4A8CDF60A7498EC1341B4F DUP9 DUP4 PUSH1 0x8 ADD PUSH1 0x40 MLOAD PUSH2 0x259E SWAP3 SWAP2 SWAP1 PUSH2 0x5AF6 JUMP JUMPDEST PUSH1 0x40 MLOAD DUP1 SWAP2 SUB SWAP1 LOG2 CALLER PUSH20 0xFFFFFFFFFFFFFFFFFFFFFFFFFFFFFFFFFFFFFFFF AND PUSH32 0xB84522DA2D2039E8F4A7A0993EEA2CF0DD5C31C0D7265951C4C4E7985DCDA7BE DUP6 DUP6 PUSH1 0x40 MLOAD PUSH2 0x25EE SWAP3 SWAP2 SWAP1 PUSH2 0x52C9 JUMP JUMPDEST PUSH1 0x40 MLOAD DUP1 SWAP2 SUB SWAP1 LOG2 POP POP PUSH2 0x2600 PUSH2 0x4730 JUMP JUMPDEST POP POP POP POP POP JUMP JUMPDEST PUSH1 0x60 PUSH1 0x5 PUSH1 0x0 DUP4 PUSH20 0xFFFFFFFFFFFFFFFFFFFFFFFFFFFFFFFFFFFFFFFF AND PUSH20 0xFFFFFFFFFFFFFFFFFFFFFFFFFFFFFFFFFFFFFFFF AND DUP2 MSTORE PUSH1 0x20 ADD SWAP1 DUP2 MSTORE PUSH1 0x20 ADD PUSH1 0x0 KECCAK256 DUP1 SLOAD DUP1 PUSH1 0x20 MUL PUSH1 0x20 ADD PUSH1 0x40 MLOAD SWAP1 DUP2 ADD PUSH1 0x40 MSTORE DUP1 SWAP3 SWAP2 SWAP1 DUP2 DUP2 MSTORE PUSH1 0x20 ADD DUP3 DUP1 SLOAD DUP1 ISZERO PUSH2 0x26C8 JUMPI PUSH1 0x20 MUL DUP3 ADD SWAP2 SWAP1 PUSH1 0x0 MSTORE PUSH1 0x20 PUSH1 0x0 KECCAK256 SWAP1 JUMPDEST DUP2 PUSH1 0x0 SWAP1 SLOAD SWAP1 PUSH2 0x100 EXP SWAP1 DIV PUSH20 0xFFFFFFFFFFFFFFFFFFFFFFFFFFFFFFFFFFFFFFFF AND PUSH20 0xFFFFFFFFFFFFFFFFFFFFFFFFFFFFFFFFFFFFFFFF AND DUP2 MSTORE PUSH1 0x20 ADD SWAP1 PUSH1 0x1 ADD SWAP1 DUP1 DUP4 GT PUSH2 0x267E JUMPI JUMPDEST POP POP POP POP POP SWAP1 POP SWAP2 SWAP1 POP JUMP JUMPDEST PUSH2 0x26DC PUSH2 0x41A2 JUMP JUMPDEST PUSH2 0x26E6 PUSH1 0x0 PUSH2 0x4739 JUMP JUMPDEST JUMP JUMPDEST PUSH1 0x60 PUSH1 0x7 PUSH1 0x0 DUP4 PUSH20 0xFFFFFFFFFFFFFFFFFFFFFFFFFFFFFFFFFFFFFFFF AND PUSH20 0xFFFFFFFFFFFFFFFFFFFFFFFFFFFFFFFFFFFFFFFF AND DUP2 MSTORE PUSH1 0x20 ADD SWAP1 DUP2 MSTORE PUSH1 0x20 ADD PUSH1 0x0 KECCAK256 DUP1 SLOAD DUP1 PUSH1 0x20 MUL PUSH1 0x20 ADD PUSH1 0x40 MLOAD SWAP1 DUP2 ADD PUSH1 0x40 MSTORE DUP1 SWAP3 SWAP2 SWAP1 DUP2 DUP2 MSTORE PUSH1 0x20 ADD DUP3 DUP1 SLOAD DUP1 ISZERO PUSH2 0x2773 JUMPI PUSH1 0x20 MUL DUP3 ADD SWAP2 SWAP1 PUSH1 0x0 MSTORE PUSH1 0x20 PUSH1 0x0 KECCAK256 SWAP1 JUMPDEST DUP2 SLOAD DUP2 MSTORE PUSH1 0x20 ADD SWAP1 PUSH1 0x1 ADD SWAP1 DUP1 DUP4 GT PUSH2 0x275F JUMPI JUMPDEST POP POP POP POP POP SWAP1 POP SWAP2 SWAP1 POP JUMP JUMPDEST PUSH1 0x5 PUSH1 0x20 MSTORE DUP2 PUSH1 0x0 MSTORE PUSH1 0x40 PUSH1 0x0 KECCAK256 DUP2 DUP2 SLOAD DUP2 LT PUSH2 0x279B JUMPI PUSH1 0x0 DUP1 REVERT JUMPDEST SWAP1 PUSH1 0x0 MSTORE PUSH1 0x20 PUSH1 0x0 KECCAK256 ADD PUSH1 0x0 SWAP2 POP SWAP2 POP SWAP1 SLOAD SWAP1 PUSH2 0x100 EXP SWAP1 DIV PUSH20 0xFFFFFFFFFFFFFFFFFFFFFFFFFFFFFFFFFFFFFFFF AND DUP2 JUMP JUMPDEST PUSH1 0x0 DUP1 PUSH1 0x0 SWAP1 SLOAD SWAP1 PUSH2 0x100 EXP SWAP1 DIV PUSH20 0xFFFFFFFFFFFFFFFFFFFFFFFFFFFFFFFFFFFFFFFF AND SWAP1 POP SWAP1 JUMP JUMPDEST PUSH2 0x27FE PUSH2 0x4229 JUMP JUMPDEST PUSH1 0x0 DUP2 SUB PUSH2 0x2838 JUMPI PUSH1 0x40 MLOAD PUSH32 0x97643B5200000000000000000000000000000000000000000000000000000000 DUP2 MSTORE PUSH1 0x4 ADD PUSH1 0x40 MLOAD DUP1 SWAP2 SUB SWAP1 REVERT JUMPDEST PUSH1 0x0 PUSH1 0x6 PUSH1 0x0 DUP4 DUP2 MSTORE PUSH1 0x20 ADD SWAP1 DUP2 MSTORE PUSH1 0x20 ADD PUSH1 0x0 KECCAK256 SWAP1 POP DUP1 PUSH1 0x4 ADD PUSH1 0x0 SWAP1 SLOAD SWAP1 PUSH2 0x100 EXP SWAP1 DIV PUSH1 0xFF AND PUSH2 0x2897 JUMPI PUSH1 0x40 MLOAD PUSH32 0x40FCC2F600000000000000000000000000000000000000000000000000000000 DUP2 MSTORE PUSH1 0x4 ADD PUSH1 0x40 MLOAD DUP1 SWAP2 SUB SWAP1 REVERT JUMPDEST DUP1 PUSH1 0x7 ADD PUSH1 0x0 CALLER PUSH20 0xFFFFFFFFFFFFFFFFFFFFFFFFFFFFFFFFFFFFFFFF AND PUSH20 0xFFFFFFFFFFFFFFFFFFFFFFFFFFFFFFFFFFFFFFFF AND DUP2 MSTORE PUSH1 0x20 ADD SWAP1 DUP2 MSTORE PUSH1 0x20 ADD PUSH1 0x0 KECCAK256 PUSH1 0x0 SWAP1 SLOAD SWAP1 PUSH2 0x100 EXP SWAP1 DIV PUSH1 0xFF AND PUSH2 0x291C JUMPI PUSH1 0x40 MLOAD PUSH32 0x43290F5B00000000000000000000000000000000000000000000000000000000 DUP2 MSTORE PUSH1 0x4 ADD PUSH1 0x40 MLOAD DUP1 SWAP2 SUB SWAP1 REVERT JUMPDEST DUP1 PUSH1 0xC ADD PUSH1 0x0 SWAP1 SLOAD SWAP1 PUSH2 0x100 EXP SWAP1 DIV PUSH1 0xFF AND PUSH2 0x2964 JUMPI PUSH1 0x40 MLOAD PUSH32 0x83D2F9700000000000000000000000000000000000000000000000000000000 DUP2 MSTORE PUSH1 0x4 ADD PUSH1 0x40 MLOAD DUP1 SWAP2 SUB SWAP1 REVERT JUMPDEST PUSH2 0x296D DUP3 PUSH2 0xBCD JUMP JUMPDEST PUSH2 0x29A3 JUMPI PUSH1 0x40 MLOAD PUSH32 0x2850E4FB00000000000000000000000000000000000000000000000000000000 DUP2 MSTORE PUSH1 0x4 ADD PUSH1 0x40 MLOAD DUP1 SWAP2 SUB SWAP1 REVERT JUMPDEST DUP1 PUSH1 0xE ADD PUSH1 0x0 CALLER PUSH20 0xFFFFFFFFFFFFFFFFFFFFFFFFFFFFFFFFFFFFFFFF AND PUSH20 0xFFFFFFFFFFFFFFFFFFFFFFFFFFFFFFFFFFFFFFFF AND DUP2 MSTORE PUSH1 0x20 ADD SWAP1 DUP2 MSTORE PUSH1 0x20 ADD PUSH1 0x0 KECCAK256 PUSH1 0x0 SWAP1 SLOAD SWAP1 PUSH2 0x100 EXP SWAP1 DIV PUSH1 0xFF AND ISZERO PUSH2 0x2A29 JUMPI PUSH1 0x40 MLOAD PUSH32 0x646CF55800000000000000000000000000000000000000000000000000000000 DUP2 MSTORE PUSH1 0x4 ADD PUSH1 0x40 MLOAD DUP1 SWAP2 SUB SWAP1 REVERT JUMPDEST PUSH1 0x1 DUP2 PUSH1 0xE ADD PUSH1 0x0 CALLER PUSH20 0xFFFFFFFFFFFFFFFFFFFFFFFFFFFFFFFFFFFFFFFF AND PUSH20 0xFFFFFFFFFFFFFFFFFFFFFFFFFFFFFFFFFFFFFFFF AND DUP2 MSTORE PUSH1 0x20 ADD SWAP1 DUP2 MSTORE PUSH1 0x20 ADD PUSH1 0x0 KECCAK256 PUSH1 0x0 PUSH2 0x100 EXP DUP2 SLOAD DUP2 PUSH1 0xFF MUL NOT AND SWAP1 DUP4 ISZERO ISZERO MUL OR SWAP1 SSTORE POP PUSH1 0x0 DUP2 PUSH1 0x9 ADD PUSH1 0x0 CALLER PUSH20 0xFFFFFFFFFFFFFFFFFFFFFFFFFFFFFFFFFFFFFFFF AND PUSH20 0xFFFFFFFFFFFFFFFFFFFFFFFFFFFFFFFFFFFFFFFF AND DUP2 MSTORE PUSH1 0x20 ADD SWAP1 DUP2 MSTORE PUSH1 0x20 ADD PUSH1 0x0 KECCAK256 SWAP1 POP PUSH1 0x0 JUMPDEST DUP2 DUP1 SLOAD SWAP1 POP DUP2 LT ISZERO PUSH2 0x3155 JUMPI DUP2 DUP2 DUP2 SLOAD DUP2 LT PUSH2 0x2AEA JUMPI PUSH2 0x2AE9 PUSH2 0x53E9 JUMP JUMPDEST JUMPDEST SWAP1 PUSH1 0x0 MSTORE PUSH1 0x20 PUSH1 0x0 KECCAK256 SWAP1 PUSH1 0x4 MUL ADD PUSH1 0x3 ADD PUSH1 0x0 SWAP1 SLOAD SWAP1 PUSH2 0x100 EXP SWAP1 DIV PUSH1 0xFF AND PUSH2 0x3148 JUMPI PUSH1 0x0 PUSH1 0x4 DUP2 GT ISZERO PUSH2 0x2B21 JUMPI PUSH2 0x2B20 PUSH2 0x49C2 JUMP JUMPDEST JUMPDEST DUP3 DUP3 DUP2 SLOAD DUP2 LT PUSH2 0x2B34 JUMPI PUSH2 0x2B33 PUSH2 0x53E9 JUMP JUMPDEST JUMPDEST SWAP1 PUSH1 0x0 MSTORE PUSH1 0x20 PUSH1 0x0 KECCAK256 SWAP1 PUSH1 0x4 MUL ADD PUSH1 0x0 ADD PUSH1 0x14 SWAP1 SLOAD SWAP1 PUSH2 0x100 EXP SWAP1 DIV PUSH1 0xFF AND PUSH1 0x4 DUP2 GT ISZERO PUSH2 0x2B65 JUMPI PUSH2 0x2B64 PUSH2 0x49C2 JUMP JUMPDEST JUMPDEST SUB PUSH2 0x2C37 JUMPI PUSH1 0x0 CALLER PUSH20 0xFFFFFFFFFFFFFFFFFFFFFFFFFFFFFFFFFFFFFFFF AND DUP4 DUP4 DUP2 SLOAD DUP2 LT PUSH2 0x2B96 JUMPI PUSH2 0x2B95 PUSH2 0x53E9 JUMP JUMPDEST JUMPDEST SWAP1 PUSH1 0x0 MSTORE PUSH1 0x20 PUSH1 0x0 KECCAK256 SWAP1 PUSH1 0x4 MUL ADD PUSH1 0x2 ADD SLOAD PUSH1 0x40 MLOAD PUSH2 0x2BB4 SWAP1 PUSH2 0x5B5B JUMP JUMPDEST PUSH1 0x0 PUSH1 0x40 MLOAD DUP1 DUP4 SUB DUP2 DUP6 DUP8 GAS CALL SWAP3 POP POP POP RETURNDATASIZE DUP1 PUSH1 0x0 DUP2 EQ PUSH2 0x2BF1 JUMPI PUSH1 0x40 MLOAD SWAP2 POP PUSH1 0x1F NOT PUSH1 0x3F RETURNDATASIZE ADD AND DUP3 ADD PUSH1 0x40 MSTORE RETURNDATASIZE DUP3 MSTORE RETURNDATASIZE PUSH1 0x0 PUSH1 0x20 DUP5 ADD RETURNDATACOPY PUSH2 0x2BF6 JUMP JUMPDEST PUSH1 0x60 SWAP2 POP JUMPDEST POP POP SWAP1 POP DUP1 PUSH2 0x2C31 JUMPI PUSH1 0x40 MLOAD PUSH32 0x6747A28800000000000000000000000000000000000000000000000000000000 DUP2 MSTORE PUSH1 0x4 ADD PUSH1 0x40 MLOAD DUP1 SWAP2 SUB SWAP1 REVERT JUMPDEST POP PUSH2 0x3017 JUMP JUMPDEST PUSH1 0x1 PUSH1 0x4 DUP2 GT ISZERO PUSH2 0x2C4B JUMPI PUSH2 0x2C4A PUSH2 0x49C2 JUMP JUMPDEST JUMPDEST DUP3 DUP3 DUP2 SLOAD DUP2 LT PUSH2 0x2C5E JUMPI PUSH2 0x2C5D PUSH2 0x53E9 JUMP JUMPDEST JUMPDEST SWAP1 PUSH1 0x0 MSTORE PUSH1 0x20 PUSH1 0x0 KECCAK256 SWAP1 PUSH1 0x4 MUL ADD PUSH1 0x0 ADD PUSH1 0x14 SWAP1 SLOAD SWAP1 PUSH2 0x100 EXP SWAP1 DIV PUSH1 0xFF AND PUSH1 0x4 DUP2 GT ISZERO PUSH2 0x2C8F JUMPI PUSH2 0x2C8E PUSH2 0x49C2 JUMP JUMPDEST JUMPDEST SUB PUSH2 0x2D80 JUMPI DUP2 DUP2 DUP2 SLOAD DUP2 LT PUSH2 0x2CA7 JUMPI PUSH2 0x2CA6 PUSH2 0x53E9 JUMP JUMPDEST JUMPDEST SWAP1 PUSH1 0x0 MSTORE PUSH1 0x20 PUSH1 0x0 KECCAK256 SWAP1 PUSH1 0x4 MUL ADD PUSH1 0x0 ADD PUSH1 0x0 SWAP1 SLOAD SWAP1 PUSH2 0x100 EXP SWAP1 DIV PUSH20 0xFFFFFFFFFFFFFFFFFFFFFFFFFFFFFFFFFFFFFFFF AND PUSH20 0xFFFFFFFFFFFFFFFFFFFFFFFFFFFFFFFFFFFFFFFF AND PUSH4 0xA9059CBB CALLER DUP5 DUP5 DUP2 SLOAD DUP2 LT PUSH2 0x2D08 JUMPI PUSH2 0x2D07 PUSH2 0x53E9 JUMP JUMPDEST JUMPDEST SWAP1 PUSH1 0x0 MSTORE PUSH1 0x20 PUSH1 0x0 KECCAK256 SWAP1 PUSH1 0x4 MUL ADD PUSH1 0x2 ADD SLOAD PUSH1 0x40 MLOAD DUP4 PUSH4 0xFFFFFFFF AND PUSH1 0xE0 SHL DUP2 MSTORE PUSH1 0x4 ADD PUSH2 0x2D37 SWAP3 SWAP2 SWAP1 PUSH2 0x5B70 JUMP JUMPDEST PUSH1 0x20 PUSH1 0x40 MLOAD DUP1 DUP4 SUB DUP2 PUSH1 0x0 DUP8 GAS CALL ISZERO DUP1 ISZERO PUSH2 0x2D56 JUMPI RETURNDATASIZE PUSH1 0x0 DUP1 RETURNDATACOPY RETURNDATASIZE PUSH1 0x0 REVERT JUMPDEST POP POP POP POP PUSH1 0x40 MLOAD RETURNDATASIZE PUSH1 0x1F NOT PUSH1 0x1F DUP3 ADD AND DUP3 ADD DUP1 PUSH1 0x40 MSTORE POP DUP2 ADD SWAP1 PUSH2 0x2D7A SWAP2 SWAP1 PUSH2 0x5908 JUMP JUMPDEST POP PUSH2 0x3016 JUMP JUMPDEST PUSH1 0x2 PUSH1 0x4 DUP2 GT ISZERO PUSH2 0x2D94 JUMPI PUSH2 0x2D93 PUSH2 0x49C2 JUMP JUMPDEST JUMPDEST DUP3 DUP3 DUP2 SLOAD DUP2 LT PUSH2 0x2DA7 JUMPI PUSH2 0x2DA6 PUSH2 0x53E9 JUMP JUMPDEST JUMPDEST SWAP1 PUSH1 0x0 MSTORE PUSH1 0x20 PUSH1 0x0 KECCAK256 SWAP1 PUSH1 0x4 MUL ADD PUSH1 0x0 ADD PUSH1 0x14 SWAP1 SLOAD SWAP1 PUSH2 0x100 EXP SWAP1 DIV PUSH1 0xFF AND PUSH1 0x4 DUP2 GT ISZERO PUSH2 0x2DD8 JUMPI PUSH2 0x2DD7 PUSH2 0x49C2 JUMP JUMPDEST JUMPDEST SUB PUSH2 0x2EB9 JUMPI DUP2 DUP2 DUP2 SLOAD DUP2 LT PUSH2 0x2DF0 JUMPI PUSH2 0x2DEF PUSH2 0x53E9 JUMP JUMPDEST JUMPDEST SWAP1 PUSH1 0x0 MSTORE PUSH1 0x20 PUSH1 0x0 KECCAK256 SWAP1 PUSH1 0x4 MUL ADD PUSH1 0x0 ADD PUSH1 0x0 SWAP1 SLOAD SWAP1 PUSH2 0x100 EXP SWAP1 DIV PUSH20 0xFFFFFFFFFFFFFFFFFFFFFFFFFFFFFFFFFFFFFFFF AND PUSH20 0xFFFFFFFFFFFFFFFFFFFFFFFFFFFFFFFFFFFFFFFF AND PUSH4 0x42842E0E ADDRESS CALLER DUP6 DUP6 DUP2 SLOAD DUP2 LT PUSH2 0x2E52 JUMPI PUSH2 0x2E51 PUSH2 0x53E9 JUMP JUMPDEST JUMPDEST SWAP1 PUSH1 0x0 MSTORE PUSH1 0x20 PUSH1 0x0 KECCAK256 SWAP1 PUSH1 0x4 MUL ADD PUSH1 0x1 ADD SLOAD PUSH1 0x40 MLOAD DUP5 PUSH4 0xFFFFFFFF AND PUSH1 0xE0 SHL DUP2 MSTORE PUSH1 0x4 ADD PUSH2 0x2E82 SWAP4 SWAP3 SWAP2 SWAP1 PUSH2 0x58BC JUMP JUMPDEST PUSH1 0x0 PUSH1 0x40 MLOAD DUP1 DUP4 SUB DUP2 PUSH1 0x0 DUP8 DUP1 EXTCODESIZE ISZERO DUP1 ISZERO PUSH2 0x2E9C JUMPI PUSH1 0x0 DUP1 REVERT JUMPDEST POP GAS CALL ISZERO DUP1 ISZERO PUSH2 0x2EB0 JUMPI RETURNDATASIZE PUSH1 0x0 DUP1 RETURNDATACOPY RETURNDATASIZE PUSH1 0x0 REVERT JUMPDEST POP POP POP POP PUSH2 0x3015 JUMP JUMPDEST PUSH1 0x3 PUSH1 0x4 DUP2 GT ISZERO PUSH2 0x2ECD JUMPI PUSH2 0x2ECC PUSH2 0x49C2 JUMP JUMPDEST JUMPDEST DUP3 DUP3 DUP2 SLOAD DUP2 LT PUSH2 0x2EE0 JUMPI PUSH2 0x2EDF PUSH2 0x53E9 JUMP JUMPDEST JUMPDEST SWAP1 PUSH1 0x0 MSTORE PUSH1 0x20 PUSH1 0x0 KECCAK256 SWAP1 PUSH1 0x4 MUL ADD PUSH1 0x0 ADD PUSH1 0x14 SWAP1 SLOAD SWAP1 PUSH2 0x100 EXP SWAP1 DIV PUSH1 0xFF AND PUSH1 0x4 DUP2 GT ISZERO PUSH2 0x2F11 JUMPI PUSH2 0x2F10 PUSH2 0x49C2 JUMP JUMPDEST JUMPDEST SUB PUSH2 0x3014 JUMPI DUP2 DUP2 DUP2 SLOAD DUP2 LT PUSH2 0x2F29 JUMPI PUSH2 0x2F28 PUSH2 0x53E9 JUMP JUMPDEST JUMPDEST SWAP1 PUSH1 0x0 MSTORE PUSH1 0x20 PUSH1 0x0 KECCAK256 SWAP1 PUSH1 0x4 MUL ADD PUSH1 0x0 ADD PUSH1 0x0 SWAP1 SLOAD SWAP1 PUSH2 0x100 EXP SWAP1 DIV PUSH20 0xFFFFFFFFFFFFFFFFFFFFFFFFFFFFFFFFFFFFFFFF AND PUSH20 0xFFFFFFFFFFFFFFFFFFFFFFFFFFFFFFFFFFFFFFFF AND PUSH4 0xF242432A ADDRESS CALLER DUP6 DUP6 DUP2 SLOAD DUP2 LT PUSH2 0x2F8B JUMPI PUSH2 0x2F8A PUSH2 0x53E9 JUMP JUMPDEST JUMPDEST SWAP1 PUSH1 0x0 MSTORE PUSH1 0x20 PUSH1 0x0 KECCAK256 SWAP1 PUSH1 0x4 MUL ADD PUSH1 0x1 ADD SLOAD DUP7 DUP7 DUP2 SLOAD DUP2 LT PUSH2 0x2FB0 JUMPI PUSH2 0x2FAF PUSH2 0x53E9 JUMP JUMPDEST JUMPDEST SWAP1 PUSH1 0x0 MSTORE PUSH1 0x20 PUSH1 0x0 KECCAK256 SWAP1 PUSH1 0x4 MUL ADD PUSH1 0x2 ADD SLOAD PUSH1 0x40 MLOAD DUP6 PUSH4 0xFFFFFFFF AND PUSH1 0xE0 SHL DUP2 MSTORE PUSH1 0x4 ADD PUSH2 0x2FE1 SWAP5 SWAP4 SWAP3 SWAP2 SWAP1 PUSH2 0x596C JUMP JUMPDEST PUSH1 0x0 PUSH1 0x40 MLOAD DUP1 DUP4 SUB DUP2 PUSH1 0x0 DUP8 DUP1 EXTCODESIZE ISZERO DUP1 ISZERO PUSH2 0x2FFB JUMPI PUSH1 0x0 DUP1 REVERT JUMPDEST POP GAS CALL ISZERO DUP1 ISZERO PUSH2 0x300F JUMPI RETURNDATASIZE PUSH1 0x0 DUP1 RETURNDATACOPY RETURNDATASIZE PUSH1 0x0 REVERT JUMPDEST POP POP POP POP JUMPDEST JUMPDEST JUMPDEST JUMPDEST PUSH1 0x1 DUP3 DUP3 DUP2 SLOAD DUP2 LT PUSH2 0x302C JUMPI PUSH2 0x302B PUSH2 0x53E9 JUMP JUMPDEST JUMPDEST SWAP1 PUSH1 0x0 MSTORE PUSH1 0x20 PUSH1 0x0 KECCAK256 SWAP1 PUSH1 0x4 MUL ADD PUSH1 0x3 ADD PUSH1 0x0 PUSH2 0x100 EXP DUP2 SLOAD DUP2 PUSH1 0xFF MUL NOT AND SWAP1 DUP4 ISZERO ISZERO MUL OR SWAP1 SSTORE POP DUP2 DUP2 DUP2 SLOAD DUP2 LT PUSH2 0x3067 JUMPI PUSH2 0x3066 PUSH2 0x53E9 JUMP JUMPDEST JUMPDEST SWAP1 PUSH1 0x0 MSTORE PUSH1 0x20 PUSH1 0x0 KECCAK256 SWAP1 PUSH1 0x4 MUL ADD PUSH1 0x0 ADD PUSH1 0x0 SWAP1 SLOAD SWAP1 PUSH2 0x100 EXP SWAP1 DIV PUSH20 0xFFFFFFFFFFFFFFFFFFFFFFFFFFFFFFFFFFFFFFFF AND PUSH20 0xFFFFFFFFFFFFFFFFFFFFFFFFFFFFFFFFFFFFFFFF AND CALLER PUSH20 0xFFFFFFFFFFFFFFFFFFFFFFFFFFFFFFFFFFFFFFFF AND PUSH32 0x2AF1BA4C94053430820E17E81238044BAF8BAB1D5D1975376CA5BAD693068BEF DUP5 DUP5 DUP2 SLOAD DUP2 LT PUSH2 0x30FA JUMPI PUSH2 0x30F9 PUSH2 0x53E9 JUMP JUMPDEST JUMPDEST SWAP1 PUSH1 0x0 MSTORE PUSH1 0x20 PUSH1 0x0 KECCAK256 SWAP1 PUSH1 0x4 MUL ADD PUSH1 0x1 ADD SLOAD DUP6 DUP6 DUP2 SLOAD DUP2 LT PUSH2 0x311F JUMPI PUSH2 0x311E PUSH2 0x53E9 JUMP JUMPDEST JUMPDEST SWAP1 PUSH1 0x0 MSTORE PUSH1 0x20 PUSH1 0x0 KECCAK256 SWAP1 PUSH1 0x4 MUL ADD PUSH1 0x2 ADD SLOAD PUSH1 0x40 MLOAD PUSH2 0x313F SWAP3 SWAP2 SWAP1 PUSH2 0x52C9 JUMP JUMPDEST PUSH1 0x40 MLOAD DUP1 SWAP2 SUB SWAP1 LOG3 JUMPDEST DUP1 DUP1 PUSH1 0x1 ADD SWAP2 POP POP PUSH2 0x2ACB JUMP JUMPDEST POP DUP2 PUSH1 0x1 ADD PUSH1 0x0 SWAP1 SLOAD SWAP1 PUSH2 0x100 EXP SWAP1 DIV PUSH20 0xFFFFFFFFFFFFFFFFFFFFFFFFFFFFFFFFFFFFFFFF AND PUSH20 0xFFFFFFFFFFFFFFFFFFFFFFFFFFFFFFFFFFFFFFFF AND CALLER PUSH20 0xFFFFFFFFFFFFFFFFFFFFFFFFFFFFFFFFFFFFFFFF AND PUSH32 0xB7ACAF12118F88F42CE2F08BB6327569F1FB61BEE1B471032F28EC5EAAF44B85 PUSH1 0x40 MLOAD PUSH1 0x40 MLOAD DUP1 SWAP2 SUB SWAP1 LOG3 POP POP PUSH2 0x31DE PUSH2 0x4730 JUMP JUMPDEST POP JUMP JUMPDEST PUSH2 0x31E9 PUSH2 0x4229 JUMP JUMPDEST PUSH1 0x0 PUSH20 0xFFFFFFFFFFFFFFFFFFFFFFFFFFFFFFFFFFFFFFFF AND DUP4 PUSH20 0xFFFFFFFFFFFFFFFFFFFFFFFFFFFFFFFFFFFFFFFF AND SUB PUSH2 0x324F JUMPI PUSH1 0x40 MLOAD PUSH32 0xD343D98400000000000000000000000000000000000000000000000000000000 DUP2 MSTORE PUSH1 0x4 ADD PUSH1 0x40 MLOAD DUP1 SWAP2 SUB SWAP1 REVERT JUMPDEST PUSH1 0x0 DUP3 DUP3 SWAP1 POP EQ DUP1 ISZERO PUSH2 0x3262 JUMPI POP PUSH1 0x0 CALLVALUE EQ JUMPDEST ISZERO PUSH2 0x3299 JUMPI PUSH1 0x40 MLOAD PUSH32 0x7658E18E00000000000000000000000000000000000000000000000000000000 DUP2 MSTORE PUSH1 0x4 ADD PUSH1 0x40 MLOAD DUP1 SWAP2 SUB SWAP1 REVERT JUMPDEST PUSH1 0x0 DUP5 SUB PUSH2 0x32D3 JUMPI PUSH1 0x40 MLOAD PUSH32 0x97643B5200000000000000000000000000000000000000000000000000000000 DUP2 MSTORE PUSH1 0x4 ADD PUSH1 0x40 MLOAD DUP1 SWAP2 SUB SWAP1 REVERT JUMPDEST PUSH1 0x0 PUSH1 0x6 PUSH1 0x0 DUP7 DUP2 MSTORE PUSH1 0x20 ADD SWAP1 DUP2 MSTORE PUSH1 0x20 ADD PUSH1 0x0 KECCAK256 SWAP1 POP DUP1 PUSH1 0x4 ADD PUSH1 0x0 SWAP1 SLOAD SWAP1 PUSH2 0x100 EXP SWAP1 DIV PUSH1 0xFF AND PUSH2 0x333D JUMPI DUP5 PUSH1 0x40 MLOAD PUSH32 0x8C209E5600000000000000000000000000000000000000000000000000000000 DUP2 MSTORE PUSH1 0x4 ADD PUSH2 0x3334 SWAP2 SWAP1 PUSH2 0x4BAC JUMP JUMPDEST PUSH1 0x40 MLOAD DUP1 SWAP2 SUB SWAP1 REVERT JUMPDEST CALLER PUSH20 0xFFFFFFFFFFFFFFFFFFFFFFFFFFFFFFFFFFFFFFFF AND DUP2 PUSH1 0x1 ADD PUSH1 0x0 SWAP1 SLOAD SWAP1 PUSH2 0x100 EXP SWAP1 DIV PUSH20 0xFFFFFFFFFFFFFFFFFFFFFFFFFFFFFFFFFFFFFFFF AND PUSH20 0xFFFFFFFFFFFFFFFFFFFFFFFFFFFFFFFFFFFFFFFF AND EQ PUSH2 0x33C6 JUMPI PUSH1 0x40 MLOAD PUSH32 0xF5E6BD800000000000000000000000000000000000000000000000000000000 DUP2 MSTORE PUSH1 0x4 ADD PUSH1 0x40 MLOAD DUP1 SWAP2 SUB SWAP1 REVERT JUMPDEST DUP1 PUSH1 0x7 ADD PUSH1 0x0 DUP6 PUSH20 0xFFFFFFFFFFFFFFFFFFFFFFFFFFFFFFFFFFFFFFFF AND PUSH20 0xFFFFFFFFFFFFFFFFFFFFFFFFFFFFFFFFFFFFFFFF AND DUP2 MSTORE PUSH1 0x20 ADD SWAP1 DUP2 MSTORE PUSH1 0x20 ADD PUSH1 0x0 KECCAK256 PUSH1 0x0 SWAP1 SLOAD SWAP1 PUSH2 0x100 EXP SWAP1 DIV PUSH1 0xFF AND PUSH2 0x3424 JUMPI PUSH2 0x3423 DUP5 DUP7 PUSH2 0x426F JUMP JUMPDEST JUMPDEST PUSH1 0x0 CALLVALUE GT ISZERO PUSH2 0x34A3 JUMPI PUSH2 0x343D DUP2 DUP6 PUSH1 0x0 DUP1 PUSH1 0x0 CALLVALUE PUSH2 0x45B9 JUMP JUMPDEST DUP4 PUSH20 0xFFFFFFFFFFFFFFFFFFFFFFFFFFFFFFFFFFFFFFFF AND CALLER PUSH20 0xFFFFFFFFFFFFFFFFFFFFFFFFFFFFFFFFFFFFFFFF AND PUSH32 0x4F2134111E67CF4C9531998396B8BD87DF7FA84AC8D32991EFE6BE8082F277B CALLVALUE PUSH1 0x40 MLOAD PUSH2 0x349A SWAP2 SWAP1 PUSH2 0x4BAC JUMP JUMPDEST PUSH1 0x40 MLOAD DUP1 SWAP2 SUB SWAP1 LOG3 JUMPDEST PUSH1 0x0 JUMPDEST DUP4 DUP4 SWAP1 POP DUP2 LT ISZERO PUSH2 0x3D0B JUMPI PUSH1 0x0 DUP5 DUP5 DUP4 DUP2 DUP2 LT PUSH2 0x34C6 JUMPI PUSH2 0x34C5 PUSH2 0x53E9 JUMP JUMPDEST JUMPDEST SWAP1 POP PUSH1 0x20 MUL DUP2 ADD SWAP1 PUSH2 0x34D8 SWAP2 SWAP1 PUSH2 0x571C JUMP JUMPDEST PUSH1 0x20 ADD PUSH1 0x20 DUP2 ADD SWAP1 PUSH2 0x34EA SWAP2 SWAP1 PUSH2 0x582C JUMP JUMPDEST SWAP1 POP PUSH1 0x4 DUP1 DUP2 GT ISZERO PUSH2 0x34FF JUMPI PUSH2 0x34FE PUSH2 0x49C2 JUMP JUMPDEST JUMPDEST DUP2 PUSH1 0x4 DUP2 GT ISZERO PUSH2 0x3512 JUMPI PUSH2 0x3511 PUSH2 0x49C2 JUMP JUMPDEST JUMPDEST SUB PUSH2 0x3549 JUMPI PUSH1 0x40 MLOAD PUSH32 0xA1E9DD9D00000000000000000000000000000000000000000000000000000000 DUP2 MSTORE PUSH1 0x4 ADD PUSH1 0x40 MLOAD DUP1 SWAP2 SUB SWAP1 REVERT JUMPDEST PUSH1 0x1 PUSH1 0x4 DUP2 GT ISZERO PUSH2 0x355D JUMPI PUSH2 0x355C PUSH2 0x49C2 JUMP JUMPDEST JUMPDEST DUP2 PUSH1 0x4 DUP2 GT ISZERO PUSH2 0x3570 JUMPI PUSH2 0x356F PUSH2 0x49C2 JUMP JUMPDEST JUMPDEST SUB PUSH2 0x37CC JUMPI PUSH1 0x0 JUMPDEST DUP6 DUP6 DUP5 DUP2 DUP2 LT PUSH2 0x358B JUMPI PUSH2 0x358A PUSH2 0x53E9 JUMP JUMPDEST JUMPDEST SWAP1 POP PUSH1 0x20 MUL DUP2 ADD SWAP1 PUSH2 0x359D SWAP2 SWAP1 PUSH2 0x571C JUMP JUMPDEST DUP1 PUSH1 0x60 ADD SWAP1 PUSH2 0x35AC SWAP2 SWAP1 PUSH2 0x5859 JUMP JUMPDEST SWAP1 POP DUP2 LT ISZERO PUSH2 0x37C6 JUMPI PUSH1 0x0 DUP7 DUP7 DUP6 DUP2 DUP2 LT PUSH2 0x35CA JUMPI PUSH2 0x35C9 PUSH2 0x53E9 JUMP JUMPDEST JUMPDEST SWAP1 POP PUSH1 0x20 MUL DUP2 ADD SWAP1 PUSH2 0x35DC SWAP2 SWAP1 PUSH2 0x571C JUMP JUMPDEST DUP1 PUSH1 0x60 ADD SWAP1 PUSH2 0x35EB SWAP2 SWAP1 PUSH2 0x5859 JUMP JUMPDEST DUP4 DUP2 DUP2 LT PUSH2 0x35FC JUMPI PUSH2 0x35FB PUSH2 0x53E9 JUMP JUMPDEST JUMPDEST SWAP1 POP PUSH1 0x20 MUL ADD CALLDATALOAD SWAP1 POP DUP7 DUP7 DUP6 DUP2 DUP2 LT PUSH2 0x3618 JUMPI PUSH2 0x3617 PUSH2 0x53E9 JUMP JUMPDEST JUMPDEST SWAP1 POP PUSH1 0x20 MUL DUP2 ADD SWAP1 PUSH2 0x362A SWAP2 SWAP1 PUSH2 0x571C JUMP JUMPDEST PUSH1 0x0 ADD PUSH1 0x20 DUP2 ADD SWAP1 PUSH2 0x363C SWAP2 SWAP1 PUSH2 0x4C1A JUMP JUMPDEST PUSH20 0xFFFFFFFFFFFFFFFFFFFFFFFFFFFFFFFFFFFFFFFF AND PUSH4 0x23B872DD CALLER ADDRESS DUP5 PUSH1 0x40 MLOAD DUP5 PUSH4 0xFFFFFFFF AND PUSH1 0xE0 SHL DUP2 MSTORE PUSH1 0x4 ADD PUSH2 0x3678 SWAP4 SWAP3 SWAP2 SWAP1 PUSH2 0x58BC JUMP JUMPDEST PUSH1 0x20 PUSH1 0x40 MLOAD DUP1 DUP4 SUB DUP2 PUSH1 0x0 DUP8 GAS CALL ISZERO DUP1 ISZERO PUSH2 0x3697 JUMPI RETURNDATASIZE PUSH1 0x0 DUP1 RETURNDATACOPY RETURNDATASIZE PUSH1 0x0 REVERT JUMPDEST POP POP POP POP PUSH1 0x40 MLOAD RETURNDATASIZE PUSH1 0x1F NOT PUSH1 0x1F DUP3 ADD AND DUP3 ADD DUP1 PUSH1 0x40 MSTORE POP DUP2 ADD SWAP1 PUSH2 0x36BB SWAP2 SWAP1 PUSH2 0x5908 JUMP JUMPDEST POP PUSH2 0x3701 DUP6 DUP10 DUP10 DUP10 DUP9 DUP2 DUP2 LT PUSH2 0x36D4 JUMPI PUSH2 0x36D3 PUSH2 0x53E9 JUMP JUMPDEST JUMPDEST SWAP1 POP PUSH1 0x20 MUL DUP2 ADD SWAP1 PUSH2 0x36E6 SWAP2 SWAP1 PUSH2 0x571C JUMP JUMPDEST PUSH1 0x0 ADD PUSH1 0x20 DUP2 ADD SWAP1 PUSH2 0x36F8 SWAP2 SWAP1 PUSH2 0x4C1A JUMP JUMPDEST DUP7 PUSH1 0x0 DUP7 PUSH2 0x45B9 JUMP JUMPDEST DUP8 PUSH20 0xFFFFFFFFFFFFFFFFFFFFFFFFFFFFFFFFFFFFFFFF AND DUP8 DUP8 DUP7 DUP2 DUP2 LT PUSH2 0x372B JUMPI PUSH2 0x372A PUSH2 0x53E9 JUMP JUMPDEST JUMPDEST SWAP1 POP PUSH1 0x20 MUL DUP2 ADD SWAP1 PUSH2 0x373D SWAP2 SWAP1 PUSH2 0x571C JUMP JUMPDEST PUSH1 0x0 ADD PUSH1 0x20 DUP2 ADD SWAP1 PUSH2 0x374F SWAP2 SWAP1 PUSH2 0x4C1A JUMP JUMPDEST PUSH20 0xFFFFFFFFFFFFFFFFFFFFFFFFFFFFFFFFFFFFFFFF AND CALLER PUSH20 0xFFFFFFFFFFFFFFFFFFFFFFFFFFFFFFFFFFFFFFFF AND PUSH32 0xB44510937E7A7A5DD39439C63DF574818DB53DAC575444D730F4CC88DDA6D1C8 DUP7 PUSH1 0x0 DUP7 PUSH1 0x40 MLOAD PUSH2 0x37B0 SWAP4 SWAP3 SWAP2 SWAP1 PUSH2 0x5BD4 JUMP JUMPDEST PUSH1 0x40 MLOAD DUP1 SWAP2 SUB SWAP1 LOG4 POP DUP1 DUP1 PUSH1 0x1 ADD SWAP2 POP POP PUSH2 0x3578 JUMP JUMPDEST POP PUSH2 0x3CFD JUMP JUMPDEST PUSH1 0x2 PUSH1 0x4 DUP2 GT ISZERO PUSH2 0x37E0 JUMPI PUSH2 0x37DF PUSH2 0x49C2 JUMP JUMPDEST JUMPDEST DUP2 PUSH1 0x4 DUP2 GT ISZERO PUSH2 0x37F3 JUMPI PUSH2 0x37F2 PUSH2 0x49C2 JUMP JUMPDEST JUMPDEST SUB PUSH2 0x3A3D JUMPI PUSH1 0x0 JUMPDEST DUP6 DUP6 DUP5 DUP2 DUP2 LT PUSH2 0x380E JUMPI PUSH2 0x380D PUSH2 0x53E9 JUMP JUMPDEST JUMPDEST SWAP1 POP PUSH1 0x20 MUL DUP2 ADD SWAP1 PUSH2 0x3820 SWAP2 SWAP1 PUSH2 0x571C JUMP JUMPDEST DUP1 PUSH1 0x40 ADD SWAP1 PUSH2 0x382F SWAP2 SWAP1 PUSH2 0x5859 JUMP JUMPDEST SWAP1 POP DUP2 LT ISZERO PUSH2 0x3A37 JUMPI PUSH1 0x0 DUP7 DUP7 DUP6 DUP2 DUP2 LT PUSH2 0x384D JUMPI PUSH2 0x384C PUSH2 0x53E9 JUMP JUMPDEST JUMPDEST SWAP1 POP PUSH1 0x20 MUL DUP2 ADD SWAP1 PUSH2 0x385F SWAP2 SWAP1 PUSH2 0x571C JUMP JUMPDEST DUP1 PUSH1 0x40 ADD SWAP1 PUSH2 0x386E SWAP2 SWAP1 PUSH2 0x5859 JUMP JUMPDEST DUP4 DUP2 DUP2 LT PUSH2 0x387F JUMPI PUSH2 0x387E PUSH2 0x53E9 JUMP JUMPDEST JUMPDEST SWAP1 POP PUSH1 0x20 MUL ADD CALLDATALOAD SWAP1 POP DUP7 DUP7 DUP6 DUP2 DUP2 LT PUSH2 0x389B JUMPI PUSH2 0x389A PUSH2 0x53E9 JUMP JUMPDEST JUMPDEST SWAP1 POP PUSH1 0x20 MUL DUP2 ADD SWAP1 PUSH2 0x38AD SWAP2 SWAP1 PUSH2 0x571C JUMP JUMPDEST PUSH1 0x0 ADD PUSH1 0x20 DUP2 ADD SWAP1 PUSH2 0x38BF SWAP2 SWAP1 PUSH2 0x4C1A JUMP JUMPDEST PUSH20 0xFFFFFFFFFFFFFFFFFFFFFFFFFFFFFFFFFFFFFFFF AND PUSH4 0x42842E0E CALLER ADDRESS DUP5 PUSH1 0x40 MLOAD DUP5 PUSH4 0xFFFFFFFF AND PUSH1 0xE0 SHL DUP2 MSTORE PUSH1 0x4 ADD PUSH2 0x38FB SWAP4 SWAP3 SWAP2 SWAP1 PUSH2 0x58BC JUMP JUMPDEST PUSH1 0x0 PUSH1 0x40 MLOAD DUP1 DUP4 SUB DUP2 PUSH1 0x0 DUP8 DUP1 EXTCODESIZE ISZERO DUP1 ISZERO PUSH2 0x3915 JUMPI PUSH1 0x0 DUP1 REVERT JUMPDEST POP GAS CALL ISZERO DUP1 ISZERO PUSH2 0x3929 JUMPI RETURNDATASIZE PUSH1 0x0 DUP1 RETURNDATACOPY RETURNDATASIZE PUSH1 0x0 REVERT JUMPDEST POP POP POP POP PUSH2 0x3972 DUP6 DUP10 DUP10 DUP10 DUP9 DUP2 DUP2 LT PUSH2 0x3945 JUMPI PUSH2 0x3944 PUSH2 0x53E9 JUMP JUMPDEST JUMPDEST SWAP1 POP PUSH1 0x20 MUL DUP2 ADD SWAP1 PUSH2 0x3957 SWAP2 SWAP1 PUSH2 0x571C JUMP JUMPDEST PUSH1 0x0 ADD PUSH1 0x20 DUP2 ADD SWAP1 PUSH2 0x3969 SWAP2 SWAP1 PUSH2 0x4C1A JUMP JUMPDEST DUP7 DUP6 PUSH1 0x1 PUSH2 0x45B9 JUMP JUMPDEST DUP8 PUSH20 0xFFFFFFFFFFFFFFFFFFFFFFFFFFFFFFFFFFFFFFFF AND DUP8 DUP8 DUP7 DUP2 DUP2 LT PUSH2 0x399C JUMPI PUSH2 0x399B PUSH2 0x53E9 JUMP JUMPDEST JUMPDEST SWAP1 POP PUSH1 0x20 MUL DUP2 ADD SWAP1 PUSH2 0x39AE SWAP2 SWAP1 PUSH2 0x571C JUMP JUMPDEST PUSH1 0x0 ADD PUSH1 0x20 DUP2 ADD SWAP1 PUSH2 0x39C0 SWAP2 SWAP1 PUSH2 0x4C1A JUMP JUMPDEST PUSH20 0xFFFFFFFFFFFFFFFFFFFFFFFFFFFFFFFFFFFFFFFF AND CALLER PUSH20 0xFFFFFFFFFFFFFFFFFFFFFFFFFFFFFFFFFFFFFFFF AND PUSH32 0xB44510937E7A7A5DD39439C63DF574818DB53DAC575444D730F4CC88DDA6D1C8 DUP7 DUP6 PUSH1 0x1 PUSH1 0x40 MLOAD PUSH2 0x3A21 SWAP4 SWAP3 SWAP2 SWAP1 PUSH2 0x5C46 JUMP JUMPDEST PUSH1 0x40 MLOAD DUP1 SWAP2 SUB SWAP1 LOG4 POP DUP1 DUP1 PUSH1 0x1 ADD SWAP2 POP POP PUSH2 0x37FB JUMP JUMPDEST POP PUSH2 0x3CFC JUMP JUMPDEST PUSH1 0x3 PUSH1 0x4 DUP2 GT ISZERO PUSH2 0x3A51 JUMPI PUSH2 0x3A50 PUSH2 0x49C2 JUMP JUMPDEST JUMPDEST DUP2 PUSH1 0x4 DUP2 GT ISZERO PUSH2 0x3A64 JUMPI PUSH2 0x3A63 PUSH2 0x49C2 JUMP JUMPDEST JUMPDEST SUB PUSH2 0x3CFB JUMPI PUSH1 0x0 JUMPDEST DUP6 DUP6 DUP5 DUP2 DUP2 LT PUSH2 0x3A7F JUMPI PUSH2 0x3A7E PUSH2 0x53E9 JUMP JUMPDEST JUMPDEST SWAP1 POP PUSH1 0x20 MUL DUP2 ADD SWAP1 PUSH2 0x3A91 SWAP2 SWAP1 PUSH2 0x571C JUMP JUMPDEST DUP1 PUSH1 0x40 ADD SWAP1 PUSH2 0x3AA0 SWAP2 SWAP1 PUSH2 0x5859 JUMP JUMPDEST SWAP1 POP DUP2 LT ISZERO PUSH2 0x3CF9 JUMPI PUSH1 0x0 DUP7 DUP7 DUP6 DUP2 DUP2 LT PUSH2 0x3ABE JUMPI PUSH2 0x3ABD PUSH2 0x53E9 JUMP JUMPDEST JUMPDEST SWAP1 POP PUSH1 0x20 MUL DUP2 ADD SWAP1 PUSH2 0x3AD0 SWAP2 SWAP1 PUSH2 0x571C JUMP JUMPDEST DUP1 PUSH1 0x40 ADD SWAP1 PUSH2 0x3ADF SWAP2 SWAP1 PUSH2 0x5859 JUMP JUMPDEST DUP4 DUP2 DUP2 LT PUSH2 0x3AF0 JUMPI PUSH2 0x3AEF PUSH2 0x53E9 JUMP JUMPDEST JUMPDEST SWAP1 POP PUSH1 0x20 MUL ADD CALLDATALOAD SWAP1 POP PUSH1 0x0 DUP8 DUP8 DUP7 DUP2 DUP2 LT PUSH2 0x3B0E JUMPI PUSH2 0x3B0D PUSH2 0x53E9 JUMP JUMPDEST JUMPDEST SWAP1 POP PUSH1 0x20 MUL DUP2 ADD SWAP1 PUSH2 0x3B20 SWAP2 SWAP1 PUSH2 0x571C JUMP JUMPDEST DUP1 PUSH1 0x60 ADD SWAP1 PUSH2 0x3B2F SWAP2 SWAP1 PUSH2 0x5859 JUMP JUMPDEST DUP5 DUP2 DUP2 LT PUSH2 0x3B40 JUMPI PUSH2 0x3B3F PUSH2 0x53E9 JUMP JUMPDEST JUMPDEST SWAP1 POP PUSH1 0x20 MUL ADD CALLDATALOAD SWAP1 POP DUP8 DUP8 DUP7 DUP2 DUP2 LT PUSH2 0x3B5C JUMPI PUSH2 0x3B5B PUSH2 0x53E9 JUMP JUMPDEST JUMPDEST SWAP1 POP PUSH1 0x20 MUL DUP2 ADD SWAP1 PUSH2 0x3B6E SWAP2 SWAP1 PUSH2 0x571C JUMP JUMPDEST PUSH1 0x0 ADD PUSH1 0x20 DUP2 ADD SWAP1 PUSH2 0x3B80 SWAP2 SWAP1 PUSH2 0x4C1A JUMP JUMPDEST PUSH20 0xFFFFFFFFFFFFFFFFFFFFFFFFFFFFFFFFFFFFFFFF AND PUSH4 0xF242432A CALLER ADDRESS DUP6 DUP6 PUSH1 0x40 MLOAD DUP6 PUSH4 0xFFFFFFFF AND PUSH1 0xE0 SHL DUP2 MSTORE PUSH1 0x4 ADD PUSH2 0x3BBE SWAP5 SWAP4 SWAP3 SWAP2 SWAP1 PUSH2 0x596C JUMP JUMPDEST PUSH1 0x0 PUSH1 0x40 MLOAD DUP1 DUP4 SUB DUP2 PUSH1 0x0 DUP8 DUP1 EXTCODESIZE ISZERO DUP1 ISZERO PUSH2 0x3BD8 JUMPI PUSH1 0x0 DUP1 REVERT JUMPDEST POP GAS CALL ISZERO DUP1 ISZERO PUSH2 0x3BEC JUMPI RETURNDATASIZE PUSH1 0x0 DUP1 RETURNDATACOPY RETURNDATASIZE PUSH1 0x0 REVERT JUMPDEST POP POP POP POP PUSH2 0x3C34 DUP7 DUP11 DUP11 DUP11 DUP10 DUP2 DUP2 LT PUSH2 0x3C08 JUMPI PUSH2 0x3C07 PUSH2 0x53E9 JUMP JUMPDEST JUMPDEST SWAP1 POP PUSH1 0x20 MUL DUP2 ADD SWAP1 PUSH2 0x3C1A SWAP2 SWAP1 PUSH2 0x571C JUMP JUMPDEST PUSH1 0x0 ADD PUSH1 0x20 DUP2 ADD SWAP1 PUSH2 0x3C2C SWAP2 SWAP1 PUSH2 0x4C1A JUMP JUMPDEST DUP8 DUP7 DUP7 PUSH2 0x45B9 JUMP JUMPDEST DUP9 PUSH20 0xFFFFFFFFFFFFFFFFFFFFFFFFFFFFFFFFFFFFFFFF AND DUP9 DUP9 DUP8 DUP2 DUP2 LT PUSH2 0x3C5E JUMPI PUSH2 0x3C5D PUSH2 0x53E9 JUMP JUMPDEST JUMPDEST SWAP1 POP PUSH1 0x20 MUL DUP2 ADD SWAP1 PUSH2 0x3C70 SWAP2 SWAP1 PUSH2 0x571C JUMP JUMPDEST PUSH1 0x0 ADD PUSH1 0x20 DUP2 ADD SWAP1 PUSH2 0x3C82 SWAP2 SWAP1 PUSH2 0x4C1A JUMP JUMPDEST PUSH20 0xFFFFFFFFFFFFFFFFFFFFFFFFFFFFFFFFFFFFFFFF AND CALLER PUSH20 0xFFFFFFFFFFFFFFFFFFFFFFFFFFFFFFFFFFFFFFFF AND PUSH32 0xB44510937E7A7A5DD39439C63DF574818DB53DAC575444D730F4CC88DDA6D1C8 DUP8 DUP7 DUP7 PUSH1 0x40 MLOAD PUSH2 0x3CE2 SWAP4 SWAP3 SWAP2 SWAP1 PUSH2 0x59D3 JUMP JUMPDEST PUSH1 0x40 MLOAD DUP1 SWAP2 SUB SWAP1 LOG4 POP POP DUP1 DUP1 PUSH1 0x1 ADD SWAP2 POP POP PUSH2 0x3A6C JUMP JUMPDEST POP JUMPDEST JUMPDEST JUMPDEST POP DUP1 DUP1 PUSH1 0x1 ADD SWAP2 POP POP PUSH2 0x34A6 JUMP JUMPDEST POP TIMESTAMP DUP2 PUSH1 0x3 ADD DUP2 SWAP1 SSTORE POP POP PUSH2 0x3D1E PUSH2 0x4730 JUMP JUMPDEST POP POP POP POP JUMP JUMPDEST PUSH1 0x3 PUSH1 0x20 MSTORE DUP1 PUSH1 0x0 MSTORE PUSH1 0x40 PUSH1 0x0 KECCAK256 PUSH1 0x0 SWAP2 POP SWAP1 POP DUP1 PUSH1 0x0 ADD SLOAD SWAP1 DUP1 PUSH1 0x1 ADD PUSH1 0x0 SWAP1 SLOAD SWAP1 PUSH2 0x100 EXP SWAP1 DIV PUSH20 0xFFFFFFFFFFFFFFFFFFFFFFFFFFFFFFFFFFFFFFFF AND SWAP1 DUP1 PUSH1 0x2 ADD DUP1 SLOAD PUSH2 0x3D73 SWAP1 PUSH2 0x5384 JUMP JUMPDEST DUP1 PUSH1 0x1F ADD PUSH1 0x20 DUP1 SWAP2 DIV MUL PUSH1 0x20 ADD PUSH1 0x40 MLOAD SWAP1 DUP2 ADD PUSH1 0x40 MSTORE DUP1 SWAP3 SWAP2 SWAP1 DUP2 DUP2 MSTORE PUSH1 0x20 ADD DUP3 DUP1 SLOAD PUSH2 0x3D9F SWAP1 PUSH2 0x5384 JUMP JUMPDEST DUP1 ISZERO PUSH2 0x3DEC JUMPI DUP1 PUSH1 0x1F LT PUSH2 0x3DC1 JUMPI PUSH2 0x100 DUP1 DUP4 SLOAD DIV MUL DUP4 MSTORE SWAP2 PUSH1 0x20 ADD SWAP2 PUSH2 0x3DEC JUMP JUMPDEST DUP3 ADD SWAP2 SWAP1 PUSH1 0x0 MSTORE PUSH1 0x20 PUSH1 0x0 KECCAK256 SWAP1 JUMPDEST DUP2 SLOAD DUP2 MSTORE SWAP1 PUSH1 0x1 ADD SWAP1 PUSH1 0x20 ADD DUP1 DUP4 GT PUSH2 0x3DCF JUMPI DUP3 SWAP1 SUB PUSH1 0x1F AND DUP3 ADD SWAP2 JUMPDEST POP POP POP POP POP SWAP1 DUP1 PUSH1 0x3 ADD SLOAD SWAP1 DUP1 PUSH1 0x4 ADD PUSH1 0x0 SWAP1 SLOAD SWAP1 PUSH2 0x100 EXP SWAP1 DIV PUSH1 0xFF AND SWAP1 DUP1 PUSH1 0x6 ADD SLOAD SWAP1 DUP1 PUSH1 0xA ADD SLOAD SWAP1 DUP1 PUSH1 0xB ADD SLOAD SWAP1 DUP1 PUSH1 0xC ADD PUSH1 0x0 SWAP1 SLOAD SWAP1 PUSH2 0x100 EXP SWAP1 DIV PUSH1 0xFF AND SWAP1 DUP1 PUSH1 0xD ADD SLOAD SWAP1 POP DUP11 JUMP JUMPDEST PUSH1 0x0 DUP1 DUP3 SUB PUSH2 0x3E75 JUMPI PUSH1 0x40 MLOAD PUSH32 0x97643B5200000000000000000000000000000000000000000000000000000000 DUP2 MSTORE PUSH1 0x4 ADD PUSH1 0x40 MLOAD DUP1 SWAP2 SUB SWAP1 REVERT JUMPDEST PUSH1 0x0 PUSH1 0x6 PUSH1 0x0 DUP5 DUP2 MSTORE PUSH1 0x20 ADD SWAP1 DUP2 MSTORE PUSH1 0x20 ADD PUSH1 0x0 KECCAK256 SWAP1 POP DUP1 PUSH1 0x4 ADD PUSH1 0x0 SWAP1 SLOAD SWAP1 PUSH2 0x100 EXP SWAP1 DIV PUSH1 0xFF AND PUSH2 0x3EDF JUMPI DUP3 PUSH1 0x40 MLOAD PUSH32 0x8C209E5600000000000000000000000000000000000000000000000000000000 DUP2 MSTORE PUSH1 0x4 ADD PUSH2 0x3ED6 SWAP2 SWAP1 PUSH2 0x4BAC JUMP JUMPDEST PUSH1 0x40 MLOAD DUP1 SWAP2 SUB SWAP1 REVERT JUMPDEST DUP1 PUSH1 0xC ADD PUSH1 0x0 SWAP1 SLOAD SWAP1 PUSH2 0x100 EXP SWAP1 DIV PUSH1 0xFF AND ISZERO PUSH2 0x3F00 JUMPI PUSH1 0x0 SWAP2 POP POP PUSH2 0x3F3F JUMP JUMPDEST PUSH1 0x0 DUP2 PUSH1 0x3 ADD SLOAD TIMESTAMP PUSH2 0x3F12 SWAP2 SWAP1 PUSH2 0x53B5 JUMP JUMPDEST SWAP1 POP DUP2 PUSH1 0xB ADD SLOAD DUP2 LT PUSH2 0x3F2A JUMPI PUSH1 0x0 SWAP3 POP POP POP PUSH2 0x3F3F JUMP JUMPDEST DUP1 DUP3 PUSH1 0xB ADD SLOAD PUSH2 0x3F3A SWAP2 SWAP1 PUSH2 0x53B5 JUMP JUMPDEST SWAP3 POP POP POP JUMPDEST SWAP2 SWAP1 POP JUMP JUMPDEST PUSH1 0x4 PUSH1 0x20 MSTORE DUP1 PUSH1 0x0 MSTORE PUSH1 0x40 PUSH1 0x0 KECCAK256 PUSH1 0x0 SWAP2 POP SLOAD SWAP1 PUSH2 0x100 EXP SWAP1 DIV PUSH1 0xFF AND DUP2 JUMP JUMPDEST PUSH2 0x3F6C PUSH2 0x41A2 JUMP JUMPDEST PUSH1 0x0 PUSH20 0xFFFFFFFFFFFFFFFFFFFFFFFFFFFFFFFFFFFFFFFF AND DUP2 PUSH20 0xFFFFFFFFFFFFFFFFFFFFFFFFFFFFFFFFFFFFFFFF AND SUB PUSH2 0x3FDE JUMPI PUSH1 0x0 PUSH1 0x40 MLOAD PUSH32 0x1E4FBDF700000000000000000000000000000000000000000000000000000000 DUP2 MSTORE PUSH1 0x4 ADD PUSH2 0x3FD5 SWAP2 SWAP1 PUSH2 0x523A JUMP JUMPDEST PUSH1 0x40 MLOAD DUP1 SWAP2 SUB SWAP1 REVERT JUMPDEST PUSH2 0x3FE7 DUP2 PUSH2 0x4739 JUMP JUMPDEST POP JUMP JUMPDEST PUSH1 0x0 DUP1 DUP3 SUB PUSH2 0x4025 JUMPI PUSH1 0x40 MLOAD PUSH32 0x97643B5200000000000000000000000000000000000000000000000000000000 DUP2 MSTORE PUSH1 0x4 ADD PUSH1 0x40 MLOAD DUP1 SWAP2 SUB SWAP1 REVERT JUMPDEST PUSH1 0x0 PUSH1 0x6 PUSH1 0x0 DUP5 DUP2 MSTORE PUSH1 0x20 ADD SWAP1 DUP2 MSTORE PUSH1 0x20 ADD PUSH1 0x0 KECCAK256 SWAP1 POP DUP1 PUSH1 0x4 ADD PUSH1 0x0 SWAP1 SLOAD SWAP1 PUSH2 0x100 EXP SWAP1 DIV PUSH1 0xFF AND PUSH2 0x408F JUMPI DUP3 PUSH1 0x40 MLOAD PUSH32 0x8C209E5600000000000000000000000000000000000000000000000000000000 DUP2 MSTORE PUSH1 0x4 ADD PUSH2 0x4086 SWAP2 SWAP1 PUSH2 0x4BAC JUMP JUMPDEST PUSH1 0x40 MLOAD DUP1 SWAP2 SUB SWAP1 REVERT JUMPDEST DUP1 SWAP2 POP POP SWAP2 SWAP1 POP JUMP JUMPDEST PUSH3 0x15180 DUP3 LT DUP1 PUSH2 0x40AB JUMPI POP PUSH3 0x278D00 DUP3 GT JUMPDEST ISZERO PUSH2 0x40F7 JUMPI DUP2 PUSH3 0x15180 PUSH3 0x278D00 PUSH1 0x40 MLOAD PUSH32 0x79AB450300000000000000000000000000000000000000000000000000000000 DUP2 MSTORE PUSH1 0x4 ADD PUSH2 0x40EE SWAP4 SWAP3 SWAP2 SWAP1 PUSH2 0x5C7D JUMP JUMPDEST PUSH1 0x40 MLOAD DUP1 SWAP2 SUB SWAP1 REVERT JUMPDEST PUSH3 0x278D00 DUP2 LT DUP1 PUSH2 0x410B JUMPI POP PUSH4 0x1E13380 DUP2 GT JUMPDEST ISZERO PUSH2 0x4158 JUMPI DUP1 PUSH3 0x278D00 PUSH4 0x1E13380 PUSH1 0x40 MLOAD PUSH32 0xC4E86F2900000000000000000000000000000000000000000000000000000000 DUP2 MSTORE PUSH1 0x4 ADD PUSH2 0x414F SWAP4 SWAP3 SWAP2 SWAP1 PUSH2 0x5C7D JUMP JUMPDEST PUSH1 0x40 MLOAD DUP1 SWAP2 SUB SWAP1 REVERT JUMPDEST DUP2 DUP2 GT PUSH2 0x419E JUMPI DUP1 DUP3 PUSH1 0x40 MLOAD PUSH32 0x2E85A8FC00000000000000000000000000000000000000000000000000000000 DUP2 MSTORE PUSH1 0x4 ADD PUSH2 0x4195 SWAP3 SWAP2 SWAP1 PUSH2 0x52C9 JUMP JUMPDEST PUSH1 0x40 MLOAD DUP1 SWAP2 SUB SWAP1 REVERT JUMPDEST POP POP JUMP JUMPDEST PUSH2 0x41AA PUSH2 0x47FD JUMP JUMPDEST PUSH20 0xFFFFFFFFFFFFFFFFFFFFFFFFFFFFFFFFFFFFFFFF AND PUSH2 0x41C8 PUSH2 0x27CD JUMP JUMPDEST PUSH20 0xFFFFFFFFFFFFFFFFFFFFFFFFFFFFFFFFFFFFFFFF AND EQ PUSH2 0x4227 JUMPI PUSH2 0x41EB PUSH2 0x47FD JUMP JUMPDEST PUSH1 0x40 MLOAD PUSH32 0x118CDAA700000000000000000000000000000000000000000000000000000000 DUP2 MSTORE PUSH1 0x4 ADD PUSH2 0x421E SWAP2 SWAP1 PUSH2 0x523A JUMP JUMPDEST PUSH1 0x40 MLOAD DUP1 SWAP2 SUB SWAP1 REVERT JUMPDEST JUMP JUMPDEST PUSH1 0x2 PUSH1 0x1 SLOAD SUB PUSH2 0x4265 JUMPI PUSH1 0x40 MLOAD PUSH32 0x3EE5AEB500000000000000000000000000000000000000000000000000000000 DUP2 MSTORE PUSH1 0x4 ADD PUSH1 0x40 MLOAD DUP1 SWAP2 SUB SWAP1 REVERT JUMPDEST PUSH1 0x2 PUSH1 0x1 DUP2 SWAP1 SSTORE POP JUMP JUMPDEST PUSH1 0x0 PUSH20 0xFFFFFFFFFFFFFFFFFFFFFFFFFFFFFFFFFFFFFFFF AND DUP3 PUSH20 0xFFFFFFFFFFFFFFFFFFFFFFFFFFFFFFFFFFFFFFFF AND SUB PUSH2 0x42D5 JUMPI PUSH1 0x40 MLOAD PUSH32 0xD343D98400000000000000000000000000000000000000000000000000000000 DUP2 MSTORE PUSH1 0x4 ADD PUSH1 0x40 MLOAD DUP1 SWAP2 SUB SWAP1 REVERT JUMPDEST PUSH1 0x0 PUSH1 0x6 PUSH1 0x0 DUP4 DUP2 MSTORE PUSH1 0x20 ADD SWAP1 DUP2 MSTORE PUSH1 0x20 ADD PUSH1 0x0 KECCAK256 SWAP1 POP DUP1 PUSH1 0x7 ADD PUSH1 0x0 DUP5 PUSH20 0xFFFFFFFFFFFFFFFFFFFFFFFFFFFFFFFFFFFFFFFF AND PUSH20 0xFFFFFFFFFFFFFFFFFFFFFFFFFFFFFFFFFFFFFFFF AND DUP2 MSTORE PUSH1 0x20 ADD SWAP1 DUP2 MSTORE PUSH1 0x20 ADD PUSH1 0x0 KECCAK256 PUSH1 0x0 SWAP1 SLOAD SWAP1 PUSH2 0x100 EXP SWAP1 DIV PUSH1 0xFF AND ISZERO PUSH2 0x4372 JUMPI PUSH1 0x40 MLOAD PUSH32 0x5E6379D700000000000000000000000000000000000000000000000000000000 DUP2 MSTORE PUSH1 0x4 ADD PUSH1 0x40 MLOAD DUP1 SWAP2 SUB SWAP1 REVERT JUMPDEST CALLER PUSH20 0xFFFFFFFFFFFFFFFFFFFFFFFFFFFFFFFFFFFFFFFF AND DUP2 PUSH1 0x1 ADD PUSH1 0x0 SWAP1 SLOAD SWAP1 PUSH2 0x100 EXP SWAP1 DIV PUSH20 0xFFFFFFFFFFFFFFFFFFFFFFFFFFFFFFFFFFFFFFFF AND PUSH20 0xFFFFFFFFFFFFFFFFFFFFFFFFFFFFFFFFFFFFFFFF AND EQ PUSH2 0x43FB JUMPI PUSH1 0x40 MLOAD PUSH32 0xF5E6BD800000000000000000000000000000000000000000000000000000000 DUP2 MSTORE PUSH1 0x4 ADD PUSH1 0x40 MLOAD DUP1 SWAP2 SUB SWAP1 REVERT JUMPDEST PUSH1 0x1 DUP2 PUSH1 0x7 ADD PUSH1 0x0 DUP6 PUSH20 0xFFFFFFFFFFFFFFFFFFFFFFFFFFFFFFFFFFFFFFFF AND PUSH20 0xFFFFFFFFFFFFFFFFFFFFFFFFFFFFFFFFFFFFFFFF AND DUP2 MSTORE PUSH1 0x20 ADD SWAP1 DUP2 MSTORE PUSH1 0x20 ADD PUSH1 0x0 KECCAK256 PUSH1 0x0 PUSH2 0x100 EXP DUP2 SLOAD DUP2 PUSH1 0xFF MUL NOT AND SWAP1 DUP4 ISZERO ISZERO MUL OR SWAP1 SSTORE POP DUP1 PUSH1 0x8 ADD DUP4 SWAP1 DUP1 PUSH1 0x1 DUP2 SLOAD ADD DUP1 DUP3 SSTORE DUP1 SWAP2 POP POP PUSH1 0x1 SWAP1 SUB SWAP1 PUSH1 0x0 MSTORE PUSH1 0x20 PUSH1 0x0 KECCAK256 ADD PUSH1 0x0 SWAP1 SWAP2 SWAP1 SWAP2 SWAP1 SWAP2 PUSH2 0x100 EXP DUP2 SLOAD DUP2 PUSH20 0xFFFFFFFFFFFFFFFFFFFFFFFFFFFFFFFFFFFFFFFF MUL NOT AND SWAP1 DUP4 PUSH20 0xFFFFFFFFFFFFFFFFFFFFFFFFFFFFFFFFFFFFFFFF AND MUL OR SWAP1 SSTORE POP PUSH1 0x5 PUSH1 0x0 DUP5 PUSH20 0xFFFFFFFFFFFFFFFFFFFFFFFFFFFFFFFFFFFFFFFF AND PUSH20 0xFFFFFFFFFFFFFFFFFFFFFFFFFFFFFFFFFFFFFFFF AND DUP2 MSTORE PUSH1 0x20 ADD SWAP1 DUP2 MSTORE PUSH1 0x20 ADD PUSH1 0x0 KECCAK256 CALLER SWAP1 DUP1 PUSH1 0x1 DUP2 SLOAD ADD DUP1 DUP3 SSTORE DUP1 SWAP2 POP POP PUSH1 0x1 SWAP1 SUB SWAP1 PUSH1 0x0 MSTORE PUSH1 0x20 PUSH1 0x0 KECCAK256 ADD PUSH1 0x0 SWAP1 SWAP2 SWAP1 SWAP2 SWAP1 SWAP2 PUSH2 0x100 EXP DUP2 SLOAD DUP2 PUSH20 0xFFFFFFFFFFFFFFFFFFFFFFFFFFFFFFFFFFFFFFFF MUL NOT AND SWAP1 DUP4 PUSH20 0xFFFFFFFFFFFFFFFFFFFFFFFFFFFFFFFFFFFFFFFF AND MUL OR SWAP1 SSTORE POP DUP3 PUSH20 0xFFFFFFFFFFFFFFFFFFFFFFFFFFFFFFFFFFFFFFFF AND CALLER PUSH20 0xFFFFFFFFFFFFFFFFFFFFFFFFFFFFFFFFFFFFFFFF AND PUSH32 0xBB39C36A7502B7256E1A687254146A9A2EA7B146C77CB9E40EB0E2B8793781E1 PUSH1 0x40 MLOAD PUSH1 0x40 MLOAD DUP1 SWAP2 SUB SWAP1 LOG3 POP POP POP JUMP JUMPDEST PUSH1 0x0 PUSH1 0x40 MLOAD DUP1 PUSH1 0xA0 ADD PUSH1 0x40 MSTORE DUP1 DUP7 PUSH20 0xFFFFFFFFFFFFFFFFFFFFFFFFFFFFFFFFFFFFFFFF AND DUP2 MSTORE PUSH1 0x20 ADD DUP6 PUSH1 0x4 DUP2 GT ISZERO PUSH2 0x45F5 JUMPI PUSH2 0x45F4 PUSH2 0x49C2 JUMP JUMPDEST JUMPDEST DUP2 MSTORE PUSH1 0x20 ADD DUP5 DUP2 MSTORE PUSH1 0x20 ADD DUP4 DUP2 MSTORE PUSH1 0x20 ADD PUSH1 0x0 ISZERO ISZERO DUP2 MSTORE POP SWAP1 POP DUP7 PUSH1 0x9 ADD PUSH1 0x0 DUP8 PUSH20 0xFFFFFFFFFFFFFFFFFFFFFFFFFFFFFFFFFFFFFFFF AND PUSH20 0xFFFFFFFFFFFFFFFFFFFFFFFFFFFFFFFFFFFFFFFF AND DUP2 MSTORE PUSH1 0x20 ADD SWAP1 DUP2 MSTORE PUSH1 0x20 ADD PUSH1 0x0 KECCAK256 DUP2 SWAP1 DUP1 PUSH1 0x1 DUP2 SLOAD ADD DUP1 DUP3 SSTORE DUP1 SWAP2 POP POP PUSH1 0x1 SWAP1 SUB SWAP1 PUSH1 0x0 MSTORE PUSH1 0x20 PUSH1 0x0 KECCAK256 SWAP1 PUSH1 0x4 MUL ADD PUSH1 0x0 SWAP1 SWAP2 SWAP1 SWAP2 SWAP1 SWAP2 POP PUSH1 0x0 DUP3 ADD MLOAD DUP2 PUSH1 0x0 ADD PUSH1 0x0 PUSH2 0x100 EXP DUP2 SLOAD DUP2 PUSH20 0xFFFFFFFFFFFFFFFFFFFFFFFFFFFFFFFFFFFFFFFF MUL NOT AND SWAP1 DUP4 PUSH20 0xFFFFFFFFFFFFFFFFFFFFFFFFFFFFFFFFFFFFFFFF AND MUL OR SWAP1 SSTORE POP PUSH1 0x20 DUP3 ADD MLOAD DUP2 PUSH1 0x0 ADD PUSH1 0x14 PUSH2 0x100 EXP DUP2 SLOAD DUP2 PUSH1 0xFF MUL NOT AND SWAP1 DUP4 PUSH1 0x4 DUP2 GT ISZERO PUSH2 0x46EC JUMPI PUSH2 0x46EB PUSH2 0x49C2 JUMP JUMPDEST JUMPDEST MUL OR SWAP1 SSTORE POP PUSH1 0x40 DUP3 ADD MLOAD DUP2 PUSH1 0x1 ADD SSTORE PUSH1 0x60 DUP3 ADD MLOAD DUP2 PUSH1 0x2 ADD SSTORE PUSH1 0x80 DUP3 ADD MLOAD DUP2 PUSH1 0x3 ADD PUSH1 0x0 PUSH2 0x100 EXP DUP2 SLOAD DUP2 PUSH1 0xFF MUL NOT AND SWAP1 DUP4 ISZERO ISZERO MUL OR SWAP1 SSTORE POP POP POP POP POP POP POP POP POP POP JUMP JUMPDEST PUSH1 0x1 DUP1 DUP2 SWAP1 SSTORE POP JUMP JUMPDEST PUSH1 0x0 DUP1 PUSH1 0x0 SWAP1 SLOAD SWAP1 PUSH2 0x100 EXP SWAP1 DIV PUSH20 0xFFFFFFFFFFFFFFFFFFFFFFFFFFFFFFFFFFFFFFFF AND SWAP1 POP DUP2 PUSH1 0x0 DUP1 PUSH2 0x100 EXP DUP2 SLOAD DUP2 PUSH20 0xFFFFFFFFFFFFFFFFFFFFFFFFFFFFFFFFFFFFFFFF MUL NOT AND SWAP1 DUP4 PUSH20 0xFFFFFFFFFFFFFFFFFFFFFFFFFFFFFFFFFFFFFFFF AND MUL OR SWAP1 SSTORE POP DUP2 PUSH20 0xFFFFFFFFFFFFFFFFFFFFFFFFFFFFFFFFFFFFFFFF AND DUP2 PUSH20 0xFFFFFFFFFFFFFFFFFFFFFFFFFFFFFFFFFFFFFFFF AND PUSH32 0x8BE0079C531659141344CD1FD0A4F28419497F9722A3DAAFE3B4186F6B6457E0 PUSH1 0x40 MLOAD PUSH1 0x40 MLOAD DUP1 SWAP2 SUB SWAP1 LOG3 POP POP JUMP JUMPDEST PUSH1 0x0 CALLER SWAP1 POP SWAP1 JUMP JUMPDEST POP DUP1 SLOAD PUSH1 0x0 DUP3 SSTORE PUSH1 0x4 MUL SWAP1 PUSH1 0x0 MSTORE PUSH1 0x20 PUSH1 0x0 KECCAK256 SWAP1 DUP2 ADD SWAP1 PUSH2 0x4826 SWAP2 SWAP1 PUSH2 0x4829 JUMP JUMPDEST POP JUMP JUMPDEST JUMPDEST DUP1 DUP3 GT ISZERO PUSH2 0x489B JUMPI PUSH1 0x0 DUP1 DUP3 ADD PUSH1 0x0 PUSH2 0x100 EXP DUP2 SLOAD SWAP1 PUSH20 0xFFFFFFFFFFFFFFFFFFFFFFFFFFFFFFFFFFFFFFFF MUL NOT AND SWAP1 SSTORE PUSH1 0x0 DUP3 ADD PUSH1 0x14 PUSH2 0x100 EXP DUP2 SLOAD SWAP1 PUSH1 0xFF MUL NOT AND SWAP1 SSTORE PUSH1 0x1 DUP3 ADD PUSH1 0x0 SWAP1 SSTORE PUSH1 0x2 DUP3 ADD PUSH1 0x0 SWAP1 SSTORE PUSH1 0x3 DUP3 ADD PUSH1 0x0 PUSH2 0x100 EXP DUP2 SLOAD SWAP1 PUSH1 0xFF MUL NOT AND SWAP1 SSTORE POP PUSH1 0x4 ADD PUSH2 0x482A JUMP JUMPDEST POP SWAP1 JUMP JUMPDEST PUSH1 0x0 PUSH1 0x40 MLOAD SWAP1 POP SWAP1 JUMP JUMPDEST PUSH1 0x0 DUP1 REVERT JUMPDEST PUSH1 0x0 DUP1 REVERT JUMPDEST PUSH1 0x0 DUP2 SWAP1 POP SWAP2 SWAP1 POP JUMP JUMPDEST PUSH2 0x48C6 DUP2 PUSH2 0x48B3 JUMP JUMPDEST DUP2 EQ PUSH2 0x48D1 JUMPI PUSH1 0x0 DUP1 REVERT JUMPDEST POP JUMP JUMPDEST PUSH1 0x0 DUP2 CALLDATALOAD SWAP1 POP PUSH2 0x48E3 DUP2 PUSH2 0x48BD JUMP JUMPDEST SWAP3 SWAP2 POP POP JUMP JUMPDEST PUSH1 0x0 PUSH20 0xFFFFFFFFFFFFFFFFFFFFFFFFFFFFFFFFFFFFFFFF DUP3 AND SWAP1 POP SWAP2 SWAP1 POP JUMP JUMPDEST PUSH1 0x0 PUSH2 0x4914 DUP3 PUSH2 0x48E9 JUMP JUMPDEST SWAP1 POP SWAP2 SWAP1 POP JUMP JUMPDEST PUSH2 0x4924 DUP2 PUSH2 0x4909 JUMP JUMPDEST DUP2 EQ PUSH2 0x492F JUMPI PUSH1 0x0 DUP1 REVERT JUMPDEST POP JUMP JUMPDEST PUSH1 0x0 DUP2 CALLDATALOAD SWAP1 POP PUSH2 0x4941 DUP2 PUSH2 0x491B JUMP JUMPDEST SWAP3 SWAP2 POP POP JUMP JUMPDEST PUSH1 0x0 DUP1 PUSH1 0x40 DUP4 DUP6 SUB SLT ISZERO PUSH2 0x495E JUMPI PUSH2 0x495D PUSH2 0x48A9 JUMP JUMPDEST JUMPDEST PUSH1 0x0 PUSH2 0x496C DUP6 DUP3 DUP7 ADD PUSH2 0x48D4 JUMP JUMPDEST SWAP3 POP POP PUSH1 0x20 PUSH2 0x497D DUP6 DUP3 DUP7 ADD PUSH2 0x4932 JUMP JUMPDEST SWAP2 POP POP SWAP3 POP SWAP3 SWAP1 POP JUMP JUMPDEST PUSH1 0x0 DUP2 MLOAD SWAP1 POP SWAP2 SWAP1 POP JUMP JUMPDEST PUSH1 0x0 DUP3 DUP3 MSTORE PUSH1 0x20 DUP3 ADD SWAP1 POP SWAP3 SWAP2 POP POP JUMP JUMPDEST PUSH1 0x0 DUP2 SWAP1 POP PUSH1 0x20 DUP3 ADD SWAP1 POP SWAP2 SWAP1 POP JUMP JUMPDEST PUSH2 0x49BC DUP2 PUSH2 0x4909 JUMP JUMPDEST DUP3 MSTORE POP POP JUMP JUMPDEST PUSH32 0x4E487B7100000000000000000000000000000000000000000000000000000000 PUSH1 0x0 MSTORE PUSH1 0x21 PUSH1 0x4 MSTORE PUSH1 0x24 PUSH1 0x0 REVERT JUMPDEST PUSH1 0x5 DUP2 LT PUSH2 0x4A02 JUMPI PUSH2 0x4A01 PUSH2 0x49C2 JUMP JUMPDEST JUMPDEST POP JUMP JUMPDEST PUSH1 0x0 DUP2 SWAP1 POP PUSH2 0x4A13 DUP3 PUSH2 0x49F1 JUMP JUMPDEST SWAP2 SWAP1 POP JUMP JUMPDEST PUSH1 0x0 PUSH2 0x4A23 DUP3 PUSH2 0x4A05 JUMP JUMPDEST SWAP1 POP SWAP2 SWAP1 POP JUMP JUMPDEST PUSH2 0x4A33 DUP2 PUSH2 0x4A18 JUMP JUMPDEST DUP3 MSTORE POP POP JUMP JUMPDEST PUSH2 0x4A42 DUP2 PUSH2 0x48B3 JUMP JUMPDEST DUP3 MSTORE POP POP JUMP JUMPDEST PUSH1 0x0 DUP2 ISZERO ISZERO SWAP1 POP SWAP2 SWAP1 POP JUMP JUMPDEST PUSH2 0x4A5D DUP2 PUSH2 0x4A48 JUMP JUMPDEST DUP3 MSTORE POP POP JUMP JUMPDEST PUSH1 0xA0 DUP3 ADD PUSH1 0x0 DUP3 ADD MLOAD PUSH2 0x4A79 PUSH1 0x0 DUP6 ADD DUP3 PUSH2 0x49B3 JUMP JUMPDEST POP PUSH1 0x20 DUP3 ADD MLOAD PUSH2 0x4A8C PUSH1 0x20 DUP6 ADD DUP3 PUSH2 0x4A2A JUMP JUMPDEST POP PUSH1 0x40 DUP3 ADD MLOAD PUSH2 0x4A9F PUSH1 0x40 DUP6 ADD DUP3 PUSH2 0x4A39 JUMP JUMPDEST POP PUSH1 0x60 DUP3 ADD MLOAD PUSH2 0x4AB2 PUSH1 0x60 DUP6 ADD DUP3 PUSH2 0x4A39 JUMP JUMPDEST POP PUSH1 0x80 DUP3 ADD MLOAD PUSH2 0x4AC5 PUSH1 0x80 DUP6 ADD DUP3 PUSH2 0x4A54 JUMP JUMPDEST POP POP POP POP JUMP JUMPDEST PUSH1 0x0 PUSH2 0x4AD7 DUP4 DUP4 PUSH2 0x4A63 JUMP JUMPDEST PUSH1 0xA0 DUP4 ADD SWAP1 POP SWAP3 SWAP2 POP POP JUMP JUMPDEST PUSH1 0x0 PUSH1 0x20 DUP3 ADD SWAP1 POP SWAP2 SWAP1 POP JUMP JUMPDEST PUSH1 0x0 PUSH2 0x4AFB DUP3 PUSH2 0x4987 JUMP JUMPDEST PUSH2 0x4B05 DUP2 DUP6 PUSH2 0x4992 JUMP JUMPDEST SWAP4 POP PUSH2 0x4B10 DUP4 PUSH2 0x49A3 JUMP JUMPDEST DUP1 PUSH1 0x0 JUMPDEST DUP4 DUP2 LT ISZERO PUSH2 0x4B41 JUMPI DUP2 MLOAD PUSH2 0x4B28 DUP9 DUP3 PUSH2 0x4ACB JUMP JUMPDEST SWAP8 POP PUSH2 0x4B33 DUP4 PUSH2 0x4AE3 JUMP JUMPDEST SWAP3 POP POP PUSH1 0x1 DUP2 ADD SWAP1 POP PUSH2 0x4B14 JUMP JUMPDEST POP DUP6 SWAP4 POP POP POP POP SWAP3 SWAP2 POP POP JUMP JUMPDEST PUSH1 0x0 PUSH1 0x20 DUP3 ADD SWAP1 POP DUP2 DUP2 SUB PUSH1 0x0 DUP4 ADD MSTORE PUSH2 0x4B68 DUP2 DUP5 PUSH2 0x4AF0 JUMP JUMPDEST SWAP1 POP SWAP3 SWAP2 POP POP JUMP JUMPDEST PUSH1 0x0 PUSH1 0x20 DUP3 DUP5 SUB SLT ISZERO PUSH2 0x4B86 JUMPI PUSH2 0x4B85 PUSH2 0x48A9 JUMP JUMPDEST JUMPDEST PUSH1 0x0 PUSH2 0x4B94 DUP5 DUP3 DUP6 ADD PUSH2 0x48D4 JUMP JUMPDEST SWAP2 POP POP SWAP3 SWAP2 POP POP JUMP JUMPDEST PUSH2 0x4BA6 DUP2 PUSH2 0x48B3 JUMP JUMPDEST DUP3 MSTORE POP POP JUMP JUMPDEST PUSH1 0x0 PUSH1 0x20 DUP3 ADD SWAP1 POP PUSH2 0x4BC1 PUSH1 0x0 DUP4 ADD DUP5 PUSH2 0x4B9D JUMP JUMPDEST SWAP3 SWAP2 POP POP JUMP JUMPDEST PUSH1 0x0 DUP1 PUSH1 0x0 PUSH1 0x60 DUP5 DUP7 SUB SLT ISZERO PUSH2 0x4BE0 JUMPI PUSH2 0x4BDF PUSH2 0x48A9 JUMP JUMPDEST JUMPDEST PUSH1 0x0 PUSH2 0x4BEE DUP7 DUP3 DUP8 ADD PUSH2 0x48D4 JUMP JUMPDEST SWAP4 POP POP PUSH1 0x20 PUSH2 0x4BFF DUP7 DUP3 DUP8 ADD PUSH2 0x48D4 JUMP JUMPDEST SWAP3 POP POP PUSH1 0x40 PUSH2 0x4C10 DUP7 DUP3 DUP8 ADD PUSH2 0x48D4 JUMP JUMPDEST SWAP2 POP POP SWAP3 POP SWAP3 POP SWAP3 JUMP JUMPDEST PUSH1 0x0 PUSH1 0x20 DUP3 DUP5 SUB SLT ISZERO PUSH2 0x4C30 JUMPI PUSH2 0x4C2F PUSH2 0x48A9 JUMP JUMPDEST JUMPDEST PUSH1 0x0 PUSH2 0x4C3E DUP5 DUP3 DUP6 ADD PUSH2 0x4932 JUMP JUMPDEST SWAP2 POP POP SWAP3 SWAP2 POP POP JUMP JUMPDEST PUSH1 0x0 DUP2 MLOAD SWAP1 POP SWAP2 SWAP1 POP JUMP JUMPDEST PUSH1 0x0 DUP3 DUP3 MSTORE PUSH1 0x20 DUP3 ADD SWAP1 POP SWAP3 SWAP2 POP POP JUMP JUMPDEST PUSH1 0x0 DUP2 SWAP1 POP PUSH1 0x20 DUP3 ADD SWAP1 POP SWAP2 SWAP1 POP JUMP JUMPDEST PUSH1 0x0 PUSH2 0x4C7F DUP4 DUP4 PUSH2 0x49B3 JUMP JUMPDEST PUSH1 0x20 DUP4 ADD SWAP1 POP SWAP3 SWAP2 POP POP JUMP JUMPDEST PUSH1 0x0 PUSH1 0x20 DUP3 ADD SWAP1 POP SWAP2 SWAP1 POP JUMP JUMPDEST PUSH1 0x0 PUSH2 0x4CA3 DUP3 PUSH2 0x4C47 JUMP JUMPDEST PUSH2 0x4CAD DUP2 DUP6 PUSH2 0x4C52 JUMP JUMPDEST SWAP4 POP PUSH2 0x4CB8 DUP4 PUSH2 0x4C63 JUMP JUMPDEST DUP1 PUSH1 0x0 JUMPDEST DUP4 DUP2 LT ISZERO PUSH2 0x4CE9 JUMPI DUP2 MLOAD PUSH2 0x4CD0 DUP9 DUP3 PUSH2 0x4C73 JUMP JUMPDEST SWAP8 POP PUSH2 0x4CDB DUP4 PUSH2 0x4C8B JUMP JUMPDEST SWAP3 POP POP PUSH1 0x1 DUP2 ADD SWAP1 POP PUSH2 0x4CBC JUMP JUMPDEST POP DUP6 SWAP4 POP POP POP POP SWAP3 SWAP2 POP POP JUMP JUMPDEST PUSH1 0x0 PUSH1 0x20 DUP3 ADD SWAP1 POP DUP2 DUP2 SUB PUSH1 0x0 DUP4 ADD MSTORE PUSH2 0x4D10 DUP2 DUP5 PUSH2 0x4C98 JUMP JUMPDEST SWAP1 POP SWAP3 SWAP2 POP POP JUMP JUMPDEST PUSH2 0x4D21 DUP2 PUSH2 0x4A48 JUMP JUMPDEST DUP3 MSTORE POP POP JUMP JUMPDEST PUSH1 0x0 PUSH1 0x20 DUP3 ADD SWAP1 POP PUSH2 0x4D3C PUSH1 0x0 DUP4 ADD DUP5 PUSH2 0x4D18 JUMP JUMPDEST SWAP3 SWAP2 POP POP JUMP JUMPDEST PUSH2 0x4D4B DUP2 PUSH2 0x4909 JUMP JUMPDEST DUP3 MSTORE POP POP JUMP JUMPDEST PUSH1 0x0 DUP2 MLOAD SWAP1 POP SWAP2 SWAP1 POP JUMP JUMPDEST PUSH1 0x0 DUP3 DUP3 MSTORE PUSH1 0x20 DUP3 ADD SWAP1 POP SWAP3 SWAP2 POP POP JUMP JUMPDEST PUSH1 0x0 JUMPDEST DUP4 DUP2 LT ISZERO PUSH2 0x4D8B JUMPI DUP1 DUP3 ADD MLOAD DUP2 DUP5 ADD MSTORE PUSH1 0x20 DUP2 ADD SWAP1 POP PUSH2 0x4D70 JUMP JUMPDEST PUSH1 0x0 DUP5 DUP5 ADD MSTORE POP POP POP POP JUMP JUMPDEST PUSH1 0x0 PUSH1 0x1F NOT PUSH1 0x1F DUP4 ADD AND SWAP1 POP SWAP2 SWAP1 POP JUMP JUMPDEST PUSH1 0x0 PUSH2 0x4DB3 DUP3 PUSH2 0x4D51 JUMP JUMPDEST PUSH2 0x4DBD DUP2 DUP6 PUSH2 0x4D5C JUMP JUMPDEST SWAP4 POP PUSH2 0x4DCD DUP2 DUP6 PUSH1 0x20 DUP7 ADD PUSH2 0x4D6D JUMP JUMPDEST PUSH2 0x4DD6 DUP2 PUSH2 0x4D97 JUMP JUMPDEST DUP5 ADD SWAP2 POP POP SWAP3 SWAP2 POP POP JUMP JUMPDEST PUSH1 0x0 PUSH2 0x140 DUP3 ADD SWAP1 POP PUSH2 0x4DF7 PUSH1 0x0 DUP4 ADD DUP14 PUSH2 0x4B9D JUMP JUMPDEST PUSH2 0x4E04 PUSH1 0x20 DUP4 ADD DUP13 PUSH2 0x4D42 JUMP JUMPDEST DUP2 DUP2 SUB PUSH1 0x40 DUP4 ADD MSTORE PUSH2 0x4E16 DUP2 DUP12 PUSH2 0x4DA8 JUMP JUMPDEST SWAP1 POP PUSH2 0x4E25 PUSH1 0x60 DUP4 ADD DUP11 PUSH2 0x4B9D JUMP JUMPDEST PUSH2 0x4E32 PUSH1 0x80 DUP4 ADD DUP10 PUSH2 0x4D18 JUMP JUMPDEST PUSH2 0x4E3F PUSH1 0xA0 DUP4 ADD DUP9 PUSH2 0x4B9D JUMP JUMPDEST PUSH2 0x4E4C PUSH1 0xC0 DUP4 ADD DUP8 PUSH2 0x4B9D JUMP JUMPDEST PUSH2 0x4E59 PUSH1 0xE0 DUP4 ADD DUP7 PUSH2 0x4B9D JUMP JUMPDEST PUSH2 0x4E67 PUSH2 0x100 DUP4 ADD DUP6 PUSH2 0x4D18 JUMP JUMPDEST PUSH2 0x4E75 PUSH2 0x120 DUP4 ADD DUP5 PUSH2 0x4B9D JUMP JUMPDEST SWAP12 SWAP11 POP POP POP POP POP POP POP POP POP POP POP JUMP JUMPDEST PUSH1 0x0 DUP1 PUSH1 0x40 DUP4 DUP6 SUB SLT ISZERO PUSH2 0x4E9B JUMPI PUSH2 0x4E9A PUSH2 0x48A9 JUMP JUMPDEST JUMPDEST PUSH1 0x0 PUSH2 0x4EA9 DUP6 DUP3 DUP7 ADD PUSH2 0x4932 JUMP JUMPDEST SWAP3 POP POP PUSH1 0x20 PUSH2 0x4EBA DUP6 DUP3 DUP7 ADD PUSH2 0x48D4 JUMP JUMPDEST SWAP2 POP POP SWAP3 POP SWAP3 SWAP1 POP JUMP JUMPDEST PUSH2 0x4ECD DUP2 PUSH2 0x4A48 JUMP JUMPDEST DUP2 EQ PUSH2 0x4ED8 JUMPI PUSH1 0x0 DUP1 REVERT JUMPDEST POP JUMP JUMPDEST PUSH1 0x0 DUP2 CALLDATALOAD SWAP1 POP PUSH2 0x4EEA DUP2 PUSH2 0x4EC4 JUMP JUMPDEST SWAP3 SWAP2 POP POP JUMP JUMPDEST PUSH1 0x0 DUP1 PUSH1 0x40 DUP4 DUP6 SUB SLT ISZERO PUSH2 0x4F07 JUMPI PUSH2 0x4F06 PUSH2 0x48A9 JUMP JUMPDEST JUMPDEST PUSH1 0x0 PUSH2 0x4F15 DUP6 DUP3 DUP7 ADD PUSH2 0x4932 JUMP JUMPDEST SWAP3 POP POP PUSH1 0x20 PUSH2 0x4F26 DUP6 DUP3 DUP7 ADD PUSH2 0x4EDB JUMP JUMPDEST SWAP2 POP POP SWAP3 POP SWAP3 SWAP1 POP JUMP JUMPDEST PUSH1 0x0 DUP1 REVERT JUMPDEST PUSH1 0x0 DUP1 REVERT JUMPDEST PUSH32 0x4E487B7100000000000000000000000000000000000000000000000000000000 PUSH1 0x0 MSTORE PUSH1 0x41 PUSH1 0x4 MSTORE PUSH1 0x24 PUSH1 0x0 REVERT JUMPDEST PUSH2 0x4F72 DUP3 PUSH2 0x4D97 JUMP JUMPDEST DUP2 ADD DUP2 DUP2 LT PUSH8 0xFFFFFFFFFFFFFFFF DUP3 GT OR ISZERO PUSH2 0x4F91 JUMPI PUSH2 0x4F90 PUSH2 0x4F3A JUMP JUMPDEST JUMPDEST DUP1 PUSH1 0x40 MSTORE POP POP POP JUMP JUMPDEST PUSH1 0x0 PUSH2 0x4FA4 PUSH2 0x489F JUMP JUMPDEST SWAP1 POP PUSH2 0x4FB0 DUP3 DUP3 PUSH2 0x4F69 JUMP JUMPDEST SWAP2 SWAP1 POP JUMP JUMPDEST PUSH1 0x0 PUSH8 0xFFFFFFFFFFFFFFFF DUP3 GT ISZERO PUSH2 0x4FD0 JUMPI PUSH2 0x4FCF PUSH2 0x4F3A JUMP JUMPDEST JUMPDEST PUSH2 0x4FD9 DUP3 PUSH2 0x4D97 JUMP JUMPDEST SWAP1 POP PUSH1 0x20 DUP2 ADD SWAP1 POP SWAP2 SWAP1 POP JUMP JUMPDEST DUP3 DUP2 DUP4 CALLDATACOPY PUSH1 0x0 DUP4 DUP4 ADD MSTORE POP POP POP JUMP JUMPDEST PUSH1 0x0 PUSH2 0x5008 PUSH2 0x5003 DUP5 PUSH2 0x4FB5 JUMP JUMPDEST PUSH2 0x4F9A JUMP JUMPDEST SWAP1 POP DUP3 DUP2 MSTORE PUSH1 0x20 DUP2 ADD DUP5 DUP5 DUP5 ADD GT ISZERO PUSH2 0x5024 JUMPI PUSH2 0x5023 PUSH2 0x4F35 JUMP JUMPDEST JUMPDEST PUSH2 0x502F DUP5 DUP3 DUP6 PUSH2 0x4FE6 JUMP JUMPDEST POP SWAP4 SWAP3 POP POP POP JUMP JUMPDEST PUSH1 0x0 DUP3 PUSH1 0x1F DUP4 ADD SLT PUSH2 0x504C JUMPI PUSH2 0x504B PUSH2 0x4F30 JUMP JUMPDEST JUMPDEST DUP2 CALLDATALOAD PUSH2 0x505C DUP5 DUP3 PUSH1 0x20 DUP7 ADD PUSH2 0x4FF5 JUMP JUMPDEST SWAP2 POP POP SWAP3 SWAP2 POP POP JUMP JUMPDEST PUSH1 0x0 DUP1 REVERT JUMPDEST PUSH1 0x0 DUP1 REVERT JUMPDEST PUSH1 0x0 DUP1 DUP4 PUSH1 0x1F DUP5 ADD SLT PUSH2 0x5085 JUMPI PUSH2 0x5084 PUSH2 0x4F30 JUMP JUMPDEST JUMPDEST DUP3 CALLDATALOAD SWAP1 POP PUSH8 0xFFFFFFFFFFFFFFFF DUP2 GT ISZERO PUSH2 0x50A2 JUMPI PUSH2 0x50A1 PUSH2 0x5065 JUMP JUMPDEST JUMPDEST PUSH1 0x20 DUP4 ADD SWAP2 POP DUP4 PUSH1 0x20 DUP3 MUL DUP4 ADD GT ISZERO PUSH2 0x50BE JUMPI PUSH2 0x50BD PUSH2 0x506A JUMP JUMPDEST JUMPDEST SWAP3 POP SWAP3 SWAP1 POP JUMP JUMPDEST PUSH1 0x0 DUP1 PUSH1 0x0 DUP1 PUSH1 0x0 PUSH1 0x80 DUP7 DUP9 SUB SLT ISZERO PUSH2 0x50E1 JUMPI PUSH2 0x50E0 PUSH2 0x48A9 JUMP JUMPDEST JUMPDEST PUSH1 0x0 DUP7 ADD CALLDATALOAD PUSH8 0xFFFFFFFFFFFFFFFF DUP2 GT ISZERO PUSH2 0x50FF JUMPI PUSH2 0x50FE PUSH2 0x48AE JUMP JUMPDEST JUMPDEST PUSH2 0x510B DUP9 DUP3 DUP10 ADD PUSH2 0x5037 JUMP JUMPDEST SWAP6 POP POP PUSH1 0x20 DUP7 ADD CALLDATALOAD PUSH8 0xFFFFFFFFFFFFFFFF DUP2 GT ISZERO PUSH2 0x512C JUMPI PUSH2 0x512B PUSH2 0x48AE JUMP JUMPDEST JUMPDEST PUSH2 0x5138 DUP9 DUP3 DUP10 ADD PUSH2 0x506F JUMP JUMPDEST SWAP5 POP SWAP5 POP POP PUSH1 0x40 PUSH2 0x514B DUP9 DUP3 DUP10 ADD PUSH2 0x48D4 JUMP JUMPDEST SWAP3 POP POP PUSH1 0x60 PUSH2 0x515C DUP9 DUP3 DUP10 ADD PUSH2 0x48D4 JUMP JUMPDEST SWAP2 POP POP SWAP3 SWAP6 POP SWAP3 SWAP6 SWAP1 SWAP4 POP JUMP JUMPDEST PUSH1 0x0 DUP2 MLOAD SWAP1 POP SWAP2 SWAP1 POP JUMP JUMPDEST PUSH1 0x0 DUP3 DUP3 MSTORE PUSH1 0x20 DUP3 ADD SWAP1 POP SWAP3 SWAP2 POP POP JUMP JUMPDEST PUSH1 0x0 DUP2 SWAP1 POP PUSH1 0x20 DUP3 ADD SWAP1 POP SWAP2 SWAP1 POP JUMP JUMPDEST PUSH1 0x0 PUSH2 0x51A1 DUP4 DUP4 PUSH2 0x4A39 JUMP JUMPDEST PUSH1 0x20 DUP4 ADD SWAP1 POP SWAP3 SWAP2 POP POP JUMP JUMPDEST PUSH1 0x0 PUSH1 0x20 DUP3 ADD SWAP1 POP SWAP2 SWAP1 POP JUMP JUMPDEST PUSH1 0x0 PUSH2 0x51C5 DUP3 PUSH2 0x5169 JUMP JUMPDEST PUSH2 0x51CF DUP2 DUP6 PUSH2 0x5174 JUMP JUMPDEST SWAP4 POP PUSH2 0x51DA DUP4 PUSH2 0x5185 JUMP JUMPDEST DUP1 PUSH1 0x0 JUMPDEST DUP4 DUP2 LT ISZERO PUSH2 0x520B JUMPI DUP2 MLOAD PUSH2 0x51F2 DUP9 DUP3 PUSH2 0x5195 JUMP JUMPDEST SWAP8 POP PUSH2 0x51FD DUP4 PUSH2 0x51AD JUMP JUMPDEST SWAP3 POP POP PUSH1 0x1 DUP2 ADD SWAP1 POP PUSH2 0x51DE JUMP JUMPDEST POP DUP6 SWAP4 POP POP POP POP SWAP3 SWAP2 POP POP JUMP JUMPDEST PUSH1 0x0 PUSH1 0x20 DUP3 ADD SWAP1 POP DUP2 DUP2 SUB PUSH1 0x0 DUP4 ADD MSTORE PUSH2 0x5232 DUP2 DUP5 PUSH2 0x51BA JUMP JUMPDEST SWAP1 POP SWAP3 SWAP2 POP POP JUMP JUMPDEST PUSH1 0x0 PUSH1 0x20 DUP3 ADD SWAP1 POP PUSH2 0x524F PUSH1 0x0 DUP4 ADD DUP5 PUSH2 0x4D42 JUMP JUMPDEST SWAP3 SWAP2 POP POP JUMP JUMPDEST PUSH1 0x0 DUP1 PUSH1 0x0 DUP1 PUSH1 0x60 DUP6 DUP8 SUB SLT ISZERO PUSH2 0x526F JUMPI PUSH2 0x526E PUSH2 0x48A9 JUMP JUMPDEST JUMPDEST PUSH1 0x0 PUSH2 0x527D DUP8 DUP3 DUP9 ADD PUSH2 0x48D4 JUMP JUMPDEST SWAP5 POP POP PUSH1 0x20 PUSH2 0x528E DUP8 DUP3 DUP9 ADD PUSH2 0x4932 JUMP JUMPDEST SWAP4 POP POP PUSH1 0x40 DUP6 ADD CALLDATALOAD PUSH8 0xFFFFFFFFFFFFFFFF DUP2 GT ISZERO PUSH2 0x52AF JUMPI PUSH2 0x52AE PUSH2 0x48AE JUMP JUMPDEST JUMPDEST PUSH2 0x52BB DUP8 DUP3 DUP9 ADD PUSH2 0x506F JUMP JUMPDEST SWAP3 POP SWAP3 POP POP SWAP3 SWAP6 SWAP2 SWAP5 POP SWAP3 POP JUMP JUMPDEST PUSH1 0x0 PUSH1 0x40 DUP3 ADD SWAP1 POP PUSH2 0x52DE PUSH1 0x0 DUP4 ADD DUP6 PUSH2 0x4B9D JUMP JUMPDEST PUSH2 0x52EB PUSH1 0x20 DUP4 ADD DUP5 PUSH2 0x4B9D JUMP JUMPDEST SWAP4 SWAP3 POP POP POP JUMP JUMPDEST PUSH32 0x4E487B7100000000000000000000000000000000000000000000000000000000 PUSH1 0x0 MSTORE PUSH1 0x11 PUSH1 0x4 MSTORE PUSH1 0x24 PUSH1 0x0 REVERT JUMPDEST PUSH1 0x0 PUSH2 0x532C DUP3 PUSH2 0x48B3 JUMP JUMPDEST SWAP2 POP PUSH2 0x5337 DUP4 PUSH2 0x48B3 JUMP JUMPDEST SWAP3 POP DUP3 DUP3 ADD SWAP1 POP DUP1 DUP3 GT ISZERO PUSH2 0x534F JUMPI PUSH2 0x534E PUSH2 0x52F2 JUMP JUMPDEST JUMPDEST SWAP3 SWAP2 POP POP JUMP JUMPDEST PUSH32 0x4E487B7100000000000000000000000000000000000000000000000000000000 PUSH1 0x0 MSTORE PUSH1 0x22 PUSH1 0x4 MSTORE PUSH1 0x24 PUSH1 0x0 REVERT JUMPDEST PUSH1 0x0 PUSH1 0x2 DUP3 DIV SWAP1 POP PUSH1 0x1 DUP3 AND DUP1 PUSH2 0x539C JUMPI PUSH1 0x7F DUP3 AND SWAP2 POP JUMPDEST PUSH1 0x20 DUP3 LT DUP2 SUB PUSH2 0x53AF JUMPI PUSH2 0x53AE PUSH2 0x5355 JUMP JUMPDEST JUMPDEST POP SWAP2 SWAP1 POP JUMP JUMPDEST PUSH1 0x0 PUSH2 0x53C0 DUP3 PUSH2 0x48B3 JUMP JUMPDEST SWAP2 POP PUSH2 0x53CB DUP4 PUSH2 0x48B3 JUMP JUMPDEST SWAP3 POP DUP3 DUP3 SUB SWAP1 POP DUP2 DUP2 GT ISZERO PUSH2 0x53E3 JUMPI PUSH2 0x53E2 PUSH2 0x52F2 JUMP JUMPDEST JUMPDEST SWAP3 SWAP2 POP POP JUMP JUMPDEST PUSH32 0x4E487B7100000000000000000000000000000000000000000000000000000000 PUSH1 0x0 MSTORE PUSH1 0x32 PUSH1 0x4 MSTORE PUSH1 0x24 PUSH1 0x0 REVERT JUMPDEST PUSH32 0x4E487B7100000000000000000000000000000000000000000000000000000000 PUSH1 0x0 MSTORE PUSH1 0x31 PUSH1 0x4 MSTORE PUSH1 0x24 PUSH1 0x0 REVERT JUMPDEST PUSH1 0x0 PUSH2 0x5452 DUP3 PUSH2 0x48B3 JUMP JUMPDEST SWAP2 POP PUSH32 0xFFFFFFFFFFFFFFFFFFFFFFFFFFFFFFFFFFFFFFFFFFFFFFFFFFFFFFFFFFFFFFFF DUP3 SUB PUSH2 0x5484 JUMPI PUSH2 0x5483 PUSH2 0x52F2 JUMP JUMPDEST JUMPDEST PUSH1 0x1 DUP3 ADD SWAP1 POP SWAP2 SWAP1 POP JUMP JUMPDEST PUSH1 0x0 DUP2 SWAP1 POP DUP2 PUSH1 0x0 MSTORE PUSH1 0x20 PUSH1 0x0 KECCAK256 SWAP1 POP SWAP2 SWAP1 POP JUMP JUMPDEST PUSH1 0x0 PUSH1 0x20 PUSH1 0x1F DUP4 ADD DIV SWAP1 POP SWAP2 SWAP1 POP JUMP JUMPDEST PUSH1 0x0 DUP3 DUP3 SHL SWAP1 POP SWAP3 SWAP2 POP POP JUMP JUMPDEST PUSH1 0x0 PUSH1 0x8 DUP4 MUL PUSH2 0x54F1 PUSH32 0xFFFFFFFFFFFFFFFFFFFFFFFFFFFFFFFFFFFFFFFFFFFFFFFFFFFFFFFFFFFFFFFF DUP3 PUSH2 0x54B4 JUMP JUMPDEST PUSH2 0x54FB DUP7 DUP4 PUSH2 0x54B4 JUMP JUMPDEST SWAP6 POP DUP1 NOT DUP5 AND SWAP4 POP DUP1 DUP7 AND DUP5 OR SWAP3 POP POP POP SWAP4 SWAP3 POP POP POP JUMP JUMPDEST PUSH1 0x0 DUP2 SWAP1 POP SWAP2 SWAP1 POP JUMP JUMPDEST PUSH1 0x0 PUSH2 0x5538 PUSH2 0x5533 PUSH2 0x552E DUP5 PUSH2 0x48B3 JUMP JUMPDEST PUSH2 0x5513 JUMP JUMPDEST PUSH2 0x48B3 JUMP JUMPDEST SWAP1 POP SWAP2 SWAP1 POP JUMP JUMPDEST PUSH1 0x0 DUP2 SWAP1 POP SWAP2 SWAP1 POP JUMP JUMPDEST PUSH2 0x5552 DUP4 PUSH2 0x551D JUMP JUMPDEST PUSH2 0x5566 PUSH2 0x555E DUP3 PUSH2 0x553F JUMP JUMPDEST DUP5 DUP5 SLOAD PUSH2 0x54C1 JUMP JUMPDEST DUP3 SSTORE POP POP POP POP JUMP JUMPDEST PUSH1 0x0 SWAP1 JUMP JUMPDEST PUSH2 0x557B PUSH2 0x556E JUMP JUMPDEST PUSH2 0x5586 DUP2 DUP5 DUP5 PUSH2 0x5549 JUMP JUMPDEST POP POP POP JUMP JUMPDEST JUMPDEST DUP2 DUP2 LT ISZERO PUSH2 0x55AA JUMPI PUSH2 0x559F PUSH1 0x0 DUP3 PUSH2 0x5573 JUMP JUMPDEST PUSH1 0x1 DUP2 ADD SWAP1 POP PUSH2 0x558C JUMP JUMPDEST POP POP JUMP JUMPDEST PUSH1 0x1F DUP3 GT ISZERO PUSH2 0x55EF JUMPI PUSH2 0x55C0 DUP2 PUSH2 0x548F JUMP JUMPDEST PUSH2 0x55C9 DUP5 PUSH2 0x54A4 JUMP JUMPDEST DUP2 ADD PUSH1 0x20 DUP6 LT ISZERO PUSH2 0x55D8 JUMPI DUP2 SWAP1 POP JUMPDEST PUSH2 0x55EC PUSH2 0x55E4 DUP6 PUSH2 0x54A4 JUMP JUMPDEST DUP4 ADD DUP3 PUSH2 0x558B JUMP JUMPDEST POP POP JUMPDEST POP POP POP JUMP JUMPDEST PUSH1 0x0 DUP3 DUP3 SHR SWAP1 POP SWAP3 SWAP2 POP POP JUMP JUMPDEST PUSH1 0x0 PUSH2 0x5612 PUSH1 0x0 NOT DUP5 PUSH1 0x8 MUL PUSH2 0x55F4 JUMP JUMPDEST NOT DUP1 DUP4 AND SWAP2 POP POP SWAP3 SWAP2 POP POP JUMP JUMPDEST PUSH1 0x0 PUSH2 0x562B DUP4 DUP4 PUSH2 0x5601 JUMP JUMPDEST SWAP2 POP DUP3 PUSH1 0x2 MUL DUP3 OR SWAP1 POP SWAP3 SWAP2 POP POP JUMP JUMPDEST PUSH2 0x5644 DUP3 PUSH2 0x4D51 JUMP JUMPDEST PUSH8 0xFFFFFFFFFFFFFFFF DUP2 GT ISZERO PUSH2 0x565D JUMPI PUSH2 0x565C PUSH2 0x4F3A JUMP JUMPDEST JUMPDEST PUSH2 0x5667 DUP3 SLOAD PUSH2 0x5384 JUMP JUMPDEST PUSH2 0x5672 DUP3 DUP3 DUP6 PUSH2 0x55AE JUMP JUMPDEST PUSH1 0x0 PUSH1 0x20 SWAP1 POP PUSH1 0x1F DUP4 GT PUSH1 0x1 DUP2 EQ PUSH2 0x56A5 JUMPI PUSH1 0x0 DUP5 ISZERO PUSH2 0x5693 JUMPI DUP3 DUP8 ADD MLOAD SWAP1 POP JUMPDEST PUSH2 0x569D DUP6 DUP3 PUSH2 0x561F JUMP JUMPDEST DUP7 SSTORE POP PUSH2 0x5705 JUMP JUMPDEST PUSH1 0x1F NOT DUP5 AND PUSH2 0x56B3 DUP7 PUSH2 0x548F JUMP JUMPDEST PUSH1 0x0 JUMPDEST DUP3 DUP2 LT ISZERO PUSH2 0x56DB JUMPI DUP5 DUP10 ADD MLOAD DUP3 SSTORE PUSH1 0x1 DUP3 ADD SWAP2 POP PUSH1 0x20 DUP6 ADD SWAP5 POP PUSH1 0x20 DUP2 ADD SWAP1 POP PUSH2 0x56B6 JUMP JUMPDEST DUP7 DUP4 LT ISZERO PUSH2 0x56F8 JUMPI DUP5 DUP10 ADD MLOAD PUSH2 0x56F4 PUSH1 0x1F DUP10 AND DUP3 PUSH2 0x5601 JUMP JUMPDEST DUP4 SSTORE POP JUMPDEST PUSH1 0x1 PUSH1 0x2 DUP9 MUL ADD DUP9 SSTORE POP POP POP JUMPDEST POP POP POP POP POP POP JUMP JUMPDEST PUSH1 0x0 DUP1 REVERT JUMPDEST PUSH1 0x0 DUP1 REVERT JUMPDEST PUSH1 0x0 DUP1 REVERT JUMPDEST PUSH1 0x0 DUP3 CALLDATALOAD PUSH1 0x1 PUSH1 0xA0 SUB DUP4 CALLDATASIZE SUB SUB DUP2 SLT PUSH2 0x5738 JUMPI PUSH2 0x5737 PUSH2 0x570D JUMP JUMPDEST JUMPDEST DUP1 DUP4 ADD SWAP2 POP POP SWAP3 SWAP2 POP POP JUMP JUMPDEST PUSH1 0x0 DUP1 DUP4 CALLDATALOAD PUSH1 0x1 PUSH1 0x20 SUB DUP5 CALLDATASIZE SUB SUB DUP2 SLT PUSH2 0x5761 JUMPI PUSH2 0x5760 PUSH2 0x570D JUMP JUMPDEST JUMPDEST DUP1 DUP5 ADD SWAP3 POP DUP3 CALLDATALOAD SWAP2 POP PUSH8 0xFFFFFFFFFFFFFFFF DUP3 GT ISZERO PUSH2 0x5783 JUMPI PUSH2 0x5782 PUSH2 0x5712 JUMP JUMPDEST JUMPDEST PUSH1 0x20 DUP4 ADD SWAP3 POP PUSH1 0x20 DUP3 MUL CALLDATASIZE SUB DUP4 SGT ISZERO PUSH2 0x579F JUMPI PUSH2 0x579E PUSH2 0x5717 JUMP JUMPDEST JUMPDEST POP SWAP3 POP SWAP3 SWAP1 POP JUMP JUMPDEST PUSH32 0x4E487B7100000000000000000000000000000000000000000000000000000000 PUSH1 0x0 MSTORE PUSH1 0x12 PUSH1 0x4 MSTORE PUSH1 0x24 PUSH1 0x0 REVERT JUMPDEST PUSH1 0x0 PUSH2 0x57E1 DUP3 PUSH2 0x48B3 JUMP JUMPDEST SWAP2 POP PUSH2 0x57EC DUP4 PUSH2 0x48B3 JUMP JUMPDEST SWAP3 POP DUP3 PUSH2 0x57FC JUMPI PUSH2 0x57FB PUSH2 0x57A7 JUMP JUMPDEST JUMPDEST DUP3 DUP3 DIV SWAP1 POP SWAP3 SWAP2 POP POP JUMP JUMPDEST PUSH1 0x5 DUP2 LT PUSH2 0x5814 JUMPI PUSH1 0x0 DUP1 REVERT JUMPDEST POP JUMP JUMPDEST PUSH1 0x0 DUP2 CALLDATALOAD SWAP1 POP PUSH2 0x5826 DUP2 PUSH2 0x5807 JUMP JUMPDEST SWAP3 SWAP2 POP POP JUMP JUMPDEST PUSH1 0x0 PUSH1 0x20 DUP3 DUP5 SUB SLT ISZERO PUSH2 0x5842 JUMPI PUSH2 0x5841 PUSH2 0x48A9 JUMP JUMPDEST JUMPDEST PUSH1 0x0 PUSH2 0x5850 DUP5 DUP3 DUP6 ADD PUSH2 0x5817 JUMP JUMPDEST SWAP2 POP POP SWAP3 SWAP2 POP POP JUMP JUMPDEST PUSH1 0x0 DUP1 DUP4 CALLDATALOAD PUSH1 0x1 PUSH1 0x20 SUB DUP5 CALLDATASIZE SUB SUB DUP2 SLT PUSH2 0x5876 JUMPI PUSH2 0x5875 PUSH2 0x570D JUMP JUMPDEST JUMPDEST DUP1 DUP5 ADD SWAP3 POP DUP3 CALLDATALOAD SWAP2 POP PUSH8 0xFFFFFFFFFFFFFFFF DUP3 GT ISZERO PUSH2 0x5898 JUMPI PUSH2 0x5897 PUSH2 0x5712 JUMP JUMPDEST JUMPDEST PUSH1 0x20 DUP4 ADD SWAP3 POP PUSH1 0x20 DUP3 MUL CALLDATASIZE SUB DUP4 SGT ISZERO PUSH2 0x58B4 JUMPI PUSH2 0x58B3 PUSH2 0x5717 JUMP JUMPDEST JUMPDEST POP SWAP3 POP SWAP3 SWAP1 POP JUMP JUMPDEST PUSH1 0x0 PUSH1 0x60 DUP3 ADD SWAP1 POP PUSH2 0x58D1 PUSH1 0x0 DUP4 ADD DUP7 PUSH2 0x4D42 JUMP JUMPDEST PUSH2 0x58DE PUSH1 0x20 DUP4 ADD DUP6 PUSH2 0x4D42 JUMP JUMPDEST PUSH2 0x58EB PUSH1 0x40 DUP4 ADD DUP5 PUSH2 0x4B9D JUMP JUMPDEST SWAP5 SWAP4 POP POP POP POP JUMP JUMPDEST PUSH1 0x0 DUP2 MLOAD SWAP1 POP PUSH2 0x5902 DUP2 PUSH2 0x4EC4 JUMP JUMPDEST SWAP3 SWAP2 POP POP JUMP JUMPDEST PUSH1 0x0 PUSH1 0x20 DUP3 DUP5 SUB SLT ISZERO PUSH2 0x591E JUMPI PUSH2 0x591D PUSH2 0x48A9 JUMP JUMPDEST JUMPDEST PUSH1 0x0 PUSH2 0x592C DUP5 DUP3 DUP6 ADD PUSH2 0x58F3 JUMP JUMPDEST SWAP2 POP POP SWAP3 SWAP2 POP POP JUMP JUMPDEST PUSH1 0x0 DUP3 DUP3 MSTORE PUSH1 0x20 DUP3 ADD SWAP1 POP SWAP3 SWAP2 POP POP JUMP JUMPDEST POP JUMP JUMPDEST PUSH1 0x0 PUSH2 0x5956 PUSH1 0x0 DUP4 PUSH2 0x5935 JUMP JUMPDEST SWAP2 POP PUSH2 0x5961 DUP3 PUSH2 0x5946 JUMP JUMPDEST PUSH1 0x0 DUP3 ADD SWAP1 POP SWAP2 SWAP1 POP JUMP JUMPDEST PUSH1 0x0 PUSH1 0xA0 DUP3 ADD SWAP1 POP PUSH2 0x5981 PUSH1 0x0 DUP4 ADD DUP8 PUSH2 0x4D42 JUMP JUMPDEST PUSH2 0x598E PUSH1 0x20 DUP4 ADD DUP7 PUSH2 0x4D42 JUMP JUMPDEST PUSH2 0x599B PUSH1 0x40 DUP4 ADD DUP6 PUSH2 0x4B9D JUMP JUMPDEST PUSH2 0x59A8 PUSH1 0x60 DUP4 ADD DUP5 PUSH2 0x4B9D JUMP JUMPDEST DUP2 DUP2 SUB PUSH1 0x80 DUP4 ADD MSTORE PUSH2 0x59B9 DUP2 PUSH2 0x5949 JUMP JUMPDEST SWAP1 POP SWAP6 SWAP5 POP POP POP POP POP JUMP JUMPDEST PUSH2 0x59CD DUP2 PUSH2 0x4A18 JUMP JUMPDEST DUP3 MSTORE POP POP JUMP JUMPDEST PUSH1 0x0 PUSH1 0x60 DUP3 ADD SWAP1 POP PUSH2 0x59E8 PUSH1 0x0 DUP4 ADD DUP7 PUSH2 0x59C4 JUMP JUMPDEST PUSH2 0x59F5 PUSH1 0x20 DUP4 ADD DUP6 PUSH2 0x4B9D JUMP JUMPDEST PUSH2 0x5A02 PUSH1 0x40 DUP4 ADD DUP5 PUSH2 0x4B9D JUMP JUMPDEST SWAP5 SWAP4 POP POP POP POP JUMP JUMPDEST PUSH1 0x0 DUP2 SLOAD SWAP1 POP SWAP2 SWAP1 POP JUMP JUMPDEST PUSH1 0x0 DUP2 SWAP1 POP DUP2 PUSH1 0x0 MSTORE PUSH1 0x20 PUSH1 0x0 KECCAK256 SWAP1 POP SWAP2 SWAP1 POP JUMP JUMPDEST PUSH1 0x0 DUP2 PUSH1 0x0 SHR SWAP1 POP SWAP2 SWAP1 POP JUMP JUMPDEST PUSH1 0x0 PUSH20 0xFFFFFFFFFFFFFFFFFFFFFFFFFFFFFFFFFFFFFFFF DUP3 AND SWAP1 POP SWAP2 SWAP1 POP JUMP JUMPDEST PUSH1 0x0 PUSH2 0x5A6A PUSH2 0x5A65 DUP4 PUSH2 0x5A2A JUMP JUMPDEST PUSH2 0x5A37 JUMP JUMPDEST SWAP1 POP SWAP2 SWAP1 POP JUMP JUMPDEST PUSH1 0x0 PUSH2 0x5A7D DUP3 SLOAD PUSH2 0x5A57 JUMP JUMPDEST SWAP1 POP SWAP2 SWAP1 POP JUMP JUMPDEST PUSH1 0x0 PUSH1 0x1 DUP3 ADD SWAP1 POP SWAP2 SWAP1 POP JUMP JUMPDEST PUSH1 0x0 PUSH2 0x5A9C DUP3 PUSH2 0x5A0A JUMP JUMPDEST PUSH2 0x5AA6 DUP2 DUP6 PUSH2 0x4C52 JUMP JUMPDEST SWAP4 POP PUSH2 0x5AB1 DUP4 PUSH2 0x5A15 JUMP JUMPDEST DUP1 PUSH1 0x0 JUMPDEST DUP4 DUP2 LT ISZERO PUSH2 0x5AE9 JUMPI PUSH2 0x5AC6 DUP3 PUSH2 0x5A71 JUMP JUMPDEST PUSH2 0x5AD0 DUP9 DUP3 PUSH2 0x4C73 JUMP JUMPDEST SWAP8 POP PUSH2 0x5ADB DUP4 PUSH2 0x5A84 JUMP JUMPDEST SWAP3 POP POP PUSH1 0x1 DUP2 ADD SWAP1 POP PUSH2 0x5AB5 JUMP JUMPDEST POP DUP6 SWAP4 POP POP POP POP SWAP3 SWAP2 POP POP JUMP JUMPDEST PUSH1 0x0 PUSH1 0x40 DUP3 ADD SWAP1 POP DUP2 DUP2 SUB PUSH1 0x0 DUP4 ADD MSTORE PUSH2 0x5B10 DUP2 DUP6 PUSH2 0x4DA8 JUMP JUMPDEST SWAP1 POP DUP2 DUP2 SUB PUSH1 0x20 DUP4 ADD MSTORE PUSH2 0x5B24 DUP2 DUP5 PUSH2 0x5A91 JUMP JUMPDEST SWAP1 POP SWAP4 SWAP3 POP POP POP JUMP JUMPDEST PUSH1 0x0 DUP2 SWAP1 POP SWAP3 SWAP2 POP POP JUMP JUMPDEST PUSH1 0x0 PUSH2 0x5B45 PUSH1 0x0 DUP4 PUSH2 0x5B2D JUMP JUMPDEST SWAP2 POP PUSH2 0x5B50 DUP3 PUSH2 0x5946 JUMP JUMPDEST PUSH1 0x0 DUP3 ADD SWAP1 POP SWAP2 SWAP1 POP JUMP JUMPDEST PUSH1 0x0 PUSH2 0x5B66 DUP3 PUSH2 0x5B38 JUMP JUMPDEST SWAP2 POP DUP2 SWAP1 POP SWAP2 SWAP1 POP JUMP JUMPDEST PUSH1 0x0 PUSH1 0x40 DUP3 ADD SWAP1 POP PUSH2 0x5B85 PUSH1 0x0 DUP4 ADD DUP6 PUSH2 0x4D42 JUMP JUMPDEST PUSH2 0x5B92 PUSH1 0x20 DUP4 ADD DUP5 PUSH2 0x4B9D JUMP JUMPDEST SWAP4 SWAP3 POP POP POP JUMP JUMPDEST PUSH1 0x0 DUP2 SWAP1 POP SWAP2 SWAP1 POP JUMP JUMPDEST PUSH1 0x0 PUSH2 0x5BBE PUSH2 0x5BB9 PUSH2 0x5BB4 DUP5 PUSH2 0x5B99 JUMP JUMPDEST PUSH2 0x5513 JUMP JUMPDEST PUSH2 0x48B3 JUMP JUMPDEST SWAP1 POP SWAP2 SWAP1 POP JUMP JUMPDEST PUSH2 0x5BCE DUP2 PUSH2 0x5BA3 JUMP JUMPDEST DUP3 MSTORE POP POP JUMP JUMPDEST PUSH1 0x0 PUSH1 0x60 DUP3 ADD SWAP1 POP PUSH2 0x5BE9 PUSH1 0x0 DUP4 ADD DUP7 PUSH2 0x59C4 JUMP JUMPDEST PUSH2 0x5BF6 PUSH1 0x20 DUP4 ADD DUP6 PUSH2 0x5BC5 JUMP JUMPDEST PUSH2 0x5C03 PUSH1 0x40 DUP4 ADD DUP5 PUSH2 0x4B9D JUMP JUMPDEST SWAP5 SWAP4 POP POP POP POP JUMP JUMPDEST PUSH1 0x0 DUP2 SWAP1 POP SWAP2 SWAP1 POP JUMP JUMPDEST PUSH1 0x0 PUSH2 0x5C30 PUSH2 0x5C2B PUSH2 0x5C26 DUP5 PUSH2 0x5C0B JUMP JUMPDEST PUSH2 0x5513 JUMP JUMPDEST PUSH2 0x48B3 JUMP JUMPDEST SWAP1 POP SWAP2 SWAP1 POP JUMP JUMPDEST PUSH2 0x5C40 DUP2 PUSH2 0x5C15 JUMP JUMPDEST DUP3 MSTORE POP POP JUMP JUMPDEST PUSH1 0x0 PUSH1 0x60 DUP3 ADD SWAP1 POP PUSH2 0x5C5B PUSH1 0x0 DUP4 ADD DUP7 PUSH2 0x59C4 JUMP JUMPDEST PUSH2 0x5C68 PUSH1 0x20 DUP4 ADD DUP6 PUSH2 0x4B9D JUMP JUMPDEST PUSH2 0x5C75 PUSH1 0x40 DUP4 ADD DUP5 PUSH2 0x5C37 JUMP JUMPDEST SWAP5 SWAP4 POP POP POP POP JUMP JUMPDEST PUSH1 0x0 PUSH1 0x60 DUP3 ADD SWAP1 POP PUSH2 0x5C92 PUSH1 0x0 DUP4 ADD DUP7 PUSH2 0x4B9D JUMP JUMPDEST PUSH2 0x5C9F PUSH1 0x20 DUP4 ADD DUP6 PUSH2 0x4B9D JUMP JUMPDEST PUSH2 0x5CAC PUSH1 0x40 DUP4 ADD DUP5 PUSH2 0x4B9D JUMP JUMPDEST SWAP5 SWAP4 POP POP POP POP JUMP INVALID LOG2 PUSH5 0x6970667358 0x22 SLT KECCAK256 DUP9 XOR MULMOD CREATE2 MOD EXTCODESIZE GAS BLOCKHASH 0xD8 0x2B 0xB5 LOG1 PUSH12 0xC1061BE1111CC32E3F1150E4 PUSH25 0x9E3C341A950964736F6C634300081800330000000000000000 "
        },
        "methodIdentifiers": {
          "addBeneficiaryWithAllocation(uint256,address,(address,uint8,uint256[],uint256[],address[])[])": "9516e033",
          "authorizedBackends(address)": "e712a35d",
          "beneficiaryWills(address,uint256)": "888253e4",
          "checkAndTriggerDeadManSwitch(address)": "3d9c68fc",
          "claimInheritance(uint256)": "92ccb8ff",
          "createWill(string,(address,uint8,uint256[],uint256[],address[])[],uint256,uint256)": "69f196bb",
          "getActivityThreshold(uint256)": "18957836",
          "getBeneficiaries(address)": "1cab59a4",
          "getBeneficiaryAllocations(uint256,address)": "14f93bf8",
          "getRemainingGracePeriod(uint256)": "4a4d6714",
          "getTimeUntilDeadManSwitch(uint256)": "cfd35b8a",
          "getWillsAsBeneficiary(address)": "6bd6cfd6",
          "getWillsByOwner(address)": "7de00a9d",
          "hasGracePeriodEnded(uint256)": "1cba3af9",
          "owner()": "8da5cb5b",
          "ownerWillIds(address,uint256)": "479b7676",
          "removeBeneficiary(address)": "59633a1c",
          "renounceOwnership()": "715018a6",
          "setAuthorizedBackend(address,bool)": "4fb37f3c",
          "transferOwnership(address)": "f2fde38b",
          "updateTimeframes(uint256,uint256,uint256)": "1a2cd78f",
          "wills(address)": "a4cb92fa",
          "willsById(uint256)": "1ed22bd7"
        }
      }
    }
  }
}