{
  "contracts/WillRegistry.sol": {
    "WillRegistry": {
      "abi": [
        {
          "inputs": [],
          "stateMutability": "nonpayable",
          "type": "constructor"
        },
        {
          "inputs": [
            {
              "internalType": "uint256",
              "name": "provided",
              "type": "uint256"
            },
            {
              "internalType": "uint256",
              "name": "min",
              "type": "uint256"
            },
            {
              "internalType": "uint256",
              "name": "max",
              "type": "uint256"
            }
          ],
          "name": "ActivityThresholdInvalid",
          "type": "error"
        },
        {
          "inputs": [
            {
              "internalType": "uint256",
              "name": "activityThreshold",
              "type": "uint256"
            },
            {
              "internalType": "uint256",
              "name": "gracePeriod",
              "type": "uint256"
            }
          ],
          "name": "ActivityThresholdTooShortForGracePeriod",
          "type": "error"
        },
        {
          "inputs": [],
          "name": "AlreadyClaimed",
          "type": "error"
        },
        {
          "inputs": [],
          "name": "BeneficiaryExists",
          "type": "error"
        },
        {
          "inputs": [],
          "name": "BeneficiaryMissing",
          "type": "error"
        },
        {
          "inputs": [],
          "name": "DeadManSwitchNotTriggered",
          "type": "error"
        },
        {
          "inputs": [],
          "name": "DeadSwitchActive",
          "type": "error"
        },
        {
          "inputs": [],
          "name": "EtherTransferFailed",
          "type": "error"
        },
        {
          "inputs": [
            {
              "internalType": "uint256",
              "name": "provided",
              "type": "uint256"
            },
            {
              "internalType": "uint256",
              "name": "min",
              "type": "uint256"
            },
            {
              "internalType": "uint256",
              "name": "max",
              "type": "uint256"
            }
          ],
          "name": "GracePeriodInvalid",
          "type": "error"
        },
        {
          "inputs": [],
          "name": "GracePeriodNotEnded",
          "type": "error"
        },
        {
          "inputs": [],
          "name": "InvalidBeneficiary",
          "type": "error"
        },
        {
          "inputs": [],
          "name": "InvalidToken",
          "type": "error"
        },
        {
          "inputs": [],
          "name": "NoAllocation",
          "type": "error"
        },
        {
          "inputs": [],
          "name": "NotABeneficiary",
          "type": "error"
        },
        {
          "inputs": [],
          "name": "NotWillOwner",
          "type": "error"
        },
        {
          "inputs": [
            {
              "internalType": "address",
              "name": "owner",
              "type": "address"
            }
          ],
          "name": "OwnableInvalidOwner",
          "type": "error"
        },
        {
          "inputs": [
            {
              "internalType": "address",
              "name": "account",
              "type": "address"
            }
          ],
          "name": "OwnableUnauthorizedAccount",
          "type": "error"
        },
        {
          "inputs": [],
          "name": "ReentrancyGuardReentrantCall",
          "type": "error"
        },
        {
          "inputs": [],
          "name": "Unauthorized",
          "type": "error"
        },
        {
          "inputs": [],
          "name": "WillIdInvalid",
          "type": "error"
        },
        {
          "inputs": [
            {
              "internalType": "uint256",
              "name": "willId",
              "type": "uint256"
            }
          ],
          "name": "WillIdNotFound",
          "type": "error"
        },
        {
          "inputs": [],
          "name": "WillInactive",
          "type": "error"
        },
        {
          "inputs": [],
          "name": "WillNotFound",
          "type": "error"
        },
        {
          "anonymous": false,
          "inputs": [
            {
              "indexed": true,
              "internalType": "address",
              "name": "owner",
              "type": "address"
            },
            {
              "indexed": false,
              "internalType": "uint256",
              "name": "timestamp",
              "type": "uint256"
            }
          ],
          "name": "ActivityUpdated",
          "type": "event"
        },
        {
          "anonymous": false,
          "inputs": [
            {
              "indexed": true,
              "internalType": "address",
              "name": "owner",
              "type": "address"
            },
            {
              "indexed": true,
              "internalType": "address",
              "name": "beneficiary",
              "type": "address"
            }
          ],
          "name": "BeneficiaryAdded",
          "type": "event"
        },
        {
          "anonymous": false,
          "inputs": [
            {
              "indexed": true,
              "internalType": "address",
              "name": "beneficiary",
              "type": "address"
            },
            {
              "indexed": true,
              "internalType": "address",
              "name": "token",
              "type": "address"
            },
            {
              "indexed": false,
              "internalType": "uint256",
              "name": "tokenId",
              "type": "uint256"
            },
            {
              "indexed": false,
              "internalType": "uint256",
              "name": "amount",
              "type": "uint256"
            }
          ],
          "name": "BeneficiaryClaimed",
          "type": "event"
        },
        {
          "anonymous": false,
          "inputs": [
            {
              "indexed": true,
              "internalType": "address",
              "name": "owner",
              "type": "address"
            },
            {
              "indexed": true,
              "internalType": "address",
              "name": "beneficiary",
              "type": "address"
            }
          ],
          "name": "BeneficiaryRemoved",
          "type": "event"
        },
        {
          "anonymous": false,
          "inputs": [
            {
              "indexed": true,
              "internalType": "address",
              "name": "owner",
              "type": "address"
            },
            {
              "indexed": false,
              "internalType": "uint256",
              "name": "timestamp",
              "type": "uint256"
            }
          ],
          "name": "DeadManSwitchActivated",
          "type": "event"
        },
        {
          "anonymous": false,
          "inputs": [
            {
              "indexed": true,
              "internalType": "address",
              "name": "owner",
              "type": "address"
            }
          ],
          "name": "DeadManSwitchTriggered",
          "type": "event"
        },
        {
          "anonymous": false,
          "inputs": [
            {
              "indexed": true,
              "internalType": "address",
              "name": "owner",
              "type": "address"
            },
            {
              "indexed": false,
              "internalType": "uint256",
              "name": "amount",
              "type": "uint256"
            },
            {
              "indexed": true,
              "internalType": "address",
              "name": "beneficiary",
              "type": "address"
            }
          ],
          "name": "EtherAllocated",
          "type": "event"
        },
        {
          "anonymous": false,
          "inputs": [
            {
              "indexed": true,
              "internalType": "address",
              "name": "owner",
              "type": "address"
            },
            {
              "indexed": false,
              "internalType": "uint256",
              "name": "timestamp",
              "type": "uint256"
            },
            {
              "indexed": false,
              "internalType": "uint256",
              "name": "gracePeriod",
              "type": "uint256"
            }
          ],
          "name": "GracePeriodStarted",
          "type": "event"
        },
        {
          "anonymous": false,
          "inputs": [
            {
              "indexed": true,
              "internalType": "address",
              "name": "previousOwner",
              "type": "address"
            },
            {
              "indexed": true,
              "internalType": "address",
              "name": "newOwner",
              "type": "address"
            }
          ],
          "name": "OwnershipTransferred",
          "type": "event"
        },
        {
          "anonymous": false,
          "inputs": [
            {
              "indexed": true,
              "internalType": "address",
              "name": "owner",
              "type": "address"
            }
          ],
          "name": "PanicButtonPressed",
          "type": "event"
        },
        {
          "anonymous": false,
          "inputs": [
            {
              "indexed": true,
              "internalType": "address",
              "name": "owner",
              "type": "address"
            },
            {
              "indexed": false,
              "internalType": "uint256",
              "name": "gracePeriod",
              "type": "uint256"
            },
            {
              "indexed": false,
              "internalType": "uint256",
              "name": "activityThreshold",
              "type": "uint256"
            }
          ],
          "name": "TimeframesUpdated",
          "type": "event"
        },
        {
          "anonymous": false,
          "inputs": [
            {
              "indexed": true,
              "internalType": "address",
              "name": "owner",
              "type": "address"
            },
            {
              "indexed": true,
              "internalType": "address",
              "name": "token",
              "type": "address"
            },
            {
              "indexed": false,
              "internalType": "enum WillRegistry.TokenType",
              "name": "tokenType",
              "type": "uint8"
            },
            {
              "indexed": true,
              "internalType": "address",
              "name": "beneficiary",
              "type": "address"
            },
            {
              "indexed": false,
              "internalType": "uint256",
              "name": "tokenId",
              "type": "uint256"
            },
            {
              "indexed": false,
              "internalType": "uint256",
              "name": "amount",
              "type": "uint256"
            }
          ],
          "name": "TokenAllocated",
          "type": "event"
        },
        {
          "anonymous": false,
          "inputs": [
            {
              "indexed": true,
              "internalType": "address",
              "name": "beneficiary",
              "type": "address"
            },
            {
              "indexed": true,
              "internalType": "address",
              "name": "willOwner",
              "type": "address"
            }
          ],
          "name": "WillClaimed",
          "type": "event"
        },
        {
          "anonymous": false,
          "inputs": [
            {
              "indexed": true,
              "internalType": "address",
              "name": "owner",
              "type": "address"
            },
            {
              "indexed": false,
              "internalType": "string",
              "name": "name",
              "type": "string"
            },
            {
              "indexed": false,
              "internalType": "address[]",
              "name": "beneficiaries",
              "type": "address[]"
            }
          ],
          "name": "WillCreated",
          "type": "event"
        },
        {
          "inputs": [
            {
              "internalType": "uint256",
              "name": "willId",
              "type": "uint256"
            },
            {
              "internalType": "address",
              "name": "beneficiary",
              "type": "address"
            },
            {
              "components": [
                {
                  "internalType": "address",
                  "name": "tokenAddress",
                  "type": "address"
                },
                {
                  "internalType": "enum WillRegistry.TokenType",
                  "name": "tokenType",
                  "type": "uint8"
                },
                {
                  "internalType": "uint256[]",
                  "name": "tokenIds",
                  "type": "uint256[]"
                },
                {
                  "internalType": "uint256[]",
                  "name": "amounts",
                  "type": "uint256[]"
                },
                {
                  "internalType": "address[]",
                  "name": "beneficiaries",
                  "type": "address[]"
                }
              ],
              "internalType": "struct WillRegistry.TokenAllocation[]",
              "name": "allocations",
              "type": "tuple[]"
            }
          ],
          "name": "addBeneficiaryWithAllocation",
          "outputs": [],
          "stateMutability": "nonpayable",
          "type": "function"
        },
        {
          "inputs": [
            {
              "internalType": "address",
              "name": "",
              "type": "address"
            }
          ],
          "name": "authorizedBackends",
          "outputs": [
            {
              "internalType": "bool",
              "name": "",
              "type": "bool"
            }
          ],
          "stateMutability": "view",
          "type": "function"
        },
        {
          "inputs": [
            {
              "internalType": "address",
              "name": "",
              "type": "address"
            },
            {
              "internalType": "uint256",
              "name": "",
              "type": "uint256"
            }
          ],
          "name": "beneficiaryWills",
          "outputs": [
            {
              "internalType": "address",
              "name": "",
              "type": "address"
            }
          ],
          "stateMutability": "view",
          "type": "function"
        },
        {
          "inputs": [
            {
              "internalType": "address",
              "name": "willOwner",
              "type": "address"
            }
          ],
          "name": "checkAndTriggerDeadManSwitch",
          "outputs": [],
          "stateMutability": "nonpayable",
          "type": "function"
        },
        {
          "inputs": [
            {
              "internalType": "uint256",
              "name": "willId",
              "type": "uint256"
            }
          ],
          "name": "claimInheritance",
          "outputs": [],
          "stateMutability": "nonpayable",
          "type": "function"
        },
        {
          "inputs": [
            {
              "internalType": "string",
              "name": "_name",
              "type": "string"
            },
            {
              "components": [
                {
                  "internalType": "address",
                  "name": "tokenAddress",
                  "type": "address"
                },
                {
                  "internalType": "enum WillRegistry.TokenType",
                  "name": "tokenType",
                  "type": "uint8"
                },
                {
                  "internalType": "uint256[]",
                  "name": "tokenIds",
                  "type": "uint256[]"
                },
                {
                  "internalType": "uint256[]",
                  "name": "amounts",
                  "type": "uint256[]"
                },
                {
                  "internalType": "address[]",
                  "name": "beneficiaries",
                  "type": "address[]"
                }
              ],
              "internalType": "struct WillRegistry.TokenAllocation[]",
              "name": "_allocations",
              "type": "tuple[]"
            },
            {
              "internalType": "uint256",
              "name": "_gracePeriod",
              "type": "uint256"
            },
            {
              "internalType": "uint256",
              "name": "_activityThreshold",
              "type": "uint256"
            }
          ],
          "name": "createWill",
          "outputs": [],
          "stateMutability": "payable",
          "type": "function"
        },
        {
          "inputs": [
            {
              "internalType": "address",
              "name": "owner",
              "type": "address"
            }
          ],
          "name": "getBeneficiaries",
          "outputs": [
            {
              "internalType": "address[]",
              "name": "",
              "type": "address[]"
            }
          ],
          "stateMutability": "view",
          "type": "function"
        },
        {
          "inputs": [
            {
              "internalType": "uint256",
              "name": "willId",
              "type": "uint256"
            },
            {
              "internalType": "address",
              "name": "beneficiary",
              "type": "address"
            }
          ],
          "name": "getBeneficiaryAllocations",
          "outputs": [
            {
              "components": [
                {
                  "internalType": "address",
                  "name": "tokenAddress",
                  "type": "address"
                },
                {
                  "internalType": "enum WillRegistry.TokenType",
                  "name": "tokenType",
                  "type": "uint8"
                },
                {
                  "internalType": "uint256",
                  "name": "tokenId",
                  "type": "uint256"
                },
                {
                  "internalType": "uint256",
                  "name": "amount",
                  "type": "uint256"
                },
                {
                  "internalType": "bool",
                  "name": "claimed",
                  "type": "bool"
                }
              ],
              "internalType": "struct WillRegistry.BeneficiaryAllocation[]",
              "name": "",
              "type": "tuple[]"
            }
          ],
          "stateMutability": "view",
          "type": "function"
        },
        {
          "inputs": [
            {
              "internalType": "uint256",
              "name": "willId",
              "type": "uint256"
            }
          ],
          "name": "getRemainingGracePeriod",
          "outputs": [
            {
              "internalType": "uint256",
              "name": "",
              "type": "uint256"
            }
          ],
          "stateMutability": "view",
          "type": "function"
        },
        {
          "inputs": [
            {
              "internalType": "uint256",
              "name": "willId",
              "type": "uint256"
            }
          ],
          "name": "getTimeUntilDeadManSwitch",
          "outputs": [
            {
              "internalType": "uint256",
              "name": "",
              "type": "uint256"
            }
          ],
          "stateMutability": "view",
          "type": "function"
        },
        {
          "inputs": [
            {
              "internalType": "address",
              "name": "owner",
              "type": "address"
            }
          ],
          "name": "getTotalTokensWilled",
          "outputs": [
            {
              "internalType": "uint256",
              "name": "",
              "type": "uint256"
            }
          ],
          "stateMutability": "view",
          "type": "function"
        },
        {
          "inputs": [
            {
              "internalType": "address",
              "name": "owner",
              "type": "address"
            }
          ],
          "name": "getTotalUniqueBeneficiaries",
          "outputs": [
            {
              "internalType": "uint256",
              "name": "",
              "type": "uint256"
            }
          ],
          "stateMutability": "view",
          "type": "function"
        },
        {
          "inputs": [
            {
              "internalType": "address",
              "name": "owner",
              "type": "address"
            }
          ],
          "name": "getTotalWillsCreated",
          "outputs": [
            {
              "internalType": "uint256",
              "name": "",
              "type": "uint256"
            }
          ],
          "stateMutability": "view",
          "type": "function"
        },
        {
          "inputs": [
            {
              "internalType": "uint256",
              "name": "willId",
              "type": "uint256"
            },
            {
              "internalType": "address",
              "name": "owner",
              "type": "address"
            }
          ],
          "name": "getWillDetailsByIdAndOwner",
          "outputs": [
            {
              "internalType": "uint256",
              "name": "id",
              "type": "uint256"
            },
            {
              "internalType": "address",
              "name": "willOwner",
              "type": "address"
            },
            {
              "internalType": "string",
              "name": "name",
              "type": "string"
            },
            {
              "internalType": "uint256",
              "name": "lastActivity",
              "type": "uint256"
            },
            {
              "internalType": "bool",
              "name": "isActive",
              "type": "bool"
            },
            {
              "internalType": "uint256",
              "name": "etherAllocation",
              "type": "uint256"
            },
            {
              "internalType": "uint256",
              "name": "gracePeriod",
              "type": "uint256"
            },
            {
              "internalType": "uint256",
              "name": "activityThreshold",
              "type": "uint256"
            },
            {
              "internalType": "bool",
              "name": "deadManSwitchTriggered",
              "type": "bool"
            },
            {
              "internalType": "uint256",
              "name": "deadManSwitchTimestamp",
              "type": "uint256"
            },
            {
              "internalType": "address[]",
              "name": "beneficiaries",
              "type": "address[]"
            }
          ],
          "stateMutability": "view",
          "type": "function"
        },
        {
          "inputs": [
            {
              "internalType": "address",
              "name": "beneficiary",
              "type": "address"
            }
          ],
          "name": "getWillsAsBeneficiary",
          "outputs": [
            {
              "internalType": "address[]",
              "name": "",
              "type": "address[]"
            }
          ],
          "stateMutability": "view",
          "type": "function"
        },
        {
          "inputs": [
            {
              "internalType": "address",
              "name": "owner",
              "type": "address"
            }
          ],
          "name": "getWillsByOwner",
          "outputs": [
            {
              "components": [
                {
                  "internalType": "uint256",
                  "name": "willId",
                  "type": "uint256"
                },
                {
                  "internalType": "string",
                  "name": "willName",
                  "type": "string"
                },
                {
                  "internalType": "address",
                  "name": "tokenAddress",
                  "type": "address"
                },
                {
                  "internalType": "uint8",
                  "name": "tokenType",
                  "type": "uint8"
                },
                {
                  "internalType": "uint256",
                  "name": "totalAmount",
                  "type": "uint256"
                },
                {
                  "internalType": "uint256",
                  "name": "beneficiaryCount",
                  "type": "uint256"
                },
                {
                  "internalType": "uint256",
                  "name": "activityPeriod",
                  "type": "uint256"
                },
                {
                  "internalType": "uint256",
                  "name": "gracePeriod",
                  "type": "uint256"
                }
              ],
              "internalType": "struct WillRegistry.WillDetails[]",
              "name": "",
              "type": "tuple[]"
            }
          ],
          "stateMutability": "view",
          "type": "function"
        },
        {
          "inputs": [
            {
              "internalType": "address",
              "name": "beneficiary",
              "type": "address"
            }
          ],
          "name": "getWillsWilledToBeneficiary",
          "outputs": [
            {
              "components": [
                {
                  "internalType": "uint256",
                  "name": "willId",
                  "type": "uint256"
                },
                {
                  "internalType": "string",
                  "name": "willName",
                  "type": "string"
                },
                {
                  "internalType": "address",
                  "name": "tokenAddress",
                  "type": "address"
                },
                {
                  "internalType": "enum WillRegistry.TokenType",
                  "name": "tokenType",
                  "type": "uint8"
                },
                {
                  "internalType": "uint256",
                  "name": "amount",
                  "type": "uint256"
                },
                {
                  "internalType": "bool",
                  "name": "claimed",
                  "type": "bool"
                },
                {
                  "internalType": "address",
                  "name": "willOwner",
                  "type": "address"
                }
              ],
              "internalType": "struct WillRegistry.BeneficiaryWillInfo[]",
              "name": "",
              "type": "tuple[]"
            }
          ],
          "stateMutability": "view",
          "type": "function"
        },
        {
          "inputs": [
            {
              "internalType": "uint256",
              "name": "willId",
              "type": "uint256"
            }
          ],
          "name": "hasGracePeriodEnded",
          "outputs": [
            {
              "internalType": "bool",
              "name": "",
              "type": "bool"
            }
          ],
          "stateMutability": "view",
          "type": "function"
        },
        {
          "inputs": [],
          "name": "owner",
          "outputs": [
            {
              "internalType": "address",
              "name": "",
              "type": "address"
            }
          ],
          "stateMutability": "view",
          "type": "function"
        },
        {
          "inputs": [
            {
              "internalType": "address",
              "name": "",
              "type": "address"
            },
            {
              "internalType": "uint256",
              "name": "",
              "type": "uint256"
            }
          ],
          "name": "ownerWillIds",
          "outputs": [
            {
              "internalType": "uint256",
              "name": "",
              "type": "uint256"
            }
          ],
          "stateMutability": "view",
          "type": "function"
        },
        {
          "inputs": [],
          "name": "renounceOwnership",
          "outputs": [],
          "stateMutability": "nonpayable",
          "type": "function"
        },
        {
          "inputs": [
            {
              "internalType": "address",
              "name": "backend",
              "type": "address"
            },
            {
              "internalType": "bool",
              "name": "authorized",
              "type": "bool"
            }
          ],
          "name": "setAuthorizedBackend",
          "outputs": [],
          "stateMutability": "nonpayable",
          "type": "function"
        },
        {
          "inputs": [
            {
              "internalType": "address",
              "name": "newOwner",
              "type": "address"
            }
          ],
          "name": "transferOwnership",
          "outputs": [],
          "stateMutability": "nonpayable",
          "type": "function"
        },
        {
          "inputs": [
            {
              "internalType": "uint256",
              "name": "willId",
              "type": "uint256"
            },
            {
              "internalType": "uint256",
              "name": "_gracePeriod",
              "type": "uint256"
            },
            {
              "internalType": "uint256",
              "name": "_activityThreshold",
              "type": "uint256"
            }
          ],
          "name": "updateTimeframes",
          "outputs": [],
          "stateMutability": "nonpayable",
          "type": "function"
        },
        {
          "inputs": [
            {
              "internalType": "address",
              "name": "",
              "type": "address"
            }
          ],
          "name": "wills",
          "outputs": [
            {
              "internalType": "uint256",
              "name": "id",
              "type": "uint256"
            },
            {
              "internalType": "address",
              "name": "owner",
              "type": "address"
            },
            {
              "internalType": "string",
              "name": "name",
              "type": "string"
            },
            {
              "internalType": "uint256",
              "name": "lastActivity",
              "type": "uint256"
            },
            {
              "internalType": "bool",
              "name": "isActive",
              "type": "bool"
            },
            {
              "internalType": "uint256",
              "name": "etherAllocation",
              "type": "uint256"
            },
            {
              "internalType": "uint256",
              "name": "gracePeriod",
              "type": "uint256"
            },
            {
              "internalType": "uint256",
              "name": "activityThreshold",
              "type": "uint256"
            },
            {
              "internalType": "bool",
              "name": "deadManSwitchTriggered",
              "type": "bool"
            },
            {
              "internalType": "uint256",
              "name": "deadManSwitchTimestamp",
              "type": "uint256"
            }
          ],
          "stateMutability": "view",
          "type": "function"
        },
        {
          "inputs": [
            {
              "internalType": "uint256",
              "name": "",
              "type": "uint256"
            }
          ],
          "name": "willsById",
          "outputs": [
            {
              "internalType": "uint256",
              "name": "id",
              "type": "uint256"
            },
            {
              "internalType": "address",
              "name": "owner",
              "type": "address"
            },
            {
              "internalType": "string",
              "name": "name",
              "type": "string"
            },
            {
              "internalType": "uint256",
              "name": "lastActivity",
              "type": "uint256"
            },
            {
              "internalType": "bool",
              "name": "isActive",
              "type": "bool"
            },
            {
              "internalType": "uint256",
              "name": "etherAllocation",
              "type": "uint256"
            },
            {
              "internalType": "uint256",
              "name": "gracePeriod",
              "type": "uint256"
            },
            {
              "internalType": "uint256",
              "name": "activityThreshold",
              "type": "uint256"
            },
            {
              "internalType": "bool",
              "name": "deadManSwitchTriggered",
              "type": "bool"
            },
            {
              "internalType": "uint256",
              "name": "deadManSwitchTimestamp",
              "type": "uint256"
            }
          ],
          "stateMutability": "view",
          "type": "function"
        }
      ],
      "evm": {
        "bytecode": {
          "linkReferences": {},
          "object": "608060405260016002553480156200001657600080fd5b5033600073ffffffffffffffffffffffffffffffffffffffff168173ffffffffffffffffffffffffffffffffffffffff16036200008d5760006040517f1e4fbdf7000000000000000000000000000000000000000000000000000000008152600401620000849190620001b5565b60405180910390fd5b6200009e81620000ac60201b60201c565b5060018081905550620001d2565b60008060009054906101000a900473ffffffffffffffffffffffffffffffffffffffff169050816000806101000a81548173ffffffffffffffffffffffffffffffffffffffff021916908373ffffffffffffffffffffffffffffffffffffffff1602179055508173ffffffffffffffffffffffffffffffffffffffff168173ffffffffffffffffffffffffffffffffffffffff167f8be0079c531659141344cd1fd0a4f28419497f9722a3daafe3b4186f6b6457e060405160405180910390a35050565b600073ffffffffffffffffffffffffffffffffffffffff82169050919050565b60006200019d8262000170565b9050919050565b620001af8162000190565b82525050565b6000602082019050620001cc6000830184620001a4565b92915050565b615e5d80620001e26000396000f3fe6080604052600436106101815760003560e01c8063715018a6116100d15780639f1494b81161008a578063e5ab8c8811610064578063e5ab8c8814610623578063e712a35d14610660578063eed4a3f51461069d578063f2fde38b146106da57610181565b80639f1494b814610563578063a4cb92fa146105a0578063cfd35b8a146105e657610181565b8063715018a6146104555780637de00a9d1461046c578063888253e4146104a95780638da5cb5b146104e657806392ccb8ff146105115780639516e0331461053a57610181565b80633cf9d0731161013e5780634a4d6714116101185780634a4d6714146103965780634fb37f3c146103d357806369f196bb146103fc5780636bd6cfd61461041857610181565b80633cf9d073146102e95780633d9c68fc14610330578063479b76761461035957610181565b806314f93bf8146101865780631579673c146101c35780631a2cd78f146102005780631cab59a4146102295780631cba3af9146102665780631ed22bd7146102a3575b600080fd5b34801561019257600080fd5b506101ad60048036038101906101a8919061487a565b610703565b6040516101ba9190614a81565b60405180910390f35b3480156101cf57600080fd5b506101ea60048036038101906101e59190614aa3565b6108f7565b6040516101f79190614cbe565b60405180910390f35b34801561020c57600080fd5b5061022760048036038101906102229190614ce0565b610ff3565b005b34801561023557600080fd5b50610250600480360381019061024b9190614aa3565b6111e4565b60405161025d9190614de2565b60405180910390f35b34801561027257600080fd5b5061028d60048036038101906102889190614e04565b61133a565b60405161029a9190614e40565b60405180910390f35b3480156102af57600080fd5b506102ca60048036038101906102c59190614e04565b61141e565b6040516102e09a99989796959493929190614ec3565b60405180910390f35b3480156102f557600080fd5b50610310600480360381019061030b919061487a565b611534565b6040516103279b9a99989796959493929190614f66565b60405180910390f35b34801561033c57600080fd5b5061035760048036038101906103529190614aa3565b611786565b005b34801561036557600080fd5b50610380600480360381019061037b919061501f565b611977565b60405161038d919061505f565b60405180910390f35b3480156103a257600080fd5b506103bd60048036038101906103b89190614e04565b6119a8565b6040516103ca919061505f565b60405180910390f35b3480156103df57600080fd5b506103fa60048036038101906103f591906150a6565b611abc565b005b6104166004803603810190610411919061527b565b611b1f565b005b34801561042457600080fd5b5061043f600480360381019061043a9190614aa3565b6123a5565b60405161044c9190614de2565b60405180910390f35b34801561046157600080fd5b5061046a612472565b005b34801561047857600080fd5b50610493600480360381019061048e9190614aa3565b612486565b6040516104a091906154ad565b60405180910390f35b3480156104b557600080fd5b506104d060048036038101906104cb919061501f565b612991565b6040516104dd91906154cf565b60405180910390f35b3480156104f257600080fd5b506104fb6129df565b60405161050891906154cf565b60405180910390f35b34801561051d57600080fd5b5061053860048036038101906105339190614e04565b612a08565b005b34801561054657600080fd5b50610561600480360381019061055c91906154ea565b613159565b005b34801561056f57600080fd5b5061058a60048036038101906105859190614aa3565b61369e565b604051610597919061505f565b60405180910390f35b3480156105ac57600080fd5b506105c760048036038101906105c29190614aa3565b6136ea565b6040516105dd9a99989796959493929190614ec3565b60405180910390f35b3480156105f257600080fd5b5061060d60048036038101906106089190614e04565b613800565b60405161061a919061505f565b60405180910390f35b34801561062f57600080fd5b5061064a60048036038101906106459190614aa3565b61390a565b604051610657919061505f565b60405180910390f35b34801561066c57600080fd5b5061068760048036038101906106829190614aa3565b613b8e565b6040516106949190614e40565b60405180910390f35b3480156106a957600080fd5b506106c460048036038101906106bf9190614aa3565b613bae565b6040516106d1919061505f565b60405180910390f35b3480156106e657600080fd5b5061070160048036038101906106fc9190614aa3565b613e56565b005b6060600061071084613edc565b90508060070160008473ffffffffffffffffffffffffffffffffffffffff1673ffffffffffffffffffffffffffffffffffffffff16815260200190815260200160002060009054906101000a900460ff16610797576040517f43290f5b00000000000000000000000000000000000000000000000000000000815260040160405180910390fd5b8060090160008473ffffffffffffffffffffffffffffffffffffffff1673ffffffffffffffffffffffffffffffffffffffff168152602001908152602001600020805480602002602001604051908101604052809291908181526020016000905b828210156108ea57838290600052602060002090600402016040518060a00160405290816000820160009054906101000a900473ffffffffffffffffffffffffffffffffffffffff1673ffffffffffffffffffffffffffffffffffffffff1673ffffffffffffffffffffffffffffffffffffffff1681526020016000820160149054906101000a900460ff166002811115610896576108956148f5565b5b60028111156108a8576108a76148f5565b5b815260200160018201548152602001600282015481526020016003820160009054906101000a900460ff161515151581525050815260200190600101906107f8565b5050505091505092915050565b60606000600560008473ffffffffffffffffffffffffffffffffffffffff1673ffffffffffffffffffffffffffffffffffffffff1681526020019081526020016000208054806020026020016040519081016040528092919081815260200182805480156109ba57602002820191906000526020600020905b8160009054906101000a900473ffffffffffffffffffffffffffffffffffffffff1673ffffffffffffffffffffffffffffffffffffffff1681526020019060010190808311610970575b505050505090506000805b8251811015610ba75760008382815181106109e3576109e261555e565b5b602002602001015190506000600760008373ffffffffffffffffffffffffffffffffffffffff1673ffffffffffffffffffffffffffffffffffffffff168152602001908152602001600020805480602002602001604051908101604052809291908181526020018280548015610a7857602002820191906000526020600020905b815481526020019060010190808311610a64575b5050505050905060005b8151811015610b97576000828281518110610aa057610a9f61555e565b5b6020026020010151905060006006600083815260200190815260200160002090508060040160009054906101000a900460ff168015610b2a57508060070160008b73ffffffffffffffffffffffffffffffffffffffff1673ffffffffffffffffffffffffffffffffffffffff16815260200190815260200160002060009054906101000a900460ff165b15610b885760008160090160008c73ffffffffffffffffffffffffffffffffffffffff1673ffffffffffffffffffffffffffffffffffffffff1681526020019081526020016000209050808054905088610b8491906155bc565b9750505b50508080600101915050610a82565b50505080806001019150506109c5565b5060008167ffffffffffffffff811115610bc457610bc36150f0565b5b604051908082528060200260200182016040528015610bfd57816020015b610bea6146f7565b815260200190600190039081610be25790505b5090506000805b8451811015610fe6576000858281518110610c2257610c2161555e565b5b602002602001015190506000600760008373ffffffffffffffffffffffffffffffffffffffff1673ffffffffffffffffffffffffffffffffffffffff168152602001908152602001600020805480602002602001604051908101604052809291908181526020018280548015610cb757602002820191906000526020600020905b815481526020019060010190808311610ca3575b5050505050905060005b8151811015610fd6576000828281518110610cdf57610cde61555e565b5b6020026020010151905060006006600083815260200190815260200160002090508060040160009054906101000a900460ff168015610d6957508060070160008d73ffffffffffffffffffffffffffffffffffffffff1673ffffffffffffffffffffffffffffffffffffffff16815260200190815260200160002060009054906101000a900460ff165b15610fc75760008160090160008e73ffffffffffffffffffffffffffffffffffffffff1673ffffffffffffffffffffffffffffffffffffffff168152602001908152602001600020905060005b8180549050811015610fc4576040518060e00160405280858152602001846002018054610de29061561f565b80601f0160208091040260200160405190810160405280929190818152602001828054610e0e9061561f565b8015610e5b5780601f10610e3057610100808354040283529160200191610e5b565b820191906000526020600020905b815481529060010190602001808311610e3e57829003601f168201915b50505050508152602001838381548110610e7857610e7761555e565b5b906000526020600020906004020160000160009054906101000a900473ffffffffffffffffffffffffffffffffffffffff1673ffffffffffffffffffffffffffffffffffffffff168152602001838381548110610ed857610ed761555e565b5b906000526020600020906004020160000160149054906101000a900460ff166002811115610f0957610f086148f5565b5b8152602001838381548110610f2157610f2061555e565b5b9060005260206000209060040201600201548152602001838381548110610f4b57610f4a61555e565b5b906000526020600020906004020160030160009054906101000a900460ff16151581526020018873ffffffffffffffffffffffffffffffffffffffff168152508a8a81518110610f9e57610f9d61555e565b5b60200260200101819052508880610fb490615650565b9950508080600101915050610db6565b50505b50508080600101915050610cc1565b5050508080600101915050610c04565b5081945050505050919050565b6000830361102d576040517f97643b5200000000000000000000000000000000000000000000000000000000815260040160405180910390fd5b60006006600085815260200190815260200160002090508060040160009054906101000a900460ff1661109757836040517f8c209e5600000000000000000000000000000000000000000000000000000000815260040161108e919061505f565b60405180910390fd5b3373ffffffffffffffffffffffffffffffffffffffff168160010160009054906101000a900473ffffffffffffffffffffffffffffffffffffffff1673ffffffffffffffffffffffffffffffffffffffff1614611120576040517f0f5e6bd800000000000000000000000000000000000000000000000000000000815260040160405180910390fd5b61112a8383613f8a565b80600c0160009054906101000a900460ff1615611173576040517f815091e200000000000000000000000000000000000000000000000000000000815260040160405180910390fd5b8281600a01819055508181600b01819055504281600301819055503373ffffffffffffffffffffffffffffffffffffffff167fb84522da2d2039e8f4a7a0993eea2cf0dd5c31c0d7265951c4c4e7985dcda7be84846040516111d6929190615698565b60405180910390a250505050565b6060600360008373ffffffffffffffffffffffffffffffffffffffff1673ffffffffffffffffffffffffffffffffffffffff16815260200190815260200160002060040160009054906101000a900460ff1661126c576040517ff73656bf00000000000000000000000000000000000000000000000000000000815260040160405180910390fd5b600360008373ffffffffffffffffffffffffffffffffffffffff1673ffffffffffffffffffffffffffffffffffffffff16815260200190815260200160002060080180548060200260200160405190810160405280929190818152602001828054801561132e57602002820191906000526020600020905b8160009054906101000a900473ffffffffffffffffffffffffffffffffffffffff1673ffffffffffffffffffffffffffffffffffffffff16815260200190600101908083116112e4575b50505050509050919050565b6000808203611375576040517f97643b5200000000000000000000000000000000000000000000000000000000815260040160405180910390fd5b60006006600084815260200190815260200160002090508060040160009054906101000a900460ff166113df57826040517f8c209e560000000000000000000000000000000000000000000000000000000081526004016113d6919061505f565b60405180910390fd5b80600c0160009054906101000a900460ff166113ff576000915050611419565b80600a015481600d015461141391906155bc565b42119150505b919050565b60066020528060005260406000206000915090508060000154908060010160009054906101000a900473ffffffffffffffffffffffffffffffffffffffff169080600201805461146d9061561f565b80601f01602080910402602001604051908101604052809291908181526020018280546114999061561f565b80156114e65780601f106114bb576101008083540402835291602001916114e6565b820191906000526020600020905b8154815290600101906020018083116114c957829003601f168201915b5050505050908060030154908060040160009054906101000a900460ff169080600601549080600a01549080600b01549080600c0160009054906101000a900460ff169080600d015490508a565b60008060606000806000806000806000606060006115518e613edc565b90508c73ffffffffffffffffffffffffffffffffffffffff168160010160009054906101000a900473ffffffffffffffffffffffffffffffffffffffff1673ffffffffffffffffffffffffffffffffffffffff16146115dc576040517f0f5e6bd800000000000000000000000000000000000000000000000000000000815260040160405180910390fd5b80600001548160010160009054906101000a900473ffffffffffffffffffffffffffffffffffffffff168260020183600301548460040160009054906101000a900460ff16856006015486600a015487600b015488600c0160009054906101000a900460ff1689600d01548a6008018880546116579061561f565b80601f01602080910402602001604051908101604052809291908181526020018280546116839061561f565b80156116d05780601f106116a5576101008083540402835291602001916116d0565b820191906000526020600020905b8154815290600101906020018083116116b357829003601f168201915b505050505098508080548060200260200160405190810160405280929190818152602001828054801561175857602002820191906000526020600020905b8160009054906101000a900473ffffffffffffffffffffffffffffffffffffffff1673ffffffffffffffffffffffffffffffffffffffff168152602001906001019080831161170e575b505050505090509b509b509b509b509b509b509b509b509b509b509b50509295989b509295989b9093969950565b600460003373ffffffffffffffffffffffffffffffffffffffff1673ffffffffffffffffffffffffffffffffffffffff16815260200190815260200160002060009054906101000a900460ff16611809576040517f82b4290000000000000000000000000000000000000000000000000000000000815260040160405180910390fd5b6000600360008373ffffffffffffffffffffffffffffffffffffffff1673ffffffffffffffffffffffffffffffffffffffff16815260200190815260200160002090508060040160009054906101000a900460ff16611894576040517f3114099800000000000000000000000000000000000000000000000000000000815260040160405180910390fd5b80600c0160009054906101000a900460ff16156118dd576040517f815091e200000000000000000000000000000000000000000000000000000000815260040160405180910390fd5b80600b01548160030154426118f291906156c1565b111561197357600181600c0160006101000a81548160ff0219169083151502179055504281600d01819055508173ffffffffffffffffffffffffffffffffffffffff167f674b29eac3f8db4186c76e9429fa4d70125d68fed7b9a0d862732a7d2fcf4e364283600a015460405161196a929190615698565b60405180910390a25b5050565b6007602052816000526040600020818154811061199357600080fd5b90600052602060002001600091509150505481565b60008082036119e3576040517f97643b5200000000000000000000000000000000000000000000000000000000815260040160405180910390fd5b60006006600084815260200190815260200160002090508060040160009054906101000a900460ff16611a4d57826040517f8c209e56000000000000000000000000000000000000000000000000000000008152600401611a44919061505f565b60405180910390fd5b80600c0160009054906101000a900460ff161580611a705750611a6f8361133a565b5b15611a7f576000915050611ab7565b600081600a015482600d0154611a9591906155bc565b9050428111611aa5576000611ab2565b4281611ab191906156c1565b5b925050505b919050565b611ac4614094565b80600460008473ffffffffffffffffffffffffffffffffffffffff1673ffffffffffffffffffffffffffffffffffffffff16815260200190815260200160002060006101000a81548160ff0219169083151502179055505050565b611b2761411b565b600084849050148015611b3a5750600034145b15611b71576040517f5f8a655a00000000000000000000000000000000000000000000000000000000815260040160405180910390fd5b611b7b8282613f8a565b600060026000815480929190611b9090615650565b9190505590506000600660008381526020019081526020016000209050818160000181905550338160010160006101000a81548173ffffffffffffffffffffffffffffffffffffffff021916908373ffffffffffffffffffffffffffffffffffffffff16021790555086816002019081611c0a91906158a1565b508381600a01819055508281600b018190555042816003018190555060018160040160006101000a81548160ff021916908315150217905550600760003373ffffffffffffffffffffffffffffffffffffffff1673ffffffffffffffffffffffffffffffffffffffff1681526020019081526020016000208290806001815401808255809150506001900390600052602060002001600090919091909150556000341115611e1a5734816006018190555060005b86866000818110611cd257611cd161555e565b5b9050602002810190611ce49190615982565b8060800190611cf391906159aa565b9050811015611e1857600087876000818110611d1257611d1161555e565b5b9050602002810190611d249190615982565b8060800190611d3391906159aa565b83818110611d4457611d4361555e565b5b9050602002016020810190611d599190614aa3565b90508260070160008273ffffffffffffffffffffffffffffffffffffffff1673ffffffffffffffffffffffffffffffffffffffff16815260200190815260200160002060009054906101000a900460ff16611db957611db88185614161565b5b611e0a838260008060008d8d6000818110611dd757611dd661555e565b5b9050602002810190611de99190615982565b8060800190611df891906159aa565b905034611e059190615a3c565b6144ab565b508080600101915050611cbe565b505b60005b868690508110156122f0576000878783818110611e3d57611e3c61555e565b5b9050602002810190611e4f9190615982565b6020016020810190611e619190615a92565b9050600280811115611e7657611e756148f5565b5b816002811115611e8957611e886148f5565b5b03611ec0576040517fc1ab6dc100000000000000000000000000000000000000000000000000000000815260040160405180910390fd5b60016002811115611ed457611ed36148f5565b5b816002811115611ee757611ee66148f5565b5b036120435760005b888884818110611f0257611f0161555e565b5b9050602002810190611f149190615982565b8060800190611f2391906159aa565b9050811015612041576000898985818110611f4157611f4061555e565b5b9050602002810190611f539190615982565b8060600190611f629190615abf565b83818110611f7357611f7261555e565b5b905060200201359050898985818110611f8f57611f8e61555e565b5b9050602002810190611fa19190615982565b6000016020810190611fb39190614aa3565b73ffffffffffffffffffffffffffffffffffffffff166323b872dd3330846040518463ffffffff1660e01b8152600401611fef93929190615b22565b6020604051808303816000875af115801561200e573d6000803e3d6000fd5b505050506040513d601f19601f820116820180604052508101906120329190615b6e565b50508080600101915050611eef565b505b60005b8888848181106120595761205861555e565b5b905060200281019061206b9190615982565b806080019061207a91906159aa565b90508110156122e15760008989858181106120985761209761555e565b5b90506020028101906120aa9190615982565b80608001906120b991906159aa565b838181106120ca576120c961555e565b5b90506020020160208101906120df9190614aa3565b90508460070160008273ffffffffffffffffffffffffffffffffffffffff1673ffffffffffffffffffffffffffffffffffffffff16815260200190815260200160002060009054906101000a900460ff1661213f5761213e8187614161565b5b6121d085828c8c888181106121575761215661555e565b5b90506020028101906121699190615982565b600001602081019061217b9190614aa3565b600160008f8f8b8181106121925761219161555e565b5b90506020028101906121a49190615982565b80606001906121b39190615abf565b898181106121c4576121c361555e565b5b905060200201356144ab565b8073ffffffffffffffffffffffffffffffffffffffff168a8a868181106121fa576121f961555e565b5b905060200281019061220c9190615982565b600001602081019061221e9190614aa3565b73ffffffffffffffffffffffffffffffffffffffff163373ffffffffffffffffffffffffffffffffffffffff167fb44510937e7a7a5dd39439c63df574818db53dac575444d730f4cc88dda6d1c8600160008f8f8b8181106122835761228261555e565b5b90506020028101906122959190615982565b80606001906122a49190615abf565b898181106122b5576122b461555e565b5b905060200201356040516122cb93929190615be5565b60405180910390a4508080600101915050612046565b50508080600101915050611e1d565b503373ffffffffffffffffffffffffffffffffffffffff167fdfe6dd715d896ca6c4a17441d3e7a45cb92ec36b4f4a8cdf60a7498ec1341b4f888360080160405161233c929190615d08565b60405180910390a23373ffffffffffffffffffffffffffffffffffffffff167fb84522da2d2039e8f4a7a0993eea2cf0dd5c31c0d7265951c4c4e7985dcda7be858560405161238c929190615698565b60405180910390a2505061239e614622565b5050505050565b6060600560008373ffffffffffffffffffffffffffffffffffffffff1673ffffffffffffffffffffffffffffffffffffffff16815260200190815260200160002080548060200260200160405190810160405280929190818152602001828054801561246657602002820191906000526020600020905b8160009054906101000a900473ffffffffffffffffffffffffffffffffffffffff1673ffffffffffffffffffffffffffffffffffffffff168152602001906001019080831161241c575b50505050509050919050565b61247a614094565b612484600061462b565b565b60606000600760008473ffffffffffffffffffffffffffffffffffffffff1673ffffffffffffffffffffffffffffffffffffffff16815260200190815260200160002080548060200260200160405190810160405280929190818152602001828054801561251357602002820191906000526020600020905b8154815260200190600101908083116124ff575b505050505090506000815167ffffffffffffffff811115612537576125366150f0565b5b60405190808252806020026020018201604052801561257057816020015b61255d614774565b8152602001906001900390816125555790505b50905060005b8251811015612986576000600660008584815181106125985761259761555e565b5b60200260200101518152602001908152602001600020905060008160060154905060005b82600801805490508110156127115760008360080182815481106125e3576125e261555e565b5b9060005260206000200160009054906101000a900473ffffffffffffffffffffffffffffffffffffffff16905060008460090160008373ffffffffffffffffffffffffffffffffffffffff1673ffffffffffffffffffffffffffffffffffffffff168152602001908152602001600020905060005b81805490508110156127015760016002811115612678576126776148f5565b5b82828154811061268b5761268a61555e565b5b906000526020600020906004020160000160149054906101000a900460ff1660028111156126bc576126bb6148f5565b5b036126f4578181815481106126d4576126d361555e565b5b906000526020600020906004020160020154856126f191906155bc565b94505b8080600101915050612658565b50505080806001019150506125bc565b50600080600280811115612728576127276148f5565b5b9050600084600801805490501115612865576000846008016000815481106127535761275261555e565b5b9060005260206000200160009054906101000a900473ffffffffffffffffffffffffffffffffffffffff16905060008560090160008373ffffffffffffffffffffffffffffffffffffffff1673ffffffffffffffffffffffffffffffffffffffff168152602001908152602001600020905060008180549050111561286257806000815481106127e6576127e561555e565b5b906000526020600020906004020160000160009054906101000a900473ffffffffffffffffffffffffffffffffffffffff1693508060008154811061282e5761282d61555e565b5b906000526020600020906004020160000160149054906101000a900460ff16600281111561285f5761285e6148f5565b5b92505b50505b6040518061010001604052808560000154815260200185600201805461288a9061561f565b80601f01602080910402602001604051908101604052809291908181526020018280546128b69061561f565b80156129035780601f106128d857610100808354040283529160200191612903565b820191906000526020600020905b8154815290600101906020018083116128e657829003601f168201915b505050505081526020018373ffffffffffffffffffffffffffffffffffffffff1681526020018260ff1681526020018481526020018560080180549050815260200185600b0154815260200185600a015481525086868151811061296a5761296961555e565b5b6020026020010181905250505050508080600101915050612576565b508092505050919050565b600560205281600052604060002081815481106129ad57600080fd5b906000526020600020016000915091509054906101000a900473ffffffffffffffffffffffffffffffffffffffff1681565b60008060009054906101000a900473ffffffffffffffffffffffffffffffffffffffff16905090565b612a1061411b565b60008103612a4a576040517f97643b5200000000000000000000000000000000000000000000000000000000815260040160405180910390fd5b60006006600083815260200190815260200160002090508060040160009054906101000a900460ff16612aa9576040517f3114099800000000000000000000000000000000000000000000000000000000815260040160405180910390fd5b8060070160003373ffffffffffffffffffffffffffffffffffffffff1673ffffffffffffffffffffffffffffffffffffffff16815260200190815260200160002060009054906101000a900460ff16612b2e576040517f43290f5b00000000000000000000000000000000000000000000000000000000815260040160405180910390fd5b80600c0160009054906101000a900460ff16612b76576040517f083d2f9700000000000000000000000000000000000000000000000000000000815260040160405180910390fd5b612b7f8261133a565b612bb5576040517f2850e4fb00000000000000000000000000000000000000000000000000000000815260040160405180910390fd5b80600e0160003373ffffffffffffffffffffffffffffffffffffffff1673ffffffffffffffffffffffffffffffffffffffff16815260200190815260200160002060009054906101000a900460ff1615612c3b576040517f646cf55800000000000000000000000000000000000000000000000000000000815260040160405180910390fd5b600181600e0160003373ffffffffffffffffffffffffffffffffffffffff1673ffffffffffffffffffffffffffffffffffffffff16815260200190815260200160002060006101000a81548160ff02191690831515021790555060008160090160003373ffffffffffffffffffffffffffffffffffffffff1673ffffffffffffffffffffffffffffffffffffffff168152602001908152602001600020905060005b81805490508110156130cd57818181548110612cfc57612cfb61555e565b5b906000526020600020906004020160030160009054906101000a900460ff166130c05760006002811115612d3357612d326148f5565b5b828281548110612d4657612d4561555e565b5b906000526020600020906004020160000160149054906101000a900460ff166002811115612d7757612d766148f5565b5b03612e495760003373ffffffffffffffffffffffffffffffffffffffff16838381548110612da857612da761555e565b5b906000526020600020906004020160020154604051612dc690615d70565b60006040518083038185875af1925050503d8060008114612e03576040519150601f19603f3d011682016040523d82523d6000602084013e612e08565b606091505b5050905080612e43576040517f6747a28800000000000000000000000000000000000000000000000000000000815260040160405180910390fd5b50612f8f565b60016002811115612e5d57612e5c6148f5565b5b828281548110612e7057612e6f61555e565b5b906000526020600020906004020160000160149054906101000a900460ff166002811115612ea157612ea06148f5565b5b03612f8e57818181548110612eb957612eb861555e565b5b906000526020600020906004020160000160009054906101000a900473ffffffffffffffffffffffffffffffffffffffff1673ffffffffffffffffffffffffffffffffffffffff1663a9059cbb33848481548110612f1a57612f1961555e565b5b9060005260206000209060040201600201546040518363ffffffff1660e01b8152600401612f49929190615d85565b6020604051808303816000875af1158015612f68573d6000803e3d6000fd5b505050506040513d601f19601f82011682018060405250810190612f8c9190615b6e565b505b5b6001828281548110612fa457612fa361555e565b5b906000526020600020906004020160030160006101000a81548160ff021916908315150217905550818181548110612fdf57612fde61555e565b5b906000526020600020906004020160000160009054906101000a900473ffffffffffffffffffffffffffffffffffffffff1673ffffffffffffffffffffffffffffffffffffffff163373ffffffffffffffffffffffffffffffffffffffff167f2af1ba4c94053430820e17e81238044baf8bab1d5d1975376ca5bad693068bef8484815481106130725761307161555e565b5b9060005260206000209060040201600101548585815481106130975761309661555e565b5b9060005260206000209060040201600201546040516130b7929190615698565b60405180910390a35b8080600101915050612cdd565b508160010160009054906101000a900473ffffffffffffffffffffffffffffffffffffffff1673ffffffffffffffffffffffffffffffffffffffff163373ffffffffffffffffffffffffffffffffffffffff167fb7acaf12118f88f42ce2f08bb6327569f1fb61bee1b471032f28ec5eaaf44b8560405160405180910390a35050613156614622565b50565b61316161411b565b600073ffffffffffffffffffffffffffffffffffffffff168373ffffffffffffffffffffffffffffffffffffffff16036131c7576040517f5566df5c00000000000000000000000000000000000000000000000000000000815260040160405180910390fd5b60008403613201576040517f97643b5200000000000000000000000000000000000000000000000000000000815260040160405180910390fd5b60006006600086815260200190815260200160002090508060040160009054906101000a900460ff1661326b57846040517f8c209e56000000000000000000000000000000000000000000000000000000008152600401613262919061505f565b60405180910390fd5b3373ffffffffffffffffffffffffffffffffffffffff168160010160009054906101000a900473ffffffffffffffffffffffffffffffffffffffff1673ffffffffffffffffffffffffffffffffffffffff16146132f4576040517f0f5e6bd800000000000000000000000000000000000000000000000000000000815260040160405180910390fd5b8060070160008573ffffffffffffffffffffffffffffffffffffffff1673ffffffffffffffffffffffffffffffffffffffff16815260200190815260200160002060009054906101000a900460ff16613352576133518486614161565b5b60005b838390508110156136855760008484838181106133755761337461555e565b5b90506020028101906133879190615982565b60200160208101906133999190615a92565b90506002808111156133ae576133ad6148f5565b5b8160028111156133c1576133c06148f5565b5b036133f8576040517fc1ab6dc100000000000000000000000000000000000000000000000000000000815260040160405180910390fd5b6001600281111561340c5761340b6148f5565b5b81600281111561341f5761341e6148f5565b5b036136775760005b85858481811061343a5761343961555e565b5b905060200281019061344c9190615982565b806060019061345b9190615abf565b90508110156136755760008686858181106134795761347861555e565b5b905060200281019061348b9190615982565b806060019061349a9190615abf565b838181106134ab576134aa61555e565b5b9050602002013590508686858181106134c7576134c661555e565b5b90506020028101906134d99190615982565b60000160208101906134eb9190614aa3565b73ffffffffffffffffffffffffffffffffffffffff166323b872dd3330846040518463ffffffff1660e01b815260040161352793929190615b22565b6020604051808303816000875af1158015613546573d6000803e3d6000fd5b505050506040513d601f19601f8201168201806040525081019061356a9190615b6e565b506135b085898989888181106135835761358261555e565b5b90506020028101906135959190615982565b60000160208101906135a79190614aa3565b866000866144ab565b8773ffffffffffffffffffffffffffffffffffffffff168787868181106135da576135d961555e565b5b90506020028101906135ec9190615982565b60000160208101906135fe9190614aa3565b73ffffffffffffffffffffffffffffffffffffffff163373ffffffffffffffffffffffffffffffffffffffff167fb44510937e7a7a5dd39439c63df574818db53dac575444d730f4cc88dda6d1c88660008660405161365f93929190615be5565b60405180910390a4508080600101915050613427565b505b508080600101915050613355565b5042816003018190555050613698614622565b50505050565b6000600760008373ffffffffffffffffffffffffffffffffffffffff1673ffffffffffffffffffffffffffffffffffffffff168152602001908152602001600020805490509050919050565b60036020528060005260406000206000915090508060000154908060010160009054906101000a900473ffffffffffffffffffffffffffffffffffffffff16908060020180546137399061561f565b80601f01602080910402602001604051908101604052809291908181526020018280546137659061561f565b80156137b25780601f10613787576101008083540402835291602001916137b2565b820191906000526020600020905b81548152906001019060200180831161379557829003601f168201915b5050505050908060030154908060040160009054906101000a900460ff169080600601549080600a01549080600b01549080600c0160009054906101000a900460ff169080600d015490508a565b600080820361383b576040517f97643b5200000000000000000000000000000000000000000000000000000000815260040160405180910390fd5b60006006600084815260200190815260200160002090508060040160009054906101000a900460ff166138a557826040517f8c209e5600000000000000000000000000000000000000000000000000000000815260040161389c919061505f565b60405180910390fd5b80600c0160009054906101000a900460ff16156138c6576000915050613905565b60008160030154426138d891906156c1565b905081600b015481106138f057600092505050613905565b8082600b015461390091906156c1565b925050505b919050565b600080600760008473ffffffffffffffffffffffffffffffffffffffff1673ffffffffffffffffffffffffffffffffffffffff16815260200190815260200160002080548060200260200160405190810160405280929190818152602001828054801561399657602002820191906000526020600020905b815481526020019060010190808311613982575b505050505090506000600a82516139ad9190615dae565b67ffffffffffffffff8111156139c6576139c56150f0565b5b6040519080825280602002602001820160405280156139f45781602001602082028036833780820191505090505b5090506000805b8351811015613b8257600060066000868481518110613a1d57613a1c61555e565b5b60200260200101518152602001908152602001600020905060005b8160080180549050811015613b73576000826008018281548110613a5f57613a5e61555e565b5b9060005260206000200160009054906101000a900473ffffffffffffffffffffffffffffffffffffffff16905060006001905060005b86811015613b00578273ffffffffffffffffffffffffffffffffffffffff16888281518110613ac757613ac661555e565b5b602002602001015173ffffffffffffffffffffffffffffffffffffffff1603613af35760009150613b00565b8080600101915050613a95565b508015613b645781878781518110613b1b57613b1a61555e565b5b602002602001019073ffffffffffffffffffffffffffffffffffffffff16908173ffffffffffffffffffffffffffffffffffffffff16815250508580613b6090615650565b9650505b50508080600101915050613a38565b505080806001019150506139fb565b50809350505050919050565b60046020528060005260406000206000915054906101000a900460ff1681565b600080600090506000600760008573ffffffffffffffffffffffffffffffffffffffff1673ffffffffffffffffffffffffffffffffffffffff168152602001908152602001600020805480602002602001604051908101604052809291908181526020018280548015613c4057602002820191906000526020600020905b815481526020019060010190808311613c2c575b5050505050905060005b8151811015613e4b576000828281518110613c6857613c6761555e565b5b6020026020010151905060006006600083815260200190815260200160002090508060040160009054906101000a900460ff16613ca6575050613e3e565b60005b8160080180549050811015613e3a576000826008018281548110613cd057613ccf61555e565b5b9060005260206000200160009054906101000a900473ffffffffffffffffffffffffffffffffffffffff16905060008360090160008373ffffffffffffffffffffffffffffffffffffffff1673ffffffffffffffffffffffffffffffffffffffff168152602001908152602001600020905060005b8180549050811015613e2a57818181548110613d6457613d6361555e565b5b906000526020600020906004020160030160009054906101000a900460ff16158015613de5575060016002811115613d9f57613d9e6148f5565b5b828281548110613db257613db161555e565b5b906000526020600020906004020160000160149054906101000a900460ff166002811115613de357613de26148f5565b5b145b15613e1d57818181548110613dfd57613dfc61555e565b5b90600052602060002090600402016002015489613e1a91906155bc565b98505b8080600101915050613d45565b5050508080600101915050613ca9565b5050505b8080600101915050613c4a565b508192505050919050565b613e5e614094565b600073ffffffffffffffffffffffffffffffffffffffff168173ffffffffffffffffffffffffffffffffffffffff1603613ed05760006040517f1e4fbdf7000000000000000000000000000000000000000000000000000000008152600401613ec791906154cf565b60405180910390fd5b613ed98161462b565b50565b6000808203613f17576040517f97643b5200000000000000000000000000000000000000000000000000000000815260040160405180910390fd5b60006006600084815260200190815260200160002090508060040160009054906101000a900460ff16613f8157826040517f8c209e56000000000000000000000000000000000000000000000000000000008152600401613f78919061505f565b60405180910390fd5b80915050919050565b62015180821080613f9d575062278d0082115b15613fe957816201518062278d006040517f79ab4503000000000000000000000000000000000000000000000000000000008152600401613fe093929190615df0565b60405180910390fd5b62278d00811080613ffd57506301e1338081115b1561404a578062278d006301e133806040517fc4e86f2900000000000000000000000000000000000000000000000000000000815260040161404193929190615df0565b60405180910390fd5b8181116140905780826040517f2e85a8fc000000000000000000000000000000000000000000000000000000008152600401614087929190615698565b60405180910390fd5b5050565b61409c6146ef565b73ffffffffffffffffffffffffffffffffffffffff166140ba6129df565b73ffffffffffffffffffffffffffffffffffffffff1614614119576140dd6146ef565b6040517f118cdaa700000000000000000000000000000000000000000000000000000000815260040161411091906154cf565b60405180910390fd5b565b600260015403614157576040517f3ee5aeb500000000000000000000000000000000000000000000000000000000815260040160405180910390fd5b6002600181905550565b600073ffffffffffffffffffffffffffffffffffffffff168273ffffffffffffffffffffffffffffffffffffffff16036141c7576040517f5566df5c00000000000000000000000000000000000000000000000000000000815260040160405180910390fd5b60006006600083815260200190815260200160002090508060070160008473ffffffffffffffffffffffffffffffffffffffff1673ffffffffffffffffffffffffffffffffffffffff16815260200190815260200160002060009054906101000a900460ff1615614264576040517f7ffebe8300000000000000000000000000000000000000000000000000000000815260040160405180910390fd5b3373ffffffffffffffffffffffffffffffffffffffff168160010160009054906101000a900473ffffffffffffffffffffffffffffffffffffffff1673ffffffffffffffffffffffffffffffffffffffff16146142ed576040517f0f5e6bd800000000000000000000000000000000000000000000000000000000815260040160405180910390fd5b60018160070160008573ffffffffffffffffffffffffffffffffffffffff1673ffffffffffffffffffffffffffffffffffffffff16815260200190815260200160002060006101000a81548160ff02191690831515021790555080600801839080600181540180825580915050600190039060005260206000200160009091909190916101000a81548173ffffffffffffffffffffffffffffffffffffffff021916908373ffffffffffffffffffffffffffffffffffffffff160217905550600560008473ffffffffffffffffffffffffffffffffffffffff1673ffffffffffffffffffffffffffffffffffffffff168152602001908152602001600020339080600181540180825580915050600190039060005260206000200160009091909190916101000a81548173ffffffffffffffffffffffffffffffffffffffff021916908373ffffffffffffffffffffffffffffffffffffffff1602179055508273ffffffffffffffffffffffffffffffffffffffff163373ffffffffffffffffffffffffffffffffffffffff167fbb39c36a7502b7256e1a687254146a9a2ea7b146c77cb9e40eb0e2b8793781e160405160405180910390a3505050565b60006040518060a001604052808673ffffffffffffffffffffffffffffffffffffffff1681526020018560028111156144e7576144e66148f5565b5b81526020018481526020018381526020016000151581525090508660090160008773ffffffffffffffffffffffffffffffffffffffff1673ffffffffffffffffffffffffffffffffffffffff16815260200190815260200160002081908060018154018082558091505060019003906000526020600020906004020160009091909190915060008201518160000160006101000a81548173ffffffffffffffffffffffffffffffffffffffff021916908373ffffffffffffffffffffffffffffffffffffffff16021790555060208201518160000160146101000a81548160ff021916908360028111156145de576145dd6148f5565b5b0217905550604082015181600101556060820151816002015560808201518160030160006101000a81548160ff021916908315150217905550505050505050505050565b60018081905550565b60008060009054906101000a900473ffffffffffffffffffffffffffffffffffffffff169050816000806101000a81548173ffffffffffffffffffffffffffffffffffffffff021916908373ffffffffffffffffffffffffffffffffffffffff1602179055508173ffffffffffffffffffffffffffffffffffffffff168173ffffffffffffffffffffffffffffffffffffffff167f8be0079c531659141344cd1fd0a4f28419497f9722a3daafe3b4186f6b6457e060405160405180910390a35050565b600033905090565b6040518060e001604052806000815260200160608152602001600073ffffffffffffffffffffffffffffffffffffffff16815260200160006002811115614741576147406148f5565b5b815260200160008152602001600015158152602001600073ffffffffffffffffffffffffffffffffffffffff1681525090565b6040518061010001604052806000815260200160608152602001600073ffffffffffffffffffffffffffffffffffffffff168152602001600060ff168152602001600081526020016000815260200160008152602001600081525090565b6000604051905090565b600080fd5b600080fd5b6000819050919050565b6147f9816147e6565b811461480457600080fd5b50565b600081359050614816816147f0565b92915050565b600073ffffffffffffffffffffffffffffffffffffffff82169050919050565b60006148478261481c565b9050919050565b6148578161483c565b811461486257600080fd5b50565b6000813590506148748161484e565b92915050565b60008060408385031215614891576148906147dc565b5b600061489f85828601614807565b92505060206148b085828601614865565b9150509250929050565b600081519050919050565b600082825260208201905092915050565b6000819050602082019050919050565b6148ef8161483c565b82525050565b7f4e487b7100000000000000000000000000000000000000000000000000000000600052602160045260246000fd5b60038110614935576149346148f5565b5b50565b600081905061494682614924565b919050565b600061495682614938565b9050919050565b6149668161494b565b82525050565b614975816147e6565b82525050565b60008115159050919050565b6149908161497b565b82525050565b60a0820160008201516149ac60008501826148e6565b5060208201516149bf602085018261495d565b5060408201516149d2604085018261496c565b5060608201516149e5606085018261496c565b5060808201516149f86080850182614987565b50505050565b6000614a0a8383614996565b60a08301905092915050565b6000602082019050919050565b6000614a2e826148ba565b614a3881856148c5565b9350614a43836148d6565b8060005b83811015614a74578151614a5b88826149fe565b9750614a6683614a16565b925050600181019050614a47565b5085935050505092915050565b60006020820190508181036000830152614a9b8184614a23565b905092915050565b600060208284031215614ab957614ab86147dc565b5b6000614ac784828501614865565b91505092915050565b600081519050919050565b600082825260208201905092915050565b6000819050602082019050919050565b600081519050919050565b600082825260208201905092915050565b60005b83811015614b36578082015181840152602081019050614b1b565b60008484015250505050565b6000601f19601f8301169050919050565b6000614b5e82614afc565b614b688185614b07565b9350614b78818560208601614b18565b614b8181614b42565b840191505092915050565b600060e083016000830151614ba4600086018261496c565b5060208301518482036020860152614bbc8282614b53565b9150506040830151614bd160408601826148e6565b506060830151614be4606086018261495d565b506080830151614bf7608086018261496c565b5060a0830151614c0a60a0860182614987565b5060c0830151614c1d60c08601826148e6565b508091505092915050565b6000614c348383614b8c565b905092915050565b6000602082019050919050565b6000614c5482614ad0565b614c5e8185614adb565b935083602082028501614c7085614aec565b8060005b85811015614cac5784840389528151614c8d8582614c28565b9450614c9883614c3c565b925060208a01995050600181019050614c74565b50829750879550505050505092915050565b60006020820190508181036000830152614cd88184614c49565b905092915050565b600080600060608486031215614cf957614cf86147dc565b5b6000614d0786828701614807565b9350506020614d1886828701614807565b9250506040614d2986828701614807565b9150509250925092565b600081519050919050565b600082825260208201905092915050565b6000819050602082019050919050565b6000614d6b83836148e6565b60208301905092915050565b6000602082019050919050565b6000614d8f82614d33565b614d998185614d3e565b9350614da483614d4f565b8060005b83811015614dd5578151614dbc8882614d5f565b9750614dc783614d77565b925050600181019050614da8565b5085935050505092915050565b60006020820190508181036000830152614dfc8184614d84565b905092915050565b600060208284031215614e1a57614e196147dc565b5b6000614e2884828501614807565b91505092915050565b614e3a8161497b565b82525050565b6000602082019050614e556000830184614e31565b92915050565b614e64816147e6565b82525050565b614e738161483c565b82525050565b600082825260208201905092915050565b6000614e9582614afc565b614e9f8185614e79565b9350614eaf818560208601614b18565b614eb881614b42565b840191505092915050565b600061014082019050614ed9600083018d614e5b565b614ee6602083018c614e6a565b8181036040830152614ef8818b614e8a565b9050614f07606083018a614e5b565b614f146080830189614e31565b614f2160a0830188614e5b565b614f2e60c0830187614e5b565b614f3b60e0830186614e5b565b614f49610100830185614e31565b614f57610120830184614e5b565b9b9a5050505050505050505050565b600061016082019050614f7c600083018e614e5b565b614f89602083018d614e6a565b8181036040830152614f9b818c614e8a565b9050614faa606083018b614e5b565b614fb7608083018a614e31565b614fc460a0830189614e5b565b614fd160c0830188614e5b565b614fde60e0830187614e5b565b614fec610100830186614e31565b614ffa610120830185614e5b565b81810361014083015261500d8184614d84565b90509c9b505050505050505050505050565b60008060408385031215615036576150356147dc565b5b600061504485828601614865565b925050602061505585828601614807565b9150509250929050565b60006020820190506150746000830184614e5b565b92915050565b6150838161497b565b811461508e57600080fd5b50565b6000813590506150a08161507a565b92915050565b600080604083850312156150bd576150bc6147dc565b5b60006150cb85828601614865565b92505060206150dc85828601615091565b9150509250929050565b600080fd5b600080fd5b7f4e487b7100000000000000000000000000000000000000000000000000000000600052604160045260246000fd5b61512882614b42565b810181811067ffffffffffffffff82111715615147576151466150f0565b5b80604052505050565b600061515a6147d2565b9050615166828261511f565b919050565b600067ffffffffffffffff821115615186576151856150f0565b5b61518f82614b42565b9050602081019050919050565b82818337600083830152505050565b60006151be6151b98461516b565b615150565b9050828152602081018484840111156151da576151d96150eb565b5b6151e584828561519c565b509392505050565b600082601f830112615202576152016150e6565b5b81356152128482602086016151ab565b91505092915050565b600080fd5b600080fd5b60008083601f84011261523b5761523a6150e6565b5b8235905067ffffffffffffffff8111156152585761525761521b565b5b60208301915083602082028301111561527457615273615220565b5b9250929050565b600080600080600060808688031215615297576152966147dc565b5b600086013567ffffffffffffffff8111156152b5576152b46147e1565b5b6152c1888289016151ed565b955050602086013567ffffffffffffffff8111156152e2576152e16147e1565b5b6152ee88828901615225565b9450945050604061530188828901614807565b925050606061531288828901614807565b9150509295509295909350565b600081519050919050565b600082825260208201905092915050565b6000819050602082019050919050565b600060ff82169050919050565b6153618161534b565b82525050565b600061010083016000830151615380600086018261496c565b50602083015184820360208601526153988282614b53565b91505060408301516153ad60408601826148e6565b5060608301516153c06060860182615358565b5060808301516153d3608086018261496c565b5060a08301516153e660a086018261496c565b5060c08301516153f960c086018261496c565b5060e083015161540c60e086018261496c565b508091505092915050565b60006154238383615367565b905092915050565b6000602082019050919050565b60006154438261531f565b61544d818561532a565b93508360208202850161545f8561533b565b8060005b8581101561549b578484038952815161547c8582615417565b94506154878361542b565b925060208a01995050600181019050615463565b50829750879550505050505092915050565b600060208201905081810360008301526154c78184615438565b905092915050565b60006020820190506154e46000830184614e6a565b92915050565b60008060008060608587031215615504576155036147dc565b5b600061551287828801614807565b945050602061552387828801614865565b935050604085013567ffffffffffffffff811115615544576155436147e1565b5b61555087828801615225565b925092505092959194509250565b7f4e487b7100000000000000000000000000000000000000000000000000000000600052603260045260246000fd5b7f4e487b7100000000000000000000000000000000000000000000000000000000600052601160045260246000fd5b60006155c7826147e6565b91506155d2836147e6565b92508282019050808211156155ea576155e961558d565b5b92915050565b7f4e487b7100000000000000000000000000000000000000000000000000000000600052602260045260246000fd5b6000600282049050600182168061563757607f821691505b60208210810361564a576156496155f0565b5b50919050565b600061565b826147e6565b91507fffffffffffffffffffffffffffffffffffffffffffffffffffffffffffffffff820361568d5761568c61558d565b5b600182019050919050565b60006040820190506156ad6000830185614e5b565b6156ba6020830184614e5b565b9392505050565b60006156cc826147e6565b91506156d7836147e6565b92508282039050818111156156ef576156ee61558d565b5b92915050565b60008190508160005260206000209050919050565b60006020601f8301049050919050565b600082821b905092915050565b6000600883026157577fffffffffffffffffffffffffffffffffffffffffffffffffffffffffffffffff8261571a565b615761868361571a565b95508019841693508086168417925050509392505050565b6000819050919050565b600061579e615799615794846147e6565b615779565b6147e6565b9050919050565b6000819050919050565b6157b883615783565b6157cc6157c4826157a5565b848454615727565b825550505050565b600090565b6157e16157d4565b6157ec8184846157af565b505050565b5b81811015615810576158056000826157d9565b6001810190506157f2565b5050565b601f82111561585557615826816156f5565b61582f8461570a565b8101602085101561583e578190505b61585261584a8561570a565b8301826157f1565b50505b505050565b600082821c905092915050565b60006158786000198460080261585a565b1980831691505092915050565b60006158918383615867565b9150826002028217905092915050565b6158aa82614afc565b67ffffffffffffffff8111156158c3576158c26150f0565b5b6158cd825461561f565b6158d8828285615814565b600060209050601f83116001811461590b57600084156158f9578287015190505b6159038582615885565b86555061596b565b601f198416615919866156f5565b60005b828110156159415784890151825560018201915060208501945060208101905061591c565b8683101561595e578489015161595a601f891682615867565b8355505b6001600288020188555050505b505050505050565b600080fd5b600080fd5b600080fd5b60008235600160a00383360303811261599e5761599d615973565b5b80830191505092915050565b600080833560016020038436030381126159c7576159c6615973565b5b80840192508235915067ffffffffffffffff8211156159e9576159e8615978565b5b602083019250602082023603831315615a0557615a0461597d565b5b509250929050565b7f4e487b7100000000000000000000000000000000000000000000000000000000600052601260045260246000fd5b6000615a47826147e6565b9150615a52836147e6565b925082615a6257615a61615a0d565b5b828204905092915050565b60038110615a7a57600080fd5b50565b600081359050615a8c81615a6d565b92915050565b600060208284031215615aa857615aa76147dc565b5b6000615ab684828501615a7d565b91505092915050565b60008083356001602003843603038112615adc57615adb615973565b5b80840192508235915067ffffffffffffffff821115615afe57615afd615978565b5b602083019250602082023603831315615b1a57615b1961597d565b5b509250929050565b6000606082019050615b376000830186614e6a565b615b446020830185614e6a565b615b516040830184614e5b565b949350505050565b600081519050615b688161507a565b92915050565b600060208284031215615b8457615b836147dc565b5b6000615b9284828501615b59565b91505092915050565b615ba48161494b565b82525050565b6000819050919050565b6000615bcf615bca615bc584615baa565b615779565b6147e6565b9050919050565b615bdf81615bb4565b82525050565b6000606082019050615bfa6000830186615b9b565b615c076020830185615bd6565b615c146040830184614e5b565b949350505050565b600081549050919050565b60008190508160005260206000209050919050565b60008160001c9050919050565b600073ffffffffffffffffffffffffffffffffffffffff82169050919050565b6000615c7c615c7783615c3c565b615c49565b9050919050565b6000615c8f8254615c69565b9050919050565b6000600182019050919050565b6000615cae82615c1c565b615cb88185614d3e565b9350615cc383615c27565b8060005b83811015615cfb57615cd882615c83565b615ce28882614d5f565b9750615ced83615c96565b925050600181019050615cc7565b5085935050505092915050565b60006040820190508181036000830152615d228185614e8a565b90508181036020830152615d368184615ca3565b90509392505050565b600081905092915050565b50565b6000615d5a600083615d3f565b9150615d6582615d4a565b600082019050919050565b6000615d7b82615d4d565b9150819050919050565b6000604082019050615d9a6000830185614e6a565b615da76020830184614e5b565b9392505050565b6000615db9826147e6565b9150615dc4836147e6565b9250828202615dd2816147e6565b91508282048414831517615de957615de861558d565b5b5092915050565b6000606082019050615e056000830186614e5b565b615e126020830185614e5b565b615e1f6040830184614e5b565b94935050505056fea2646970667358221220c1a0e663bc9f6c8d3523e515a959502dd317ebdf0efe75c686e9b2b69e86dcba64736f6c63430008180033",
          "opcodes": "PUSH1 0x80 PUSH1 0x40 MSTORE PUSH1 0x1 PUSH1 0x2 SSTORE CALLVALUE DUP1 ISZERO PUSH3 0x16 JUMPI PUSH1 0x0 DUP1 REVERT JUMPDEST POP CALLER PUSH1 0x0 PUSH20 0xFFFFFFFFFFFFFFFFFFFFFFFFFFFFFFFFFFFFFFFF AND DUP2 PUSH20 0xFFFFFFFFFFFFFFFFFFFFFFFFFFFFFFFFFFFFFFFF AND SUB PUSH3 0x8D JUMPI PUSH1 0x0 PUSH1 0x40 MLOAD PUSH32 0x1E4FBDF700000000000000000000000000000000000000000000000000000000 DUP2 MSTORE PUSH1 0x4 ADD PUSH3 0x84 SWAP2 SWAP1 PUSH3 0x1B5 JUMP JUMPDEST PUSH1 0x40 MLOAD DUP1 SWAP2 SUB SWAP1 REVERT JUMPDEST PUSH3 0x9E DUP2 PUSH3 0xAC PUSH1 0x20 SHL PUSH1 0x20 SHR JUMP JUMPDEST POP PUSH1 0x1 DUP1 DUP2 SWAP1 SSTORE POP PUSH3 0x1D2 JUMP JUMPDEST PUSH1 0x0 DUP1 PUSH1 0x0 SWAP1 SLOAD SWAP1 PUSH2 0x100 EXP SWAP1 DIV PUSH20 0xFFFFFFFFFFFFFFFFFFFFFFFFFFFFFFFFFFFFFFFF AND SWAP1 POP DUP2 PUSH1 0x0 DUP1 PUSH2 0x100 EXP DUP2 SLOAD DUP2 PUSH20 0xFFFFFFFFFFFFFFFFFFFFFFFFFFFFFFFFFFFFFFFF MUL NOT AND SWAP1 DUP4 PUSH20 0xFFFFFFFFFFFFFFFFFFFFFFFFFFFFFFFFFFFFFFFF AND MUL OR SWAP1 SSTORE POP DUP2 PUSH20 0xFFFFFFFFFFFFFFFFFFFFFFFFFFFFFFFFFFFFFFFF AND DUP2 PUSH20 0xFFFFFFFFFFFFFFFFFFFFFFFFFFFFFFFFFFFFFFFF AND PUSH32 0x8BE0079C531659141344CD1FD0A4F28419497F9722A3DAAFE3B4186F6B6457E0 PUSH1 0x40 MLOAD PUSH1 0x40 MLOAD DUP1 SWAP2 SUB SWAP1 LOG3 POP POP JUMP JUMPDEST PUSH1 0x0 PUSH20 0xFFFFFFFFFFFFFFFFFFFFFFFFFFFFFFFFFFFFFFFF DUP3 AND SWAP1 POP SWAP2 SWAP1 POP JUMP JUMPDEST PUSH1 0x0 PUSH3 0x19D DUP3 PUSH3 0x170 JUMP JUMPDEST SWAP1 POP SWAP2 SWAP1 POP JUMP JUMPDEST PUSH3 0x1AF DUP2 PUSH3 0x190 JUMP JUMPDEST DUP3 MSTORE POP POP JUMP JUMPDEST PUSH1 0x0 PUSH1 0x20 DUP3 ADD SWAP1 POP PUSH3 0x1CC PUSH1 0x0 DUP4 ADD DUP5 PUSH3 0x1A4 JUMP JUMPDEST SWAP3 SWAP2 POP POP JUMP JUMPDEST PUSH2 0x5E5D DUP1 PUSH3 0x1E2 PUSH1 0x0 CODECOPY PUSH1 0x0 RETURN INVALID PUSH1 0x80 PUSH1 0x40 MSTORE PUSH1 0x4 CALLDATASIZE LT PUSH2 0x181 JUMPI PUSH1 0x0 CALLDATALOAD PUSH1 0xE0 SHR DUP1 PUSH4 0x715018A6 GT PUSH2 0xD1 JUMPI DUP1 PUSH4 0x9F1494B8 GT PUSH2 0x8A JUMPI DUP1 PUSH4 0xE5AB8C88 GT PUSH2 0x64 JUMPI DUP1 PUSH4 0xE5AB8C88 EQ PUSH2 0x623 JUMPI DUP1 PUSH4 0xE712A35D EQ PUSH2 0x660 JUMPI DUP1 PUSH4 0xEED4A3F5 EQ PUSH2 0x69D JUMPI DUP1 PUSH4 0xF2FDE38B EQ PUSH2 0x6DA JUMPI PUSH2 0x181 JUMP JUMPDEST DUP1 PUSH4 0x9F1494B8 EQ PUSH2 0x563 JUMPI DUP1 PUSH4 0xA4CB92FA EQ PUSH2 0x5A0 JUMPI DUP1 PUSH4 0xCFD35B8A EQ PUSH2 0x5E6 JUMPI PUSH2 0x181 JUMP JUMPDEST DUP1 PUSH4 0x715018A6 EQ PUSH2 0x455 JUMPI DUP1 PUSH4 0x7DE00A9D EQ PUSH2 0x46C JUMPI DUP1 PUSH4 0x888253E4 EQ PUSH2 0x4A9 JUMPI DUP1 PUSH4 0x8DA5CB5B EQ PUSH2 0x4E6 JUMPI DUP1 PUSH4 0x92CCB8FF EQ PUSH2 0x511 JUMPI DUP1 PUSH4 0x9516E033 EQ PUSH2 0x53A JUMPI PUSH2 0x181 JUMP JUMPDEST DUP1 PUSH4 0x3CF9D073 GT PUSH2 0x13E JUMPI DUP1 PUSH4 0x4A4D6714 GT PUSH2 0x118 JUMPI DUP1 PUSH4 0x4A4D6714 EQ PUSH2 0x396 JUMPI DUP1 PUSH4 0x4FB37F3C EQ PUSH2 0x3D3 JUMPI DUP1 PUSH4 0x69F196BB EQ PUSH2 0x3FC JUMPI DUP1 PUSH4 0x6BD6CFD6 EQ PUSH2 0x418 JUMPI PUSH2 0x181 JUMP JUMPDEST DUP1 PUSH4 0x3CF9D073 EQ PUSH2 0x2E9 JUMPI DUP1 PUSH4 0x3D9C68FC EQ PUSH2 0x330 JUMPI DUP1 PUSH4 0x479B7676 EQ PUSH2 0x359 JUMPI PUSH2 0x181 JUMP JUMPDEST DUP1 PUSH4 0x14F93BF8 EQ PUSH2 0x186 JUMPI DUP1 PUSH4 0x1579673C EQ PUSH2 0x1C3 JUMPI DUP1 PUSH4 0x1A2CD78F EQ PUSH2 0x200 JUMPI DUP1 PUSH4 0x1CAB59A4 EQ PUSH2 0x229 JUMPI DUP1 PUSH4 0x1CBA3AF9 EQ PUSH2 0x266 JUMPI DUP1 PUSH4 0x1ED22BD7 EQ PUSH2 0x2A3 JUMPI JUMPDEST PUSH1 0x0 DUP1 REVERT JUMPDEST CALLVALUE DUP1 ISZERO PUSH2 0x192 JUMPI PUSH1 0x0 DUP1 REVERT JUMPDEST POP PUSH2 0x1AD PUSH1 0x4 DUP1 CALLDATASIZE SUB DUP2 ADD SWAP1 PUSH2 0x1A8 SWAP2 SWAP1 PUSH2 0x487A JUMP JUMPDEST PUSH2 0x703 JUMP JUMPDEST PUSH1 0x40 MLOAD PUSH2 0x1BA SWAP2 SWAP1 PUSH2 0x4A81 JUMP JUMPDEST PUSH1 0x40 MLOAD DUP1 SWAP2 SUB SWAP1 RETURN JUMPDEST CALLVALUE DUP1 ISZERO PUSH2 0x1CF JUMPI PUSH1 0x0 DUP1 REVERT JUMPDEST POP PUSH2 0x1EA PUSH1 0x4 DUP1 CALLDATASIZE SUB DUP2 ADD SWAP1 PUSH2 0x1E5 SWAP2 SWAP1 PUSH2 0x4AA3 JUMP JUMPDEST PUSH2 0x8F7 JUMP JUMPDEST PUSH1 0x40 MLOAD PUSH2 0x1F7 SWAP2 SWAP1 PUSH2 0x4CBE JUMP JUMPDEST PUSH1 0x40 MLOAD DUP1 SWAP2 SUB SWAP1 RETURN JUMPDEST CALLVALUE DUP1 ISZERO PUSH2 0x20C JUMPI PUSH1 0x0 DUP1 REVERT JUMPDEST POP PUSH2 0x227 PUSH1 0x4 DUP1 CALLDATASIZE SUB DUP2 ADD SWAP1 PUSH2 0x222 SWAP2 SWAP1 PUSH2 0x4CE0 JUMP JUMPDEST PUSH2 0xFF3 JUMP JUMPDEST STOP JUMPDEST CALLVALUE DUP1 ISZERO PUSH2 0x235 JUMPI PUSH1 0x0 DUP1 REVERT JUMPDEST POP PUSH2 0x250 PUSH1 0x4 DUP1 CALLDATASIZE SUB DUP2 ADD SWAP1 PUSH2 0x24B SWAP2 SWAP1 PUSH2 0x4AA3 JUMP JUMPDEST PUSH2 0x11E4 JUMP JUMPDEST PUSH1 0x40 MLOAD PUSH2 0x25D SWAP2 SWAP1 PUSH2 0x4DE2 JUMP JUMPDEST PUSH1 0x40 MLOAD DUP1 SWAP2 SUB SWAP1 RETURN JUMPDEST CALLVALUE DUP1 ISZERO PUSH2 0x272 JUMPI PUSH1 0x0 DUP1 REVERT JUMPDEST POP PUSH2 0x28D PUSH1 0x4 DUP1 CALLDATASIZE SUB DUP2 ADD SWAP1 PUSH2 0x288 SWAP2 SWAP1 PUSH2 0x4E04 JUMP JUMPDEST PUSH2 0x133A JUMP JUMPDEST PUSH1 0x40 MLOAD PUSH2 0x29A SWAP2 SWAP1 PUSH2 0x4E40 JUMP JUMPDEST PUSH1 0x40 MLOAD DUP1 SWAP2 SUB SWAP1 RETURN JUMPDEST CALLVALUE DUP1 ISZERO PUSH2 0x2AF JUMPI PUSH1 0x0 DUP1 REVERT JUMPDEST POP PUSH2 0x2CA PUSH1 0x4 DUP1 CALLDATASIZE SUB DUP2 ADD SWAP1 PUSH2 0x2C5 SWAP2 SWAP1 PUSH2 0x4E04 JUMP JUMPDEST PUSH2 0x141E JUMP JUMPDEST PUSH1 0x40 MLOAD PUSH2 0x2E0 SWAP11 SWAP10 SWAP9 SWAP8 SWAP7 SWAP6 SWAP5 SWAP4 SWAP3 SWAP2 SWAP1 PUSH2 0x4EC3 JUMP JUMPDEST PUSH1 0x40 MLOAD DUP1 SWAP2 SUB SWAP1 RETURN JUMPDEST CALLVALUE DUP1 ISZERO PUSH2 0x2F5 JUMPI PUSH1 0x0 DUP1 REVERT JUMPDEST POP PUSH2 0x310 PUSH1 0x4 DUP1 CALLDATASIZE SUB DUP2 ADD SWAP1 PUSH2 0x30B SWAP2 SWAP1 PUSH2 0x487A JUMP JUMPDEST PUSH2 0x1534 JUMP JUMPDEST PUSH1 0x40 MLOAD PUSH2 0x327 SWAP12 SWAP11 SWAP10 SWAP9 SWAP8 SWAP7 SWAP6 SWAP5 SWAP4 SWAP3 SWAP2 SWAP1 PUSH2 0x4F66 JUMP JUMPDEST PUSH1 0x40 MLOAD DUP1 SWAP2 SUB SWAP1 RETURN JUMPDEST CALLVALUE DUP1 ISZERO PUSH2 0x33C JUMPI PUSH1 0x0 DUP1 REVERT JUMPDEST POP PUSH2 0x357 PUSH1 0x4 DUP1 CALLDATASIZE SUB DUP2 ADD SWAP1 PUSH2 0x352 SWAP2 SWAP1 PUSH2 0x4AA3 JUMP JUMPDEST PUSH2 0x1786 JUMP JUMPDEST STOP JUMPDEST CALLVALUE DUP1 ISZERO PUSH2 0x365 JUMPI PUSH1 0x0 DUP1 REVERT JUMPDEST POP PUSH2 0x380 PUSH1 0x4 DUP1 CALLDATASIZE SUB DUP2 ADD SWAP1 PUSH2 0x37B SWAP2 SWAP1 PUSH2 0x501F JUMP JUMPDEST PUSH2 0x1977 JUMP JUMPDEST PUSH1 0x40 MLOAD PUSH2 0x38D SWAP2 SWAP1 PUSH2 0x505F JUMP JUMPDEST PUSH1 0x40 MLOAD DUP1 SWAP2 SUB SWAP1 RETURN JUMPDEST CALLVALUE DUP1 ISZERO PUSH2 0x3A2 JUMPI PUSH1 0x0 DUP1 REVERT JUMPDEST POP PUSH2 0x3BD PUSH1 0x4 DUP1 CALLDATASIZE SUB DUP2 ADD SWAP1 PUSH2 0x3B8 SWAP2 SWAP1 PUSH2 0x4E04 JUMP JUMPDEST PUSH2 0x19A8 JUMP JUMPDEST PUSH1 0x40 MLOAD PUSH2 0x3CA SWAP2 SWAP1 PUSH2 0x505F JUMP JUMPDEST PUSH1 0x40 MLOAD DUP1 SWAP2 SUB SWAP1 RETURN JUMPDEST CALLVALUE DUP1 ISZERO PUSH2 0x3DF JUMPI PUSH1 0x0 DUP1 REVERT JUMPDEST POP PUSH2 0x3FA PUSH1 0x4 DUP1 CALLDATASIZE SUB DUP2 ADD SWAP1 PUSH2 0x3F5 SWAP2 SWAP1 PUSH2 0x50A6 JUMP JUMPDEST PUSH2 0x1ABC JUMP JUMPDEST STOP JUMPDEST PUSH2 0x416 PUSH1 0x4 DUP1 CALLDATASIZE SUB DUP2 ADD SWAP1 PUSH2 0x411 SWAP2 SWAP1 PUSH2 0x527B JUMP JUMPDEST PUSH2 0x1B1F JUMP JUMPDEST STOP JUMPDEST CALLVALUE DUP1 ISZERO PUSH2 0x424 JUMPI PUSH1 0x0 DUP1 REVERT JUMPDEST POP PUSH2 0x43F PUSH1 0x4 DUP1 CALLDATASIZE SUB DUP2 ADD SWAP1 PUSH2 0x43A SWAP2 SWAP1 PUSH2 0x4AA3 JUMP JUMPDEST PUSH2 0x23A5 JUMP JUMPDEST PUSH1 0x40 MLOAD PUSH2 0x44C SWAP2 SWAP1 PUSH2 0x4DE2 JUMP JUMPDEST PUSH1 0x40 MLOAD DUP1 SWAP2 SUB SWAP1 RETURN JUMPDEST CALLVALUE DUP1 ISZERO PUSH2 0x461 JUMPI PUSH1 0x0 DUP1 REVERT JUMPDEST POP PUSH2 0x46A PUSH2 0x2472 JUMP JUMPDEST STOP JUMPDEST CALLVALUE DUP1 ISZERO PUSH2 0x478 JUMPI PUSH1 0x0 DUP1 REVERT JUMPDEST POP PUSH2 0x493 PUSH1 0x4 DUP1 CALLDATASIZE SUB DUP2 ADD SWAP1 PUSH2 0x48E SWAP2 SWAP1 PUSH2 0x4AA3 JUMP JUMPDEST PUSH2 0x2486 JUMP JUMPDEST PUSH1 0x40 MLOAD PUSH2 0x4A0 SWAP2 SWAP1 PUSH2 0x54AD JUMP JUMPDEST PUSH1 0x40 MLOAD DUP1 SWAP2 SUB SWAP1 RETURN JUMPDEST CALLVALUE DUP1 ISZERO PUSH2 0x4B5 JUMPI PUSH1 0x0 DUP1 REVERT JUMPDEST POP PUSH2 0x4D0 PUSH1 0x4 DUP1 CALLDATASIZE SUB DUP2 ADD SWAP1 PUSH2 0x4CB SWAP2 SWAP1 PUSH2 0x501F JUMP JUMPDEST PUSH2 0x2991 JUMP JUMPDEST PUSH1 0x40 MLOAD PUSH2 0x4DD SWAP2 SWAP1 PUSH2 0x54CF JUMP JUMPDEST PUSH1 0x40 MLOAD DUP1 SWAP2 SUB SWAP1 RETURN JUMPDEST CALLVALUE DUP1 ISZERO PUSH2 0x4F2 JUMPI PUSH1 0x0 DUP1 REVERT JUMPDEST POP PUSH2 0x4FB PUSH2 0x29DF JUMP JUMPDEST PUSH1 0x40 MLOAD PUSH2 0x508 SWAP2 SWAP1 PUSH2 0x54CF JUMP JUMPDEST PUSH1 0x40 MLOAD DUP1 SWAP2 SUB SWAP1 RETURN JUMPDEST CALLVALUE DUP1 ISZERO PUSH2 0x51D JUMPI PUSH1 0x0 DUP1 REVERT JUMPDEST POP PUSH2 0x538 PUSH1 0x4 DUP1 CALLDATASIZE SUB DUP2 ADD SWAP1 PUSH2 0x533 SWAP2 SWAP1 PUSH2 0x4E04 JUMP JUMPDEST PUSH2 0x2A08 JUMP JUMPDEST STOP JUMPDEST CALLVALUE DUP1 ISZERO PUSH2 0x546 JUMPI PUSH1 0x0 DUP1 REVERT JUMPDEST POP PUSH2 0x561 PUSH1 0x4 DUP1 CALLDATASIZE SUB DUP2 ADD SWAP1 PUSH2 0x55C SWAP2 SWAP1 PUSH2 0x54EA JUMP JUMPDEST PUSH2 0x3159 JUMP JUMPDEST STOP JUMPDEST CALLVALUE DUP1 ISZERO PUSH2 0x56F JUMPI PUSH1 0x0 DUP1 REVERT JUMPDEST POP PUSH2 0x58A PUSH1 0x4 DUP1 CALLDATASIZE SUB DUP2 ADD SWAP1 PUSH2 0x585 SWAP2 SWAP1 PUSH2 0x4AA3 JUMP JUMPDEST PUSH2 0x369E JUMP JUMPDEST PUSH1 0x40 MLOAD PUSH2 0x597 SWAP2 SWAP1 PUSH2 0x505F JUMP JUMPDEST PUSH1 0x40 MLOAD DUP1 SWAP2 SUB SWAP1 RETURN JUMPDEST CALLVALUE DUP1 ISZERO PUSH2 0x5AC JUMPI PUSH1 0x0 DUP1 REVERT JUMPDEST POP PUSH2 0x5C7 PUSH1 0x4 DUP1 CALLDATASIZE SUB DUP2 ADD SWAP1 PUSH2 0x5C2 SWAP2 SWAP1 PUSH2 0x4AA3 JUMP JUMPDEST PUSH2 0x36EA JUMP JUMPDEST PUSH1 0x40 MLOAD PUSH2 0x5DD SWAP11 SWAP10 SWAP9 SWAP8 SWAP7 SWAP6 SWAP5 SWAP4 SWAP3 SWAP2 SWAP1 PUSH2 0x4EC3 JUMP JUMPDEST PUSH1 0x40 MLOAD DUP1 SWAP2 SUB SWAP1 RETURN JUMPDEST CALLVALUE DUP1 ISZERO PUSH2 0x5F2 JUMPI PUSH1 0x0 DUP1 REVERT JUMPDEST POP PUSH2 0x60D PUSH1 0x4 DUP1 CALLDATASIZE SUB DUP2 ADD SWAP1 PUSH2 0x608 SWAP2 SWAP1 PUSH2 0x4E04 JUMP JUMPDEST PUSH2 0x3800 JUMP JUMPDEST PUSH1 0x40 MLOAD PUSH2 0x61A SWAP2 SWAP1 PUSH2 0x505F JUMP JUMPDEST PUSH1 0x40 MLOAD DUP1 SWAP2 SUB SWAP1 RETURN JUMPDEST CALLVALUE DUP1 ISZERO PUSH2 0x62F JUMPI PUSH1 0x0 DUP1 REVERT JUMPDEST POP PUSH2 0x64A PUSH1 0x4 DUP1 CALLDATASIZE SUB DUP2 ADD SWAP1 PUSH2 0x645 SWAP2 SWAP1 PUSH2 0x4AA3 JUMP JUMPDEST PUSH2 0x390A JUMP JUMPDEST PUSH1 0x40 MLOAD PUSH2 0x657 SWAP2 SWAP1 PUSH2 0x505F JUMP JUMPDEST PUSH1 0x40 MLOAD DUP1 SWAP2 SUB SWAP1 RETURN JUMPDEST CALLVALUE DUP1 ISZERO PUSH2 0x66C JUMPI PUSH1 0x0 DUP1 REVERT JUMPDEST POP PUSH2 0x687 PUSH1 0x4 DUP1 CALLDATASIZE SUB DUP2 ADD SWAP1 PUSH2 0x682 SWAP2 SWAP1 PUSH2 0x4AA3 JUMP JUMPDEST PUSH2 0x3B8E JUMP JUMPDEST PUSH1 0x40 MLOAD PUSH2 0x694 SWAP2 SWAP1 PUSH2 0x4E40 JUMP JUMPDEST PUSH1 0x40 MLOAD DUP1 SWAP2 SUB SWAP1 RETURN JUMPDEST CALLVALUE DUP1 ISZERO PUSH2 0x6A9 JUMPI PUSH1 0x0 DUP1 REVERT JUMPDEST POP PUSH2 0x6C4 PUSH1 0x4 DUP1 CALLDATASIZE SUB DUP2 ADD SWAP1 PUSH2 0x6BF SWAP2 SWAP1 PUSH2 0x4AA3 JUMP JUMPDEST PUSH2 0x3BAE JUMP JUMPDEST PUSH1 0x40 MLOAD PUSH2 0x6D1 SWAP2 SWAP1 PUSH2 0x505F JUMP JUMPDEST PUSH1 0x40 MLOAD DUP1 SWAP2 SUB SWAP1 RETURN JUMPDEST CALLVALUE DUP1 ISZERO PUSH2 0x6E6 JUMPI PUSH1 0x0 DUP1 REVERT JUMPDEST POP PUSH2 0x701 PUSH1 0x4 DUP1 CALLDATASIZE SUB DUP2 ADD SWAP1 PUSH2 0x6FC SWAP2 SWAP1 PUSH2 0x4AA3 JUMP JUMPDEST PUSH2 0x3E56 JUMP JUMPDEST STOP JUMPDEST PUSH1 0x60 PUSH1 0x0 PUSH2 0x710 DUP5 PUSH2 0x3EDC JUMP JUMPDEST SWAP1 POP DUP1 PUSH1 0x7 ADD PUSH1 0x0 DUP5 PUSH20 0xFFFFFFFFFFFFFFFFFFFFFFFFFFFFFFFFFFFFFFFF AND PUSH20 0xFFFFFFFFFFFFFFFFFFFFFFFFFFFFFFFFFFFFFFFF AND DUP2 MSTORE PUSH1 0x20 ADD SWAP1 DUP2 MSTORE PUSH1 0x20 ADD PUSH1 0x0 KECCAK256 PUSH1 0x0 SWAP1 SLOAD SWAP1 PUSH2 0x100 EXP SWAP1 DIV PUSH1 0xFF AND PUSH2 0x797 JUMPI PUSH1 0x40 MLOAD PUSH32 0x43290F5B00000000000000000000000000000000000000000000000000000000 DUP2 MSTORE PUSH1 0x4 ADD PUSH1 0x40 MLOAD DUP1 SWAP2 SUB SWAP1 REVERT JUMPDEST DUP1 PUSH1 0x9 ADD PUSH1 0x0 DUP5 PUSH20 0xFFFFFFFFFFFFFFFFFFFFFFFFFFFFFFFFFFFFFFFF AND PUSH20 0xFFFFFFFFFFFFFFFFFFFFFFFFFFFFFFFFFFFFFFFF AND DUP2 MSTORE PUSH1 0x20 ADD SWAP1 DUP2 MSTORE PUSH1 0x20 ADD PUSH1 0x0 KECCAK256 DUP1 SLOAD DUP1 PUSH1 0x20 MUL PUSH1 0x20 ADD PUSH1 0x40 MLOAD SWAP1 DUP2 ADD PUSH1 0x40 MSTORE DUP1 SWAP3 SWAP2 SWAP1 DUP2 DUP2 MSTORE PUSH1 0x20 ADD PUSH1 0x0 SWAP1 JUMPDEST DUP3 DUP3 LT ISZERO PUSH2 0x8EA JUMPI DUP4 DUP3 SWAP1 PUSH1 0x0 MSTORE PUSH1 0x20 PUSH1 0x0 KECCAK256 SWAP1 PUSH1 0x4 MUL ADD PUSH1 0x40 MLOAD DUP1 PUSH1 0xA0 ADD PUSH1 0x40 MSTORE SWAP1 DUP2 PUSH1 0x0 DUP3 ADD PUSH1 0x0 SWAP1 SLOAD SWAP1 PUSH2 0x100 EXP SWAP1 DIV PUSH20 0xFFFFFFFFFFFFFFFFFFFFFFFFFFFFFFFFFFFFFFFF AND PUSH20 0xFFFFFFFFFFFFFFFFFFFFFFFFFFFFFFFFFFFFFFFF AND PUSH20 0xFFFFFFFFFFFFFFFFFFFFFFFFFFFFFFFFFFFFFFFF AND DUP2 MSTORE PUSH1 0x20 ADD PUSH1 0x0 DUP3 ADD PUSH1 0x14 SWAP1 SLOAD SWAP1 PUSH2 0x100 EXP SWAP1 DIV PUSH1 0xFF AND PUSH1 0x2 DUP2 GT ISZERO PUSH2 0x896 JUMPI PUSH2 0x895 PUSH2 0x48F5 JUMP JUMPDEST JUMPDEST PUSH1 0x2 DUP2 GT ISZERO PUSH2 0x8A8 JUMPI PUSH2 0x8A7 PUSH2 0x48F5 JUMP JUMPDEST JUMPDEST DUP2 MSTORE PUSH1 0x20 ADD PUSH1 0x1 DUP3 ADD SLOAD DUP2 MSTORE PUSH1 0x20 ADD PUSH1 0x2 DUP3 ADD SLOAD DUP2 MSTORE PUSH1 0x20 ADD PUSH1 0x3 DUP3 ADD PUSH1 0x0 SWAP1 SLOAD SWAP1 PUSH2 0x100 EXP SWAP1 DIV PUSH1 0xFF AND ISZERO ISZERO ISZERO ISZERO DUP2 MSTORE POP POP DUP2 MSTORE PUSH1 0x20 ADD SWAP1 PUSH1 0x1 ADD SWAP1 PUSH2 0x7F8 JUMP JUMPDEST POP POP POP POP SWAP2 POP POP SWAP3 SWAP2 POP POP JUMP JUMPDEST PUSH1 0x60 PUSH1 0x0 PUSH1 0x5 PUSH1 0x0 DUP5 PUSH20 0xFFFFFFFFFFFFFFFFFFFFFFFFFFFFFFFFFFFFFFFF AND PUSH20 0xFFFFFFFFFFFFFFFFFFFFFFFFFFFFFFFFFFFFFFFF AND DUP2 MSTORE PUSH1 0x20 ADD SWAP1 DUP2 MSTORE PUSH1 0x20 ADD PUSH1 0x0 KECCAK256 DUP1 SLOAD DUP1 PUSH1 0x20 MUL PUSH1 0x20 ADD PUSH1 0x40 MLOAD SWAP1 DUP2 ADD PUSH1 0x40 MSTORE DUP1 SWAP3 SWAP2 SWAP1 DUP2 DUP2 MSTORE PUSH1 0x20 ADD DUP3 DUP1 SLOAD DUP1 ISZERO PUSH2 0x9BA JUMPI PUSH1 0x20 MUL DUP3 ADD SWAP2 SWAP1 PUSH1 0x0 MSTORE PUSH1 0x20 PUSH1 0x0 KECCAK256 SWAP1 JUMPDEST DUP2 PUSH1 0x0 SWAP1 SLOAD SWAP1 PUSH2 0x100 EXP SWAP1 DIV PUSH20 0xFFFFFFFFFFFFFFFFFFFFFFFFFFFFFFFFFFFFFFFF AND PUSH20 0xFFFFFFFFFFFFFFFFFFFFFFFFFFFFFFFFFFFFFFFF AND DUP2 MSTORE PUSH1 0x20 ADD SWAP1 PUSH1 0x1 ADD SWAP1 DUP1 DUP4 GT PUSH2 0x970 JUMPI JUMPDEST POP POP POP POP POP SWAP1 POP PUSH1 0x0 DUP1 JUMPDEST DUP3 MLOAD DUP2 LT ISZERO PUSH2 0xBA7 JUMPI PUSH1 0x0 DUP4 DUP3 DUP2 MLOAD DUP2 LT PUSH2 0x9E3 JUMPI PUSH2 0x9E2 PUSH2 0x555E JUMP JUMPDEST JUMPDEST PUSH1 0x20 MUL PUSH1 0x20 ADD ADD MLOAD SWAP1 POP PUSH1 0x0 PUSH1 0x7 PUSH1 0x0 DUP4 PUSH20 0xFFFFFFFFFFFFFFFFFFFFFFFFFFFFFFFFFFFFFFFF AND PUSH20 0xFFFFFFFFFFFFFFFFFFFFFFFFFFFFFFFFFFFFFFFF AND DUP2 MSTORE PUSH1 0x20 ADD SWAP1 DUP2 MSTORE PUSH1 0x20 ADD PUSH1 0x0 KECCAK256 DUP1 SLOAD DUP1 PUSH1 0x20 MUL PUSH1 0x20 ADD PUSH1 0x40 MLOAD SWAP1 DUP2 ADD PUSH1 0x40 MSTORE DUP1 SWAP3 SWAP2 SWAP1 DUP2 DUP2 MSTORE PUSH1 0x20 ADD DUP3 DUP1 SLOAD DUP1 ISZERO PUSH2 0xA78 JUMPI PUSH1 0x20 MUL DUP3 ADD SWAP2 SWAP1 PUSH1 0x0 MSTORE PUSH1 0x20 PUSH1 0x0 KECCAK256 SWAP1 JUMPDEST DUP2 SLOAD DUP2 MSTORE PUSH1 0x20 ADD SWAP1 PUSH1 0x1 ADD SWAP1 DUP1 DUP4 GT PUSH2 0xA64 JUMPI JUMPDEST POP POP POP POP POP SWAP1 POP PUSH1 0x0 JUMPDEST DUP2 MLOAD DUP2 LT ISZERO PUSH2 0xB97 JUMPI PUSH1 0x0 DUP3 DUP3 DUP2 MLOAD DUP2 LT PUSH2 0xAA0 JUMPI PUSH2 0xA9F PUSH2 0x555E JUMP JUMPDEST JUMPDEST PUSH1 0x20 MUL PUSH1 0x20 ADD ADD MLOAD SWAP1 POP PUSH1 0x0 PUSH1 0x6 PUSH1 0x0 DUP4 DUP2 MSTORE PUSH1 0x20 ADD SWAP1 DUP2 MSTORE PUSH1 0x20 ADD PUSH1 0x0 KECCAK256 SWAP1 POP DUP1 PUSH1 0x4 ADD PUSH1 0x0 SWAP1 SLOAD SWAP1 PUSH2 0x100 EXP SWAP1 DIV PUSH1 0xFF AND DUP1 ISZERO PUSH2 0xB2A JUMPI POP DUP1 PUSH1 0x7 ADD PUSH1 0x0 DUP12 PUSH20 0xFFFFFFFFFFFFFFFFFFFFFFFFFFFFFFFFFFFFFFFF AND PUSH20 0xFFFFFFFFFFFFFFFFFFFFFFFFFFFFFFFFFFFFFFFF AND DUP2 MSTORE PUSH1 0x20 ADD SWAP1 DUP2 MSTORE PUSH1 0x20 ADD PUSH1 0x0 KECCAK256 PUSH1 0x0 SWAP1 SLOAD SWAP1 PUSH2 0x100 EXP SWAP1 DIV PUSH1 0xFF AND JUMPDEST ISZERO PUSH2 0xB88 JUMPI PUSH1 0x0 DUP2 PUSH1 0x9 ADD PUSH1 0x0 DUP13 PUSH20 0xFFFFFFFFFFFFFFFFFFFFFFFFFFFFFFFFFFFFFFFF AND PUSH20 0xFFFFFFFFFFFFFFFFFFFFFFFFFFFFFFFFFFFFFFFF AND DUP2 MSTORE PUSH1 0x20 ADD SWAP1 DUP2 MSTORE PUSH1 0x20 ADD PUSH1 0x0 KECCAK256 SWAP1 POP DUP1 DUP1 SLOAD SWAP1 POP DUP9 PUSH2 0xB84 SWAP2 SWAP1 PUSH2 0x55BC JUMP JUMPDEST SWAP8 POP POP JUMPDEST POP POP DUP1 DUP1 PUSH1 0x1 ADD SWAP2 POP POP PUSH2 0xA82 JUMP JUMPDEST POP POP POP DUP1 DUP1 PUSH1 0x1 ADD SWAP2 POP POP PUSH2 0x9C5 JUMP JUMPDEST POP PUSH1 0x0 DUP2 PUSH8 0xFFFFFFFFFFFFFFFF DUP2 GT ISZERO PUSH2 0xBC4 JUMPI PUSH2 0xBC3 PUSH2 0x50F0 JUMP JUMPDEST JUMPDEST PUSH1 0x40 MLOAD SWAP1 DUP1 DUP3 MSTORE DUP1 PUSH1 0x20 MUL PUSH1 0x20 ADD DUP3 ADD PUSH1 0x40 MSTORE DUP1 ISZERO PUSH2 0xBFD JUMPI DUP2 PUSH1 0x20 ADD JUMPDEST PUSH2 0xBEA PUSH2 0x46F7 JUMP JUMPDEST DUP2 MSTORE PUSH1 0x20 ADD SWAP1 PUSH1 0x1 SWAP1 SUB SWAP1 DUP2 PUSH2 0xBE2 JUMPI SWAP1 POP JUMPDEST POP SWAP1 POP PUSH1 0x0 DUP1 JUMPDEST DUP5 MLOAD DUP2 LT ISZERO PUSH2 0xFE6 JUMPI PUSH1 0x0 DUP6 DUP3 DUP2 MLOAD DUP2 LT PUSH2 0xC22 JUMPI PUSH2 0xC21 PUSH2 0x555E JUMP JUMPDEST JUMPDEST PUSH1 0x20 MUL PUSH1 0x20 ADD ADD MLOAD SWAP1 POP PUSH1 0x0 PUSH1 0x7 PUSH1 0x0 DUP4 PUSH20 0xFFFFFFFFFFFFFFFFFFFFFFFFFFFFFFFFFFFFFFFF AND PUSH20 0xFFFFFFFFFFFFFFFFFFFFFFFFFFFFFFFFFFFFFFFF AND DUP2 MSTORE PUSH1 0x20 ADD SWAP1 DUP2 MSTORE PUSH1 0x20 ADD PUSH1 0x0 KECCAK256 DUP1 SLOAD DUP1 PUSH1 0x20 MUL PUSH1 0x20 ADD PUSH1 0x40 MLOAD SWAP1 DUP2 ADD PUSH1 0x40 MSTORE DUP1 SWAP3 SWAP2 SWAP1 DUP2 DUP2 MSTORE PUSH1 0x20 ADD DUP3 DUP1 SLOAD DUP1 ISZERO PUSH2 0xCB7 JUMPI PUSH1 0x20 MUL DUP3 ADD SWAP2 SWAP1 PUSH1 0x0 MSTORE PUSH1 0x20 PUSH1 0x0 KECCAK256 SWAP1 JUMPDEST DUP2 SLOAD DUP2 MSTORE PUSH1 0x20 ADD SWAP1 PUSH1 0x1 ADD SWAP1 DUP1 DUP4 GT PUSH2 0xCA3 JUMPI JUMPDEST POP POP POP POP POP SWAP1 POP PUSH1 0x0 JUMPDEST DUP2 MLOAD DUP2 LT ISZERO PUSH2 0xFD6 JUMPI PUSH1 0x0 DUP3 DUP3 DUP2 MLOAD DUP2 LT PUSH2 0xCDF JUMPI PUSH2 0xCDE PUSH2 0x555E JUMP JUMPDEST JUMPDEST PUSH1 0x20 MUL PUSH1 0x20 ADD ADD MLOAD SWAP1 POP PUSH1 0x0 PUSH1 0x6 PUSH1 0x0 DUP4 DUP2 MSTORE PUSH1 0x20 ADD SWAP1 DUP2 MSTORE PUSH1 0x20 ADD PUSH1 0x0 KECCAK256 SWAP1 POP DUP1 PUSH1 0x4 ADD PUSH1 0x0 SWAP1 SLOAD SWAP1 PUSH2 0x100 EXP SWAP1 DIV PUSH1 0xFF AND DUP1 ISZERO PUSH2 0xD69 JUMPI POP DUP1 PUSH1 0x7 ADD PUSH1 0x0 DUP14 PUSH20 0xFFFFFFFFFFFFFFFFFFFFFFFFFFFFFFFFFFFFFFFF AND PUSH20 0xFFFFFFFFFFFFFFFFFFFFFFFFFFFFFFFFFFFFFFFF AND DUP2 MSTORE PUSH1 0x20 ADD SWAP1 DUP2 MSTORE PUSH1 0x20 ADD PUSH1 0x0 KECCAK256 PUSH1 0x0 SWAP1 SLOAD SWAP1 PUSH2 0x100 EXP SWAP1 DIV PUSH1 0xFF AND JUMPDEST ISZERO PUSH2 0xFC7 JUMPI PUSH1 0x0 DUP2 PUSH1 0x9 ADD PUSH1 0x0 DUP15 PUSH20 0xFFFFFFFFFFFFFFFFFFFFFFFFFFFFFFFFFFFFFFFF AND PUSH20 0xFFFFFFFFFFFFFFFFFFFFFFFFFFFFFFFFFFFFFFFF AND DUP2 MSTORE PUSH1 0x20 ADD SWAP1 DUP2 MSTORE PUSH1 0x20 ADD PUSH1 0x0 KECCAK256 SWAP1 POP PUSH1 0x0 JUMPDEST DUP2 DUP1 SLOAD SWAP1 POP DUP2 LT ISZERO PUSH2 0xFC4 JUMPI PUSH1 0x40 MLOAD DUP1 PUSH1 0xE0 ADD PUSH1 0x40 MSTORE DUP1 DUP6 DUP2 MSTORE PUSH1 0x20 ADD DUP5 PUSH1 0x2 ADD DUP1 SLOAD PUSH2 0xDE2 SWAP1 PUSH2 0x561F JUMP JUMPDEST DUP1 PUSH1 0x1F ADD PUSH1 0x20 DUP1 SWAP2 DIV MUL PUSH1 0x20 ADD PUSH1 0x40 MLOAD SWAP1 DUP2 ADD PUSH1 0x40 MSTORE DUP1 SWAP3 SWAP2 SWAP1 DUP2 DUP2 MSTORE PUSH1 0x20 ADD DUP3 DUP1 SLOAD PUSH2 0xE0E SWAP1 PUSH2 0x561F JUMP JUMPDEST DUP1 ISZERO PUSH2 0xE5B JUMPI DUP1 PUSH1 0x1F LT PUSH2 0xE30 JUMPI PUSH2 0x100 DUP1 DUP4 SLOAD DIV MUL DUP4 MSTORE SWAP2 PUSH1 0x20 ADD SWAP2 PUSH2 0xE5B JUMP JUMPDEST DUP3 ADD SWAP2 SWAP1 PUSH1 0x0 MSTORE PUSH1 0x20 PUSH1 0x0 KECCAK256 SWAP1 JUMPDEST DUP2 SLOAD DUP2 MSTORE SWAP1 PUSH1 0x1 ADD SWAP1 PUSH1 0x20 ADD DUP1 DUP4 GT PUSH2 0xE3E JUMPI DUP3 SWAP1 SUB PUSH1 0x1F AND DUP3 ADD SWAP2 JUMPDEST POP POP POP POP POP DUP2 MSTORE PUSH1 0x20 ADD DUP4 DUP4 DUP2 SLOAD DUP2 LT PUSH2 0xE78 JUMPI PUSH2 0xE77 PUSH2 0x555E JUMP JUMPDEST JUMPDEST SWAP1 PUSH1 0x0 MSTORE PUSH1 0x20 PUSH1 0x0 KECCAK256 SWAP1 PUSH1 0x4 MUL ADD PUSH1 0x0 ADD PUSH1 0x0 SWAP1 SLOAD SWAP1 PUSH2 0x100 EXP SWAP1 DIV PUSH20 0xFFFFFFFFFFFFFFFFFFFFFFFFFFFFFFFFFFFFFFFF AND PUSH20 0xFFFFFFFFFFFFFFFFFFFFFFFFFFFFFFFFFFFFFFFF AND DUP2 MSTORE PUSH1 0x20 ADD DUP4 DUP4 DUP2 SLOAD DUP2 LT PUSH2 0xED8 JUMPI PUSH2 0xED7 PUSH2 0x555E JUMP JUMPDEST JUMPDEST SWAP1 PUSH1 0x0 MSTORE PUSH1 0x20 PUSH1 0x0 KECCAK256 SWAP1 PUSH1 0x4 MUL ADD PUSH1 0x0 ADD PUSH1 0x14 SWAP1 SLOAD SWAP1 PUSH2 0x100 EXP SWAP1 DIV PUSH1 0xFF AND PUSH1 0x2 DUP2 GT ISZERO PUSH2 0xF09 JUMPI PUSH2 0xF08 PUSH2 0x48F5 JUMP JUMPDEST JUMPDEST DUP2 MSTORE PUSH1 0x20 ADD DUP4 DUP4 DUP2 SLOAD DUP2 LT PUSH2 0xF21 JUMPI PUSH2 0xF20 PUSH2 0x555E JUMP JUMPDEST JUMPDEST SWAP1 PUSH1 0x0 MSTORE PUSH1 0x20 PUSH1 0x0 KECCAK256 SWAP1 PUSH1 0x4 MUL ADD PUSH1 0x2 ADD SLOAD DUP2 MSTORE PUSH1 0x20 ADD DUP4 DUP4 DUP2 SLOAD DUP2 LT PUSH2 0xF4B JUMPI PUSH2 0xF4A PUSH2 0x555E JUMP JUMPDEST JUMPDEST SWAP1 PUSH1 0x0 MSTORE PUSH1 0x20 PUSH1 0x0 KECCAK256 SWAP1 PUSH1 0x4 MUL ADD PUSH1 0x3 ADD PUSH1 0x0 SWAP1 SLOAD SWAP1 PUSH2 0x100 EXP SWAP1 DIV PUSH1 0xFF AND ISZERO ISZERO DUP2 MSTORE PUSH1 0x20 ADD DUP9 PUSH20 0xFFFFFFFFFFFFFFFFFFFFFFFFFFFFFFFFFFFFFFFF AND DUP2 MSTORE POP DUP11 DUP11 DUP2 MLOAD DUP2 LT PUSH2 0xF9E JUMPI PUSH2 0xF9D PUSH2 0x555E JUMP JUMPDEST JUMPDEST PUSH1 0x20 MUL PUSH1 0x20 ADD ADD DUP2 SWAP1 MSTORE POP DUP9 DUP1 PUSH2 0xFB4 SWAP1 PUSH2 0x5650 JUMP JUMPDEST SWAP10 POP POP DUP1 DUP1 PUSH1 0x1 ADD SWAP2 POP POP PUSH2 0xDB6 JUMP JUMPDEST POP POP JUMPDEST POP POP DUP1 DUP1 PUSH1 0x1 ADD SWAP2 POP POP PUSH2 0xCC1 JUMP JUMPDEST POP POP POP DUP1 DUP1 PUSH1 0x1 ADD SWAP2 POP POP PUSH2 0xC04 JUMP JUMPDEST POP DUP2 SWAP5 POP POP POP POP POP SWAP2 SWAP1 POP JUMP JUMPDEST PUSH1 0x0 DUP4 SUB PUSH2 0x102D JUMPI PUSH1 0x40 MLOAD PUSH32 0x97643B5200000000000000000000000000000000000000000000000000000000 DUP2 MSTORE PUSH1 0x4 ADD PUSH1 0x40 MLOAD DUP1 SWAP2 SUB SWAP1 REVERT JUMPDEST PUSH1 0x0 PUSH1 0x6 PUSH1 0x0 DUP6 DUP2 MSTORE PUSH1 0x20 ADD SWAP1 DUP2 MSTORE PUSH1 0x20 ADD PUSH1 0x0 KECCAK256 SWAP1 POP DUP1 PUSH1 0x4 ADD PUSH1 0x0 SWAP1 SLOAD SWAP1 PUSH2 0x100 EXP SWAP1 DIV PUSH1 0xFF AND PUSH2 0x1097 JUMPI DUP4 PUSH1 0x40 MLOAD PUSH32 0x8C209E5600000000000000000000000000000000000000000000000000000000 DUP2 MSTORE PUSH1 0x4 ADD PUSH2 0x108E SWAP2 SWAP1 PUSH2 0x505F JUMP JUMPDEST PUSH1 0x40 MLOAD DUP1 SWAP2 SUB SWAP1 REVERT JUMPDEST CALLER PUSH20 0xFFFFFFFFFFFFFFFFFFFFFFFFFFFFFFFFFFFFFFFF AND DUP2 PUSH1 0x1 ADD PUSH1 0x0 SWAP1 SLOAD SWAP1 PUSH2 0x100 EXP SWAP1 DIV PUSH20 0xFFFFFFFFFFFFFFFFFFFFFFFFFFFFFFFFFFFFFFFF AND PUSH20 0xFFFFFFFFFFFFFFFFFFFFFFFFFFFFFFFFFFFFFFFF AND EQ PUSH2 0x1120 JUMPI PUSH1 0x40 MLOAD PUSH32 0xF5E6BD800000000000000000000000000000000000000000000000000000000 DUP2 MSTORE PUSH1 0x4 ADD PUSH1 0x40 MLOAD DUP1 SWAP2 SUB SWAP1 REVERT JUMPDEST PUSH2 0x112A DUP4 DUP4 PUSH2 0x3F8A JUMP JUMPDEST DUP1 PUSH1 0xC ADD PUSH1 0x0 SWAP1 SLOAD SWAP1 PUSH2 0x100 EXP SWAP1 DIV PUSH1 0xFF AND ISZERO PUSH2 0x1173 JUMPI PUSH1 0x40 MLOAD PUSH32 0x815091E200000000000000000000000000000000000000000000000000000000 DUP2 MSTORE PUSH1 0x4 ADD PUSH1 0x40 MLOAD DUP1 SWAP2 SUB SWAP1 REVERT JUMPDEST DUP3 DUP2 PUSH1 0xA ADD DUP2 SWAP1 SSTORE POP DUP2 DUP2 PUSH1 0xB ADD DUP2 SWAP1 SSTORE POP TIMESTAMP DUP2 PUSH1 0x3 ADD DUP2 SWAP1 SSTORE POP CALLER PUSH20 0xFFFFFFFFFFFFFFFFFFFFFFFFFFFFFFFFFFFFFFFF AND PUSH32 0xB84522DA2D2039E8F4A7A0993EEA2CF0DD5C31C0D7265951C4C4E7985DCDA7BE DUP5 DUP5 PUSH1 0x40 MLOAD PUSH2 0x11D6 SWAP3 SWAP2 SWAP1 PUSH2 0x5698 JUMP JUMPDEST PUSH1 0x40 MLOAD DUP1 SWAP2 SUB SWAP1 LOG2 POP POP POP POP JUMP JUMPDEST PUSH1 0x60 PUSH1 0x3 PUSH1 0x0 DUP4 PUSH20 0xFFFFFFFFFFFFFFFFFFFFFFFFFFFFFFFFFFFFFFFF AND PUSH20 0xFFFFFFFFFFFFFFFFFFFFFFFFFFFFFFFFFFFFFFFF AND DUP2 MSTORE PUSH1 0x20 ADD SWAP1 DUP2 MSTORE PUSH1 0x20 ADD PUSH1 0x0 KECCAK256 PUSH1 0x4 ADD PUSH1 0x0 SWAP1 SLOAD SWAP1 PUSH2 0x100 EXP SWAP1 DIV PUSH1 0xFF AND PUSH2 0x126C JUMPI PUSH1 0x40 MLOAD PUSH32 0xF73656BF00000000000000000000000000000000000000000000000000000000 DUP2 MSTORE PUSH1 0x4 ADD PUSH1 0x40 MLOAD DUP1 SWAP2 SUB SWAP1 REVERT JUMPDEST PUSH1 0x3 PUSH1 0x0 DUP4 PUSH20 0xFFFFFFFFFFFFFFFFFFFFFFFFFFFFFFFFFFFFFFFF AND PUSH20 0xFFFFFFFFFFFFFFFFFFFFFFFFFFFFFFFFFFFFFFFF AND DUP2 MSTORE PUSH1 0x20 ADD SWAP1 DUP2 MSTORE PUSH1 0x20 ADD PUSH1 0x0 KECCAK256 PUSH1 0x8 ADD DUP1 SLOAD DUP1 PUSH1 0x20 MUL PUSH1 0x20 ADD PUSH1 0x40 MLOAD SWAP1 DUP2 ADD PUSH1 0x40 MSTORE DUP1 SWAP3 SWAP2 SWAP1 DUP2 DUP2 MSTORE PUSH1 0x20 ADD DUP3 DUP1 SLOAD DUP1 ISZERO PUSH2 0x132E JUMPI PUSH1 0x20 MUL DUP3 ADD SWAP2 SWAP1 PUSH1 0x0 MSTORE PUSH1 0x20 PUSH1 0x0 KECCAK256 SWAP1 JUMPDEST DUP2 PUSH1 0x0 SWAP1 SLOAD SWAP1 PUSH2 0x100 EXP SWAP1 DIV PUSH20 0xFFFFFFFFFFFFFFFFFFFFFFFFFFFFFFFFFFFFFFFF AND PUSH20 0xFFFFFFFFFFFFFFFFFFFFFFFFFFFFFFFFFFFFFFFF AND DUP2 MSTORE PUSH1 0x20 ADD SWAP1 PUSH1 0x1 ADD SWAP1 DUP1 DUP4 GT PUSH2 0x12E4 JUMPI JUMPDEST POP POP POP POP POP SWAP1 POP SWAP2 SWAP1 POP JUMP JUMPDEST PUSH1 0x0 DUP1 DUP3 SUB PUSH2 0x1375 JUMPI PUSH1 0x40 MLOAD PUSH32 0x97643B5200000000000000000000000000000000000000000000000000000000 DUP2 MSTORE PUSH1 0x4 ADD PUSH1 0x40 MLOAD DUP1 SWAP2 SUB SWAP1 REVERT JUMPDEST PUSH1 0x0 PUSH1 0x6 PUSH1 0x0 DUP5 DUP2 MSTORE PUSH1 0x20 ADD SWAP1 DUP2 MSTORE PUSH1 0x20 ADD PUSH1 0x0 KECCAK256 SWAP1 POP DUP1 PUSH1 0x4 ADD PUSH1 0x0 SWAP1 SLOAD SWAP1 PUSH2 0x100 EXP SWAP1 DIV PUSH1 0xFF AND PUSH2 0x13DF JUMPI DUP3 PUSH1 0x40 MLOAD PUSH32 0x8C209E5600000000000000000000000000000000000000000000000000000000 DUP2 MSTORE PUSH1 0x4 ADD PUSH2 0x13D6 SWAP2 SWAP1 PUSH2 0x505F JUMP JUMPDEST PUSH1 0x40 MLOAD DUP1 SWAP2 SUB SWAP1 REVERT JUMPDEST DUP1 PUSH1 0xC ADD PUSH1 0x0 SWAP1 SLOAD SWAP1 PUSH2 0x100 EXP SWAP1 DIV PUSH1 0xFF AND PUSH2 0x13FF JUMPI PUSH1 0x0 SWAP2 POP POP PUSH2 0x1419 JUMP JUMPDEST DUP1 PUSH1 0xA ADD SLOAD DUP2 PUSH1 0xD ADD SLOAD PUSH2 0x1413 SWAP2 SWAP1 PUSH2 0x55BC JUMP JUMPDEST TIMESTAMP GT SWAP2 POP POP JUMPDEST SWAP2 SWAP1 POP JUMP JUMPDEST PUSH1 0x6 PUSH1 0x20 MSTORE DUP1 PUSH1 0x0 MSTORE PUSH1 0x40 PUSH1 0x0 KECCAK256 PUSH1 0x0 SWAP2 POP SWAP1 POP DUP1 PUSH1 0x0 ADD SLOAD SWAP1 DUP1 PUSH1 0x1 ADD PUSH1 0x0 SWAP1 SLOAD SWAP1 PUSH2 0x100 EXP SWAP1 DIV PUSH20 0xFFFFFFFFFFFFFFFFFFFFFFFFFFFFFFFFFFFFFFFF AND SWAP1 DUP1 PUSH1 0x2 ADD DUP1 SLOAD PUSH2 0x146D SWAP1 PUSH2 0x561F JUMP JUMPDEST DUP1 PUSH1 0x1F ADD PUSH1 0x20 DUP1 SWAP2 DIV MUL PUSH1 0x20 ADD PUSH1 0x40 MLOAD SWAP1 DUP2 ADD PUSH1 0x40 MSTORE DUP1 SWAP3 SWAP2 SWAP1 DUP2 DUP2 MSTORE PUSH1 0x20 ADD DUP3 DUP1 SLOAD PUSH2 0x1499 SWAP1 PUSH2 0x561F JUMP JUMPDEST DUP1 ISZERO PUSH2 0x14E6 JUMPI DUP1 PUSH1 0x1F LT PUSH2 0x14BB JUMPI PUSH2 0x100 DUP1 DUP4 SLOAD DIV MUL DUP4 MSTORE SWAP2 PUSH1 0x20 ADD SWAP2 PUSH2 0x14E6 JUMP JUMPDEST DUP3 ADD SWAP2 SWAP1 PUSH1 0x0 MSTORE PUSH1 0x20 PUSH1 0x0 KECCAK256 SWAP1 JUMPDEST DUP2 SLOAD DUP2 MSTORE SWAP1 PUSH1 0x1 ADD SWAP1 PUSH1 0x20 ADD DUP1 DUP4 GT PUSH2 0x14C9 JUMPI DUP3 SWAP1 SUB PUSH1 0x1F AND DUP3 ADD SWAP2 JUMPDEST POP POP POP POP POP SWAP1 DUP1 PUSH1 0x3 ADD SLOAD SWAP1 DUP1 PUSH1 0x4 ADD PUSH1 0x0 SWAP1 SLOAD SWAP1 PUSH2 0x100 EXP SWAP1 DIV PUSH1 0xFF AND SWAP1 DUP1 PUSH1 0x6 ADD SLOAD SWAP1 DUP1 PUSH1 0xA ADD SLOAD SWAP1 DUP1 PUSH1 0xB ADD SLOAD SWAP1 DUP1 PUSH1 0xC ADD PUSH1 0x0 SWAP1 SLOAD SWAP1 PUSH2 0x100 EXP SWAP1 DIV PUSH1 0xFF AND SWAP1 DUP1 PUSH1 0xD ADD SLOAD SWAP1 POP DUP11 JUMP JUMPDEST PUSH1 0x0 DUP1 PUSH1 0x60 PUSH1 0x0 DUP1 PUSH1 0x0 DUP1 PUSH1 0x0 DUP1 PUSH1 0x0 PUSH1 0x60 PUSH1 0x0 PUSH2 0x1551 DUP15 PUSH2 0x3EDC JUMP JUMPDEST SWAP1 POP DUP13 PUSH20 0xFFFFFFFFFFFFFFFFFFFFFFFFFFFFFFFFFFFFFFFF AND DUP2 PUSH1 0x1 ADD PUSH1 0x0 SWAP1 SLOAD SWAP1 PUSH2 0x100 EXP SWAP1 DIV PUSH20 0xFFFFFFFFFFFFFFFFFFFFFFFFFFFFFFFFFFFFFFFF AND PUSH20 0xFFFFFFFFFFFFFFFFFFFFFFFFFFFFFFFFFFFFFFFF AND EQ PUSH2 0x15DC JUMPI PUSH1 0x40 MLOAD PUSH32 0xF5E6BD800000000000000000000000000000000000000000000000000000000 DUP2 MSTORE PUSH1 0x4 ADD PUSH1 0x40 MLOAD DUP1 SWAP2 SUB SWAP1 REVERT JUMPDEST DUP1 PUSH1 0x0 ADD SLOAD DUP2 PUSH1 0x1 ADD PUSH1 0x0 SWAP1 SLOAD SWAP1 PUSH2 0x100 EXP SWAP1 DIV PUSH20 0xFFFFFFFFFFFFFFFFFFFFFFFFFFFFFFFFFFFFFFFF AND DUP3 PUSH1 0x2 ADD DUP4 PUSH1 0x3 ADD SLOAD DUP5 PUSH1 0x4 ADD PUSH1 0x0 SWAP1 SLOAD SWAP1 PUSH2 0x100 EXP SWAP1 DIV PUSH1 0xFF AND DUP6 PUSH1 0x6 ADD SLOAD DUP7 PUSH1 0xA ADD SLOAD DUP8 PUSH1 0xB ADD SLOAD DUP9 PUSH1 0xC ADD PUSH1 0x0 SWAP1 SLOAD SWAP1 PUSH2 0x100 EXP SWAP1 DIV PUSH1 0xFF AND DUP10 PUSH1 0xD ADD SLOAD DUP11 PUSH1 0x8 ADD DUP9 DUP1 SLOAD PUSH2 0x1657 SWAP1 PUSH2 0x561F JUMP JUMPDEST DUP1 PUSH1 0x1F ADD PUSH1 0x20 DUP1 SWAP2 DIV MUL PUSH1 0x20 ADD PUSH1 0x40 MLOAD SWAP1 DUP2 ADD PUSH1 0x40 MSTORE DUP1 SWAP3 SWAP2 SWAP1 DUP2 DUP2 MSTORE PUSH1 0x20 ADD DUP3 DUP1 SLOAD PUSH2 0x1683 SWAP1 PUSH2 0x561F JUMP JUMPDEST DUP1 ISZERO PUSH2 0x16D0 JUMPI DUP1 PUSH1 0x1F LT PUSH2 0x16A5 JUMPI PUSH2 0x100 DUP1 DUP4 SLOAD DIV MUL DUP4 MSTORE SWAP2 PUSH1 0x20 ADD SWAP2 PUSH2 0x16D0 JUMP JUMPDEST DUP3 ADD SWAP2 SWAP1 PUSH1 0x0 MSTORE PUSH1 0x20 PUSH1 0x0 KECCAK256 SWAP1 JUMPDEST DUP2 SLOAD DUP2 MSTORE SWAP1 PUSH1 0x1 ADD SWAP1 PUSH1 0x20 ADD DUP1 DUP4 GT PUSH2 0x16B3 JUMPI DUP3 SWAP1 SUB PUSH1 0x1F AND DUP3 ADD SWAP2 JUMPDEST POP POP POP POP POP SWAP9 POP DUP1 DUP1 SLOAD DUP1 PUSH1 0x20 MUL PUSH1 0x20 ADD PUSH1 0x40 MLOAD SWAP1 DUP2 ADD PUSH1 0x40 MSTORE DUP1 SWAP3 SWAP2 SWAP1 DUP2 DUP2 MSTORE PUSH1 0x20 ADD DUP3 DUP1 SLOAD DUP1 ISZERO PUSH2 0x1758 JUMPI PUSH1 0x20 MUL DUP3 ADD SWAP2 SWAP1 PUSH1 0x0 MSTORE PUSH1 0x20 PUSH1 0x0 KECCAK256 SWAP1 JUMPDEST DUP2 PUSH1 0x0 SWAP1 SLOAD SWAP1 PUSH2 0x100 EXP SWAP1 DIV PUSH20 0xFFFFFFFFFFFFFFFFFFFFFFFFFFFFFFFFFFFFFFFF AND PUSH20 0xFFFFFFFFFFFFFFFFFFFFFFFFFFFFFFFFFFFFFFFF AND DUP2 MSTORE PUSH1 0x20 ADD SWAP1 PUSH1 0x1 ADD SWAP1 DUP1 DUP4 GT PUSH2 0x170E JUMPI JUMPDEST POP POP POP POP POP SWAP1 POP SWAP12 POP SWAP12 POP SWAP12 POP SWAP12 POP SWAP12 POP SWAP12 POP SWAP12 POP SWAP12 POP SWAP12 POP SWAP12 POP SWAP12 POP POP SWAP3 SWAP6 SWAP9 SWAP12 POP SWAP3 SWAP6 SWAP9 SWAP12 SWAP1 SWAP4 SWAP7 SWAP10 POP JUMP JUMPDEST PUSH1 0x4 PUSH1 0x0 CALLER PUSH20 0xFFFFFFFFFFFFFFFFFFFFFFFFFFFFFFFFFFFFFFFF AND PUSH20 0xFFFFFFFFFFFFFFFFFFFFFFFFFFFFFFFFFFFFFFFF AND DUP2 MSTORE PUSH1 0x20 ADD SWAP1 DUP2 MSTORE PUSH1 0x20 ADD PUSH1 0x0 KECCAK256 PUSH1 0x0 SWAP1 SLOAD SWAP1 PUSH2 0x100 EXP SWAP1 DIV PUSH1 0xFF AND PUSH2 0x1809 JUMPI PUSH1 0x40 MLOAD PUSH32 0x82B4290000000000000000000000000000000000000000000000000000000000 DUP2 MSTORE PUSH1 0x4 ADD PUSH1 0x40 MLOAD DUP1 SWAP2 SUB SWAP1 REVERT JUMPDEST PUSH1 0x0 PUSH1 0x3 PUSH1 0x0 DUP4 PUSH20 0xFFFFFFFFFFFFFFFFFFFFFFFFFFFFFFFFFFFFFFFF AND PUSH20 0xFFFFFFFFFFFFFFFFFFFFFFFFFFFFFFFFFFFFFFFF AND DUP2 MSTORE PUSH1 0x20 ADD SWAP1 DUP2 MSTORE PUSH1 0x20 ADD PUSH1 0x0 KECCAK256 SWAP1 POP DUP1 PUSH1 0x4 ADD PUSH1 0x0 SWAP1 SLOAD SWAP1 PUSH2 0x100 EXP SWAP1 DIV PUSH1 0xFF AND PUSH2 0x1894 JUMPI PUSH1 0x40 MLOAD PUSH32 0x3114099800000000000000000000000000000000000000000000000000000000 DUP2 MSTORE PUSH1 0x4 ADD PUSH1 0x40 MLOAD DUP1 SWAP2 SUB SWAP1 REVERT JUMPDEST DUP1 PUSH1 0xC ADD PUSH1 0x0 SWAP1 SLOAD SWAP1 PUSH2 0x100 EXP SWAP1 DIV PUSH1 0xFF AND ISZERO PUSH2 0x18DD JUMPI PUSH1 0x40 MLOAD PUSH32 0x815091E200000000000000000000000000000000000000000000000000000000 DUP2 MSTORE PUSH1 0x4 ADD PUSH1 0x40 MLOAD DUP1 SWAP2 SUB SWAP1 REVERT JUMPDEST DUP1 PUSH1 0xB ADD SLOAD DUP2 PUSH1 0x3 ADD SLOAD TIMESTAMP PUSH2 0x18F2 SWAP2 SWAP1 PUSH2 0x56C1 JUMP JUMPDEST GT ISZERO PUSH2 0x1973 JUMPI PUSH1 0x1 DUP2 PUSH1 0xC ADD PUSH1 0x0 PUSH2 0x100 EXP DUP2 SLOAD DUP2 PUSH1 0xFF MUL NOT AND SWAP1 DUP4 ISZERO ISZERO MUL OR SWAP1 SSTORE POP TIMESTAMP DUP2 PUSH1 0xD ADD DUP2 SWAP1 SSTORE POP DUP2 PUSH20 0xFFFFFFFFFFFFFFFFFFFFFFFFFFFFFFFFFFFFFFFF AND PUSH32 0x674B29EAC3F8DB4186C76E9429FA4D70125D68FED7B9A0D862732A7D2FCF4E36 TIMESTAMP DUP4 PUSH1 0xA ADD SLOAD PUSH1 0x40 MLOAD PUSH2 0x196A SWAP3 SWAP2 SWAP1 PUSH2 0x5698 JUMP JUMPDEST PUSH1 0x40 MLOAD DUP1 SWAP2 SUB SWAP1 LOG2 JUMPDEST POP POP JUMP JUMPDEST PUSH1 0x7 PUSH1 0x20 MSTORE DUP2 PUSH1 0x0 MSTORE PUSH1 0x40 PUSH1 0x0 KECCAK256 DUP2 DUP2 SLOAD DUP2 LT PUSH2 0x1993 JUMPI PUSH1 0x0 DUP1 REVERT JUMPDEST SWAP1 PUSH1 0x0 MSTORE PUSH1 0x20 PUSH1 0x0 KECCAK256 ADD PUSH1 0x0 SWAP2 POP SWAP2 POP POP SLOAD DUP2 JUMP JUMPDEST PUSH1 0x0 DUP1 DUP3 SUB PUSH2 0x19E3 JUMPI PUSH1 0x40 MLOAD PUSH32 0x97643B5200000000000000000000000000000000000000000000000000000000 DUP2 MSTORE PUSH1 0x4 ADD PUSH1 0x40 MLOAD DUP1 SWAP2 SUB SWAP1 REVERT JUMPDEST PUSH1 0x0 PUSH1 0x6 PUSH1 0x0 DUP5 DUP2 MSTORE PUSH1 0x20 ADD SWAP1 DUP2 MSTORE PUSH1 0x20 ADD PUSH1 0x0 KECCAK256 SWAP1 POP DUP1 PUSH1 0x4 ADD PUSH1 0x0 SWAP1 SLOAD SWAP1 PUSH2 0x100 EXP SWAP1 DIV PUSH1 0xFF AND PUSH2 0x1A4D JUMPI DUP3 PUSH1 0x40 MLOAD PUSH32 0x8C209E5600000000000000000000000000000000000000000000000000000000 DUP2 MSTORE PUSH1 0x4 ADD PUSH2 0x1A44 SWAP2 SWAP1 PUSH2 0x505F JUMP JUMPDEST PUSH1 0x40 MLOAD DUP1 SWAP2 SUB SWAP1 REVERT JUMPDEST DUP1 PUSH1 0xC ADD PUSH1 0x0 SWAP1 SLOAD SWAP1 PUSH2 0x100 EXP SWAP1 DIV PUSH1 0xFF AND ISZERO DUP1 PUSH2 0x1A70 JUMPI POP PUSH2 0x1A6F DUP4 PUSH2 0x133A JUMP JUMPDEST JUMPDEST ISZERO PUSH2 0x1A7F JUMPI PUSH1 0x0 SWAP2 POP POP PUSH2 0x1AB7 JUMP JUMPDEST PUSH1 0x0 DUP2 PUSH1 0xA ADD SLOAD DUP3 PUSH1 0xD ADD SLOAD PUSH2 0x1A95 SWAP2 SWAP1 PUSH2 0x55BC JUMP JUMPDEST SWAP1 POP TIMESTAMP DUP2 GT PUSH2 0x1AA5 JUMPI PUSH1 0x0 PUSH2 0x1AB2 JUMP JUMPDEST TIMESTAMP DUP2 PUSH2 0x1AB1 SWAP2 SWAP1 PUSH2 0x56C1 JUMP JUMPDEST JUMPDEST SWAP3 POP POP POP JUMPDEST SWAP2 SWAP1 POP JUMP JUMPDEST PUSH2 0x1AC4 PUSH2 0x4094 JUMP JUMPDEST DUP1 PUSH1 0x4 PUSH1 0x0 DUP5 PUSH20 0xFFFFFFFFFFFFFFFFFFFFFFFFFFFFFFFFFFFFFFFF AND PUSH20 0xFFFFFFFFFFFFFFFFFFFFFFFFFFFFFFFFFFFFFFFF AND DUP2 MSTORE PUSH1 0x20 ADD SWAP1 DUP2 MSTORE PUSH1 0x20 ADD PUSH1 0x0 KECCAK256 PUSH1 0x0 PUSH2 0x100 EXP DUP2 SLOAD DUP2 PUSH1 0xFF MUL NOT AND SWAP1 DUP4 ISZERO ISZERO MUL OR SWAP1 SSTORE POP POP POP JUMP JUMPDEST PUSH2 0x1B27 PUSH2 0x411B JUMP JUMPDEST PUSH1 0x0 DUP5 DUP5 SWAP1 POP EQ DUP1 ISZERO PUSH2 0x1B3A JUMPI POP PUSH1 0x0 CALLVALUE EQ JUMPDEST ISZERO PUSH2 0x1B71 JUMPI PUSH1 0x40 MLOAD PUSH32 0x5F8A655A00000000000000000000000000000000000000000000000000000000 DUP2 MSTORE PUSH1 0x4 ADD PUSH1 0x40 MLOAD DUP1 SWAP2 SUB SWAP1 REVERT JUMPDEST PUSH2 0x1B7B DUP3 DUP3 PUSH2 0x3F8A JUMP JUMPDEST PUSH1 0x0 PUSH1 0x2 PUSH1 0x0 DUP2 SLOAD DUP1 SWAP3 SWAP2 SWAP1 PUSH2 0x1B90 SWAP1 PUSH2 0x5650 JUMP JUMPDEST SWAP2 SWAP1 POP SSTORE SWAP1 POP PUSH1 0x0 PUSH1 0x6 PUSH1 0x0 DUP4 DUP2 MSTORE PUSH1 0x20 ADD SWAP1 DUP2 MSTORE PUSH1 0x20 ADD PUSH1 0x0 KECCAK256 SWAP1 POP DUP2 DUP2 PUSH1 0x0 ADD DUP2 SWAP1 SSTORE POP CALLER DUP2 PUSH1 0x1 ADD PUSH1 0x0 PUSH2 0x100 EXP DUP2 SLOAD DUP2 PUSH20 0xFFFFFFFFFFFFFFFFFFFFFFFFFFFFFFFFFFFFFFFF MUL NOT AND SWAP1 DUP4 PUSH20 0xFFFFFFFFFFFFFFFFFFFFFFFFFFFFFFFFFFFFFFFF AND MUL OR SWAP1 SSTORE POP DUP7 DUP2 PUSH1 0x2 ADD SWAP1 DUP2 PUSH2 0x1C0A SWAP2 SWAP1 PUSH2 0x58A1 JUMP JUMPDEST POP DUP4 DUP2 PUSH1 0xA ADD DUP2 SWAP1 SSTORE POP DUP3 DUP2 PUSH1 0xB ADD DUP2 SWAP1 SSTORE POP TIMESTAMP DUP2 PUSH1 0x3 ADD DUP2 SWAP1 SSTORE POP PUSH1 0x1 DUP2 PUSH1 0x4 ADD PUSH1 0x0 PUSH2 0x100 EXP DUP2 SLOAD DUP2 PUSH1 0xFF MUL NOT AND SWAP1 DUP4 ISZERO ISZERO MUL OR SWAP1 SSTORE POP PUSH1 0x7 PUSH1 0x0 CALLER PUSH20 0xFFFFFFFFFFFFFFFFFFFFFFFFFFFFFFFFFFFFFFFF AND PUSH20 0xFFFFFFFFFFFFFFFFFFFFFFFFFFFFFFFFFFFFFFFF AND DUP2 MSTORE PUSH1 0x20 ADD SWAP1 DUP2 MSTORE PUSH1 0x20 ADD PUSH1 0x0 KECCAK256 DUP3 SWAP1 DUP1 PUSH1 0x1 DUP2 SLOAD ADD DUP1 DUP3 SSTORE DUP1 SWAP2 POP POP PUSH1 0x1 SWAP1 SUB SWAP1 PUSH1 0x0 MSTORE PUSH1 0x20 PUSH1 0x0 KECCAK256 ADD PUSH1 0x0 SWAP1 SWAP2 SWAP1 SWAP2 SWAP1 SWAP2 POP SSTORE PUSH1 0x0 CALLVALUE GT ISZERO PUSH2 0x1E1A JUMPI CALLVALUE DUP2 PUSH1 0x6 ADD DUP2 SWAP1 SSTORE POP PUSH1 0x0 JUMPDEST DUP7 DUP7 PUSH1 0x0 DUP2 DUP2 LT PUSH2 0x1CD2 JUMPI PUSH2 0x1CD1 PUSH2 0x555E JUMP JUMPDEST JUMPDEST SWAP1 POP PUSH1 0x20 MUL DUP2 ADD SWAP1 PUSH2 0x1CE4 SWAP2 SWAP1 PUSH2 0x5982 JUMP JUMPDEST DUP1 PUSH1 0x80 ADD SWAP1 PUSH2 0x1CF3 SWAP2 SWAP1 PUSH2 0x59AA JUMP JUMPDEST SWAP1 POP DUP2 LT ISZERO PUSH2 0x1E18 JUMPI PUSH1 0x0 DUP8 DUP8 PUSH1 0x0 DUP2 DUP2 LT PUSH2 0x1D12 JUMPI PUSH2 0x1D11 PUSH2 0x555E JUMP JUMPDEST JUMPDEST SWAP1 POP PUSH1 0x20 MUL DUP2 ADD SWAP1 PUSH2 0x1D24 SWAP2 SWAP1 PUSH2 0x5982 JUMP JUMPDEST DUP1 PUSH1 0x80 ADD SWAP1 PUSH2 0x1D33 SWAP2 SWAP1 PUSH2 0x59AA JUMP JUMPDEST DUP4 DUP2 DUP2 LT PUSH2 0x1D44 JUMPI PUSH2 0x1D43 PUSH2 0x555E JUMP JUMPDEST JUMPDEST SWAP1 POP PUSH1 0x20 MUL ADD PUSH1 0x20 DUP2 ADD SWAP1 PUSH2 0x1D59 SWAP2 SWAP1 PUSH2 0x4AA3 JUMP JUMPDEST SWAP1 POP DUP3 PUSH1 0x7 ADD PUSH1 0x0 DUP3 PUSH20 0xFFFFFFFFFFFFFFFFFFFFFFFFFFFFFFFFFFFFFFFF AND PUSH20 0xFFFFFFFFFFFFFFFFFFFFFFFFFFFFFFFFFFFFFFFF AND DUP2 MSTORE PUSH1 0x20 ADD SWAP1 DUP2 MSTORE PUSH1 0x20 ADD PUSH1 0x0 KECCAK256 PUSH1 0x0 SWAP1 SLOAD SWAP1 PUSH2 0x100 EXP SWAP1 DIV PUSH1 0xFF AND PUSH2 0x1DB9 JUMPI PUSH2 0x1DB8 DUP2 DUP6 PUSH2 0x4161 JUMP JUMPDEST JUMPDEST PUSH2 0x1E0A DUP4 DUP3 PUSH1 0x0 DUP1 PUSH1 0x0 DUP14 DUP14 PUSH1 0x0 DUP2 DUP2 LT PUSH2 0x1DD7 JUMPI PUSH2 0x1DD6 PUSH2 0x555E JUMP JUMPDEST JUMPDEST SWAP1 POP PUSH1 0x20 MUL DUP2 ADD SWAP1 PUSH2 0x1DE9 SWAP2 SWAP1 PUSH2 0x5982 JUMP JUMPDEST DUP1 PUSH1 0x80 ADD SWAP1 PUSH2 0x1DF8 SWAP2 SWAP1 PUSH2 0x59AA JUMP JUMPDEST SWAP1 POP CALLVALUE PUSH2 0x1E05 SWAP2 SWAP1 PUSH2 0x5A3C JUMP JUMPDEST PUSH2 0x44AB JUMP JUMPDEST POP DUP1 DUP1 PUSH1 0x1 ADD SWAP2 POP POP PUSH2 0x1CBE JUMP JUMPDEST POP JUMPDEST PUSH1 0x0 JUMPDEST DUP7 DUP7 SWAP1 POP DUP2 LT ISZERO PUSH2 0x22F0 JUMPI PUSH1 0x0 DUP8 DUP8 DUP4 DUP2 DUP2 LT PUSH2 0x1E3D JUMPI PUSH2 0x1E3C PUSH2 0x555E JUMP JUMPDEST JUMPDEST SWAP1 POP PUSH1 0x20 MUL DUP2 ADD SWAP1 PUSH2 0x1E4F SWAP2 SWAP1 PUSH2 0x5982 JUMP JUMPDEST PUSH1 0x20 ADD PUSH1 0x20 DUP2 ADD SWAP1 PUSH2 0x1E61 SWAP2 SWAP1 PUSH2 0x5A92 JUMP JUMPDEST SWAP1 POP PUSH1 0x2 DUP1 DUP2 GT ISZERO PUSH2 0x1E76 JUMPI PUSH2 0x1E75 PUSH2 0x48F5 JUMP JUMPDEST JUMPDEST DUP2 PUSH1 0x2 DUP2 GT ISZERO PUSH2 0x1E89 JUMPI PUSH2 0x1E88 PUSH2 0x48F5 JUMP JUMPDEST JUMPDEST SUB PUSH2 0x1EC0 JUMPI PUSH1 0x40 MLOAD PUSH32 0xC1AB6DC100000000000000000000000000000000000000000000000000000000 DUP2 MSTORE PUSH1 0x4 ADD PUSH1 0x40 MLOAD DUP1 SWAP2 SUB SWAP1 REVERT JUMPDEST PUSH1 0x1 PUSH1 0x2 DUP2 GT ISZERO PUSH2 0x1ED4 JUMPI PUSH2 0x1ED3 PUSH2 0x48F5 JUMP JUMPDEST JUMPDEST DUP2 PUSH1 0x2 DUP2 GT ISZERO PUSH2 0x1EE7 JUMPI PUSH2 0x1EE6 PUSH2 0x48F5 JUMP JUMPDEST JUMPDEST SUB PUSH2 0x2043 JUMPI PUSH1 0x0 JUMPDEST DUP9 DUP9 DUP5 DUP2 DUP2 LT PUSH2 0x1F02 JUMPI PUSH2 0x1F01 PUSH2 0x555E JUMP JUMPDEST JUMPDEST SWAP1 POP PUSH1 0x20 MUL DUP2 ADD SWAP1 PUSH2 0x1F14 SWAP2 SWAP1 PUSH2 0x5982 JUMP JUMPDEST DUP1 PUSH1 0x80 ADD SWAP1 PUSH2 0x1F23 SWAP2 SWAP1 PUSH2 0x59AA JUMP JUMPDEST SWAP1 POP DUP2 LT ISZERO PUSH2 0x2041 JUMPI PUSH1 0x0 DUP10 DUP10 DUP6 DUP2 DUP2 LT PUSH2 0x1F41 JUMPI PUSH2 0x1F40 PUSH2 0x555E JUMP JUMPDEST JUMPDEST SWAP1 POP PUSH1 0x20 MUL DUP2 ADD SWAP1 PUSH2 0x1F53 SWAP2 SWAP1 PUSH2 0x5982 JUMP JUMPDEST DUP1 PUSH1 0x60 ADD SWAP1 PUSH2 0x1F62 SWAP2 SWAP1 PUSH2 0x5ABF JUMP JUMPDEST DUP4 DUP2 DUP2 LT PUSH2 0x1F73 JUMPI PUSH2 0x1F72 PUSH2 0x555E JUMP JUMPDEST JUMPDEST SWAP1 POP PUSH1 0x20 MUL ADD CALLDATALOAD SWAP1 POP DUP10 DUP10 DUP6 DUP2 DUP2 LT PUSH2 0x1F8F JUMPI PUSH2 0x1F8E PUSH2 0x555E JUMP JUMPDEST JUMPDEST SWAP1 POP PUSH1 0x20 MUL DUP2 ADD SWAP1 PUSH2 0x1FA1 SWAP2 SWAP1 PUSH2 0x5982 JUMP JUMPDEST PUSH1 0x0 ADD PUSH1 0x20 DUP2 ADD SWAP1 PUSH2 0x1FB3 SWAP2 SWAP1 PUSH2 0x4AA3 JUMP JUMPDEST PUSH20 0xFFFFFFFFFFFFFFFFFFFFFFFFFFFFFFFFFFFFFFFF AND PUSH4 0x23B872DD CALLER ADDRESS DUP5 PUSH1 0x40 MLOAD DUP5 PUSH4 0xFFFFFFFF AND PUSH1 0xE0 SHL DUP2 MSTORE PUSH1 0x4 ADD PUSH2 0x1FEF SWAP4 SWAP3 SWAP2 SWAP1 PUSH2 0x5B22 JUMP JUMPDEST PUSH1 0x20 PUSH1 0x40 MLOAD DUP1 DUP4 SUB DUP2 PUSH1 0x0 DUP8 GAS CALL ISZERO DUP1 ISZERO PUSH2 0x200E JUMPI RETURNDATASIZE PUSH1 0x0 DUP1 RETURNDATACOPY RETURNDATASIZE PUSH1 0x0 REVERT JUMPDEST POP POP POP POP PUSH1 0x40 MLOAD RETURNDATASIZE PUSH1 0x1F NOT PUSH1 0x1F DUP3 ADD AND DUP3 ADD DUP1 PUSH1 0x40 MSTORE POP DUP2 ADD SWAP1 PUSH2 0x2032 SWAP2 SWAP1 PUSH2 0x5B6E JUMP JUMPDEST POP POP DUP1 DUP1 PUSH1 0x1 ADD SWAP2 POP POP PUSH2 0x1EEF JUMP JUMPDEST POP JUMPDEST PUSH1 0x0 JUMPDEST DUP9 DUP9 DUP5 DUP2 DUP2 LT PUSH2 0x2059 JUMPI PUSH2 0x2058 PUSH2 0x555E JUMP JUMPDEST JUMPDEST SWAP1 POP PUSH1 0x20 MUL DUP2 ADD SWAP1 PUSH2 0x206B SWAP2 SWAP1 PUSH2 0x5982 JUMP JUMPDEST DUP1 PUSH1 0x80 ADD SWAP1 PUSH2 0x207A SWAP2 SWAP1 PUSH2 0x59AA JUMP JUMPDEST SWAP1 POP DUP2 LT ISZERO PUSH2 0x22E1 JUMPI PUSH1 0x0 DUP10 DUP10 DUP6 DUP2 DUP2 LT PUSH2 0x2098 JUMPI PUSH2 0x2097 PUSH2 0x555E JUMP JUMPDEST JUMPDEST SWAP1 POP PUSH1 0x20 MUL DUP2 ADD SWAP1 PUSH2 0x20AA SWAP2 SWAP1 PUSH2 0x5982 JUMP JUMPDEST DUP1 PUSH1 0x80 ADD SWAP1 PUSH2 0x20B9 SWAP2 SWAP1 PUSH2 0x59AA JUMP JUMPDEST DUP4 DUP2 DUP2 LT PUSH2 0x20CA JUMPI PUSH2 0x20C9 PUSH2 0x555E JUMP JUMPDEST JUMPDEST SWAP1 POP PUSH1 0x20 MUL ADD PUSH1 0x20 DUP2 ADD SWAP1 PUSH2 0x20DF SWAP2 SWAP1 PUSH2 0x4AA3 JUMP JUMPDEST SWAP1 POP DUP5 PUSH1 0x7 ADD PUSH1 0x0 DUP3 PUSH20 0xFFFFFFFFFFFFFFFFFFFFFFFFFFFFFFFFFFFFFFFF AND PUSH20 0xFFFFFFFFFFFFFFFFFFFFFFFFFFFFFFFFFFFFFFFF AND DUP2 MSTORE PUSH1 0x20 ADD SWAP1 DUP2 MSTORE PUSH1 0x20 ADD PUSH1 0x0 KECCAK256 PUSH1 0x0 SWAP1 SLOAD SWAP1 PUSH2 0x100 EXP SWAP1 DIV PUSH1 0xFF AND PUSH2 0x213F JUMPI PUSH2 0x213E DUP2 DUP8 PUSH2 0x4161 JUMP JUMPDEST JUMPDEST PUSH2 0x21D0 DUP6 DUP3 DUP13 DUP13 DUP9 DUP2 DUP2 LT PUSH2 0x2157 JUMPI PUSH2 0x2156 PUSH2 0x555E JUMP JUMPDEST JUMPDEST SWAP1 POP PUSH1 0x20 MUL DUP2 ADD SWAP1 PUSH2 0x2169 SWAP2 SWAP1 PUSH2 0x5982 JUMP JUMPDEST PUSH1 0x0 ADD PUSH1 0x20 DUP2 ADD SWAP1 PUSH2 0x217B SWAP2 SWAP1 PUSH2 0x4AA3 JUMP JUMPDEST PUSH1 0x1 PUSH1 0x0 DUP16 DUP16 DUP12 DUP2 DUP2 LT PUSH2 0x2192 JUMPI PUSH2 0x2191 PUSH2 0x555E JUMP JUMPDEST JUMPDEST SWAP1 POP PUSH1 0x20 MUL DUP2 ADD SWAP1 PUSH2 0x21A4 SWAP2 SWAP1 PUSH2 0x5982 JUMP JUMPDEST DUP1 PUSH1 0x60 ADD SWAP1 PUSH2 0x21B3 SWAP2 SWAP1 PUSH2 0x5ABF JUMP JUMPDEST DUP10 DUP2 DUP2 LT PUSH2 0x21C4 JUMPI PUSH2 0x21C3 PUSH2 0x555E JUMP JUMPDEST JUMPDEST SWAP1 POP PUSH1 0x20 MUL ADD CALLDATALOAD PUSH2 0x44AB JUMP JUMPDEST DUP1 PUSH20 0xFFFFFFFFFFFFFFFFFFFFFFFFFFFFFFFFFFFFFFFF AND DUP11 DUP11 DUP7 DUP2 DUP2 LT PUSH2 0x21FA JUMPI PUSH2 0x21F9 PUSH2 0x555E JUMP JUMPDEST JUMPDEST SWAP1 POP PUSH1 0x20 MUL DUP2 ADD SWAP1 PUSH2 0x220C SWAP2 SWAP1 PUSH2 0x5982 JUMP JUMPDEST PUSH1 0x0 ADD PUSH1 0x20 DUP2 ADD SWAP1 PUSH2 0x221E SWAP2 SWAP1 PUSH2 0x4AA3 JUMP JUMPDEST PUSH20 0xFFFFFFFFFFFFFFFFFFFFFFFFFFFFFFFFFFFFFFFF AND CALLER PUSH20 0xFFFFFFFFFFFFFFFFFFFFFFFFFFFFFFFFFFFFFFFF AND PUSH32 0xB44510937E7A7A5DD39439C63DF574818DB53DAC575444D730F4CC88DDA6D1C8 PUSH1 0x1 PUSH1 0x0 DUP16 DUP16 DUP12 DUP2 DUP2 LT PUSH2 0x2283 JUMPI PUSH2 0x2282 PUSH2 0x555E JUMP JUMPDEST JUMPDEST SWAP1 POP PUSH1 0x20 MUL DUP2 ADD SWAP1 PUSH2 0x2295 SWAP2 SWAP1 PUSH2 0x5982 JUMP JUMPDEST DUP1 PUSH1 0x60 ADD SWAP1 PUSH2 0x22A4 SWAP2 SWAP1 PUSH2 0x5ABF JUMP JUMPDEST DUP10 DUP2 DUP2 LT PUSH2 0x22B5 JUMPI PUSH2 0x22B4 PUSH2 0x555E JUMP JUMPDEST JUMPDEST SWAP1 POP PUSH1 0x20 MUL ADD CALLDATALOAD PUSH1 0x40 MLOAD PUSH2 0x22CB SWAP4 SWAP3 SWAP2 SWAP1 PUSH2 0x5BE5 JUMP JUMPDEST PUSH1 0x40 MLOAD DUP1 SWAP2 SUB SWAP1 LOG4 POP DUP1 DUP1 PUSH1 0x1 ADD SWAP2 POP POP PUSH2 0x2046 JUMP JUMPDEST POP POP DUP1 DUP1 PUSH1 0x1 ADD SWAP2 POP POP PUSH2 0x1E1D JUMP JUMPDEST POP CALLER PUSH20 0xFFFFFFFFFFFFFFFFFFFFFFFFFFFFFFFFFFFFFFFF AND PUSH32 0xDFE6DD715D896CA6C4A17441D3E7A45CB92EC36B4F4A8CDF60A7498EC1341B4F DUP9 DUP4 PUSH1 0x8 ADD PUSH1 0x40 MLOAD PUSH2 0x233C SWAP3 SWAP2 SWAP1 PUSH2 0x5D08 JUMP JUMPDEST PUSH1 0x40 MLOAD DUP1 SWAP2 SUB SWAP1 LOG2 CALLER PUSH20 0xFFFFFFFFFFFFFFFFFFFFFFFFFFFFFFFFFFFFFFFF AND PUSH32 0xB84522DA2D2039E8F4A7A0993EEA2CF0DD5C31C0D7265951C4C4E7985DCDA7BE DUP6 DUP6 PUSH1 0x40 MLOAD PUSH2 0x238C SWAP3 SWAP2 SWAP1 PUSH2 0x5698 JUMP JUMPDEST PUSH1 0x40 MLOAD DUP1 SWAP2 SUB SWAP1 LOG2 POP POP PUSH2 0x239E PUSH2 0x4622 JUMP JUMPDEST POP POP POP POP POP JUMP JUMPDEST PUSH1 0x60 PUSH1 0x5 PUSH1 0x0 DUP4 PUSH20 0xFFFFFFFFFFFFFFFFFFFFFFFFFFFFFFFFFFFFFFFF AND PUSH20 0xFFFFFFFFFFFFFFFFFFFFFFFFFFFFFFFFFFFFFFFF AND DUP2 MSTORE PUSH1 0x20 ADD SWAP1 DUP2 MSTORE PUSH1 0x20 ADD PUSH1 0x0 KECCAK256 DUP1 SLOAD DUP1 PUSH1 0x20 MUL PUSH1 0x20 ADD PUSH1 0x40 MLOAD SWAP1 DUP2 ADD PUSH1 0x40 MSTORE DUP1 SWAP3 SWAP2 SWAP1 DUP2 DUP2 MSTORE PUSH1 0x20 ADD DUP3 DUP1 SLOAD DUP1 ISZERO PUSH2 0x2466 JUMPI PUSH1 0x20 MUL DUP3 ADD SWAP2 SWAP1 PUSH1 0x0 MSTORE PUSH1 0x20 PUSH1 0x0 KECCAK256 SWAP1 JUMPDEST DUP2 PUSH1 0x0 SWAP1 SLOAD SWAP1 PUSH2 0x100 EXP SWAP1 DIV PUSH20 0xFFFFFFFFFFFFFFFFFFFFFFFFFFFFFFFFFFFFFFFF AND PUSH20 0xFFFFFFFFFFFFFFFFFFFFFFFFFFFFFFFFFFFFFFFF AND DUP2 MSTORE PUSH1 0x20 ADD SWAP1 PUSH1 0x1 ADD SWAP1 DUP1 DUP4 GT PUSH2 0x241C JUMPI JUMPDEST POP POP POP POP POP SWAP1 POP SWAP2 SWAP1 POP JUMP JUMPDEST PUSH2 0x247A PUSH2 0x4094 JUMP JUMPDEST PUSH2 0x2484 PUSH1 0x0 PUSH2 0x462B JUMP JUMPDEST JUMP JUMPDEST PUSH1 0x60 PUSH1 0x0 PUSH1 0x7 PUSH1 0x0 DUP5 PUSH20 0xFFFFFFFFFFFFFFFFFFFFFFFFFFFFFFFFFFFFFFFF AND PUSH20 0xFFFFFFFFFFFFFFFFFFFFFFFFFFFFFFFFFFFFFFFF AND DUP2 MSTORE PUSH1 0x20 ADD SWAP1 DUP2 MSTORE PUSH1 0x20 ADD PUSH1 0x0 KECCAK256 DUP1 SLOAD DUP1 PUSH1 0x20 MUL PUSH1 0x20 ADD PUSH1 0x40 MLOAD SWAP1 DUP2 ADD PUSH1 0x40 MSTORE DUP1 SWAP3 SWAP2 SWAP1 DUP2 DUP2 MSTORE PUSH1 0x20 ADD DUP3 DUP1 SLOAD DUP1 ISZERO PUSH2 0x2513 JUMPI PUSH1 0x20 MUL DUP3 ADD SWAP2 SWAP1 PUSH1 0x0 MSTORE PUSH1 0x20 PUSH1 0x0 KECCAK256 SWAP1 JUMPDEST DUP2 SLOAD DUP2 MSTORE PUSH1 0x20 ADD SWAP1 PUSH1 0x1 ADD SWAP1 DUP1 DUP4 GT PUSH2 0x24FF JUMPI JUMPDEST POP POP POP POP POP SWAP1 POP PUSH1 0x0 DUP2 MLOAD PUSH8 0xFFFFFFFFFFFFFFFF DUP2 GT ISZERO PUSH2 0x2537 JUMPI PUSH2 0x2536 PUSH2 0x50F0 JUMP JUMPDEST JUMPDEST PUSH1 0x40 MLOAD SWAP1 DUP1 DUP3 MSTORE DUP1 PUSH1 0x20 MUL PUSH1 0x20 ADD DUP3 ADD PUSH1 0x40 MSTORE DUP1 ISZERO PUSH2 0x2570 JUMPI DUP2 PUSH1 0x20 ADD JUMPDEST PUSH2 0x255D PUSH2 0x4774 JUMP JUMPDEST DUP2 MSTORE PUSH1 0x20 ADD SWAP1 PUSH1 0x1 SWAP1 SUB SWAP1 DUP2 PUSH2 0x2555 JUMPI SWAP1 POP JUMPDEST POP SWAP1 POP PUSH1 0x0 JUMPDEST DUP3 MLOAD DUP2 LT ISZERO PUSH2 0x2986 JUMPI PUSH1 0x0 PUSH1 0x6 PUSH1 0x0 DUP6 DUP5 DUP2 MLOAD DUP2 LT PUSH2 0x2598 JUMPI PUSH2 0x2597 PUSH2 0x555E JUMP JUMPDEST JUMPDEST PUSH1 0x20 MUL PUSH1 0x20 ADD ADD MLOAD DUP2 MSTORE PUSH1 0x20 ADD SWAP1 DUP2 MSTORE PUSH1 0x20 ADD PUSH1 0x0 KECCAK256 SWAP1 POP PUSH1 0x0 DUP2 PUSH1 0x6 ADD SLOAD SWAP1 POP PUSH1 0x0 JUMPDEST DUP3 PUSH1 0x8 ADD DUP1 SLOAD SWAP1 POP DUP2 LT ISZERO PUSH2 0x2711 JUMPI PUSH1 0x0 DUP4 PUSH1 0x8 ADD DUP3 DUP2 SLOAD DUP2 LT PUSH2 0x25E3 JUMPI PUSH2 0x25E2 PUSH2 0x555E JUMP JUMPDEST JUMPDEST SWAP1 PUSH1 0x0 MSTORE PUSH1 0x20 PUSH1 0x0 KECCAK256 ADD PUSH1 0x0 SWAP1 SLOAD SWAP1 PUSH2 0x100 EXP SWAP1 DIV PUSH20 0xFFFFFFFFFFFFFFFFFFFFFFFFFFFFFFFFFFFFFFFF AND SWAP1 POP PUSH1 0x0 DUP5 PUSH1 0x9 ADD PUSH1 0x0 DUP4 PUSH20 0xFFFFFFFFFFFFFFFFFFFFFFFFFFFFFFFFFFFFFFFF AND PUSH20 0xFFFFFFFFFFFFFFFFFFFFFFFFFFFFFFFFFFFFFFFF AND DUP2 MSTORE PUSH1 0x20 ADD SWAP1 DUP2 MSTORE PUSH1 0x20 ADD PUSH1 0x0 KECCAK256 SWAP1 POP PUSH1 0x0 JUMPDEST DUP2 DUP1 SLOAD SWAP1 POP DUP2 LT ISZERO PUSH2 0x2701 JUMPI PUSH1 0x1 PUSH1 0x2 DUP2 GT ISZERO PUSH2 0x2678 JUMPI PUSH2 0x2677 PUSH2 0x48F5 JUMP JUMPDEST JUMPDEST DUP3 DUP3 DUP2 SLOAD DUP2 LT PUSH2 0x268B JUMPI PUSH2 0x268A PUSH2 0x555E JUMP JUMPDEST JUMPDEST SWAP1 PUSH1 0x0 MSTORE PUSH1 0x20 PUSH1 0x0 KECCAK256 SWAP1 PUSH1 0x4 MUL ADD PUSH1 0x0 ADD PUSH1 0x14 SWAP1 SLOAD SWAP1 PUSH2 0x100 EXP SWAP1 DIV PUSH1 0xFF AND PUSH1 0x2 DUP2 GT ISZERO PUSH2 0x26BC JUMPI PUSH2 0x26BB PUSH2 0x48F5 JUMP JUMPDEST JUMPDEST SUB PUSH2 0x26F4 JUMPI DUP2 DUP2 DUP2 SLOAD DUP2 LT PUSH2 0x26D4 JUMPI PUSH2 0x26D3 PUSH2 0x555E JUMP JUMPDEST JUMPDEST SWAP1 PUSH1 0x0 MSTORE PUSH1 0x20 PUSH1 0x0 KECCAK256 SWAP1 PUSH1 0x4 MUL ADD PUSH1 0x2 ADD SLOAD DUP6 PUSH2 0x26F1 SWAP2 SWAP1 PUSH2 0x55BC JUMP JUMPDEST SWAP5 POP JUMPDEST DUP1 DUP1 PUSH1 0x1 ADD SWAP2 POP POP PUSH2 0x2658 JUMP JUMPDEST POP POP POP DUP1 DUP1 PUSH1 0x1 ADD SWAP2 POP POP PUSH2 0x25BC JUMP JUMPDEST POP PUSH1 0x0 DUP1 PUSH1 0x2 DUP1 DUP2 GT ISZERO PUSH2 0x2728 JUMPI PUSH2 0x2727 PUSH2 0x48F5 JUMP JUMPDEST JUMPDEST SWAP1 POP PUSH1 0x0 DUP5 PUSH1 0x8 ADD DUP1 SLOAD SWAP1 POP GT ISZERO PUSH2 0x2865 JUMPI PUSH1 0x0 DUP5 PUSH1 0x8 ADD PUSH1 0x0 DUP2 SLOAD DUP2 LT PUSH2 0x2753 JUMPI PUSH2 0x2752 PUSH2 0x555E JUMP JUMPDEST JUMPDEST SWAP1 PUSH1 0x0 MSTORE PUSH1 0x20 PUSH1 0x0 KECCAK256 ADD PUSH1 0x0 SWAP1 SLOAD SWAP1 PUSH2 0x100 EXP SWAP1 DIV PUSH20 0xFFFFFFFFFFFFFFFFFFFFFFFFFFFFFFFFFFFFFFFF AND SWAP1 POP PUSH1 0x0 DUP6 PUSH1 0x9 ADD PUSH1 0x0 DUP4 PUSH20 0xFFFFFFFFFFFFFFFFFFFFFFFFFFFFFFFFFFFFFFFF AND PUSH20 0xFFFFFFFFFFFFFFFFFFFFFFFFFFFFFFFFFFFFFFFF AND DUP2 MSTORE PUSH1 0x20 ADD SWAP1 DUP2 MSTORE PUSH1 0x20 ADD PUSH1 0x0 KECCAK256 SWAP1 POP PUSH1 0x0 DUP2 DUP1 SLOAD SWAP1 POP GT ISZERO PUSH2 0x2862 JUMPI DUP1 PUSH1 0x0 DUP2 SLOAD DUP2 LT PUSH2 0x27E6 JUMPI PUSH2 0x27E5 PUSH2 0x555E JUMP JUMPDEST JUMPDEST SWAP1 PUSH1 0x0 MSTORE PUSH1 0x20 PUSH1 0x0 KECCAK256 SWAP1 PUSH1 0x4 MUL ADD PUSH1 0x0 ADD PUSH1 0x0 SWAP1 SLOAD SWAP1 PUSH2 0x100 EXP SWAP1 DIV PUSH20 0xFFFFFFFFFFFFFFFFFFFFFFFFFFFFFFFFFFFFFFFF AND SWAP4 POP DUP1 PUSH1 0x0 DUP2 SLOAD DUP2 LT PUSH2 0x282E JUMPI PUSH2 0x282D PUSH2 0x555E JUMP JUMPDEST JUMPDEST SWAP1 PUSH1 0x0 MSTORE PUSH1 0x20 PUSH1 0x0 KECCAK256 SWAP1 PUSH1 0x4 MUL ADD PUSH1 0x0 ADD PUSH1 0x14 SWAP1 SLOAD SWAP1 PUSH2 0x100 EXP SWAP1 DIV PUSH1 0xFF AND PUSH1 0x2 DUP2 GT ISZERO PUSH2 0x285F JUMPI PUSH2 0x285E PUSH2 0x48F5 JUMP JUMPDEST JUMPDEST SWAP3 POP JUMPDEST POP POP JUMPDEST PUSH1 0x40 MLOAD DUP1 PUSH2 0x100 ADD PUSH1 0x40 MSTORE DUP1 DUP6 PUSH1 0x0 ADD SLOAD DUP2 MSTORE PUSH1 0x20 ADD DUP6 PUSH1 0x2 ADD DUP1 SLOAD PUSH2 0x288A SWAP1 PUSH2 0x561F JUMP JUMPDEST DUP1 PUSH1 0x1F ADD PUSH1 0x20 DUP1 SWAP2 DIV MUL PUSH1 0x20 ADD PUSH1 0x40 MLOAD SWAP1 DUP2 ADD PUSH1 0x40 MSTORE DUP1 SWAP3 SWAP2 SWAP1 DUP2 DUP2 MSTORE PUSH1 0x20 ADD DUP3 DUP1 SLOAD PUSH2 0x28B6 SWAP1 PUSH2 0x561F JUMP JUMPDEST DUP1 ISZERO PUSH2 0x2903 JUMPI DUP1 PUSH1 0x1F LT PUSH2 0x28D8 JUMPI PUSH2 0x100 DUP1 DUP4 SLOAD DIV MUL DUP4 MSTORE SWAP2 PUSH1 0x20 ADD SWAP2 PUSH2 0x2903 JUMP JUMPDEST DUP3 ADD SWAP2 SWAP1 PUSH1 0x0 MSTORE PUSH1 0x20 PUSH1 0x0 KECCAK256 SWAP1 JUMPDEST DUP2 SLOAD DUP2 MSTORE SWAP1 PUSH1 0x1 ADD SWAP1 PUSH1 0x20 ADD DUP1 DUP4 GT PUSH2 0x28E6 JUMPI DUP3 SWAP1 SUB PUSH1 0x1F AND DUP3 ADD SWAP2 JUMPDEST POP POP POP POP POP DUP2 MSTORE PUSH1 0x20 ADD DUP4 PUSH20 0xFFFFFFFFFFFFFFFFFFFFFFFFFFFFFFFFFFFFFFFF AND DUP2 MSTORE PUSH1 0x20 ADD DUP3 PUSH1 0xFF AND DUP2 MSTORE PUSH1 0x20 ADD DUP5 DUP2 MSTORE PUSH1 0x20 ADD DUP6 PUSH1 0x8 ADD DUP1 SLOAD SWAP1 POP DUP2 MSTORE PUSH1 0x20 ADD DUP6 PUSH1 0xB ADD SLOAD DUP2 MSTORE PUSH1 0x20 ADD DUP6 PUSH1 0xA ADD SLOAD DUP2 MSTORE POP DUP7 DUP7 DUP2 MLOAD DUP2 LT PUSH2 0x296A JUMPI PUSH2 0x2969 PUSH2 0x555E JUMP JUMPDEST JUMPDEST PUSH1 0x20 MUL PUSH1 0x20 ADD ADD DUP2 SWAP1 MSTORE POP POP POP POP POP DUP1 DUP1 PUSH1 0x1 ADD SWAP2 POP POP PUSH2 0x2576 JUMP JUMPDEST POP DUP1 SWAP3 POP POP POP SWAP2 SWAP1 POP JUMP JUMPDEST PUSH1 0x5 PUSH1 0x20 MSTORE DUP2 PUSH1 0x0 MSTORE PUSH1 0x40 PUSH1 0x0 KECCAK256 DUP2 DUP2 SLOAD DUP2 LT PUSH2 0x29AD JUMPI PUSH1 0x0 DUP1 REVERT JUMPDEST SWAP1 PUSH1 0x0 MSTORE PUSH1 0x20 PUSH1 0x0 KECCAK256 ADD PUSH1 0x0 SWAP2 POP SWAP2 POP SWAP1 SLOAD SWAP1 PUSH2 0x100 EXP SWAP1 DIV PUSH20 0xFFFFFFFFFFFFFFFFFFFFFFFFFFFFFFFFFFFFFFFF AND DUP2 JUMP JUMPDEST PUSH1 0x0 DUP1 PUSH1 0x0 SWAP1 SLOAD SWAP1 PUSH2 0x100 EXP SWAP1 DIV PUSH20 0xFFFFFFFFFFFFFFFFFFFFFFFFFFFFFFFFFFFFFFFF AND SWAP1 POP SWAP1 JUMP JUMPDEST PUSH2 0x2A10 PUSH2 0x411B JUMP JUMPDEST PUSH1 0x0 DUP2 SUB PUSH2 0x2A4A JUMPI PUSH1 0x40 MLOAD PUSH32 0x97643B5200000000000000000000000000000000000000000000000000000000 DUP2 MSTORE PUSH1 0x4 ADD PUSH1 0x40 MLOAD DUP1 SWAP2 SUB SWAP1 REVERT JUMPDEST PUSH1 0x0 PUSH1 0x6 PUSH1 0x0 DUP4 DUP2 MSTORE PUSH1 0x20 ADD SWAP1 DUP2 MSTORE PUSH1 0x20 ADD PUSH1 0x0 KECCAK256 SWAP1 POP DUP1 PUSH1 0x4 ADD PUSH1 0x0 SWAP1 SLOAD SWAP1 PUSH2 0x100 EXP SWAP1 DIV PUSH1 0xFF AND PUSH2 0x2AA9 JUMPI PUSH1 0x40 MLOAD PUSH32 0x3114099800000000000000000000000000000000000000000000000000000000 DUP2 MSTORE PUSH1 0x4 ADD PUSH1 0x40 MLOAD DUP1 SWAP2 SUB SWAP1 REVERT JUMPDEST DUP1 PUSH1 0x7 ADD PUSH1 0x0 CALLER PUSH20 0xFFFFFFFFFFFFFFFFFFFFFFFFFFFFFFFFFFFFFFFF AND PUSH20 0xFFFFFFFFFFFFFFFFFFFFFFFFFFFFFFFFFFFFFFFF AND DUP2 MSTORE PUSH1 0x20 ADD SWAP1 DUP2 MSTORE PUSH1 0x20 ADD PUSH1 0x0 KECCAK256 PUSH1 0x0 SWAP1 SLOAD SWAP1 PUSH2 0x100 EXP SWAP1 DIV PUSH1 0xFF AND PUSH2 0x2B2E JUMPI PUSH1 0x40 MLOAD PUSH32 0x43290F5B00000000000000000000000000000000000000000000000000000000 DUP2 MSTORE PUSH1 0x4 ADD PUSH1 0x40 MLOAD DUP1 SWAP2 SUB SWAP1 REVERT JUMPDEST DUP1 PUSH1 0xC ADD PUSH1 0x0 SWAP1 SLOAD SWAP1 PUSH2 0x100 EXP SWAP1 DIV PUSH1 0xFF AND PUSH2 0x2B76 JUMPI PUSH1 0x40 MLOAD PUSH32 0x83D2F9700000000000000000000000000000000000000000000000000000000 DUP2 MSTORE PUSH1 0x4 ADD PUSH1 0x40 MLOAD DUP1 SWAP2 SUB SWAP1 REVERT JUMPDEST PUSH2 0x2B7F DUP3 PUSH2 0x133A JUMP JUMPDEST PUSH2 0x2BB5 JUMPI PUSH1 0x40 MLOAD PUSH32 0x2850E4FB00000000000000000000000000000000000000000000000000000000 DUP2 MSTORE PUSH1 0x4 ADD PUSH1 0x40 MLOAD DUP1 SWAP2 SUB SWAP1 REVERT JUMPDEST DUP1 PUSH1 0xE ADD PUSH1 0x0 CALLER PUSH20 0xFFFFFFFFFFFFFFFFFFFFFFFFFFFFFFFFFFFFFFFF AND PUSH20 0xFFFFFFFFFFFFFFFFFFFFFFFFFFFFFFFFFFFFFFFF AND DUP2 MSTORE PUSH1 0x20 ADD SWAP1 DUP2 MSTORE PUSH1 0x20 ADD PUSH1 0x0 KECCAK256 PUSH1 0x0 SWAP1 SLOAD SWAP1 PUSH2 0x100 EXP SWAP1 DIV PUSH1 0xFF AND ISZERO PUSH2 0x2C3B JUMPI PUSH1 0x40 MLOAD PUSH32 0x646CF55800000000000000000000000000000000000000000000000000000000 DUP2 MSTORE PUSH1 0x4 ADD PUSH1 0x40 MLOAD DUP1 SWAP2 SUB SWAP1 REVERT JUMPDEST PUSH1 0x1 DUP2 PUSH1 0xE ADD PUSH1 0x0 CALLER PUSH20 0xFFFFFFFFFFFFFFFFFFFFFFFFFFFFFFFFFFFFFFFF AND PUSH20 0xFFFFFFFFFFFFFFFFFFFFFFFFFFFFFFFFFFFFFFFF AND DUP2 MSTORE PUSH1 0x20 ADD SWAP1 DUP2 MSTORE PUSH1 0x20 ADD PUSH1 0x0 KECCAK256 PUSH1 0x0 PUSH2 0x100 EXP DUP2 SLOAD DUP2 PUSH1 0xFF MUL NOT AND SWAP1 DUP4 ISZERO ISZERO MUL OR SWAP1 SSTORE POP PUSH1 0x0 DUP2 PUSH1 0x9 ADD PUSH1 0x0 CALLER PUSH20 0xFFFFFFFFFFFFFFFFFFFFFFFFFFFFFFFFFFFFFFFF AND PUSH20 0xFFFFFFFFFFFFFFFFFFFFFFFFFFFFFFFFFFFFFFFF AND DUP2 MSTORE PUSH1 0x20 ADD SWAP1 DUP2 MSTORE PUSH1 0x20 ADD PUSH1 0x0 KECCAK256 SWAP1 POP PUSH1 0x0 JUMPDEST DUP2 DUP1 SLOAD SWAP1 POP DUP2 LT ISZERO PUSH2 0x30CD JUMPI DUP2 DUP2 DUP2 SLOAD DUP2 LT PUSH2 0x2CFC JUMPI PUSH2 0x2CFB PUSH2 0x555E JUMP JUMPDEST JUMPDEST SWAP1 PUSH1 0x0 MSTORE PUSH1 0x20 PUSH1 0x0 KECCAK256 SWAP1 PUSH1 0x4 MUL ADD PUSH1 0x3 ADD PUSH1 0x0 SWAP1 SLOAD SWAP1 PUSH2 0x100 EXP SWAP1 DIV PUSH1 0xFF AND PUSH2 0x30C0 JUMPI PUSH1 0x0 PUSH1 0x2 DUP2 GT ISZERO PUSH2 0x2D33 JUMPI PUSH2 0x2D32 PUSH2 0x48F5 JUMP JUMPDEST JUMPDEST DUP3 DUP3 DUP2 SLOAD DUP2 LT PUSH2 0x2D46 JUMPI PUSH2 0x2D45 PUSH2 0x555E JUMP JUMPDEST JUMPDEST SWAP1 PUSH1 0x0 MSTORE PUSH1 0x20 PUSH1 0x0 KECCAK256 SWAP1 PUSH1 0x4 MUL ADD PUSH1 0x0 ADD PUSH1 0x14 SWAP1 SLOAD SWAP1 PUSH2 0x100 EXP SWAP1 DIV PUSH1 0xFF AND PUSH1 0x2 DUP2 GT ISZERO PUSH2 0x2D77 JUMPI PUSH2 0x2D76 PUSH2 0x48F5 JUMP JUMPDEST JUMPDEST SUB PUSH2 0x2E49 JUMPI PUSH1 0x0 CALLER PUSH20 0xFFFFFFFFFFFFFFFFFFFFFFFFFFFFFFFFFFFFFFFF AND DUP4 DUP4 DUP2 SLOAD DUP2 LT PUSH2 0x2DA8 JUMPI PUSH2 0x2DA7 PUSH2 0x555E JUMP JUMPDEST JUMPDEST SWAP1 PUSH1 0x0 MSTORE PUSH1 0x20 PUSH1 0x0 KECCAK256 SWAP1 PUSH1 0x4 MUL ADD PUSH1 0x2 ADD SLOAD PUSH1 0x40 MLOAD PUSH2 0x2DC6 SWAP1 PUSH2 0x5D70 JUMP JUMPDEST PUSH1 0x0 PUSH1 0x40 MLOAD DUP1 DUP4 SUB DUP2 DUP6 DUP8 GAS CALL SWAP3 POP POP POP RETURNDATASIZE DUP1 PUSH1 0x0 DUP2 EQ PUSH2 0x2E03 JUMPI PUSH1 0x40 MLOAD SWAP2 POP PUSH1 0x1F NOT PUSH1 0x3F RETURNDATASIZE ADD AND DUP3 ADD PUSH1 0x40 MSTORE RETURNDATASIZE DUP3 MSTORE RETURNDATASIZE PUSH1 0x0 PUSH1 0x20 DUP5 ADD RETURNDATACOPY PUSH2 0x2E08 JUMP JUMPDEST PUSH1 0x60 SWAP2 POP JUMPDEST POP POP SWAP1 POP DUP1 PUSH2 0x2E43 JUMPI PUSH1 0x40 MLOAD PUSH32 0x6747A28800000000000000000000000000000000000000000000000000000000 DUP2 MSTORE PUSH1 0x4 ADD PUSH1 0x40 MLOAD DUP1 SWAP2 SUB SWAP1 REVERT JUMPDEST POP PUSH2 0x2F8F JUMP JUMPDEST PUSH1 0x1 PUSH1 0x2 DUP2 GT ISZERO PUSH2 0x2E5D JUMPI PUSH2 0x2E5C PUSH2 0x48F5 JUMP JUMPDEST JUMPDEST DUP3 DUP3 DUP2 SLOAD DUP2 LT PUSH2 0x2E70 JUMPI PUSH2 0x2E6F PUSH2 0x555E JUMP JUMPDEST JUMPDEST SWAP1 PUSH1 0x0 MSTORE PUSH1 0x20 PUSH1 0x0 KECCAK256 SWAP1 PUSH1 0x4 MUL ADD PUSH1 0x0 ADD PUSH1 0x14 SWAP1 SLOAD SWAP1 PUSH2 0x100 EXP SWAP1 DIV PUSH1 0xFF AND PUSH1 0x2 DUP2 GT ISZERO PUSH2 0x2EA1 JUMPI PUSH2 0x2EA0 PUSH2 0x48F5 JUMP JUMPDEST JUMPDEST SUB PUSH2 0x2F8E JUMPI DUP2 DUP2 DUP2 SLOAD DUP2 LT PUSH2 0x2EB9 JUMPI PUSH2 0x2EB8 PUSH2 0x555E JUMP JUMPDEST JUMPDEST SWAP1 PUSH1 0x0 MSTORE PUSH1 0x20 PUSH1 0x0 KECCAK256 SWAP1 PUSH1 0x4 MUL ADD PUSH1 0x0 ADD PUSH1 0x0 SWAP1 SLOAD SWAP1 PUSH2 0x100 EXP SWAP1 DIV PUSH20 0xFFFFFFFFFFFFFFFFFFFFFFFFFFFFFFFFFFFFFFFF AND PUSH20 0xFFFFFFFFFFFFFFFFFFFFFFFFFFFFFFFFFFFFFFFF AND PUSH4 0xA9059CBB CALLER DUP5 DUP5 DUP2 SLOAD DUP2 LT PUSH2 0x2F1A JUMPI PUSH2 0x2F19 PUSH2 0x555E JUMP JUMPDEST JUMPDEST SWAP1 PUSH1 0x0 MSTORE PUSH1 0x20 PUSH1 0x0 KECCAK256 SWAP1 PUSH1 0x4 MUL ADD PUSH1 0x2 ADD SLOAD PUSH1 0x40 MLOAD DUP4 PUSH4 0xFFFFFFFF AND PUSH1 0xE0 SHL DUP2 MSTORE PUSH1 0x4 ADD PUSH2 0x2F49 SWAP3 SWAP2 SWAP1 PUSH2 0x5D85 JUMP JUMPDEST PUSH1 0x20 PUSH1 0x40 MLOAD DUP1 DUP4 SUB DUP2 PUSH1 0x0 DUP8 GAS CALL ISZERO DUP1 ISZERO PUSH2 0x2F68 JUMPI RETURNDATASIZE PUSH1 0x0 DUP1 RETURNDATACOPY RETURNDATASIZE PUSH1 0x0 REVERT JUMPDEST POP POP POP POP PUSH1 0x40 MLOAD RETURNDATASIZE PUSH1 0x1F NOT PUSH1 0x1F DUP3 ADD AND DUP3 ADD DUP1 PUSH1 0x40 MSTORE POP DUP2 ADD SWAP1 PUSH2 0x2F8C SWAP2 SWAP1 PUSH2 0x5B6E JUMP JUMPDEST POP JUMPDEST JUMPDEST PUSH1 0x1 DUP3 DUP3 DUP2 SLOAD DUP2 LT PUSH2 0x2FA4 JUMPI PUSH2 0x2FA3 PUSH2 0x555E JUMP JUMPDEST JUMPDEST SWAP1 PUSH1 0x0 MSTORE PUSH1 0x20 PUSH1 0x0 KECCAK256 SWAP1 PUSH1 0x4 MUL ADD PUSH1 0x3 ADD PUSH1 0x0 PUSH2 0x100 EXP DUP2 SLOAD DUP2 PUSH1 0xFF MUL NOT AND SWAP1 DUP4 ISZERO ISZERO MUL OR SWAP1 SSTORE POP DUP2 DUP2 DUP2 SLOAD DUP2 LT PUSH2 0x2FDF JUMPI PUSH2 0x2FDE PUSH2 0x555E JUMP JUMPDEST JUMPDEST SWAP1 PUSH1 0x0 MSTORE PUSH1 0x20 PUSH1 0x0 KECCAK256 SWAP1 PUSH1 0x4 MUL ADD PUSH1 0x0 ADD PUSH1 0x0 SWAP1 SLOAD SWAP1 PUSH2 0x100 EXP SWAP1 DIV PUSH20 0xFFFFFFFFFFFFFFFFFFFFFFFFFFFFFFFFFFFFFFFF AND PUSH20 0xFFFFFFFFFFFFFFFFFFFFFFFFFFFFFFFFFFFFFFFF AND CALLER PUSH20 0xFFFFFFFFFFFFFFFFFFFFFFFFFFFFFFFFFFFFFFFF AND PUSH32 0x2AF1BA4C94053430820E17E81238044BAF8BAB1D5D1975376CA5BAD693068BEF DUP5 DUP5 DUP2 SLOAD DUP2 LT PUSH2 0x3072 JUMPI PUSH2 0x3071 PUSH2 0x555E JUMP JUMPDEST JUMPDEST SWAP1 PUSH1 0x0 MSTORE PUSH1 0x20 PUSH1 0x0 KECCAK256 SWAP1 PUSH1 0x4 MUL ADD PUSH1 0x1 ADD SLOAD DUP6 DUP6 DUP2 SLOAD DUP2 LT PUSH2 0x3097 JUMPI PUSH2 0x3096 PUSH2 0x555E JUMP JUMPDEST JUMPDEST SWAP1 PUSH1 0x0 MSTORE PUSH1 0x20 PUSH1 0x0 KECCAK256 SWAP1 PUSH1 0x4 MUL ADD PUSH1 0x2 ADD SLOAD PUSH1 0x40 MLOAD PUSH2 0x30B7 SWAP3 SWAP2 SWAP1 PUSH2 0x5698 JUMP JUMPDEST PUSH1 0x40 MLOAD DUP1 SWAP2 SUB SWAP1 LOG3 JUMPDEST DUP1 DUP1 PUSH1 0x1 ADD SWAP2 POP POP PUSH2 0x2CDD JUMP JUMPDEST POP DUP2 PUSH1 0x1 ADD PUSH1 0x0 SWAP1 SLOAD SWAP1 PUSH2 0x100 EXP SWAP1 DIV PUSH20 0xFFFFFFFFFFFFFFFFFFFFFFFFFFFFFFFFFFFFFFFF AND PUSH20 0xFFFFFFFFFFFFFFFFFFFFFFFFFFFFFFFFFFFFFFFF AND CALLER PUSH20 0xFFFFFFFFFFFFFFFFFFFFFFFFFFFFFFFFFFFFFFFF AND PUSH32 0xB7ACAF12118F88F42CE2F08BB6327569F1FB61BEE1B471032F28EC5EAAF44B85 PUSH1 0x40 MLOAD PUSH1 0x40 MLOAD DUP1 SWAP2 SUB SWAP1 LOG3 POP POP PUSH2 0x3156 PUSH2 0x4622 JUMP JUMPDEST POP JUMP JUMPDEST PUSH2 0x3161 PUSH2 0x411B JUMP JUMPDEST PUSH1 0x0 PUSH20 0xFFFFFFFFFFFFFFFFFFFFFFFFFFFFFFFFFFFFFFFF AND DUP4 PUSH20 0xFFFFFFFFFFFFFFFFFFFFFFFFFFFFFFFFFFFFFFFF AND SUB PUSH2 0x31C7 JUMPI PUSH1 0x40 MLOAD PUSH32 0x5566DF5C00000000000000000000000000000000000000000000000000000000 DUP2 MSTORE PUSH1 0x4 ADD PUSH1 0x40 MLOAD DUP1 SWAP2 SUB SWAP1 REVERT JUMPDEST PUSH1 0x0 DUP5 SUB PUSH2 0x3201 JUMPI PUSH1 0x40 MLOAD PUSH32 0x97643B5200000000000000000000000000000000000000000000000000000000 DUP2 MSTORE PUSH1 0x4 ADD PUSH1 0x40 MLOAD DUP1 SWAP2 SUB SWAP1 REVERT JUMPDEST PUSH1 0x0 PUSH1 0x6 PUSH1 0x0 DUP7 DUP2 MSTORE PUSH1 0x20 ADD SWAP1 DUP2 MSTORE PUSH1 0x20 ADD PUSH1 0x0 KECCAK256 SWAP1 POP DUP1 PUSH1 0x4 ADD PUSH1 0x0 SWAP1 SLOAD SWAP1 PUSH2 0x100 EXP SWAP1 DIV PUSH1 0xFF AND PUSH2 0x326B JUMPI DUP5 PUSH1 0x40 MLOAD PUSH32 0x8C209E5600000000000000000000000000000000000000000000000000000000 DUP2 MSTORE PUSH1 0x4 ADD PUSH2 0x3262 SWAP2 SWAP1 PUSH2 0x505F JUMP JUMPDEST PUSH1 0x40 MLOAD DUP1 SWAP2 SUB SWAP1 REVERT JUMPDEST CALLER PUSH20 0xFFFFFFFFFFFFFFFFFFFFFFFFFFFFFFFFFFFFFFFF AND DUP2 PUSH1 0x1 ADD PUSH1 0x0 SWAP1 SLOAD SWAP1 PUSH2 0x100 EXP SWAP1 DIV PUSH20 0xFFFFFFFFFFFFFFFFFFFFFFFFFFFFFFFFFFFFFFFF AND PUSH20 0xFFFFFFFFFFFFFFFFFFFFFFFFFFFFFFFFFFFFFFFF AND EQ PUSH2 0x32F4 JUMPI PUSH1 0x40 MLOAD PUSH32 0xF5E6BD800000000000000000000000000000000000000000000000000000000 DUP2 MSTORE PUSH1 0x4 ADD PUSH1 0x40 MLOAD DUP1 SWAP2 SUB SWAP1 REVERT JUMPDEST DUP1 PUSH1 0x7 ADD PUSH1 0x0 DUP6 PUSH20 0xFFFFFFFFFFFFFFFFFFFFFFFFFFFFFFFFFFFFFFFF AND PUSH20 0xFFFFFFFFFFFFFFFFFFFFFFFFFFFFFFFFFFFFFFFF AND DUP2 MSTORE PUSH1 0x20 ADD SWAP1 DUP2 MSTORE PUSH1 0x20 ADD PUSH1 0x0 KECCAK256 PUSH1 0x0 SWAP1 SLOAD SWAP1 PUSH2 0x100 EXP SWAP1 DIV PUSH1 0xFF AND PUSH2 0x3352 JUMPI PUSH2 0x3351 DUP5 DUP7 PUSH2 0x4161 JUMP JUMPDEST JUMPDEST PUSH1 0x0 JUMPDEST DUP4 DUP4 SWAP1 POP DUP2 LT ISZERO PUSH2 0x3685 JUMPI PUSH1 0x0 DUP5 DUP5 DUP4 DUP2 DUP2 LT PUSH2 0x3375 JUMPI PUSH2 0x3374 PUSH2 0x555E JUMP JUMPDEST JUMPDEST SWAP1 POP PUSH1 0x20 MUL DUP2 ADD SWAP1 PUSH2 0x3387 SWAP2 SWAP1 PUSH2 0x5982 JUMP JUMPDEST PUSH1 0x20 ADD PUSH1 0x20 DUP2 ADD SWAP1 PUSH2 0x3399 SWAP2 SWAP1 PUSH2 0x5A92 JUMP JUMPDEST SWAP1 POP PUSH1 0x2 DUP1 DUP2 GT ISZERO PUSH2 0x33AE JUMPI PUSH2 0x33AD PUSH2 0x48F5 JUMP JUMPDEST JUMPDEST DUP2 PUSH1 0x2 DUP2 GT ISZERO PUSH2 0x33C1 JUMPI PUSH2 0x33C0 PUSH2 0x48F5 JUMP JUMPDEST JUMPDEST SUB PUSH2 0x33F8 JUMPI PUSH1 0x40 MLOAD PUSH32 0xC1AB6DC100000000000000000000000000000000000000000000000000000000 DUP2 MSTORE PUSH1 0x4 ADD PUSH1 0x40 MLOAD DUP1 SWAP2 SUB SWAP1 REVERT JUMPDEST PUSH1 0x1 PUSH1 0x2 DUP2 GT ISZERO PUSH2 0x340C JUMPI PUSH2 0x340B PUSH2 0x48F5 JUMP JUMPDEST JUMPDEST DUP2 PUSH1 0x2 DUP2 GT ISZERO PUSH2 0x341F JUMPI PUSH2 0x341E PUSH2 0x48F5 JUMP JUMPDEST JUMPDEST SUB PUSH2 0x3677 JUMPI PUSH1 0x0 JUMPDEST DUP6 DUP6 DUP5 DUP2 DUP2 LT PUSH2 0x343A JUMPI PUSH2 0x3439 PUSH2 0x555E JUMP JUMPDEST JUMPDEST SWAP1 POP PUSH1 0x20 MUL DUP2 ADD SWAP1 PUSH2 0x344C SWAP2 SWAP1 PUSH2 0x5982 JUMP JUMPDEST DUP1 PUSH1 0x60 ADD SWAP1 PUSH2 0x345B SWAP2 SWAP1 PUSH2 0x5ABF JUMP JUMPDEST SWAP1 POP DUP2 LT ISZERO PUSH2 0x3675 JUMPI PUSH1 0x0 DUP7 DUP7 DUP6 DUP2 DUP2 LT PUSH2 0x3479 JUMPI PUSH2 0x3478 PUSH2 0x555E JUMP JUMPDEST JUMPDEST SWAP1 POP PUSH1 0x20 MUL DUP2 ADD SWAP1 PUSH2 0x348B SWAP2 SWAP1 PUSH2 0x5982 JUMP JUMPDEST DUP1 PUSH1 0x60 ADD SWAP1 PUSH2 0x349A SWAP2 SWAP1 PUSH2 0x5ABF JUMP JUMPDEST DUP4 DUP2 DUP2 LT PUSH2 0x34AB JUMPI PUSH2 0x34AA PUSH2 0x555E JUMP JUMPDEST JUMPDEST SWAP1 POP PUSH1 0x20 MUL ADD CALLDATALOAD SWAP1 POP DUP7 DUP7 DUP6 DUP2 DUP2 LT PUSH2 0x34C7 JUMPI PUSH2 0x34C6 PUSH2 0x555E JUMP JUMPDEST JUMPDEST SWAP1 POP PUSH1 0x20 MUL DUP2 ADD SWAP1 PUSH2 0x34D9 SWAP2 SWAP1 PUSH2 0x5982 JUMP JUMPDEST PUSH1 0x0 ADD PUSH1 0x20 DUP2 ADD SWAP1 PUSH2 0x34EB SWAP2 SWAP1 PUSH2 0x4AA3 JUMP JUMPDEST PUSH20 0xFFFFFFFFFFFFFFFFFFFFFFFFFFFFFFFFFFFFFFFF AND PUSH4 0x23B872DD CALLER ADDRESS DUP5 PUSH1 0x40 MLOAD DUP5 PUSH4 0xFFFFFFFF AND PUSH1 0xE0 SHL DUP2 MSTORE PUSH1 0x4 ADD PUSH2 0x3527 SWAP4 SWAP3 SWAP2 SWAP1 PUSH2 0x5B22 JUMP JUMPDEST PUSH1 0x20 PUSH1 0x40 MLOAD DUP1 DUP4 SUB DUP2 PUSH1 0x0 DUP8 GAS CALL ISZERO DUP1 ISZERO PUSH2 0x3546 JUMPI RETURNDATASIZE PUSH1 0x0 DUP1 RETURNDATACOPY RETURNDATASIZE PUSH1 0x0 REVERT JUMPDEST POP POP POP POP PUSH1 0x40 MLOAD RETURNDATASIZE PUSH1 0x1F NOT PUSH1 0x1F DUP3 ADD AND DUP3 ADD DUP1 PUSH1 0x40 MSTORE POP DUP2 ADD SWAP1 PUSH2 0x356A SWAP2 SWAP1 PUSH2 0x5B6E JUMP JUMPDEST POP PUSH2 0x35B0 DUP6 DUP10 DUP10 DUP10 DUP9 DUP2 DUP2 LT PUSH2 0x3583 JUMPI PUSH2 0x3582 PUSH2 0x555E JUMP JUMPDEST JUMPDEST SWAP1 POP PUSH1 0x20 MUL DUP2 ADD SWAP1 PUSH2 0x3595 SWAP2 SWAP1 PUSH2 0x5982 JUMP JUMPDEST PUSH1 0x0 ADD PUSH1 0x20 DUP2 ADD SWAP1 PUSH2 0x35A7 SWAP2 SWAP1 PUSH2 0x4AA3 JUMP JUMPDEST DUP7 PUSH1 0x0 DUP7 PUSH2 0x44AB JUMP JUMPDEST DUP8 PUSH20 0xFFFFFFFFFFFFFFFFFFFFFFFFFFFFFFFFFFFFFFFF AND DUP8 DUP8 DUP7 DUP2 DUP2 LT PUSH2 0x35DA JUMPI PUSH2 0x35D9 PUSH2 0x555E JUMP JUMPDEST JUMPDEST SWAP1 POP PUSH1 0x20 MUL DUP2 ADD SWAP1 PUSH2 0x35EC SWAP2 SWAP1 PUSH2 0x5982 JUMP JUMPDEST PUSH1 0x0 ADD PUSH1 0x20 DUP2 ADD SWAP1 PUSH2 0x35FE SWAP2 SWAP1 PUSH2 0x4AA3 JUMP JUMPDEST PUSH20 0xFFFFFFFFFFFFFFFFFFFFFFFFFFFFFFFFFFFFFFFF AND CALLER PUSH20 0xFFFFFFFFFFFFFFFFFFFFFFFFFFFFFFFFFFFFFFFF AND PUSH32 0xB44510937E7A7A5DD39439C63DF574818DB53DAC575444D730F4CC88DDA6D1C8 DUP7 PUSH1 0x0 DUP7 PUSH1 0x40 MLOAD PUSH2 0x365F SWAP4 SWAP3 SWAP2 SWAP1 PUSH2 0x5BE5 JUMP JUMPDEST PUSH1 0x40 MLOAD DUP1 SWAP2 SUB SWAP1 LOG4 POP DUP1 DUP1 PUSH1 0x1 ADD SWAP2 POP POP PUSH2 0x3427 JUMP JUMPDEST POP JUMPDEST POP DUP1 DUP1 PUSH1 0x1 ADD SWAP2 POP POP PUSH2 0x3355 JUMP JUMPDEST POP TIMESTAMP DUP2 PUSH1 0x3 ADD DUP2 SWAP1 SSTORE POP POP PUSH2 0x3698 PUSH2 0x4622 JUMP JUMPDEST POP POP POP POP JUMP JUMPDEST PUSH1 0x0 PUSH1 0x7 PUSH1 0x0 DUP4 PUSH20 0xFFFFFFFFFFFFFFFFFFFFFFFFFFFFFFFFFFFFFFFF AND PUSH20 0xFFFFFFFFFFFFFFFFFFFFFFFFFFFFFFFFFFFFFFFF AND DUP2 MSTORE PUSH1 0x20 ADD SWAP1 DUP2 MSTORE PUSH1 0x20 ADD PUSH1 0x0 KECCAK256 DUP1 SLOAD SWAP1 POP SWAP1 POP SWAP2 SWAP1 POP JUMP JUMPDEST PUSH1 0x3 PUSH1 0x20 MSTORE DUP1 PUSH1 0x0 MSTORE PUSH1 0x40 PUSH1 0x0 KECCAK256 PUSH1 0x0 SWAP2 POP SWAP1 POP DUP1 PUSH1 0x0 ADD SLOAD SWAP1 DUP1 PUSH1 0x1 ADD PUSH1 0x0 SWAP1 SLOAD SWAP1 PUSH2 0x100 EXP SWAP1 DIV PUSH20 0xFFFFFFFFFFFFFFFFFFFFFFFFFFFFFFFFFFFFFFFF AND SWAP1 DUP1 PUSH1 0x2 ADD DUP1 SLOAD PUSH2 0x3739 SWAP1 PUSH2 0x561F JUMP JUMPDEST DUP1 PUSH1 0x1F ADD PUSH1 0x20 DUP1 SWAP2 DIV MUL PUSH1 0x20 ADD PUSH1 0x40 MLOAD SWAP1 DUP2 ADD PUSH1 0x40 MSTORE DUP1 SWAP3 SWAP2 SWAP1 DUP2 DUP2 MSTORE PUSH1 0x20 ADD DUP3 DUP1 SLOAD PUSH2 0x3765 SWAP1 PUSH2 0x561F JUMP JUMPDEST DUP1 ISZERO PUSH2 0x37B2 JUMPI DUP1 PUSH1 0x1F LT PUSH2 0x3787 JUMPI PUSH2 0x100 DUP1 DUP4 SLOAD DIV MUL DUP4 MSTORE SWAP2 PUSH1 0x20 ADD SWAP2 PUSH2 0x37B2 JUMP JUMPDEST DUP3 ADD SWAP2 SWAP1 PUSH1 0x0 MSTORE PUSH1 0x20 PUSH1 0x0 KECCAK256 SWAP1 JUMPDEST DUP2 SLOAD DUP2 MSTORE SWAP1 PUSH1 0x1 ADD SWAP1 PUSH1 0x20 ADD DUP1 DUP4 GT PUSH2 0x3795 JUMPI DUP3 SWAP1 SUB PUSH1 0x1F AND DUP3 ADD SWAP2 JUMPDEST POP POP POP POP POP SWAP1 DUP1 PUSH1 0x3 ADD SLOAD SWAP1 DUP1 PUSH1 0x4 ADD PUSH1 0x0 SWAP1 SLOAD SWAP1 PUSH2 0x100 EXP SWAP1 DIV PUSH1 0xFF AND SWAP1 DUP1 PUSH1 0x6 ADD SLOAD SWAP1 DUP1 PUSH1 0xA ADD SLOAD SWAP1 DUP1 PUSH1 0xB ADD SLOAD SWAP1 DUP1 PUSH1 0xC ADD PUSH1 0x0 SWAP1 SLOAD SWAP1 PUSH2 0x100 EXP SWAP1 DIV PUSH1 0xFF AND SWAP1 DUP1 PUSH1 0xD ADD SLOAD SWAP1 POP DUP11 JUMP JUMPDEST PUSH1 0x0 DUP1 DUP3 SUB PUSH2 0x383B JUMPI PUSH1 0x40 MLOAD PUSH32 0x97643B5200000000000000000000000000000000000000000000000000000000 DUP2 MSTORE PUSH1 0x4 ADD PUSH1 0x40 MLOAD DUP1 SWAP2 SUB SWAP1 REVERT JUMPDEST PUSH1 0x0 PUSH1 0x6 PUSH1 0x0 DUP5 DUP2 MSTORE PUSH1 0x20 ADD SWAP1 DUP2 MSTORE PUSH1 0x20 ADD PUSH1 0x0 KECCAK256 SWAP1 POP DUP1 PUSH1 0x4 ADD PUSH1 0x0 SWAP1 SLOAD SWAP1 PUSH2 0x100 EXP SWAP1 DIV PUSH1 0xFF AND PUSH2 0x38A5 JUMPI DUP3 PUSH1 0x40 MLOAD PUSH32 0x8C209E5600000000000000000000000000000000000000000000000000000000 DUP2 MSTORE PUSH1 0x4 ADD PUSH2 0x389C SWAP2 SWAP1 PUSH2 0x505F JUMP JUMPDEST PUSH1 0x40 MLOAD DUP1 SWAP2 SUB SWAP1 REVERT JUMPDEST DUP1 PUSH1 0xC ADD PUSH1 0x0 SWAP1 SLOAD SWAP1 PUSH2 0x100 EXP SWAP1 DIV PUSH1 0xFF AND ISZERO PUSH2 0x38C6 JUMPI PUSH1 0x0 SWAP2 POP POP PUSH2 0x3905 JUMP JUMPDEST PUSH1 0x0 DUP2 PUSH1 0x3 ADD SLOAD TIMESTAMP PUSH2 0x38D8 SWAP2 SWAP1 PUSH2 0x56C1 JUMP JUMPDEST SWAP1 POP DUP2 PUSH1 0xB ADD SLOAD DUP2 LT PUSH2 0x38F0 JUMPI PUSH1 0x0 SWAP3 POP POP POP PUSH2 0x3905 JUMP JUMPDEST DUP1 DUP3 PUSH1 0xB ADD SLOAD PUSH2 0x3900 SWAP2 SWAP1 PUSH2 0x56C1 JUMP JUMPDEST SWAP3 POP POP POP JUMPDEST SWAP2 SWAP1 POP JUMP JUMPDEST PUSH1 0x0 DUP1 PUSH1 0x7 PUSH1 0x0 DUP5 PUSH20 0xFFFFFFFFFFFFFFFFFFFFFFFFFFFFFFFFFFFFFFFF AND PUSH20 0xFFFFFFFFFFFFFFFFFFFFFFFFFFFFFFFFFFFFFFFF AND DUP2 MSTORE PUSH1 0x20 ADD SWAP1 DUP2 MSTORE PUSH1 0x20 ADD PUSH1 0x0 KECCAK256 DUP1 SLOAD DUP1 PUSH1 0x20 MUL PUSH1 0x20 ADD PUSH1 0x40 MLOAD SWAP1 DUP2 ADD PUSH1 0x40 MSTORE DUP1 SWAP3 SWAP2 SWAP1 DUP2 DUP2 MSTORE PUSH1 0x20 ADD DUP3 DUP1 SLOAD DUP1 ISZERO PUSH2 0x3996 JUMPI PUSH1 0x20 MUL DUP3 ADD SWAP2 SWAP1 PUSH1 0x0 MSTORE PUSH1 0x20 PUSH1 0x0 KECCAK256 SWAP1 JUMPDEST DUP2 SLOAD DUP2 MSTORE PUSH1 0x20 ADD SWAP1 PUSH1 0x1 ADD SWAP1 DUP1 DUP4 GT PUSH2 0x3982 JUMPI JUMPDEST POP POP POP POP POP SWAP1 POP PUSH1 0x0 PUSH1 0xA DUP3 MLOAD PUSH2 0x39AD SWAP2 SWAP1 PUSH2 0x5DAE JUMP JUMPDEST PUSH8 0xFFFFFFFFFFFFFFFF DUP2 GT ISZERO PUSH2 0x39C6 JUMPI PUSH2 0x39C5 PUSH2 0x50F0 JUMP JUMPDEST JUMPDEST PUSH1 0x40 MLOAD SWAP1 DUP1 DUP3 MSTORE DUP1 PUSH1 0x20 MUL PUSH1 0x20 ADD DUP3 ADD PUSH1 0x40 MSTORE DUP1 ISZERO PUSH2 0x39F4 JUMPI DUP2 PUSH1 0x20 ADD PUSH1 0x20 DUP3 MUL DUP1 CALLDATASIZE DUP4 CALLDATACOPY DUP1 DUP3 ADD SWAP2 POP POP SWAP1 POP JUMPDEST POP SWAP1 POP PUSH1 0x0 DUP1 JUMPDEST DUP4 MLOAD DUP2 LT ISZERO PUSH2 0x3B82 JUMPI PUSH1 0x0 PUSH1 0x6 PUSH1 0x0 DUP7 DUP5 DUP2 MLOAD DUP2 LT PUSH2 0x3A1D JUMPI PUSH2 0x3A1C PUSH2 0x555E JUMP JUMPDEST JUMPDEST PUSH1 0x20 MUL PUSH1 0x20 ADD ADD MLOAD DUP2 MSTORE PUSH1 0x20 ADD SWAP1 DUP2 MSTORE PUSH1 0x20 ADD PUSH1 0x0 KECCAK256 SWAP1 POP PUSH1 0x0 JUMPDEST DUP2 PUSH1 0x8 ADD DUP1 SLOAD SWAP1 POP DUP2 LT ISZERO PUSH2 0x3B73 JUMPI PUSH1 0x0 DUP3 PUSH1 0x8 ADD DUP3 DUP2 SLOAD DUP2 LT PUSH2 0x3A5F JUMPI PUSH2 0x3A5E PUSH2 0x555E JUMP JUMPDEST JUMPDEST SWAP1 PUSH1 0x0 MSTORE PUSH1 0x20 PUSH1 0x0 KECCAK256 ADD PUSH1 0x0 SWAP1 SLOAD SWAP1 PUSH2 0x100 EXP SWAP1 DIV PUSH20 0xFFFFFFFFFFFFFFFFFFFFFFFFFFFFFFFFFFFFFFFF AND SWAP1 POP PUSH1 0x0 PUSH1 0x1 SWAP1 POP PUSH1 0x0 JUMPDEST DUP7 DUP2 LT ISZERO PUSH2 0x3B00 JUMPI DUP3 PUSH20 0xFFFFFFFFFFFFFFFFFFFFFFFFFFFFFFFFFFFFFFFF AND DUP9 DUP3 DUP2 MLOAD DUP2 LT PUSH2 0x3AC7 JUMPI PUSH2 0x3AC6 PUSH2 0x555E JUMP JUMPDEST JUMPDEST PUSH1 0x20 MUL PUSH1 0x20 ADD ADD MLOAD PUSH20 0xFFFFFFFFFFFFFFFFFFFFFFFFFFFFFFFFFFFFFFFF AND SUB PUSH2 0x3AF3 JUMPI PUSH1 0x0 SWAP2 POP PUSH2 0x3B00 JUMP JUMPDEST DUP1 DUP1 PUSH1 0x1 ADD SWAP2 POP POP PUSH2 0x3A95 JUMP JUMPDEST POP DUP1 ISZERO PUSH2 0x3B64 JUMPI DUP2 DUP8 DUP8 DUP2 MLOAD DUP2 LT PUSH2 0x3B1B JUMPI PUSH2 0x3B1A PUSH2 0x555E JUMP JUMPDEST JUMPDEST PUSH1 0x20 MUL PUSH1 0x20 ADD ADD SWAP1 PUSH20 0xFFFFFFFFFFFFFFFFFFFFFFFFFFFFFFFFFFFFFFFF AND SWAP1 DUP2 PUSH20 0xFFFFFFFFFFFFFFFFFFFFFFFFFFFFFFFFFFFFFFFF AND DUP2 MSTORE POP POP DUP6 DUP1 PUSH2 0x3B60 SWAP1 PUSH2 0x5650 JUMP JUMPDEST SWAP7 POP POP JUMPDEST POP POP DUP1 DUP1 PUSH1 0x1 ADD SWAP2 POP POP PUSH2 0x3A38 JUMP JUMPDEST POP POP DUP1 DUP1 PUSH1 0x1 ADD SWAP2 POP POP PUSH2 0x39FB JUMP JUMPDEST POP DUP1 SWAP4 POP POP POP POP SWAP2 SWAP1 POP JUMP JUMPDEST PUSH1 0x4 PUSH1 0x20 MSTORE DUP1 PUSH1 0x0 MSTORE PUSH1 0x40 PUSH1 0x0 KECCAK256 PUSH1 0x0 SWAP2 POP SLOAD SWAP1 PUSH2 0x100 EXP SWAP1 DIV PUSH1 0xFF AND DUP2 JUMP JUMPDEST PUSH1 0x0 DUP1 PUSH1 0x0 SWAP1 POP PUSH1 0x0 PUSH1 0x7 PUSH1 0x0 DUP6 PUSH20 0xFFFFFFFFFFFFFFFFFFFFFFFFFFFFFFFFFFFFFFFF AND PUSH20 0xFFFFFFFFFFFFFFFFFFFFFFFFFFFFFFFFFFFFFFFF AND DUP2 MSTORE PUSH1 0x20 ADD SWAP1 DUP2 MSTORE PUSH1 0x20 ADD PUSH1 0x0 KECCAK256 DUP1 SLOAD DUP1 PUSH1 0x20 MUL PUSH1 0x20 ADD PUSH1 0x40 MLOAD SWAP1 DUP2 ADD PUSH1 0x40 MSTORE DUP1 SWAP3 SWAP2 SWAP1 DUP2 DUP2 MSTORE PUSH1 0x20 ADD DUP3 DUP1 SLOAD DUP1 ISZERO PUSH2 0x3C40 JUMPI PUSH1 0x20 MUL DUP3 ADD SWAP2 SWAP1 PUSH1 0x0 MSTORE PUSH1 0x20 PUSH1 0x0 KECCAK256 SWAP1 JUMPDEST DUP2 SLOAD DUP2 MSTORE PUSH1 0x20 ADD SWAP1 PUSH1 0x1 ADD SWAP1 DUP1 DUP4 GT PUSH2 0x3C2C JUMPI JUMPDEST POP POP POP POP POP SWAP1 POP PUSH1 0x0 JUMPDEST DUP2 MLOAD DUP2 LT ISZERO PUSH2 0x3E4B JUMPI PUSH1 0x0 DUP3 DUP3 DUP2 MLOAD DUP2 LT PUSH2 0x3C68 JUMPI PUSH2 0x3C67 PUSH2 0x555E JUMP JUMPDEST JUMPDEST PUSH1 0x20 MUL PUSH1 0x20 ADD ADD MLOAD SWAP1 POP PUSH1 0x0 PUSH1 0x6 PUSH1 0x0 DUP4 DUP2 MSTORE PUSH1 0x20 ADD SWAP1 DUP2 MSTORE PUSH1 0x20 ADD PUSH1 0x0 KECCAK256 SWAP1 POP DUP1 PUSH1 0x4 ADD PUSH1 0x0 SWAP1 SLOAD SWAP1 PUSH2 0x100 EXP SWAP1 DIV PUSH1 0xFF AND PUSH2 0x3CA6 JUMPI POP POP PUSH2 0x3E3E JUMP JUMPDEST PUSH1 0x0 JUMPDEST DUP2 PUSH1 0x8 ADD DUP1 SLOAD SWAP1 POP DUP2 LT ISZERO PUSH2 0x3E3A JUMPI PUSH1 0x0 DUP3 PUSH1 0x8 ADD DUP3 DUP2 SLOAD DUP2 LT PUSH2 0x3CD0 JUMPI PUSH2 0x3CCF PUSH2 0x555E JUMP JUMPDEST JUMPDEST SWAP1 PUSH1 0x0 MSTORE PUSH1 0x20 PUSH1 0x0 KECCAK256 ADD PUSH1 0x0 SWAP1 SLOAD SWAP1 PUSH2 0x100 EXP SWAP1 DIV PUSH20 0xFFFFFFFFFFFFFFFFFFFFFFFFFFFFFFFFFFFFFFFF AND SWAP1 POP PUSH1 0x0 DUP4 PUSH1 0x9 ADD PUSH1 0x0 DUP4 PUSH20 0xFFFFFFFFFFFFFFFFFFFFFFFFFFFFFFFFFFFFFFFF AND PUSH20 0xFFFFFFFFFFFFFFFFFFFFFFFFFFFFFFFFFFFFFFFF AND DUP2 MSTORE PUSH1 0x20 ADD SWAP1 DUP2 MSTORE PUSH1 0x20 ADD PUSH1 0x0 KECCAK256 SWAP1 POP PUSH1 0x0 JUMPDEST DUP2 DUP1 SLOAD SWAP1 POP DUP2 LT ISZERO PUSH2 0x3E2A JUMPI DUP2 DUP2 DUP2 SLOAD DUP2 LT PUSH2 0x3D64 JUMPI PUSH2 0x3D63 PUSH2 0x555E JUMP JUMPDEST JUMPDEST SWAP1 PUSH1 0x0 MSTORE PUSH1 0x20 PUSH1 0x0 KECCAK256 SWAP1 PUSH1 0x4 MUL ADD PUSH1 0x3 ADD PUSH1 0x0 SWAP1 SLOAD SWAP1 PUSH2 0x100 EXP SWAP1 DIV PUSH1 0xFF AND ISZERO DUP1 ISZERO PUSH2 0x3DE5 JUMPI POP PUSH1 0x1 PUSH1 0x2 DUP2 GT ISZERO PUSH2 0x3D9F JUMPI PUSH2 0x3D9E PUSH2 0x48F5 JUMP JUMPDEST JUMPDEST DUP3 DUP3 DUP2 SLOAD DUP2 LT PUSH2 0x3DB2 JUMPI PUSH2 0x3DB1 PUSH2 0x555E JUMP JUMPDEST JUMPDEST SWAP1 PUSH1 0x0 MSTORE PUSH1 0x20 PUSH1 0x0 KECCAK256 SWAP1 PUSH1 0x4 MUL ADD PUSH1 0x0 ADD PUSH1 0x14 SWAP1 SLOAD SWAP1 PUSH2 0x100 EXP SWAP1 DIV PUSH1 0xFF AND PUSH1 0x2 DUP2 GT ISZERO PUSH2 0x3DE3 JUMPI PUSH2 0x3DE2 PUSH2 0x48F5 JUMP JUMPDEST JUMPDEST EQ JUMPDEST ISZERO PUSH2 0x3E1D JUMPI DUP2 DUP2 DUP2 SLOAD DUP2 LT PUSH2 0x3DFD JUMPI PUSH2 0x3DFC PUSH2 0x555E JUMP JUMPDEST JUMPDEST SWAP1 PUSH1 0x0 MSTORE PUSH1 0x20 PUSH1 0x0 KECCAK256 SWAP1 PUSH1 0x4 MUL ADD PUSH1 0x2 ADD SLOAD DUP10 PUSH2 0x3E1A SWAP2 SWAP1 PUSH2 0x55BC JUMP JUMPDEST SWAP9 POP JUMPDEST DUP1 DUP1 PUSH1 0x1 ADD SWAP2 POP POP PUSH2 0x3D45 JUMP JUMPDEST POP POP POP DUP1 DUP1 PUSH1 0x1 ADD SWAP2 POP POP PUSH2 0x3CA9 JUMP JUMPDEST POP POP POP JUMPDEST DUP1 DUP1 PUSH1 0x1 ADD SWAP2 POP POP PUSH2 0x3C4A JUMP JUMPDEST POP DUP2 SWAP3 POP POP POP SWAP2 SWAP1 POP JUMP JUMPDEST PUSH2 0x3E5E PUSH2 0x4094 JUMP JUMPDEST PUSH1 0x0 PUSH20 0xFFFFFFFFFFFFFFFFFFFFFFFFFFFFFFFFFFFFFFFF AND DUP2 PUSH20 0xFFFFFFFFFFFFFFFFFFFFFFFFFFFFFFFFFFFFFFFF AND SUB PUSH2 0x3ED0 JUMPI PUSH1 0x0 PUSH1 0x40 MLOAD PUSH32 0x1E4FBDF700000000000000000000000000000000000000000000000000000000 DUP2 MSTORE PUSH1 0x4 ADD PUSH2 0x3EC7 SWAP2 SWAP1 PUSH2 0x54CF JUMP JUMPDEST PUSH1 0x40 MLOAD DUP1 SWAP2 SUB SWAP1 REVERT JUMPDEST PUSH2 0x3ED9 DUP2 PUSH2 0x462B JUMP JUMPDEST POP JUMP JUMPDEST PUSH1 0x0 DUP1 DUP3 SUB PUSH2 0x3F17 JUMPI PUSH1 0x40 MLOAD PUSH32 0x97643B5200000000000000000000000000000000000000000000000000000000 DUP2 MSTORE PUSH1 0x4 ADD PUSH1 0x40 MLOAD DUP1 SWAP2 SUB SWAP1 REVERT JUMPDEST PUSH1 0x0 PUSH1 0x6 PUSH1 0x0 DUP5 DUP2 MSTORE PUSH1 0x20 ADD SWAP1 DUP2 MSTORE PUSH1 0x20 ADD PUSH1 0x0 KECCAK256 SWAP1 POP DUP1 PUSH1 0x4 ADD PUSH1 0x0 SWAP1 SLOAD SWAP1 PUSH2 0x100 EXP SWAP1 DIV PUSH1 0xFF AND PUSH2 0x3F81 JUMPI DUP3 PUSH1 0x40 MLOAD PUSH32 0x8C209E5600000000000000000000000000000000000000000000000000000000 DUP2 MSTORE PUSH1 0x4 ADD PUSH2 0x3F78 SWAP2 SWAP1 PUSH2 0x505F JUMP JUMPDEST PUSH1 0x40 MLOAD DUP1 SWAP2 SUB SWAP1 REVERT JUMPDEST DUP1 SWAP2 POP POP SWAP2 SWAP1 POP JUMP JUMPDEST PUSH3 0x15180 DUP3 LT DUP1 PUSH2 0x3F9D JUMPI POP PUSH3 0x278D00 DUP3 GT JUMPDEST ISZERO PUSH2 0x3FE9 JUMPI DUP2 PUSH3 0x15180 PUSH3 0x278D00 PUSH1 0x40 MLOAD PUSH32 0x79AB450300000000000000000000000000000000000000000000000000000000 DUP2 MSTORE PUSH1 0x4 ADD PUSH2 0x3FE0 SWAP4 SWAP3 SWAP2 SWAP1 PUSH2 0x5DF0 JUMP JUMPDEST PUSH1 0x40 MLOAD DUP1 SWAP2 SUB SWAP1 REVERT JUMPDEST PUSH3 0x278D00 DUP2 LT DUP1 PUSH2 0x3FFD JUMPI POP PUSH4 0x1E13380 DUP2 GT JUMPDEST ISZERO PUSH2 0x404A JUMPI DUP1 PUSH3 0x278D00 PUSH4 0x1E13380 PUSH1 0x40 MLOAD PUSH32 0xC4E86F2900000000000000000000000000000000000000000000000000000000 DUP2 MSTORE PUSH1 0x4 ADD PUSH2 0x4041 SWAP4 SWAP3 SWAP2 SWAP1 PUSH2 0x5DF0 JUMP JUMPDEST PUSH1 0x40 MLOAD DUP1 SWAP2 SUB SWAP1 REVERT JUMPDEST DUP2 DUP2 GT PUSH2 0x4090 JUMPI DUP1 DUP3 PUSH1 0x40 MLOAD PUSH32 0x2E85A8FC00000000000000000000000000000000000000000000000000000000 DUP2 MSTORE PUSH1 0x4 ADD PUSH2 0x4087 SWAP3 SWAP2 SWAP1 PUSH2 0x5698 JUMP JUMPDEST PUSH1 0x40 MLOAD DUP1 SWAP2 SUB SWAP1 REVERT JUMPDEST POP POP JUMP JUMPDEST PUSH2 0x409C PUSH2 0x46EF JUMP JUMPDEST PUSH20 0xFFFFFFFFFFFFFFFFFFFFFFFFFFFFFFFFFFFFFFFF AND PUSH2 0x40BA PUSH2 0x29DF JUMP JUMPDEST PUSH20 0xFFFFFFFFFFFFFFFFFFFFFFFFFFFFFFFFFFFFFFFF AND EQ PUSH2 0x4119 JUMPI PUSH2 0x40DD PUSH2 0x46EF JUMP JUMPDEST PUSH1 0x40 MLOAD PUSH32 0x118CDAA700000000000000000000000000000000000000000000000000000000 DUP2 MSTORE PUSH1 0x4 ADD PUSH2 0x4110 SWAP2 SWAP1 PUSH2 0x54CF JUMP JUMPDEST PUSH1 0x40 MLOAD DUP1 SWAP2 SUB SWAP1 REVERT JUMPDEST JUMP JUMPDEST PUSH1 0x2 PUSH1 0x1 SLOAD SUB PUSH2 0x4157 JUMPI PUSH1 0x40 MLOAD PUSH32 0x3EE5AEB500000000000000000000000000000000000000000000000000000000 DUP2 MSTORE PUSH1 0x4 ADD PUSH1 0x40 MLOAD DUP1 SWAP2 SUB SWAP1 REVERT JUMPDEST PUSH1 0x2 PUSH1 0x1 DUP2 SWAP1 SSTORE POP JUMP JUMPDEST PUSH1 0x0 PUSH20 0xFFFFFFFFFFFFFFFFFFFFFFFFFFFFFFFFFFFFFFFF AND DUP3 PUSH20 0xFFFFFFFFFFFFFFFFFFFFFFFFFFFFFFFFFFFFFFFF AND SUB PUSH2 0x41C7 JUMPI PUSH1 0x40 MLOAD PUSH32 0x5566DF5C00000000000000000000000000000000000000000000000000000000 DUP2 MSTORE PUSH1 0x4 ADD PUSH1 0x40 MLOAD DUP1 SWAP2 SUB SWAP1 REVERT JUMPDEST PUSH1 0x0 PUSH1 0x6 PUSH1 0x0 DUP4 DUP2 MSTORE PUSH1 0x20 ADD SWAP1 DUP2 MSTORE PUSH1 0x20 ADD PUSH1 0x0 KECCAK256 SWAP1 POP DUP1 PUSH1 0x7 ADD PUSH1 0x0 DUP5 PUSH20 0xFFFFFFFFFFFFFFFFFFFFFFFFFFFFFFFFFFFFFFFF AND PUSH20 0xFFFFFFFFFFFFFFFFFFFFFFFFFFFFFFFFFFFFFFFF AND DUP2 MSTORE PUSH1 0x20 ADD SWAP1 DUP2 MSTORE PUSH1 0x20 ADD PUSH1 0x0 KECCAK256 PUSH1 0x0 SWAP1 SLOAD SWAP1 PUSH2 0x100 EXP SWAP1 DIV PUSH1 0xFF AND ISZERO PUSH2 0x4264 JUMPI PUSH1 0x40 MLOAD PUSH32 0x7FFEBE8300000000000000000000000000000000000000000000000000000000 DUP2 MSTORE PUSH1 0x4 ADD PUSH1 0x40 MLOAD DUP1 SWAP2 SUB SWAP1 REVERT JUMPDEST CALLER PUSH20 0xFFFFFFFFFFFFFFFFFFFFFFFFFFFFFFFFFFFFFFFF AND DUP2 PUSH1 0x1 ADD PUSH1 0x0 SWAP1 SLOAD SWAP1 PUSH2 0x100 EXP SWAP1 DIV PUSH20 0xFFFFFFFFFFFFFFFFFFFFFFFFFFFFFFFFFFFFFFFF AND PUSH20 0xFFFFFFFFFFFFFFFFFFFFFFFFFFFFFFFFFFFFFFFF AND EQ PUSH2 0x42ED JUMPI PUSH1 0x40 MLOAD PUSH32 0xF5E6BD800000000000000000000000000000000000000000000000000000000 DUP2 MSTORE PUSH1 0x4 ADD PUSH1 0x40 MLOAD DUP1 SWAP2 SUB SWAP1 REVERT JUMPDEST PUSH1 0x1 DUP2 PUSH1 0x7 ADD PUSH1 0x0 DUP6 PUSH20 0xFFFFFFFFFFFFFFFFFFFFFFFFFFFFFFFFFFFFFFFF AND PUSH20 0xFFFFFFFFFFFFFFFFFFFFFFFFFFFFFFFFFFFFFFFF AND DUP2 MSTORE PUSH1 0x20 ADD SWAP1 DUP2 MSTORE PUSH1 0x20 ADD PUSH1 0x0 KECCAK256 PUSH1 0x0 PUSH2 0x100 EXP DUP2 SLOAD DUP2 PUSH1 0xFF MUL NOT AND SWAP1 DUP4 ISZERO ISZERO MUL OR SWAP1 SSTORE POP DUP1 PUSH1 0x8 ADD DUP4 SWAP1 DUP1 PUSH1 0x1 DUP2 SLOAD ADD DUP1 DUP3 SSTORE DUP1 SWAP2 POP POP PUSH1 0x1 SWAP1 SUB SWAP1 PUSH1 0x0 MSTORE PUSH1 0x20 PUSH1 0x0 KECCAK256 ADD PUSH1 0x0 SWAP1 SWAP2 SWAP1 SWAP2 SWAP1 SWAP2 PUSH2 0x100 EXP DUP2 SLOAD DUP2 PUSH20 0xFFFFFFFFFFFFFFFFFFFFFFFFFFFFFFFFFFFFFFFF MUL NOT AND SWAP1 DUP4 PUSH20 0xFFFFFFFFFFFFFFFFFFFFFFFFFFFFFFFFFFFFFFFF AND MUL OR SWAP1 SSTORE POP PUSH1 0x5 PUSH1 0x0 DUP5 PUSH20 0xFFFFFFFFFFFFFFFFFFFFFFFFFFFFFFFFFFFFFFFF AND PUSH20 0xFFFFFFFFFFFFFFFFFFFFFFFFFFFFFFFFFFFFFFFF AND DUP2 MSTORE PUSH1 0x20 ADD SWAP1 DUP2 MSTORE PUSH1 0x20 ADD PUSH1 0x0 KECCAK256 CALLER SWAP1 DUP1 PUSH1 0x1 DUP2 SLOAD ADD DUP1 DUP3 SSTORE DUP1 SWAP2 POP POP PUSH1 0x1 SWAP1 SUB SWAP1 PUSH1 0x0 MSTORE PUSH1 0x20 PUSH1 0x0 KECCAK256 ADD PUSH1 0x0 SWAP1 SWAP2 SWAP1 SWAP2 SWAP1 SWAP2 PUSH2 0x100 EXP DUP2 SLOAD DUP2 PUSH20 0xFFFFFFFFFFFFFFFFFFFFFFFFFFFFFFFFFFFFFFFF MUL NOT AND SWAP1 DUP4 PUSH20 0xFFFFFFFFFFFFFFFFFFFFFFFFFFFFFFFFFFFFFFFF AND MUL OR SWAP1 SSTORE POP DUP3 PUSH20 0xFFFFFFFFFFFFFFFFFFFFFFFFFFFFFFFFFFFFFFFF AND CALLER PUSH20 0xFFFFFFFFFFFFFFFFFFFFFFFFFFFFFFFFFFFFFFFF AND PUSH32 0xBB39C36A7502B7256E1A687254146A9A2EA7B146C77CB9E40EB0E2B8793781E1 PUSH1 0x40 MLOAD PUSH1 0x40 MLOAD DUP1 SWAP2 SUB SWAP1 LOG3 POP POP POP JUMP JUMPDEST PUSH1 0x0 PUSH1 0x40 MLOAD DUP1 PUSH1 0xA0 ADD PUSH1 0x40 MSTORE DUP1 DUP7 PUSH20 0xFFFFFFFFFFFFFFFFFFFFFFFFFFFFFFFFFFFFFFFF AND DUP2 MSTORE PUSH1 0x20 ADD DUP6 PUSH1 0x2 DUP2 GT ISZERO PUSH2 0x44E7 JUMPI PUSH2 0x44E6 PUSH2 0x48F5 JUMP JUMPDEST JUMPDEST DUP2 MSTORE PUSH1 0x20 ADD DUP5 DUP2 MSTORE PUSH1 0x20 ADD DUP4 DUP2 MSTORE PUSH1 0x20 ADD PUSH1 0x0 ISZERO ISZERO DUP2 MSTORE POP SWAP1 POP DUP7 PUSH1 0x9 ADD PUSH1 0x0 DUP8 PUSH20 0xFFFFFFFFFFFFFFFFFFFFFFFFFFFFFFFFFFFFFFFF AND PUSH20 0xFFFFFFFFFFFFFFFFFFFFFFFFFFFFFFFFFFFFFFFF AND DUP2 MSTORE PUSH1 0x20 ADD SWAP1 DUP2 MSTORE PUSH1 0x20 ADD PUSH1 0x0 KECCAK256 DUP2 SWAP1 DUP1 PUSH1 0x1 DUP2 SLOAD ADD DUP1 DUP3 SSTORE DUP1 SWAP2 POP POP PUSH1 0x1 SWAP1 SUB SWAP1 PUSH1 0x0 MSTORE PUSH1 0x20 PUSH1 0x0 KECCAK256 SWAP1 PUSH1 0x4 MUL ADD PUSH1 0x0 SWAP1 SWAP2 SWAP1 SWAP2 SWAP1 SWAP2 POP PUSH1 0x0 DUP3 ADD MLOAD DUP2 PUSH1 0x0 ADD PUSH1 0x0 PUSH2 0x100 EXP DUP2 SLOAD DUP2 PUSH20 0xFFFFFFFFFFFFFFFFFFFFFFFFFFFFFFFFFFFFFFFF MUL NOT AND SWAP1 DUP4 PUSH20 0xFFFFFFFFFFFFFFFFFFFFFFFFFFFFFFFFFFFFFFFF AND MUL OR SWAP1 SSTORE POP PUSH1 0x20 DUP3 ADD MLOAD DUP2 PUSH1 0x0 ADD PUSH1 0x14 PUSH2 0x100 EXP DUP2 SLOAD DUP2 PUSH1 0xFF MUL NOT AND SWAP1 DUP4 PUSH1 0x2 DUP2 GT ISZERO PUSH2 0x45DE JUMPI PUSH2 0x45DD PUSH2 0x48F5 JUMP JUMPDEST JUMPDEST MUL OR SWAP1 SSTORE POP PUSH1 0x40 DUP3 ADD MLOAD DUP2 PUSH1 0x1 ADD SSTORE PUSH1 0x60 DUP3 ADD MLOAD DUP2 PUSH1 0x2 ADD SSTORE PUSH1 0x80 DUP3 ADD MLOAD DUP2 PUSH1 0x3 ADD PUSH1 0x0 PUSH2 0x100 EXP DUP2 SLOAD DUP2 PUSH1 0xFF MUL NOT AND SWAP1 DUP4 ISZERO ISZERO MUL OR SWAP1 SSTORE POP POP POP POP POP POP POP POP POP POP JUMP JUMPDEST PUSH1 0x1 DUP1 DUP2 SWAP1 SSTORE POP JUMP JUMPDEST PUSH1 0x0 DUP1 PUSH1 0x0 SWAP1 SLOAD SWAP1 PUSH2 0x100 EXP SWAP1 DIV PUSH20 0xFFFFFFFFFFFFFFFFFFFFFFFFFFFFFFFFFFFFFFFF AND SWAP1 POP DUP2 PUSH1 0x0 DUP1 PUSH2 0x100 EXP DUP2 SLOAD DUP2 PUSH20 0xFFFFFFFFFFFFFFFFFFFFFFFFFFFFFFFFFFFFFFFF MUL NOT AND SWAP1 DUP4 PUSH20 0xFFFFFFFFFFFFFFFFFFFFFFFFFFFFFFFFFFFFFFFF AND MUL OR SWAP1 SSTORE POP DUP2 PUSH20 0xFFFFFFFFFFFFFFFFFFFFFFFFFFFFFFFFFFFFFFFF AND DUP2 PUSH20 0xFFFFFFFFFFFFFFFFFFFFFFFFFFFFFFFFFFFFFFFF AND PUSH32 0x8BE0079C531659141344CD1FD0A4F28419497F9722A3DAAFE3B4186F6B6457E0 PUSH1 0x40 MLOAD PUSH1 0x40 MLOAD DUP1 SWAP2 SUB SWAP1 LOG3 POP POP JUMP JUMPDEST PUSH1 0x0 CALLER SWAP1 POP SWAP1 JUMP JUMPDEST PUSH1 0x40 MLOAD DUP1 PUSH1 0xE0 ADD PUSH1 0x40 MSTORE DUP1 PUSH1 0x0 DUP2 MSTORE PUSH1 0x20 ADD PUSH1 0x60 DUP2 MSTORE PUSH1 0x20 ADD PUSH1 0x0 PUSH20 0xFFFFFFFFFFFFFFFFFFFFFFFFFFFFFFFFFFFFFFFF AND DUP2 MSTORE PUSH1 0x20 ADD PUSH1 0x0 PUSH1 0x2 DUP2 GT ISZERO PUSH2 0x4741 JUMPI PUSH2 0x4740 PUSH2 0x48F5 JUMP JUMPDEST JUMPDEST DUP2 MSTORE PUSH1 0x20 ADD PUSH1 0x0 DUP2 MSTORE PUSH1 0x20 ADD PUSH1 0x0 ISZERO ISZERO DUP2 MSTORE PUSH1 0x20 ADD PUSH1 0x0 PUSH20 0xFFFFFFFFFFFFFFFFFFFFFFFFFFFFFFFFFFFFFFFF AND DUP2 MSTORE POP SWAP1 JUMP JUMPDEST PUSH1 0x40 MLOAD DUP1 PUSH2 0x100 ADD PUSH1 0x40 MSTORE DUP1 PUSH1 0x0 DUP2 MSTORE PUSH1 0x20 ADD PUSH1 0x60 DUP2 MSTORE PUSH1 0x20 ADD PUSH1 0x0 PUSH20 0xFFFFFFFFFFFFFFFFFFFFFFFFFFFFFFFFFFFFFFFF AND DUP2 MSTORE PUSH1 0x20 ADD PUSH1 0x0 PUSH1 0xFF AND DUP2 MSTORE PUSH1 0x20 ADD PUSH1 0x0 DUP2 MSTORE PUSH1 0x20 ADD PUSH1 0x0 DUP2 MSTORE PUSH1 0x20 ADD PUSH1 0x0 DUP2 MSTORE PUSH1 0x20 ADD PUSH1 0x0 DUP2 MSTORE POP SWAP1 JUMP JUMPDEST PUSH1 0x0 PUSH1 0x40 MLOAD SWAP1 POP SWAP1 JUMP JUMPDEST PUSH1 0x0 DUP1 REVERT JUMPDEST PUSH1 0x0 DUP1 REVERT JUMPDEST PUSH1 0x0 DUP2 SWAP1 POP SWAP2 SWAP1 POP JUMP JUMPDEST PUSH2 0x47F9 DUP2 PUSH2 0x47E6 JUMP JUMPDEST DUP2 EQ PUSH2 0x4804 JUMPI PUSH1 0x0 DUP1 REVERT JUMPDEST POP JUMP JUMPDEST PUSH1 0x0 DUP2 CALLDATALOAD SWAP1 POP PUSH2 0x4816 DUP2 PUSH2 0x47F0 JUMP JUMPDEST SWAP3 SWAP2 POP POP JUMP JUMPDEST PUSH1 0x0 PUSH20 0xFFFFFFFFFFFFFFFFFFFFFFFFFFFFFFFFFFFFFFFF DUP3 AND SWAP1 POP SWAP2 SWAP1 POP JUMP JUMPDEST PUSH1 0x0 PUSH2 0x4847 DUP3 PUSH2 0x481C JUMP JUMPDEST SWAP1 POP SWAP2 SWAP1 POP JUMP JUMPDEST PUSH2 0x4857 DUP2 PUSH2 0x483C JUMP JUMPDEST DUP2 EQ PUSH2 0x4862 JUMPI PUSH1 0x0 DUP1 REVERT JUMPDEST POP JUMP JUMPDEST PUSH1 0x0 DUP2 CALLDATALOAD SWAP1 POP PUSH2 0x4874 DUP2 PUSH2 0x484E JUMP JUMPDEST SWAP3 SWAP2 POP POP JUMP JUMPDEST PUSH1 0x0 DUP1 PUSH1 0x40 DUP4 DUP6 SUB SLT ISZERO PUSH2 0x4891 JUMPI PUSH2 0x4890 PUSH2 0x47DC JUMP JUMPDEST JUMPDEST PUSH1 0x0 PUSH2 0x489F DUP6 DUP3 DUP7 ADD PUSH2 0x4807 JUMP JUMPDEST SWAP3 POP POP PUSH1 0x20 PUSH2 0x48B0 DUP6 DUP3 DUP7 ADD PUSH2 0x4865 JUMP JUMPDEST SWAP2 POP POP SWAP3 POP SWAP3 SWAP1 POP JUMP JUMPDEST PUSH1 0x0 DUP2 MLOAD SWAP1 POP SWAP2 SWAP1 POP JUMP JUMPDEST PUSH1 0x0 DUP3 DUP3 MSTORE PUSH1 0x20 DUP3 ADD SWAP1 POP SWAP3 SWAP2 POP POP JUMP JUMPDEST PUSH1 0x0 DUP2 SWAP1 POP PUSH1 0x20 DUP3 ADD SWAP1 POP SWAP2 SWAP1 POP JUMP JUMPDEST PUSH2 0x48EF DUP2 PUSH2 0x483C JUMP JUMPDEST DUP3 MSTORE POP POP JUMP JUMPDEST PUSH32 0x4E487B7100000000000000000000000000000000000000000000000000000000 PUSH1 0x0 MSTORE PUSH1 0x21 PUSH1 0x4 MSTORE PUSH1 0x24 PUSH1 0x0 REVERT JUMPDEST PUSH1 0x3 DUP2 LT PUSH2 0x4935 JUMPI PUSH2 0x4934 PUSH2 0x48F5 JUMP JUMPDEST JUMPDEST POP JUMP JUMPDEST PUSH1 0x0 DUP2 SWAP1 POP PUSH2 0x4946 DUP3 PUSH2 0x4924 JUMP JUMPDEST SWAP2 SWAP1 POP JUMP JUMPDEST PUSH1 0x0 PUSH2 0x4956 DUP3 PUSH2 0x4938 JUMP JUMPDEST SWAP1 POP SWAP2 SWAP1 POP JUMP JUMPDEST PUSH2 0x4966 DUP2 PUSH2 0x494B JUMP JUMPDEST DUP3 MSTORE POP POP JUMP JUMPDEST PUSH2 0x4975 DUP2 PUSH2 0x47E6 JUMP JUMPDEST DUP3 MSTORE POP POP JUMP JUMPDEST PUSH1 0x0 DUP2 ISZERO ISZERO SWAP1 POP SWAP2 SWAP1 POP JUMP JUMPDEST PUSH2 0x4990 DUP2 PUSH2 0x497B JUMP JUMPDEST DUP3 MSTORE POP POP JUMP JUMPDEST PUSH1 0xA0 DUP3 ADD PUSH1 0x0 DUP3 ADD MLOAD PUSH2 0x49AC PUSH1 0x0 DUP6 ADD DUP3 PUSH2 0x48E6 JUMP JUMPDEST POP PUSH1 0x20 DUP3 ADD MLOAD PUSH2 0x49BF PUSH1 0x20 DUP6 ADD DUP3 PUSH2 0x495D JUMP JUMPDEST POP PUSH1 0x40 DUP3 ADD MLOAD PUSH2 0x49D2 PUSH1 0x40 DUP6 ADD DUP3 PUSH2 0x496C JUMP JUMPDEST POP PUSH1 0x60 DUP3 ADD MLOAD PUSH2 0x49E5 PUSH1 0x60 DUP6 ADD DUP3 PUSH2 0x496C JUMP JUMPDEST POP PUSH1 0x80 DUP3 ADD MLOAD PUSH2 0x49F8 PUSH1 0x80 DUP6 ADD DUP3 PUSH2 0x4987 JUMP JUMPDEST POP POP POP POP JUMP JUMPDEST PUSH1 0x0 PUSH2 0x4A0A DUP4 DUP4 PUSH2 0x4996 JUMP JUMPDEST PUSH1 0xA0 DUP4 ADD SWAP1 POP SWAP3 SWAP2 POP POP JUMP JUMPDEST PUSH1 0x0 PUSH1 0x20 DUP3 ADD SWAP1 POP SWAP2 SWAP1 POP JUMP JUMPDEST PUSH1 0x0 PUSH2 0x4A2E DUP3 PUSH2 0x48BA JUMP JUMPDEST PUSH2 0x4A38 DUP2 DUP6 PUSH2 0x48C5 JUMP JUMPDEST SWAP4 POP PUSH2 0x4A43 DUP4 PUSH2 0x48D6 JUMP JUMPDEST DUP1 PUSH1 0x0 JUMPDEST DUP4 DUP2 LT ISZERO PUSH2 0x4A74 JUMPI DUP2 MLOAD PUSH2 0x4A5B DUP9 DUP3 PUSH2 0x49FE JUMP JUMPDEST SWAP8 POP PUSH2 0x4A66 DUP4 PUSH2 0x4A16 JUMP JUMPDEST SWAP3 POP POP PUSH1 0x1 DUP2 ADD SWAP1 POP PUSH2 0x4A47 JUMP JUMPDEST POP DUP6 SWAP4 POP POP POP POP SWAP3 SWAP2 POP POP JUMP JUMPDEST PUSH1 0x0 PUSH1 0x20 DUP3 ADD SWAP1 POP DUP2 DUP2 SUB PUSH1 0x0 DUP4 ADD MSTORE PUSH2 0x4A9B DUP2 DUP5 PUSH2 0x4A23 JUMP JUMPDEST SWAP1 POP SWAP3 SWAP2 POP POP JUMP JUMPDEST PUSH1 0x0 PUSH1 0x20 DUP3 DUP5 SUB SLT ISZERO PUSH2 0x4AB9 JUMPI PUSH2 0x4AB8 PUSH2 0x47DC JUMP JUMPDEST JUMPDEST PUSH1 0x0 PUSH2 0x4AC7 DUP5 DUP3 DUP6 ADD PUSH2 0x4865 JUMP JUMPDEST SWAP2 POP POP SWAP3 SWAP2 POP POP JUMP JUMPDEST PUSH1 0x0 DUP2 MLOAD SWAP1 POP SWAP2 SWAP1 POP JUMP JUMPDEST PUSH1 0x0 DUP3 DUP3 MSTORE PUSH1 0x20 DUP3 ADD SWAP1 POP SWAP3 SWAP2 POP POP JUMP JUMPDEST PUSH1 0x0 DUP2 SWAP1 POP PUSH1 0x20 DUP3 ADD SWAP1 POP SWAP2 SWAP1 POP JUMP JUMPDEST PUSH1 0x0 DUP2 MLOAD SWAP1 POP SWAP2 SWAP1 POP JUMP JUMPDEST PUSH1 0x0 DUP3 DUP3 MSTORE PUSH1 0x20 DUP3 ADD SWAP1 POP SWAP3 SWAP2 POP POP JUMP JUMPDEST PUSH1 0x0 JUMPDEST DUP4 DUP2 LT ISZERO PUSH2 0x4B36 JUMPI DUP1 DUP3 ADD MLOAD DUP2 DUP5 ADD MSTORE PUSH1 0x20 DUP2 ADD SWAP1 POP PUSH2 0x4B1B JUMP JUMPDEST PUSH1 0x0 DUP5 DUP5 ADD MSTORE POP POP POP POP JUMP JUMPDEST PUSH1 0x0 PUSH1 0x1F NOT PUSH1 0x1F DUP4 ADD AND SWAP1 POP SWAP2 SWAP1 POP JUMP JUMPDEST PUSH1 0x0 PUSH2 0x4B5E DUP3 PUSH2 0x4AFC JUMP JUMPDEST PUSH2 0x4B68 DUP2 DUP6 PUSH2 0x4B07 JUMP JUMPDEST SWAP4 POP PUSH2 0x4B78 DUP2 DUP6 PUSH1 0x20 DUP7 ADD PUSH2 0x4B18 JUMP JUMPDEST PUSH2 0x4B81 DUP2 PUSH2 0x4B42 JUMP JUMPDEST DUP5 ADD SWAP2 POP POP SWAP3 SWAP2 POP POP JUMP JUMPDEST PUSH1 0x0 PUSH1 0xE0 DUP4 ADD PUSH1 0x0 DUP4 ADD MLOAD PUSH2 0x4BA4 PUSH1 0x0 DUP7 ADD DUP3 PUSH2 0x496C JUMP JUMPDEST POP PUSH1 0x20 DUP4 ADD MLOAD DUP5 DUP3 SUB PUSH1 0x20 DUP7 ADD MSTORE PUSH2 0x4BBC DUP3 DUP3 PUSH2 0x4B53 JUMP JUMPDEST SWAP2 POP POP PUSH1 0x40 DUP4 ADD MLOAD PUSH2 0x4BD1 PUSH1 0x40 DUP7 ADD DUP3 PUSH2 0x48E6 JUMP JUMPDEST POP PUSH1 0x60 DUP4 ADD MLOAD PUSH2 0x4BE4 PUSH1 0x60 DUP7 ADD DUP3 PUSH2 0x495D JUMP JUMPDEST POP PUSH1 0x80 DUP4 ADD MLOAD PUSH2 0x4BF7 PUSH1 0x80 DUP7 ADD DUP3 PUSH2 0x496C JUMP JUMPDEST POP PUSH1 0xA0 DUP4 ADD MLOAD PUSH2 0x4C0A PUSH1 0xA0 DUP7 ADD DUP3 PUSH2 0x4987 JUMP JUMPDEST POP PUSH1 0xC0 DUP4 ADD MLOAD PUSH2 0x4C1D PUSH1 0xC0 DUP7 ADD DUP3 PUSH2 0x48E6 JUMP JUMPDEST POP DUP1 SWAP2 POP POP SWAP3 SWAP2 POP POP JUMP JUMPDEST PUSH1 0x0 PUSH2 0x4C34 DUP4 DUP4 PUSH2 0x4B8C JUMP JUMPDEST SWAP1 POP SWAP3 SWAP2 POP POP JUMP JUMPDEST PUSH1 0x0 PUSH1 0x20 DUP3 ADD SWAP1 POP SWAP2 SWAP1 POP JUMP JUMPDEST PUSH1 0x0 PUSH2 0x4C54 DUP3 PUSH2 0x4AD0 JUMP JUMPDEST PUSH2 0x4C5E DUP2 DUP6 PUSH2 0x4ADB JUMP JUMPDEST SWAP4 POP DUP4 PUSH1 0x20 DUP3 MUL DUP6 ADD PUSH2 0x4C70 DUP6 PUSH2 0x4AEC JUMP JUMPDEST DUP1 PUSH1 0x0 JUMPDEST DUP6 DUP2 LT ISZERO PUSH2 0x4CAC JUMPI DUP5 DUP5 SUB DUP10 MSTORE DUP2 MLOAD PUSH2 0x4C8D DUP6 DUP3 PUSH2 0x4C28 JUMP JUMPDEST SWAP5 POP PUSH2 0x4C98 DUP4 PUSH2 0x4C3C JUMP JUMPDEST SWAP3 POP PUSH1 0x20 DUP11 ADD SWAP10 POP POP PUSH1 0x1 DUP2 ADD SWAP1 POP PUSH2 0x4C74 JUMP JUMPDEST POP DUP3 SWAP8 POP DUP8 SWAP6 POP POP POP POP POP POP SWAP3 SWAP2 POP POP JUMP JUMPDEST PUSH1 0x0 PUSH1 0x20 DUP3 ADD SWAP1 POP DUP2 DUP2 SUB PUSH1 0x0 DUP4 ADD MSTORE PUSH2 0x4CD8 DUP2 DUP5 PUSH2 0x4C49 JUMP JUMPDEST SWAP1 POP SWAP3 SWAP2 POP POP JUMP JUMPDEST PUSH1 0x0 DUP1 PUSH1 0x0 PUSH1 0x60 DUP5 DUP7 SUB SLT ISZERO PUSH2 0x4CF9 JUMPI PUSH2 0x4CF8 PUSH2 0x47DC JUMP JUMPDEST JUMPDEST PUSH1 0x0 PUSH2 0x4D07 DUP7 DUP3 DUP8 ADD PUSH2 0x4807 JUMP JUMPDEST SWAP4 POP POP PUSH1 0x20 PUSH2 0x4D18 DUP7 DUP3 DUP8 ADD PUSH2 0x4807 JUMP JUMPDEST SWAP3 POP POP PUSH1 0x40 PUSH2 0x4D29 DUP7 DUP3 DUP8 ADD PUSH2 0x4807 JUMP JUMPDEST SWAP2 POP POP SWAP3 POP SWAP3 POP SWAP3 JUMP JUMPDEST PUSH1 0x0 DUP2 MLOAD SWAP1 POP SWAP2 SWAP1 POP JUMP JUMPDEST PUSH1 0x0 DUP3 DUP3 MSTORE PUSH1 0x20 DUP3 ADD SWAP1 POP SWAP3 SWAP2 POP POP JUMP JUMPDEST PUSH1 0x0 DUP2 SWAP1 POP PUSH1 0x20 DUP3 ADD SWAP1 POP SWAP2 SWAP1 POP JUMP JUMPDEST PUSH1 0x0 PUSH2 0x4D6B DUP4 DUP4 PUSH2 0x48E6 JUMP JUMPDEST PUSH1 0x20 DUP4 ADD SWAP1 POP SWAP3 SWAP2 POP POP JUMP JUMPDEST PUSH1 0x0 PUSH1 0x20 DUP3 ADD SWAP1 POP SWAP2 SWAP1 POP JUMP JUMPDEST PUSH1 0x0 PUSH2 0x4D8F DUP3 PUSH2 0x4D33 JUMP JUMPDEST PUSH2 0x4D99 DUP2 DUP6 PUSH2 0x4D3E JUMP JUMPDEST SWAP4 POP PUSH2 0x4DA4 DUP4 PUSH2 0x4D4F JUMP JUMPDEST DUP1 PUSH1 0x0 JUMPDEST DUP4 DUP2 LT ISZERO PUSH2 0x4DD5 JUMPI DUP2 MLOAD PUSH2 0x4DBC DUP9 DUP3 PUSH2 0x4D5F JUMP JUMPDEST SWAP8 POP PUSH2 0x4DC7 DUP4 PUSH2 0x4D77 JUMP JUMPDEST SWAP3 POP POP PUSH1 0x1 DUP2 ADD SWAP1 POP PUSH2 0x4DA8 JUMP JUMPDEST POP DUP6 SWAP4 POP POP POP POP SWAP3 SWAP2 POP POP JUMP JUMPDEST PUSH1 0x0 PUSH1 0x20 DUP3 ADD SWAP1 POP DUP2 DUP2 SUB PUSH1 0x0 DUP4 ADD MSTORE PUSH2 0x4DFC DUP2 DUP5 PUSH2 0x4D84 JUMP JUMPDEST SWAP1 POP SWAP3 SWAP2 POP POP JUMP JUMPDEST PUSH1 0x0 PUSH1 0x20 DUP3 DUP5 SUB SLT ISZERO PUSH2 0x4E1A JUMPI PUSH2 0x4E19 PUSH2 0x47DC JUMP JUMPDEST JUMPDEST PUSH1 0x0 PUSH2 0x4E28 DUP5 DUP3 DUP6 ADD PUSH2 0x4807 JUMP JUMPDEST SWAP2 POP POP SWAP3 SWAP2 POP POP JUMP JUMPDEST PUSH2 0x4E3A DUP2 PUSH2 0x497B JUMP JUMPDEST DUP3 MSTORE POP POP JUMP JUMPDEST PUSH1 0x0 PUSH1 0x20 DUP3 ADD SWAP1 POP PUSH2 0x4E55 PUSH1 0x0 DUP4 ADD DUP5 PUSH2 0x4E31 JUMP JUMPDEST SWAP3 SWAP2 POP POP JUMP JUMPDEST PUSH2 0x4E64 DUP2 PUSH2 0x47E6 JUMP JUMPDEST DUP3 MSTORE POP POP JUMP JUMPDEST PUSH2 0x4E73 DUP2 PUSH2 0x483C JUMP JUMPDEST DUP3 MSTORE POP POP JUMP JUMPDEST PUSH1 0x0 DUP3 DUP3 MSTORE PUSH1 0x20 DUP3 ADD SWAP1 POP SWAP3 SWAP2 POP POP JUMP JUMPDEST PUSH1 0x0 PUSH2 0x4E95 DUP3 PUSH2 0x4AFC JUMP JUMPDEST PUSH2 0x4E9F DUP2 DUP6 PUSH2 0x4E79 JUMP JUMPDEST SWAP4 POP PUSH2 0x4EAF DUP2 DUP6 PUSH1 0x20 DUP7 ADD PUSH2 0x4B18 JUMP JUMPDEST PUSH2 0x4EB8 DUP2 PUSH2 0x4B42 JUMP JUMPDEST DUP5 ADD SWAP2 POP POP SWAP3 SWAP2 POP POP JUMP JUMPDEST PUSH1 0x0 PUSH2 0x140 DUP3 ADD SWAP1 POP PUSH2 0x4ED9 PUSH1 0x0 DUP4 ADD DUP14 PUSH2 0x4E5B JUMP JUMPDEST PUSH2 0x4EE6 PUSH1 0x20 DUP4 ADD DUP13 PUSH2 0x4E6A JUMP JUMPDEST DUP2 DUP2 SUB PUSH1 0x40 DUP4 ADD MSTORE PUSH2 0x4EF8 DUP2 DUP12 PUSH2 0x4E8A JUMP JUMPDEST SWAP1 POP PUSH2 0x4F07 PUSH1 0x60 DUP4 ADD DUP11 PUSH2 0x4E5B JUMP JUMPDEST PUSH2 0x4F14 PUSH1 0x80 DUP4 ADD DUP10 PUSH2 0x4E31 JUMP JUMPDEST PUSH2 0x4F21 PUSH1 0xA0 DUP4 ADD DUP9 PUSH2 0x4E5B JUMP JUMPDEST PUSH2 0x4F2E PUSH1 0xC0 DUP4 ADD DUP8 PUSH2 0x4E5B JUMP JUMPDEST PUSH2 0x4F3B PUSH1 0xE0 DUP4 ADD DUP7 PUSH2 0x4E5B JUMP JUMPDEST PUSH2 0x4F49 PUSH2 0x100 DUP4 ADD DUP6 PUSH2 0x4E31 JUMP JUMPDEST PUSH2 0x4F57 PUSH2 0x120 DUP4 ADD DUP5 PUSH2 0x4E5B JUMP JUMPDEST SWAP12 SWAP11 POP POP POP POP POP POP POP POP POP POP POP JUMP JUMPDEST PUSH1 0x0 PUSH2 0x160 DUP3 ADD SWAP1 POP PUSH2 0x4F7C PUSH1 0x0 DUP4 ADD DUP15 PUSH2 0x4E5B JUMP JUMPDEST PUSH2 0x4F89 PUSH1 0x20 DUP4 ADD DUP14 PUSH2 0x4E6A JUMP JUMPDEST DUP2 DUP2 SUB PUSH1 0x40 DUP4 ADD MSTORE PUSH2 0x4F9B DUP2 DUP13 PUSH2 0x4E8A JUMP JUMPDEST SWAP1 POP PUSH2 0x4FAA PUSH1 0x60 DUP4 ADD DUP12 PUSH2 0x4E5B JUMP JUMPDEST PUSH2 0x4FB7 PUSH1 0x80 DUP4 ADD DUP11 PUSH2 0x4E31 JUMP JUMPDEST PUSH2 0x4FC4 PUSH1 0xA0 DUP4 ADD DUP10 PUSH2 0x4E5B JUMP JUMPDEST PUSH2 0x4FD1 PUSH1 0xC0 DUP4 ADD DUP9 PUSH2 0x4E5B JUMP JUMPDEST PUSH2 0x4FDE PUSH1 0xE0 DUP4 ADD DUP8 PUSH2 0x4E5B JUMP JUMPDEST PUSH2 0x4FEC PUSH2 0x100 DUP4 ADD DUP7 PUSH2 0x4E31 JUMP JUMPDEST PUSH2 0x4FFA PUSH2 0x120 DUP4 ADD DUP6 PUSH2 0x4E5B JUMP JUMPDEST DUP2 DUP2 SUB PUSH2 0x140 DUP4 ADD MSTORE PUSH2 0x500D DUP2 DUP5 PUSH2 0x4D84 JUMP JUMPDEST SWAP1 POP SWAP13 SWAP12 POP POP POP POP POP POP POP POP POP POP POP POP JUMP JUMPDEST PUSH1 0x0 DUP1 PUSH1 0x40 DUP4 DUP6 SUB SLT ISZERO PUSH2 0x5036 JUMPI PUSH2 0x5035 PUSH2 0x47DC JUMP JUMPDEST JUMPDEST PUSH1 0x0 PUSH2 0x5044 DUP6 DUP3 DUP7 ADD PUSH2 0x4865 JUMP JUMPDEST SWAP3 POP POP PUSH1 0x20 PUSH2 0x5055 DUP6 DUP3 DUP7 ADD PUSH2 0x4807 JUMP JUMPDEST SWAP2 POP POP SWAP3 POP SWAP3 SWAP1 POP JUMP JUMPDEST PUSH1 0x0 PUSH1 0x20 DUP3 ADD SWAP1 POP PUSH2 0x5074 PUSH1 0x0 DUP4 ADD DUP5 PUSH2 0x4E5B JUMP JUMPDEST SWAP3 SWAP2 POP POP JUMP JUMPDEST PUSH2 0x5083 DUP2 PUSH2 0x497B JUMP JUMPDEST DUP2 EQ PUSH2 0x508E JUMPI PUSH1 0x0 DUP1 REVERT JUMPDEST POP JUMP JUMPDEST PUSH1 0x0 DUP2 CALLDATALOAD SWAP1 POP PUSH2 0x50A0 DUP2 PUSH2 0x507A JUMP JUMPDEST SWAP3 SWAP2 POP POP JUMP JUMPDEST PUSH1 0x0 DUP1 PUSH1 0x40 DUP4 DUP6 SUB SLT ISZERO PUSH2 0x50BD JUMPI PUSH2 0x50BC PUSH2 0x47DC JUMP JUMPDEST JUMPDEST PUSH1 0x0 PUSH2 0x50CB DUP6 DUP3 DUP7 ADD PUSH2 0x4865 JUMP JUMPDEST SWAP3 POP POP PUSH1 0x20 PUSH2 0x50DC DUP6 DUP3 DUP7 ADD PUSH2 0x5091 JUMP JUMPDEST SWAP2 POP POP SWAP3 POP SWAP3 SWAP1 POP JUMP JUMPDEST PUSH1 0x0 DUP1 REVERT JUMPDEST PUSH1 0x0 DUP1 REVERT JUMPDEST PUSH32 0x4E487B7100000000000000000000000000000000000000000000000000000000 PUSH1 0x0 MSTORE PUSH1 0x41 PUSH1 0x4 MSTORE PUSH1 0x24 PUSH1 0x0 REVERT JUMPDEST PUSH2 0x5128 DUP3 PUSH2 0x4B42 JUMP JUMPDEST DUP2 ADD DUP2 DUP2 LT PUSH8 0xFFFFFFFFFFFFFFFF DUP3 GT OR ISZERO PUSH2 0x5147 JUMPI PUSH2 0x5146 PUSH2 0x50F0 JUMP JUMPDEST JUMPDEST DUP1 PUSH1 0x40 MSTORE POP POP POP JUMP JUMPDEST PUSH1 0x0 PUSH2 0x515A PUSH2 0x47D2 JUMP JUMPDEST SWAP1 POP PUSH2 0x5166 DUP3 DUP3 PUSH2 0x511F JUMP JUMPDEST SWAP2 SWAP1 POP JUMP JUMPDEST PUSH1 0x0 PUSH8 0xFFFFFFFFFFFFFFFF DUP3 GT ISZERO PUSH2 0x5186 JUMPI PUSH2 0x5185 PUSH2 0x50F0 JUMP JUMPDEST JUMPDEST PUSH2 0x518F DUP3 PUSH2 0x4B42 JUMP JUMPDEST SWAP1 POP PUSH1 0x20 DUP2 ADD SWAP1 POP SWAP2 SWAP1 POP JUMP JUMPDEST DUP3 DUP2 DUP4 CALLDATACOPY PUSH1 0x0 DUP4 DUP4 ADD MSTORE POP POP POP JUMP JUMPDEST PUSH1 0x0 PUSH2 0x51BE PUSH2 0x51B9 DUP5 PUSH2 0x516B JUMP JUMPDEST PUSH2 0x5150 JUMP JUMPDEST SWAP1 POP DUP3 DUP2 MSTORE PUSH1 0x20 DUP2 ADD DUP5 DUP5 DUP5 ADD GT ISZERO PUSH2 0x51DA JUMPI PUSH2 0x51D9 PUSH2 0x50EB JUMP JUMPDEST JUMPDEST PUSH2 0x51E5 DUP5 DUP3 DUP6 PUSH2 0x519C JUMP JUMPDEST POP SWAP4 SWAP3 POP POP POP JUMP JUMPDEST PUSH1 0x0 DUP3 PUSH1 0x1F DUP4 ADD SLT PUSH2 0x5202 JUMPI PUSH2 0x5201 PUSH2 0x50E6 JUMP JUMPDEST JUMPDEST DUP2 CALLDATALOAD PUSH2 0x5212 DUP5 DUP3 PUSH1 0x20 DUP7 ADD PUSH2 0x51AB JUMP JUMPDEST SWAP2 POP POP SWAP3 SWAP2 POP POP JUMP JUMPDEST PUSH1 0x0 DUP1 REVERT JUMPDEST PUSH1 0x0 DUP1 REVERT JUMPDEST PUSH1 0x0 DUP1 DUP4 PUSH1 0x1F DUP5 ADD SLT PUSH2 0x523B JUMPI PUSH2 0x523A PUSH2 0x50E6 JUMP JUMPDEST JUMPDEST DUP3 CALLDATALOAD SWAP1 POP PUSH8 0xFFFFFFFFFFFFFFFF DUP2 GT ISZERO PUSH2 0x5258 JUMPI PUSH2 0x5257 PUSH2 0x521B JUMP JUMPDEST JUMPDEST PUSH1 0x20 DUP4 ADD SWAP2 POP DUP4 PUSH1 0x20 DUP3 MUL DUP4 ADD GT ISZERO PUSH2 0x5274 JUMPI PUSH2 0x5273 PUSH2 0x5220 JUMP JUMPDEST JUMPDEST SWAP3 POP SWAP3 SWAP1 POP JUMP JUMPDEST PUSH1 0x0 DUP1 PUSH1 0x0 DUP1 PUSH1 0x0 PUSH1 0x80 DUP7 DUP9 SUB SLT ISZERO PUSH2 0x5297 JUMPI PUSH2 0x5296 PUSH2 0x47DC JUMP JUMPDEST JUMPDEST PUSH1 0x0 DUP7 ADD CALLDATALOAD PUSH8 0xFFFFFFFFFFFFFFFF DUP2 GT ISZERO PUSH2 0x52B5 JUMPI PUSH2 0x52B4 PUSH2 0x47E1 JUMP JUMPDEST JUMPDEST PUSH2 0x52C1 DUP9 DUP3 DUP10 ADD PUSH2 0x51ED JUMP JUMPDEST SWAP6 POP POP PUSH1 0x20 DUP7 ADD CALLDATALOAD PUSH8 0xFFFFFFFFFFFFFFFF DUP2 GT ISZERO PUSH2 0x52E2 JUMPI PUSH2 0x52E1 PUSH2 0x47E1 JUMP JUMPDEST JUMPDEST PUSH2 0x52EE DUP9 DUP3 DUP10 ADD PUSH2 0x5225 JUMP JUMPDEST SWAP5 POP SWAP5 POP POP PUSH1 0x40 PUSH2 0x5301 DUP9 DUP3 DUP10 ADD PUSH2 0x4807 JUMP JUMPDEST SWAP3 POP POP PUSH1 0x60 PUSH2 0x5312 DUP9 DUP3 DUP10 ADD PUSH2 0x4807 JUMP JUMPDEST SWAP2 POP POP SWAP3 SWAP6 POP SWAP3 SWAP6 SWAP1 SWAP4 POP JUMP JUMPDEST PUSH1 0x0 DUP2 MLOAD SWAP1 POP SWAP2 SWAP1 POP JUMP JUMPDEST PUSH1 0x0 DUP3 DUP3 MSTORE PUSH1 0x20 DUP3 ADD SWAP1 POP SWAP3 SWAP2 POP POP JUMP JUMPDEST PUSH1 0x0 DUP2 SWAP1 POP PUSH1 0x20 DUP3 ADD SWAP1 POP SWAP2 SWAP1 POP JUMP JUMPDEST PUSH1 0x0 PUSH1 0xFF DUP3 AND SWAP1 POP SWAP2 SWAP1 POP JUMP JUMPDEST PUSH2 0x5361 DUP2 PUSH2 0x534B JUMP JUMPDEST DUP3 MSTORE POP POP JUMP JUMPDEST PUSH1 0x0 PUSH2 0x100 DUP4 ADD PUSH1 0x0 DUP4 ADD MLOAD PUSH2 0x5380 PUSH1 0x0 DUP7 ADD DUP3 PUSH2 0x496C JUMP JUMPDEST POP PUSH1 0x20 DUP4 ADD MLOAD DUP5 DUP3 SUB PUSH1 0x20 DUP7 ADD MSTORE PUSH2 0x5398 DUP3 DUP3 PUSH2 0x4B53 JUMP JUMPDEST SWAP2 POP POP PUSH1 0x40 DUP4 ADD MLOAD PUSH2 0x53AD PUSH1 0x40 DUP7 ADD DUP3 PUSH2 0x48E6 JUMP JUMPDEST POP PUSH1 0x60 DUP4 ADD MLOAD PUSH2 0x53C0 PUSH1 0x60 DUP7 ADD DUP3 PUSH2 0x5358 JUMP JUMPDEST POP PUSH1 0x80 DUP4 ADD MLOAD PUSH2 0x53D3 PUSH1 0x80 DUP7 ADD DUP3 PUSH2 0x496C JUMP JUMPDEST POP PUSH1 0xA0 DUP4 ADD MLOAD PUSH2 0x53E6 PUSH1 0xA0 DUP7 ADD DUP3 PUSH2 0x496C JUMP JUMPDEST POP PUSH1 0xC0 DUP4 ADD MLOAD PUSH2 0x53F9 PUSH1 0xC0 DUP7 ADD DUP3 PUSH2 0x496C JUMP JUMPDEST POP PUSH1 0xE0 DUP4 ADD MLOAD PUSH2 0x540C PUSH1 0xE0 DUP7 ADD DUP3 PUSH2 0x496C JUMP JUMPDEST POP DUP1 SWAP2 POP POP SWAP3 SWAP2 POP POP JUMP JUMPDEST PUSH1 0x0 PUSH2 0x5423 DUP4 DUP4 PUSH2 0x5367 JUMP JUMPDEST SWAP1 POP SWAP3 SWAP2 POP POP JUMP JUMPDEST PUSH1 0x0 PUSH1 0x20 DUP3 ADD SWAP1 POP SWAP2 SWAP1 POP JUMP JUMPDEST PUSH1 0x0 PUSH2 0x5443 DUP3 PUSH2 0x531F JUMP JUMPDEST PUSH2 0x544D DUP2 DUP6 PUSH2 0x532A JUMP JUMPDEST SWAP4 POP DUP4 PUSH1 0x20 DUP3 MUL DUP6 ADD PUSH2 0x545F DUP6 PUSH2 0x533B JUMP JUMPDEST DUP1 PUSH1 0x0 JUMPDEST DUP6 DUP2 LT ISZERO PUSH2 0x549B JUMPI DUP5 DUP5 SUB DUP10 MSTORE DUP2 MLOAD PUSH2 0x547C DUP6 DUP3 PUSH2 0x5417 JUMP JUMPDEST SWAP5 POP PUSH2 0x5487 DUP4 PUSH2 0x542B JUMP JUMPDEST SWAP3 POP PUSH1 0x20 DUP11 ADD SWAP10 POP POP PUSH1 0x1 DUP2 ADD SWAP1 POP PUSH2 0x5463 JUMP JUMPDEST POP DUP3 SWAP8 POP DUP8 SWAP6 POP POP POP POP POP POP SWAP3 SWAP2 POP POP JUMP JUMPDEST PUSH1 0x0 PUSH1 0x20 DUP3 ADD SWAP1 POP DUP2 DUP2 SUB PUSH1 0x0 DUP4 ADD MSTORE PUSH2 0x54C7 DUP2 DUP5 PUSH2 0x5438 JUMP JUMPDEST SWAP1 POP SWAP3 SWAP2 POP POP JUMP JUMPDEST PUSH1 0x0 PUSH1 0x20 DUP3 ADD SWAP1 POP PUSH2 0x54E4 PUSH1 0x0 DUP4 ADD DUP5 PUSH2 0x4E6A JUMP JUMPDEST SWAP3 SWAP2 POP POP JUMP JUMPDEST PUSH1 0x0 DUP1 PUSH1 0x0 DUP1 PUSH1 0x60 DUP6 DUP8 SUB SLT ISZERO PUSH2 0x5504 JUMPI PUSH2 0x5503 PUSH2 0x47DC JUMP JUMPDEST JUMPDEST PUSH1 0x0 PUSH2 0x5512 DUP8 DUP3 DUP9 ADD PUSH2 0x4807 JUMP JUMPDEST SWAP5 POP POP PUSH1 0x20 PUSH2 0x5523 DUP8 DUP3 DUP9 ADD PUSH2 0x4865 JUMP JUMPDEST SWAP4 POP POP PUSH1 0x40 DUP6 ADD CALLDATALOAD PUSH8 0xFFFFFFFFFFFFFFFF DUP2 GT ISZERO PUSH2 0x5544 JUMPI PUSH2 0x5543 PUSH2 0x47E1 JUMP JUMPDEST JUMPDEST PUSH2 0x5550 DUP8 DUP3 DUP9 ADD PUSH2 0x5225 JUMP JUMPDEST SWAP3 POP SWAP3 POP POP SWAP3 SWAP6 SWAP2 SWAP5 POP SWAP3 POP JUMP JUMPDEST PUSH32 0x4E487B7100000000000000000000000000000000000000000000000000000000 PUSH1 0x0 MSTORE PUSH1 0x32 PUSH1 0x4 MSTORE PUSH1 0x24 PUSH1 0x0 REVERT JUMPDEST PUSH32 0x4E487B7100000000000000000000000000000000000000000000000000000000 PUSH1 0x0 MSTORE PUSH1 0x11 PUSH1 0x4 MSTORE PUSH1 0x24 PUSH1 0x0 REVERT JUMPDEST PUSH1 0x0 PUSH2 0x55C7 DUP3 PUSH2 0x47E6 JUMP JUMPDEST SWAP2 POP PUSH2 0x55D2 DUP4 PUSH2 0x47E6 JUMP JUMPDEST SWAP3 POP DUP3 DUP3 ADD SWAP1 POP DUP1 DUP3 GT ISZERO PUSH2 0x55EA JUMPI PUSH2 0x55E9 PUSH2 0x558D JUMP JUMPDEST JUMPDEST SWAP3 SWAP2 POP POP JUMP JUMPDEST PUSH32 0x4E487B7100000000000000000000000000000000000000000000000000000000 PUSH1 0x0 MSTORE PUSH1 0x22 PUSH1 0x4 MSTORE PUSH1 0x24 PUSH1 0x0 REVERT JUMPDEST PUSH1 0x0 PUSH1 0x2 DUP3 DIV SWAP1 POP PUSH1 0x1 DUP3 AND DUP1 PUSH2 0x5637 JUMPI PUSH1 0x7F DUP3 AND SWAP2 POP JUMPDEST PUSH1 0x20 DUP3 LT DUP2 SUB PUSH2 0x564A JUMPI PUSH2 0x5649 PUSH2 0x55F0 JUMP JUMPDEST JUMPDEST POP SWAP2 SWAP1 POP JUMP JUMPDEST PUSH1 0x0 PUSH2 0x565B DUP3 PUSH2 0x47E6 JUMP JUMPDEST SWAP2 POP PUSH32 0xFFFFFFFFFFFFFFFFFFFFFFFFFFFFFFFFFFFFFFFFFFFFFFFFFFFFFFFFFFFFFFFF DUP3 SUB PUSH2 0x568D JUMPI PUSH2 0x568C PUSH2 0x558D JUMP JUMPDEST JUMPDEST PUSH1 0x1 DUP3 ADD SWAP1 POP SWAP2 SWAP1 POP JUMP JUMPDEST PUSH1 0x0 PUSH1 0x40 DUP3 ADD SWAP1 POP PUSH2 0x56AD PUSH1 0x0 DUP4 ADD DUP6 PUSH2 0x4E5B JUMP JUMPDEST PUSH2 0x56BA PUSH1 0x20 DUP4 ADD DUP5 PUSH2 0x4E5B JUMP JUMPDEST SWAP4 SWAP3 POP POP POP JUMP JUMPDEST PUSH1 0x0 PUSH2 0x56CC DUP3 PUSH2 0x47E6 JUMP JUMPDEST SWAP2 POP PUSH2 0x56D7 DUP4 PUSH2 0x47E6 JUMP JUMPDEST SWAP3 POP DUP3 DUP3 SUB SWAP1 POP DUP2 DUP2 GT ISZERO PUSH2 0x56EF JUMPI PUSH2 0x56EE PUSH2 0x558D JUMP JUMPDEST JUMPDEST SWAP3 SWAP2 POP POP JUMP JUMPDEST PUSH1 0x0 DUP2 SWAP1 POP DUP2 PUSH1 0x0 MSTORE PUSH1 0x20 PUSH1 0x0 KECCAK256 SWAP1 POP SWAP2 SWAP1 POP JUMP JUMPDEST PUSH1 0x0 PUSH1 0x20 PUSH1 0x1F DUP4 ADD DIV SWAP1 POP SWAP2 SWAP1 POP JUMP JUMPDEST PUSH1 0x0 DUP3 DUP3 SHL SWAP1 POP SWAP3 SWAP2 POP POP JUMP JUMPDEST PUSH1 0x0 PUSH1 0x8 DUP4 MUL PUSH2 0x5757 PUSH32 0xFFFFFFFFFFFFFFFFFFFFFFFFFFFFFFFFFFFFFFFFFFFFFFFFFFFFFFFFFFFFFFFF DUP3 PUSH2 0x571A JUMP JUMPDEST PUSH2 0x5761 DUP7 DUP4 PUSH2 0x571A JUMP JUMPDEST SWAP6 POP DUP1 NOT DUP5 AND SWAP4 POP DUP1 DUP7 AND DUP5 OR SWAP3 POP POP POP SWAP4 SWAP3 POP POP POP JUMP JUMPDEST PUSH1 0x0 DUP2 SWAP1 POP SWAP2 SWAP1 POP JUMP JUMPDEST PUSH1 0x0 PUSH2 0x579E PUSH2 0x5799 PUSH2 0x5794 DUP5 PUSH2 0x47E6 JUMP JUMPDEST PUSH2 0x5779 JUMP JUMPDEST PUSH2 0x47E6 JUMP JUMPDEST SWAP1 POP SWAP2 SWAP1 POP JUMP JUMPDEST PUSH1 0x0 DUP2 SWAP1 POP SWAP2 SWAP1 POP JUMP JUMPDEST PUSH2 0x57B8 DUP4 PUSH2 0x5783 JUMP JUMPDEST PUSH2 0x57CC PUSH2 0x57C4 DUP3 PUSH2 0x57A5 JUMP JUMPDEST DUP5 DUP5 SLOAD PUSH2 0x5727 JUMP JUMPDEST DUP3 SSTORE POP POP POP POP JUMP JUMPDEST PUSH1 0x0 SWAP1 JUMP JUMPDEST PUSH2 0x57E1 PUSH2 0x57D4 JUMP JUMPDEST PUSH2 0x57EC DUP2 DUP5 DUP5 PUSH2 0x57AF JUMP JUMPDEST POP POP POP JUMP JUMPDEST JUMPDEST DUP2 DUP2 LT ISZERO PUSH2 0x5810 JUMPI PUSH2 0x5805 PUSH1 0x0 DUP3 PUSH2 0x57D9 JUMP JUMPDEST PUSH1 0x1 DUP2 ADD SWAP1 POP PUSH2 0x57F2 JUMP JUMPDEST POP POP JUMP JUMPDEST PUSH1 0x1F DUP3 GT ISZERO PUSH2 0x5855 JUMPI PUSH2 0x5826 DUP2 PUSH2 0x56F5 JUMP JUMPDEST PUSH2 0x582F DUP5 PUSH2 0x570A JUMP JUMPDEST DUP2 ADD PUSH1 0x20 DUP6 LT ISZERO PUSH2 0x583E JUMPI DUP2 SWAP1 POP JUMPDEST PUSH2 0x5852 PUSH2 0x584A DUP6 PUSH2 0x570A JUMP JUMPDEST DUP4 ADD DUP3 PUSH2 0x57F1 JUMP JUMPDEST POP POP JUMPDEST POP POP POP JUMP JUMPDEST PUSH1 0x0 DUP3 DUP3 SHR SWAP1 POP SWAP3 SWAP2 POP POP JUMP JUMPDEST PUSH1 0x0 PUSH2 0x5878 PUSH1 0x0 NOT DUP5 PUSH1 0x8 MUL PUSH2 0x585A JUMP JUMPDEST NOT DUP1 DUP4 AND SWAP2 POP POP SWAP3 SWAP2 POP POP JUMP JUMPDEST PUSH1 0x0 PUSH2 0x5891 DUP4 DUP4 PUSH2 0x5867 JUMP JUMPDEST SWAP2 POP DUP3 PUSH1 0x2 MUL DUP3 OR SWAP1 POP SWAP3 SWAP2 POP POP JUMP JUMPDEST PUSH2 0x58AA DUP3 PUSH2 0x4AFC JUMP JUMPDEST PUSH8 0xFFFFFFFFFFFFFFFF DUP2 GT ISZERO PUSH2 0x58C3 JUMPI PUSH2 0x58C2 PUSH2 0x50F0 JUMP JUMPDEST JUMPDEST PUSH2 0x58CD DUP3 SLOAD PUSH2 0x561F JUMP JUMPDEST PUSH2 0x58D8 DUP3 DUP3 DUP6 PUSH2 0x5814 JUMP JUMPDEST PUSH1 0x0 PUSH1 0x20 SWAP1 POP PUSH1 0x1F DUP4 GT PUSH1 0x1 DUP2 EQ PUSH2 0x590B JUMPI PUSH1 0x0 DUP5 ISZERO PUSH2 0x58F9 JUMPI DUP3 DUP8 ADD MLOAD SWAP1 POP JUMPDEST PUSH2 0x5903 DUP6 DUP3 PUSH2 0x5885 JUMP JUMPDEST DUP7 SSTORE POP PUSH2 0x596B JUMP JUMPDEST PUSH1 0x1F NOT DUP5 AND PUSH2 0x5919 DUP7 PUSH2 0x56F5 JUMP JUMPDEST PUSH1 0x0 JUMPDEST DUP3 DUP2 LT ISZERO PUSH2 0x5941 JUMPI DUP5 DUP10 ADD MLOAD DUP3 SSTORE PUSH1 0x1 DUP3 ADD SWAP2 POP PUSH1 0x20 DUP6 ADD SWAP5 POP PUSH1 0x20 DUP2 ADD SWAP1 POP PUSH2 0x591C JUMP JUMPDEST DUP7 DUP4 LT ISZERO PUSH2 0x595E JUMPI DUP5 DUP10 ADD MLOAD PUSH2 0x595A PUSH1 0x1F DUP10 AND DUP3 PUSH2 0x5867 JUMP JUMPDEST DUP4 SSTORE POP JUMPDEST PUSH1 0x1 PUSH1 0x2 DUP9 MUL ADD DUP9 SSTORE POP POP POP JUMPDEST POP POP POP POP POP POP JUMP JUMPDEST PUSH1 0x0 DUP1 REVERT JUMPDEST PUSH1 0x0 DUP1 REVERT JUMPDEST PUSH1 0x0 DUP1 REVERT JUMPDEST PUSH1 0x0 DUP3 CALLDATALOAD PUSH1 0x1 PUSH1 0xA0 SUB DUP4 CALLDATASIZE SUB SUB DUP2 SLT PUSH2 0x599E JUMPI PUSH2 0x599D PUSH2 0x5973 JUMP JUMPDEST JUMPDEST DUP1 DUP4 ADD SWAP2 POP POP SWAP3 SWAP2 POP POP JUMP JUMPDEST PUSH1 0x0 DUP1 DUP4 CALLDATALOAD PUSH1 0x1 PUSH1 0x20 SUB DUP5 CALLDATASIZE SUB SUB DUP2 SLT PUSH2 0x59C7 JUMPI PUSH2 0x59C6 PUSH2 0x5973 JUMP JUMPDEST JUMPDEST DUP1 DUP5 ADD SWAP3 POP DUP3 CALLDATALOAD SWAP2 POP PUSH8 0xFFFFFFFFFFFFFFFF DUP3 GT ISZERO PUSH2 0x59E9 JUMPI PUSH2 0x59E8 PUSH2 0x5978 JUMP JUMPDEST JUMPDEST PUSH1 0x20 DUP4 ADD SWAP3 POP PUSH1 0x20 DUP3 MUL CALLDATASIZE SUB DUP4 SGT ISZERO PUSH2 0x5A05 JUMPI PUSH2 0x5A04 PUSH2 0x597D JUMP JUMPDEST JUMPDEST POP SWAP3 POP SWAP3 SWAP1 POP JUMP JUMPDEST PUSH32 0x4E487B7100000000000000000000000000000000000000000000000000000000 PUSH1 0x0 MSTORE PUSH1 0x12 PUSH1 0x4 MSTORE PUSH1 0x24 PUSH1 0x0 REVERT JUMPDEST PUSH1 0x0 PUSH2 0x5A47 DUP3 PUSH2 0x47E6 JUMP JUMPDEST SWAP2 POP PUSH2 0x5A52 DUP4 PUSH2 0x47E6 JUMP JUMPDEST SWAP3 POP DUP3 PUSH2 0x5A62 JUMPI PUSH2 0x5A61 PUSH2 0x5A0D JUMP JUMPDEST JUMPDEST DUP3 DUP3 DIV SWAP1 POP SWAP3 SWAP2 POP POP JUMP JUMPDEST PUSH1 0x3 DUP2 LT PUSH2 0x5A7A JUMPI PUSH1 0x0 DUP1 REVERT JUMPDEST POP JUMP JUMPDEST PUSH1 0x0 DUP2 CALLDATALOAD SWAP1 POP PUSH2 0x5A8C DUP2 PUSH2 0x5A6D JUMP JUMPDEST SWAP3 SWAP2 POP POP JUMP JUMPDEST PUSH1 0x0 PUSH1 0x20 DUP3 DUP5 SUB SLT ISZERO PUSH2 0x5AA8 JUMPI PUSH2 0x5AA7 PUSH2 0x47DC JUMP JUMPDEST JUMPDEST PUSH1 0x0 PUSH2 0x5AB6 DUP5 DUP3 DUP6 ADD PUSH2 0x5A7D JUMP JUMPDEST SWAP2 POP POP SWAP3 SWAP2 POP POP JUMP JUMPDEST PUSH1 0x0 DUP1 DUP4 CALLDATALOAD PUSH1 0x1 PUSH1 0x20 SUB DUP5 CALLDATASIZE SUB SUB DUP2 SLT PUSH2 0x5ADC JUMPI PUSH2 0x5ADB PUSH2 0x5973 JUMP JUMPDEST JUMPDEST DUP1 DUP5 ADD SWAP3 POP DUP3 CALLDATALOAD SWAP2 POP PUSH8 0xFFFFFFFFFFFFFFFF DUP3 GT ISZERO PUSH2 0x5AFE JUMPI PUSH2 0x5AFD PUSH2 0x5978 JUMP JUMPDEST JUMPDEST PUSH1 0x20 DUP4 ADD SWAP3 POP PUSH1 0x20 DUP3 MUL CALLDATASIZE SUB DUP4 SGT ISZERO PUSH2 0x5B1A JUMPI PUSH2 0x5B19 PUSH2 0x597D JUMP JUMPDEST JUMPDEST POP SWAP3 POP SWAP3 SWAP1 POP JUMP JUMPDEST PUSH1 0x0 PUSH1 0x60 DUP3 ADD SWAP1 POP PUSH2 0x5B37 PUSH1 0x0 DUP4 ADD DUP7 PUSH2 0x4E6A JUMP JUMPDEST PUSH2 0x5B44 PUSH1 0x20 DUP4 ADD DUP6 PUSH2 0x4E6A JUMP JUMPDEST PUSH2 0x5B51 PUSH1 0x40 DUP4 ADD DUP5 PUSH2 0x4E5B JUMP JUMPDEST SWAP5 SWAP4 POP POP POP POP JUMP JUMPDEST PUSH1 0x0 DUP2 MLOAD SWAP1 POP PUSH2 0x5B68 DUP2 PUSH2 0x507A JUMP JUMPDEST SWAP3 SWAP2 POP POP JUMP JUMPDEST PUSH1 0x0 PUSH1 0x20 DUP3 DUP5 SUB SLT ISZERO PUSH2 0x5B84 JUMPI PUSH2 0x5B83 PUSH2 0x47DC JUMP JUMPDEST JUMPDEST PUSH1 0x0 PUSH2 0x5B92 DUP5 DUP3 DUP6 ADD PUSH2 0x5B59 JUMP JUMPDEST SWAP2 POP POP SWAP3 SWAP2 POP POP JUMP JUMPDEST PUSH2 0x5BA4 DUP2 PUSH2 0x494B JUMP JUMPDEST DUP3 MSTORE POP POP JUMP JUMPDEST PUSH1 0x0 DUP2 SWAP1 POP SWAP2 SWAP1 POP JUMP JUMPDEST PUSH1 0x0 PUSH2 0x5BCF PUSH2 0x5BCA PUSH2 0x5BC5 DUP5 PUSH2 0x5BAA JUMP JUMPDEST PUSH2 0x5779 JUMP JUMPDEST PUSH2 0x47E6 JUMP JUMPDEST SWAP1 POP SWAP2 SWAP1 POP JUMP JUMPDEST PUSH2 0x5BDF DUP2 PUSH2 0x5BB4 JUMP JUMPDEST DUP3 MSTORE POP POP JUMP JUMPDEST PUSH1 0x0 PUSH1 0x60 DUP3 ADD SWAP1 POP PUSH2 0x5BFA PUSH1 0x0 DUP4 ADD DUP7 PUSH2 0x5B9B JUMP JUMPDEST PUSH2 0x5C07 PUSH1 0x20 DUP4 ADD DUP6 PUSH2 0x5BD6 JUMP JUMPDEST PUSH2 0x5C14 PUSH1 0x40 DUP4 ADD DUP5 PUSH2 0x4E5B JUMP JUMPDEST SWAP5 SWAP4 POP POP POP POP JUMP JUMPDEST PUSH1 0x0 DUP2 SLOAD SWAP1 POP SWAP2 SWAP1 POP JUMP JUMPDEST PUSH1 0x0 DUP2 SWAP1 POP DUP2 PUSH1 0x0 MSTORE PUSH1 0x20 PUSH1 0x0 KECCAK256 SWAP1 POP SWAP2 SWAP1 POP JUMP JUMPDEST PUSH1 0x0 DUP2 PUSH1 0x0 SHR SWAP1 POP SWAP2 SWAP1 POP JUMP JUMPDEST PUSH1 0x0 PUSH20 0xFFFFFFFFFFFFFFFFFFFFFFFFFFFFFFFFFFFFFFFF DUP3 AND SWAP1 POP SWAP2 SWAP1 POP JUMP JUMPDEST PUSH1 0x0 PUSH2 0x5C7C PUSH2 0x5C77 DUP4 PUSH2 0x5C3C JUMP JUMPDEST PUSH2 0x5C49 JUMP JUMPDEST SWAP1 POP SWAP2 SWAP1 POP JUMP JUMPDEST PUSH1 0x0 PUSH2 0x5C8F DUP3 SLOAD PUSH2 0x5C69 JUMP JUMPDEST SWAP1 POP SWAP2 SWAP1 POP JUMP JUMPDEST PUSH1 0x0 PUSH1 0x1 DUP3 ADD SWAP1 POP SWAP2 SWAP1 POP JUMP JUMPDEST PUSH1 0x0 PUSH2 0x5CAE DUP3 PUSH2 0x5C1C JUMP JUMPDEST PUSH2 0x5CB8 DUP2 DUP6 PUSH2 0x4D3E JUMP JUMPDEST SWAP4 POP PUSH2 0x5CC3 DUP4 PUSH2 0x5C27 JUMP JUMPDEST DUP1 PUSH1 0x0 JUMPDEST DUP4 DUP2 LT ISZERO PUSH2 0x5CFB JUMPI PUSH2 0x5CD8 DUP3 PUSH2 0x5C83 JUMP JUMPDEST PUSH2 0x5CE2 DUP9 DUP3 PUSH2 0x4D5F JUMP JUMPDEST SWAP8 POP PUSH2 0x5CED DUP4 PUSH2 0x5C96 JUMP JUMPDEST SWAP3 POP POP PUSH1 0x1 DUP2 ADD SWAP1 POP PUSH2 0x5CC7 JUMP JUMPDEST POP DUP6 SWAP4 POP POP POP POP SWAP3 SWAP2 POP POP JUMP JUMPDEST PUSH1 0x0 PUSH1 0x40 DUP3 ADD SWAP1 POP DUP2 DUP2 SUB PUSH1 0x0 DUP4 ADD MSTORE PUSH2 0x5D22 DUP2 DUP6 PUSH2 0x4E8A JUMP JUMPDEST SWAP1 POP DUP2 DUP2 SUB PUSH1 0x20 DUP4 ADD MSTORE PUSH2 0x5D36 DUP2 DUP5 PUSH2 0x5CA3 JUMP JUMPDEST SWAP1 POP SWAP4 SWAP3 POP POP POP JUMP JUMPDEST PUSH1 0x0 DUP2 SWAP1 POP SWAP3 SWAP2 POP POP JUMP JUMPDEST POP JUMP JUMPDEST PUSH1 0x0 PUSH2 0x5D5A PUSH1 0x0 DUP4 PUSH2 0x5D3F JUMP JUMPDEST SWAP2 POP PUSH2 0x5D65 DUP3 PUSH2 0x5D4A JUMP JUMPDEST PUSH1 0x0 DUP3 ADD SWAP1 POP SWAP2 SWAP1 POP JUMP JUMPDEST PUSH1 0x0 PUSH2 0x5D7B DUP3 PUSH2 0x5D4D JUMP JUMPDEST SWAP2 POP DUP2 SWAP1 POP SWAP2 SWAP1 POP JUMP JUMPDEST PUSH1 0x0 PUSH1 0x40 DUP3 ADD SWAP1 POP PUSH2 0x5D9A PUSH1 0x0 DUP4 ADD DUP6 PUSH2 0x4E6A JUMP JUMPDEST PUSH2 0x5DA7 PUSH1 0x20 DUP4 ADD DUP5 PUSH2 0x4E5B JUMP JUMPDEST SWAP4 SWAP3 POP POP POP JUMP JUMPDEST PUSH1 0x0 PUSH2 0x5DB9 DUP3 PUSH2 0x47E6 JUMP JUMPDEST SWAP2 POP PUSH2 0x5DC4 DUP4 PUSH2 0x47E6 JUMP JUMPDEST SWAP3 POP DUP3 DUP3 MUL PUSH2 0x5DD2 DUP2 PUSH2 0x47E6 JUMP JUMPDEST SWAP2 POP DUP3 DUP3 DIV DUP5 EQ DUP4 ISZERO OR PUSH2 0x5DE9 JUMPI PUSH2 0x5DE8 PUSH2 0x558D JUMP JUMPDEST JUMPDEST POP SWAP3 SWAP2 POP POP JUMP JUMPDEST PUSH1 0x0 PUSH1 0x60 DUP3 ADD SWAP1 POP PUSH2 0x5E05 PUSH1 0x0 DUP4 ADD DUP7 PUSH2 0x4E5B JUMP JUMPDEST PUSH2 0x5E12 PUSH1 0x20 DUP4 ADD DUP6 PUSH2 0x4E5B JUMP JUMPDEST PUSH2 0x5E1F PUSH1 0x40 DUP4 ADD DUP5 PUSH2 0x4E5B JUMP JUMPDEST SWAP5 SWAP4 POP POP POP POP JUMP INVALID LOG2 PUSH5 0x6970667358 0x22 SLT KECCAK256 0xC1 LOG0 0xE6 PUSH4 0xBC9F6C8D CALLDATALOAD 0x23 0xE5 ISZERO 0xA9 MSIZE POP 0x2D 0xD3 OR 0xEB 0xDF 0xE INVALID PUSH22 0xC686E9B2B69E86DCBA64736F6C634300081800330000 "
        },
        "methodIdentifiers": {
          "addBeneficiaryWithAllocation(uint256,address,(address,uint8,uint256[],uint256[],address[])[])": "9516e033",
          "authorizedBackends(address)": "e712a35d",
          "beneficiaryWills(address,uint256)": "888253e4",
          "checkAndTriggerDeadManSwitch(address)": "3d9c68fc",
          "claimInheritance(uint256)": "92ccb8ff",
          "createWill(string,(address,uint8,uint256[],uint256[],address[])[],uint256,uint256)": "69f196bb",
          "getBeneficiaries(address)": "1cab59a4",
          "getBeneficiaryAllocations(uint256,address)": "14f93bf8",
          "getRemainingGracePeriod(uint256)": "4a4d6714",
          "getTimeUntilDeadManSwitch(uint256)": "cfd35b8a",
          "getTotalTokensWilled(address)": "eed4a3f5",
          "getTotalUniqueBeneficiaries(address)": "e5ab8c88",
          "getTotalWillsCreated(address)": "9f1494b8",
          "getWillDetailsByIdAndOwner(uint256,address)": "3cf9d073",
          "getWillsAsBeneficiary(address)": "6bd6cfd6",
          "getWillsByOwner(address)": "7de00a9d",
          "getWillsWilledToBeneficiary(address)": "1579673c",
          "hasGracePeriodEnded(uint256)": "1cba3af9",
          "owner()": "8da5cb5b",
          "ownerWillIds(address,uint256)": "479b7676",
          "renounceOwnership()": "715018a6",
          "setAuthorizedBackend(address,bool)": "4fb37f3c",
          "transferOwnership(address)": "f2fde38b",
          "updateTimeframes(uint256,uint256,uint256)": "1a2cd78f",
          "wills(address)": "a4cb92fa",
          "willsById(uint256)": "1ed22bd7"
        }
      }
    }
  }
}