{
  "_format": "hh-sol-artifact-1",
  "contractName": "WillRegistry",
  "sourceName": "contracts/WillRegistry.sol",
  "abi": [
    {
      "inputs": [],
      "stateMutability": "nonpayable",
      "type": "constructor"
    },
    {
      "inputs": [
        {
          "internalType": "uint256",
          "name": "provided",
          "type": "uint256"
        },
        {
          "internalType": "uint256",
          "name": "min",
          "type": "uint256"
        },
        {
          "internalType": "uint256",
          "name": "max",
          "type": "uint256"
        }
      ],
      "name": "ActivityThresholdInvalid",
      "type": "error"
    },
    {
      "inputs": [
        {
          "internalType": "uint256",
          "name": "activityThreshold",
          "type": "uint256"
        },
        {
          "internalType": "uint256",
          "name": "gracePeriod",
          "type": "uint256"
        }
      ],
      "name": "ActivityThresholdTooShortForGracePeriod",
      "type": "error"
    },
    {
      "inputs": [],
      "name": "AlreadyClaimed",
      "type": "error"
    },
    {
      "inputs": [],
      "name": "BeneficiaryExists",
      "type": "error"
    },
    {
      "inputs": [],
      "name": "BeneficiaryMissing",
      "type": "error"
    },
    {
      "inputs": [],
      "name": "DeadManSwitchNotTriggered",
      "type": "error"
    },
    {
      "inputs": [],
      "name": "DeadSwitchActive",
      "type": "error"
    },
    {
      "inputs": [],
      "name": "EtherTransferFailed",
      "type": "error"
    },
    {
      "inputs": [
        {
          "internalType": "uint256",
          "name": "provided",
          "type": "uint256"
        },
        {
          "internalType": "uint256",
          "name": "min",
          "type": "uint256"
        },
        {
          "internalType": "uint256",
          "name": "max",
          "type": "uint256"
        }
      ],
      "name": "GracePeriodInvalid",
      "type": "error"
    },
    {
      "inputs": [],
      "name": "GracePeriodNotEnded",
      "type": "error"
    },
    {
      "inputs": [],
      "name": "InvalidBeneficiary",
      "type": "error"
    },
    {
      "inputs": [],
      "name": "InvalidToken",
      "type": "error"
    },
    {
      "inputs": [],
      "name": "NoAllocation",
      "type": "error"
    },
    {
      "inputs": [],
      "name": "NotABeneficiary",
      "type": "error"
    },
    {
      "inputs": [],
      "name": "NotWillOwner",
      "type": "error"
    },
    {
      "inputs": [
        {
          "internalType": "address",
          "name": "owner",
          "type": "address"
        }
      ],
      "name": "OwnableInvalidOwner",
      "type": "error"
    },
    {
      "inputs": [
        {
          "internalType": "address",
          "name": "account",
          "type": "address"
        }
      ],
      "name": "OwnableUnauthorizedAccount",
      "type": "error"
    },
    {
      "inputs": [],
      "name": "ReentrancyGuardReentrantCall",
      "type": "error"
    },
    {
      "inputs": [],
      "name": "Unauthorized",
      "type": "error"
    },
    {
      "inputs": [],
      "name": "WillIdInvalid",
      "type": "error"
    },
    {
      "inputs": [
        {
          "internalType": "uint256",
          "name": "willId",
          "type": "uint256"
        }
      ],
      "name": "WillIdNotFound",
      "type": "error"
    },
    {
      "inputs": [],
      "name": "WillInactive",
      "type": "error"
    },
    {
      "inputs": [],
      "name": "WillNotFound",
      "type": "error"
    },
    {
      "anonymous": false,
      "inputs": [
        {
          "indexed": true,
          "internalType": "address",
          "name": "owner",
          "type": "address"
        },
        {
          "indexed": false,
          "internalType": "uint256",
          "name": "timestamp",
          "type": "uint256"
        }
      ],
      "name": "ActivityUpdated",
      "type": "event"
    },
    {
      "anonymous": false,
      "inputs": [
        {
          "indexed": true,
          "internalType": "address",
          "name": "owner",
          "type": "address"
        },
        {
          "indexed": true,
          "internalType": "address",
          "name": "beneficiary",
          "type": "address"
        }
      ],
      "name": "BeneficiaryAdded",
      "type": "event"
    },
    {
      "anonymous": false,
      "inputs": [
        {
          "indexed": true,
          "internalType": "address",
          "name": "beneficiary",
          "type": "address"
        },
        {
          "indexed": true,
          "internalType": "address",
          "name": "token",
          "type": "address"
        },
        {
          "indexed": false,
          "internalType": "uint256",
          "name": "tokenId",
          "type": "uint256"
        },
        {
          "indexed": false,
          "internalType": "uint256",
          "name": "amount",
          "type": "uint256"
        }
      ],
      "name": "BeneficiaryClaimed",
      "type": "event"
    },
    {
      "anonymous": false,
      "inputs": [
        {
          "indexed": true,
          "internalType": "address",
          "name": "owner",
          "type": "address"
        },
        {
          "indexed": true,
          "internalType": "address",
          "name": "beneficiary",
          "type": "address"
        }
      ],
      "name": "BeneficiaryRemoved",
      "type": "event"
    },
    {
      "anonymous": false,
      "inputs": [
        {
          "indexed": true,
          "internalType": "address",
          "name": "owner",
          "type": "address"
        },
        {
          "indexed": false,
          "internalType": "uint256",
          "name": "timestamp",
          "type": "uint256"
        }
      ],
      "name": "DeadManSwitchActivated",
      "type": "event"
    },
    {
      "anonymous": false,
      "inputs": [
        {
          "indexed": true,
          "internalType": "address",
          "name": "owner",
          "type": "address"
        }
      ],
      "name": "DeadManSwitchTriggered",
      "type": "event"
    },
    {
      "anonymous": false,
      "inputs": [
        {
          "indexed": true,
          "internalType": "address",
          "name": "owner",
          "type": "address"
        },
        {
          "indexed": false,
          "internalType": "uint256",
          "name": "amount",
          "type": "uint256"
        },
        {
          "indexed": true,
          "internalType": "address",
          "name": "beneficiary",
          "type": "address"
        }
      ],
      "name": "EtherAllocated",
      "type": "event"
    },
    {
      "anonymous": false,
      "inputs": [
        {
          "indexed": true,
          "internalType": "address",
          "name": "owner",
          "type": "address"
        },
        {
          "indexed": false,
          "internalType": "uint256",
          "name": "timestamp",
          "type": "uint256"
        },
        {
          "indexed": false,
          "internalType": "uint256",
          "name": "gracePeriod",
          "type": "uint256"
        }
      ],
      "name": "GracePeriodStarted",
      "type": "event"
    },
    {
      "anonymous": false,
      "inputs": [
        {
          "indexed": true,
          "internalType": "address",
          "name": "previousOwner",
          "type": "address"
        },
        {
          "indexed": true,
          "internalType": "address",
          "name": "newOwner",
          "type": "address"
        }
      ],
      "name": "OwnershipTransferred",
      "type": "event"
    },
    {
      "anonymous": false,
      "inputs": [
        {
          "indexed": true,
          "internalType": "address",
          "name": "owner",
          "type": "address"
        }
      ],
      "name": "PanicButtonPressed",
      "type": "event"
    },
    {
      "anonymous": false,
      "inputs": [
        {
          "indexed": true,
          "internalType": "address",
          "name": "owner",
          "type": "address"
        },
        {
          "indexed": false,
          "internalType": "uint256",
          "name": "gracePeriod",
          "type": "uint256"
        },
        {
          "indexed": false,
          "internalType": "uint256",
          "name": "activityThreshold",
          "type": "uint256"
        }
      ],
      "name": "TimeframesUpdated",
      "type": "event"
    },
    {
      "anonymous": false,
      "inputs": [
        {
          "indexed": true,
          "internalType": "address",
          "name": "owner",
          "type": "address"
        },
        {
          "indexed": true,
          "internalType": "address",
          "name": "token",
          "type": "address"
        },
        {
          "indexed": false,
          "internalType": "enum WillRegistry.TokenType",
          "name": "tokenType",
          "type": "uint8"
        },
        {
          "indexed": true,
          "internalType": "address",
          "name": "beneficiary",
          "type": "address"
        },
        {
          "indexed": false,
          "internalType": "uint256",
          "name": "tokenId",
          "type": "uint256"
        },
        {
          "indexed": false,
          "internalType": "uint256",
          "name": "amount",
          "type": "uint256"
        }
      ],
      "name": "TokenAllocated",
      "type": "event"
    },
    {
      "anonymous": false,
      "inputs": [
        {
          "indexed": true,
          "internalType": "address",
          "name": "beneficiary",
          "type": "address"
        },
        {
          "indexed": true,
          "internalType": "address",
          "name": "willOwner",
          "type": "address"
        }
      ],
      "name": "WillClaimed",
      "type": "event"
    },
    {
      "anonymous": false,
      "inputs": [
        {
          "indexed": true,
          "internalType": "address",
          "name": "owner",
          "type": "address"
        },
        {
          "indexed": false,
          "internalType": "string",
          "name": "name",
          "type": "string"
        },
        {
          "indexed": false,
          "internalType": "address[]",
          "name": "beneficiaries",
          "type": "address[]"
        }
      ],
      "name": "WillCreated",
      "type": "event"
    },
    {
      "inputs": [
        {
          "internalType": "uint256",
          "name": "willId",
          "type": "uint256"
        },
        {
          "internalType": "address",
          "name": "beneficiary",
          "type": "address"
        },
        {
          "components": [
            {
              "internalType": "address",
              "name": "tokenAddress",
              "type": "address"
            },
            {
              "internalType": "enum WillRegistry.TokenType",
              "name": "tokenType",
              "type": "uint8"
            },
            {
              "internalType": "uint256[]",
              "name": "tokenIds",
              "type": "uint256[]"
            },
            {
              "internalType": "uint256[]",
              "name": "amounts",
              "type": "uint256[]"
            },
            {
              "internalType": "address[]",
              "name": "beneficiaries",
              "type": "address[]"
            }
          ],
          "internalType": "struct WillRegistry.TokenAllocation[]",
          "name": "allocations",
          "type": "tuple[]"
        }
      ],
      "name": "addBeneficiaryWithAllocation",
      "outputs": [],
      "stateMutability": "nonpayable",
      "type": "function"
    },
    {
      "inputs": [
        {
          "internalType": "address",
          "name": "",
          "type": "address"
        }
      ],
      "name": "authorizedBackends",
      "outputs": [
        {
          "internalType": "bool",
          "name": "",
          "type": "bool"
        }
      ],
      "stateMutability": "view",
      "type": "function"
    },
    {
      "inputs": [
        {
          "internalType": "address",
          "name": "",
          "type": "address"
        },
        {
          "internalType": "uint256",
          "name": "",
          "type": "uint256"
        }
      ],
      "name": "beneficiaryWills",
      "outputs": [
        {
          "internalType": "address",
          "name": "",
          "type": "address"
        }
      ],
      "stateMutability": "view",
      "type": "function"
    },
    {
      "inputs": [
        {
          "internalType": "address",
          "name": "willOwner",
          "type": "address"
        }
      ],
      "name": "checkAndTriggerDeadManSwitch",
      "outputs": [],
      "stateMutability": "nonpayable",
      "type": "function"
    },
    {
      "inputs": [
        {
          "internalType": "uint256",
          "name": "willId",
          "type": "uint256"
        }
      ],
      "name": "claimInheritance",
      "outputs": [],
      "stateMutability": "nonpayable",
      "type": "function"
    },
    {
      "inputs": [
        {
          "internalType": "string",
          "name": "_name",
          "type": "string"
        },
        {
          "components": [
            {
              "internalType": "address",
              "name": "tokenAddress",
              "type": "address"
            },
            {
              "internalType": "enum WillRegistry.TokenType",
              "name": "tokenType",
              "type": "uint8"
            },
            {
              "internalType": "uint256[]",
              "name": "tokenIds",
              "type": "uint256[]"
            },
            {
              "internalType": "uint256[]",
              "name": "amounts",
              "type": "uint256[]"
            },
            {
              "internalType": "address[]",
              "name": "beneficiaries",
              "type": "address[]"
            }
          ],
          "internalType": "struct WillRegistry.TokenAllocation[]",
          "name": "_allocations",
          "type": "tuple[]"
        },
        {
          "internalType": "uint256",
          "name": "_gracePeriod",
          "type": "uint256"
        },
        {
          "internalType": "uint256",
          "name": "_activityThreshold",
          "type": "uint256"
        }
      ],
      "name": "createWill",
      "outputs": [],
      "stateMutability": "payable",
      "type": "function"
    },
    {
      "inputs": [
        {
          "internalType": "address",
          "name": "owner",
          "type": "address"
        }
      ],
      "name": "getBeneficiaries",
      "outputs": [
        {
          "internalType": "address[]",
          "name": "",
          "type": "address[]"
        }
      ],
      "stateMutability": "view",
      "type": "function"
    },
    {
      "inputs": [
        {
          "internalType": "uint256",
          "name": "willId",
          "type": "uint256"
        },
        {
          "internalType": "address",
          "name": "beneficiary",
          "type": "address"
        }
      ],
      "name": "getBeneficiaryAllocations",
      "outputs": [
        {
          "components": [
            {
              "internalType": "address",
              "name": "tokenAddress",
              "type": "address"
            },
            {
              "internalType": "enum WillRegistry.TokenType",
              "name": "tokenType",
              "type": "uint8"
            },
            {
              "internalType": "uint256",
              "name": "tokenId",
              "type": "uint256"
            },
            {
              "internalType": "uint256",
              "name": "amount",
              "type": "uint256"
            },
            {
              "internalType": "bool",
              "name": "claimed",
              "type": "bool"
            }
          ],
          "internalType": "struct WillRegistry.BeneficiaryAllocation[]",
          "name": "",
          "type": "tuple[]"
        }
      ],
      "stateMutability": "view",
      "type": "function"
    },
    {
      "inputs": [
        {
          "internalType": "uint256",
          "name": "willId",
          "type": "uint256"
        }
      ],
      "name": "getRemainingGracePeriod",
      "outputs": [
        {
          "internalType": "uint256",
          "name": "",
          "type": "uint256"
        }
      ],
      "stateMutability": "view",
      "type": "function"
    },
    {
      "inputs": [
        {
          "internalType": "uint256",
          "name": "willId",
          "type": "uint256"
        }
      ],
      "name": "getTimeUntilDeadManSwitch",
      "outputs": [
        {
          "internalType": "uint256",
          "name": "",
          "type": "uint256"
        }
      ],
      "stateMutability": "view",
      "type": "function"
    },
    {
      "inputs": [
        {
          "internalType": "address",
          "name": "owner",
          "type": "address"
        }
      ],
      "name": "getTotalTokensWilled",
      "outputs": [
        {
          "internalType": "uint256",
          "name": "",
          "type": "uint256"
        }
      ],
      "stateMutability": "view",
      "type": "function"
    },
    {
      "inputs": [
        {
          "internalType": "address",
          "name": "owner",
          "type": "address"
        }
      ],
      "name": "getTotalUniqueBeneficiaries",
      "outputs": [
        {
          "internalType": "uint256",
          "name": "",
          "type": "uint256"
        }
      ],
      "stateMutability": "view",
      "type": "function"
    },
    {
      "inputs": [
        {
          "internalType": "address",
          "name": "owner",
          "type": "address"
        }
      ],
      "name": "getTotalWillsCreated",
      "outputs": [
        {
          "internalType": "uint256",
          "name": "",
          "type": "uint256"
        }
      ],
      "stateMutability": "view",
      "type": "function"
    },
    {
      "inputs": [
        {
          "internalType": "uint256",
          "name": "willId",
          "type": "uint256"
        },
        {
          "internalType": "address",
          "name": "owner",
          "type": "address"
        }
      ],
      "name": "getWillDetailsByIdAndOwner",
      "outputs": [
        {
          "internalType": "uint256",
          "name": "id",
          "type": "uint256"
        },
        {
          "internalType": "address",
          "name": "willOwner",
          "type": "address"
        },
        {
          "internalType": "string",
          "name": "name",
          "type": "string"
        },
        {
          "internalType": "uint256",
          "name": "lastActivity",
          "type": "uint256"
        },
        {
          "internalType": "bool",
          "name": "isActive",
          "type": "bool"
        },
        {
          "internalType": "uint256",
          "name": "etherAllocation",
          "type": "uint256"
        },
        {
          "internalType": "uint256",
          "name": "gracePeriod",
          "type": "uint256"
        },
        {
          "internalType": "uint256",
          "name": "activityThreshold",
          "type": "uint256"
        },
        {
          "internalType": "bool",
          "name": "deadManSwitchTriggered",
          "type": "bool"
        },
        {
          "internalType": "uint256",
          "name": "deadManSwitchTimestamp",
          "type": "uint256"
        },
        {
          "internalType": "address[]",
          "name": "beneficiaries",
          "type": "address[]"
        }
      ],
      "stateMutability": "view",
      "type": "function"
    },
    {
      "inputs": [
        {
          "internalType": "address",
          "name": "owner",
          "type": "address"
        }
      ],
      "name": "getWillsByOwner",
      "outputs": [
        {
          "components": [
            {
              "internalType": "uint256",
              "name": "willId",
              "type": "uint256"
            },
            {
              "internalType": "string",
              "name": "willName",
              "type": "string"
            },
            {
              "internalType": "address",
              "name": "tokenAddress",
              "type": "address"
            },
            {
              "internalType": "uint8",
              "name": "tokenType",
              "type": "uint8"
            },
            {
              "internalType": "uint256",
              "name": "totalAmount",
              "type": "uint256"
            },
            {
              "internalType": "uint256",
              "name": "beneficiaryCount",
              "type": "uint256"
            },
            {
              "internalType": "uint256",
              "name": "activityPeriod",
              "type": "uint256"
            },
            {
              "internalType": "uint256",
              "name": "gracePeriod",
              "type": "uint256"
            }
          ],
          "internalType": "struct WillRegistry.WillDetails[]",
          "name": "",
          "type": "tuple[]"
        }
      ],
      "stateMutability": "view",
      "type": "function"
    },
    {
      "inputs": [
        {
          "internalType": "address",
          "name": "beneficiary",
          "type": "address"
        }
      ],
      "name": "getWillsWilledToBeneficiary",
      "outputs": [
        {
          "components": [
            {
              "internalType": "uint256",
              "name": "willId",
              "type": "uint256"
            },
            {
              "internalType": "string",
              "name": "willName",
              "type": "string"
            },
            {
              "internalType": "address",
              "name": "tokenAddress",
              "type": "address"
            },
            {
              "internalType": "enum WillRegistry.TokenType",
              "name": "tokenType",
              "type": "uint8"
            },
            {
              "internalType": "uint256",
              "name": "amount",
              "type": "uint256"
            },
            {
              "internalType": "bool",
              "name": "claimed",
              "type": "bool"
            },
            {
              "internalType": "address",
              "name": "willOwner",
              "type": "address"
            }
          ],
          "internalType": "struct WillRegistry.BeneficiaryWillInfo[]",
          "name": "",
          "type": "tuple[]"
        }
      ],
      "stateMutability": "view",
      "type": "function"
    },
    {
      "inputs": [
        {
          "internalType": "uint256",
          "name": "willId",
          "type": "uint256"
        }
      ],
      "name": "hasGracePeriodEnded",
      "outputs": [
        {
          "internalType": "bool",
          "name": "",
          "type": "bool"
        }
      ],
      "stateMutability": "view",
      "type": "function"
    },
    {
      "inputs": [],
      "name": "owner",
      "outputs": [
        {
          "internalType": "address",
          "name": "",
          "type": "address"
        }
      ],
      "stateMutability": "view",
      "type": "function"
    },
    {
      "inputs": [
        {
          "internalType": "address",
          "name": "",
          "type": "address"
        },
        {
          "internalType": "uint256",
          "name": "",
          "type": "uint256"
        }
      ],
      "name": "ownerWillIds",
      "outputs": [
        {
          "internalType": "uint256",
          "name": "",
          "type": "uint256"
        }
      ],
      "stateMutability": "view",
      "type": "function"
    },
    {
      "inputs": [],
      "name": "renounceOwnership",
      "outputs": [],
      "stateMutability": "nonpayable",
      "type": "function"
    },
    {
      "inputs": [
        {
          "internalType": "address",
          "name": "backend",
          "type": "address"
        },
        {
          "internalType": "bool",
          "name": "authorized",
          "type": "bool"
        }
      ],
      "name": "setAuthorizedBackend",
      "outputs": [],
      "stateMutability": "nonpayable",
      "type": "function"
    },
    {
      "inputs": [
        {
          "internalType": "address",
          "name": "newOwner",
          "type": "address"
        }
      ],
      "name": "transferOwnership",
      "outputs": [],
      "stateMutability": "nonpayable",
      "type": "function"
    },
    {
      "inputs": [
        {
          "internalType": "uint256",
          "name": "willId",
          "type": "uint256"
        },
        {
          "internalType": "uint256",
          "name": "_gracePeriod",
          "type": "uint256"
        },
        {
          "internalType": "uint256",
          "name": "_activityThreshold",
          "type": "uint256"
        }
      ],
      "name": "updateTimeframes",
      "outputs": [],
      "stateMutability": "nonpayable",
      "type": "function"
    },
    {
      "inputs": [
        {
          "internalType": "address",
          "name": "",
          "type": "address"
        }
      ],
      "name": "wills",
      "outputs": [
        {
          "internalType": "uint256",
          "name": "id",
          "type": "uint256"
        },
        {
          "internalType": "address",
          "name": "owner",
          "type": "address"
        },
        {
          "internalType": "string",
          "name": "name",
          "type": "string"
        },
        {
          "internalType": "uint256",
          "name": "lastActivity",
          "type": "uint256"
        },
        {
          "internalType": "bool",
          "name": "isActive",
          "type": "bool"
        },
        {
          "internalType": "uint256",
          "name": "etherAllocation",
          "type": "uint256"
        },
        {
          "internalType": "uint256",
          "name": "gracePeriod",
          "type": "uint256"
        },
        {
          "internalType": "uint256",
          "name": "activityThreshold",
          "type": "uint256"
        },
        {
          "internalType": "bool",
          "name": "deadManSwitchTriggered",
          "type": "bool"
        },
        {
          "internalType": "uint256",
          "name": "deadManSwitchTimestamp",
          "type": "uint256"
        }
      ],
      "stateMutability": "view",
      "type": "function"
    },
    {
      "inputs": [
        {
          "internalType": "uint256",
          "name": "",
          "type": "uint256"
        }
      ],
      "name": "willsById",
      "outputs": [
        {
          "internalType": "uint256",
          "name": "id",
          "type": "uint256"
        },
        {
          "internalType": "address",
          "name": "owner",
          "type": "address"
        },
        {
          "internalType": "string",
          "name": "name",
          "type": "string"
        },
        {
          "internalType": "uint256",
          "name": "lastActivity",
          "type": "uint256"
        },
        {
          "internalType": "bool",
          "name": "isActive",
          "type": "bool"
        },
        {
          "internalType": "uint256",
          "name": "etherAllocation",
          "type": "uint256"
        },
        {
          "internalType": "uint256",
          "name": "gracePeriod",
          "type": "uint256"
        },
        {
          "internalType": "uint256",
          "name": "activityThreshold",
          "type": "uint256"
        },
        {
          "internalType": "bool",
          "name": "deadManSwitchTriggered",
          "type": "bool"
        },
        {
          "internalType": "uint256",
          "name": "deadManSwitchTimestamp",
          "type": "uint256"
        }
      ],
      "stateMutability": "view",
      "type": "function"
    }
  ],
  "bytecode": "0x608060405260016002553480156200001657600080fd5b5033600073ffffffffffffffffffffffffffffffffffffffff168173ffffffffffffffffffffffffffffffffffffffff16036200008d5760006040517f1e4fbdf7000000000000000000000000000000000000000000000000000000008152600401620000849190620001b5565b60405180910390fd5b6200009e81620000ac60201b60201c565b5060018081905550620001d2565b60008060009054906101000a900473ffffffffffffffffffffffffffffffffffffffff169050816000806101000a81548173ffffffffffffffffffffffffffffffffffffffff021916908373ffffffffffffffffffffffffffffffffffffffff1602179055508173ffffffffffffffffffffffffffffffffffffffff168173ffffffffffffffffffffffffffffffffffffffff167f8be0079c531659141344cd1fd0a4f28419497f9722a3daafe3b4186f6b6457e060405160405180910390a35050565b600073ffffffffffffffffffffffffffffffffffffffff82169050919050565b60006200019d8262000170565b9050919050565b620001af8162000190565b82525050565b6000602082019050620001cc6000830184620001a4565b92915050565b615fd680620001e26000396000f3fe6080604052600436106101665760003560e01c8063715018a6116100d15780639f1494b81161008a578063e5ab8c8811610064578063e5ab8c88146105cb578063e712a35d14610608578063eed4a3f514610645578063f2fde38b1461068257610166565b80639f1494b81461050b578063a4cb92fa14610548578063cfd35b8a1461058e57610166565b8063715018a6146103fd5780637de00a9d14610414578063888253e4146104515780638da5cb5b1461048e57806392ccb8ff146104b95780639516e033146104e257610166565b80633cf9d073116101235780633cf9d073146102ce5780633d9c68fc14610315578063479b76761461033e5780634a4d67141461037b5780634fb37f3c146103b857806369f196bb146103e157610166565b806314f93bf81461016b5780631579673c146101a85780631a2cd78f146101e55780631cab59a41461020e5780631cba3af91461024b5780631ed22bd714610288575b600080fd5b34801561017757600080fd5b50610192600480360381019061018d91906149f3565b6106ab565b60405161019f9190614bfa565b60405180910390f35b3480156101b457600080fd5b506101cf60048036038101906101ca9190614c1c565b61089f565b6040516101dc9190614e37565b60405180910390f35b3480156101f157600080fd5b5061020c60048036038101906102079190614e59565b610fa1565b005b34801561021a57600080fd5b5061023560048036038101906102309190614c1c565b611192565b6040516102429190614f5b565b60405180910390f35b34801561025757600080fd5b50610272600480360381019061026d9190614f7d565b6112e8565b60405161027f9190614fb9565b60405180910390f35b34801561029457600080fd5b506102af60048036038101906102aa9190614f7d565b6113cc565b6040516102c59a9998979695949392919061503c565b60405180910390f35b3480156102da57600080fd5b506102f560048036038101906102f091906149f3565b6114e2565b60405161030c9b9a999897969594939291906150df565b60405180910390f35b34801561032157600080fd5b5061033c60048036038101906103379190614c1c565b611734565b005b34801561034a57600080fd5b5061036560048036038101906103609190615198565b611925565b60405161037291906151d8565b60405180910390f35b34801561038757600080fd5b506103a2600480360381019061039d9190614f7d565b611956565b6040516103af91906151d8565b60405180910390f35b3480156103c457600080fd5b506103df60048036038101906103da919061521f565b611a6a565b005b6103fb60048036038101906103f691906153f4565b611acd565b005b34801561040957600080fd5b50610412612353565b005b34801561042057600080fd5b5061043b60048036038101906104369190614c1c565b612367565b6040516104489190615626565b60405180910390f35b34801561045d57600080fd5b5061047860048036038101906104739190615198565b612872565b6040516104859190615648565b60405180910390f35b34801561049a57600080fd5b506104a36128c0565b6040516104b09190615648565b60405180910390f35b3480156104c557600080fd5b506104e060048036038101906104db9190614f7d565b6128e9565b005b3480156104ee57600080fd5b5061050960048036038101906105049190615663565b61303a565b005b34801561051757600080fd5b50610532600480360381019061052d9190614c1c565b61357f565b60405161053f91906151d8565b60405180910390f35b34801561055457600080fd5b5061056f600480360381019061056a9190614c1c565b6135cb565b6040516105859a9998979695949392919061503c565b60405180910390f35b34801561059a57600080fd5b506105b560048036038101906105b09190614f7d565b6136e1565b6040516105c291906151d8565b60405180910390f35b3480156105d757600080fd5b506105f260048036038101906105ed9190614c1c565b6137eb565b6040516105ff91906151d8565b60405180910390f35b34801561061457600080fd5b5061062f600480360381019061062a9190614c1c565b613a6f565b60405161063c9190614fb9565b60405180910390f35b34801561065157600080fd5b5061066c60048036038101906106679190614c1c565b613a8f565b60405161067991906151d8565b60405180910390f35b34801561068e57600080fd5b506106a960048036038101906106a49190614c1c565b613d37565b005b606060006106b884613dbd565b90508060070160008473ffffffffffffffffffffffffffffffffffffffff1673ffffffffffffffffffffffffffffffffffffffff16815260200190815260200160002060009054906101000a900460ff1661073f576040517f43290f5b00000000000000000000000000000000000000000000000000000000815260040160405180910390fd5b8060090160008473ffffffffffffffffffffffffffffffffffffffff1673ffffffffffffffffffffffffffffffffffffffff168152602001908152602001600020805480602002602001604051908101604052809291908181526020016000905b8282101561089257838290600052602060002090600402016040518060a00160405290816000820160009054906101000a900473ffffffffffffffffffffffffffffffffffffffff1673ffffffffffffffffffffffffffffffffffffffff1673ffffffffffffffffffffffffffffffffffffffff1681526020016000820160149054906101000a900460ff16600281111561083e5761083d614a6e565b5b60028111156108505761084f614a6e565b5b815260200160018201548152602001600282015481526020016003820160009054906101000a900460ff161515151581525050815260200190600101906107a0565b5050505091505092915050565b606060006108ac83613e6b565b905060008167ffffffffffffffff8111156108ca576108c9615269565b5b60405190808252806020026020018201604052801561090357816020015b6108f0614870565b8152602001906001900390816108e85790505b509050600080600560008773ffffffffffffffffffffffffffffffffffffffff1673ffffffffffffffffffffffffffffffffffffffff1681526020019081526020016000208054806020026020016040519081016040528092919081815260200182805480156109c857602002820191906000526020600020905b8160009054906101000a900473ffffffffffffffffffffffffffffffffffffffff1673ffffffffffffffffffffffffffffffffffffffff168152602001906001019080831161097e575b5050505050905060005b8151811015610ee95760008282815181106109f0576109ef6156d7565b5b602002602001015190506000600760008373ffffffffffffffffffffffffffffffffffffffff1673ffffffffffffffffffffffffffffffffffffffff168152602001908152602001600020805480602002602001604051908101604052809291908181526020018280548015610a8557602002820191906000526020600020905b815481526020019060010190808311610a71575b5050505050905060005b8151811015610ed9576000828281518110610aad57610aac6156d7565b5b6020026020010151905060006006600083815260200190815260200160002090508060040160009054906101000a900460ff161580610b3857508060070160008d73ffffffffffffffffffffffffffffffffffffffff1673ffffffffffffffffffffffffffffffffffffffff16815260200190815260200160002060009054906101000a900460ff16155b15610b44575050610ecc565b60008160090160008e73ffffffffffffffffffffffffffffffffffffffff1673ffffffffffffffffffffffffffffffffffffffff1681526020019081526020016000209050600081805490501115610ec8576000805b8a811015610cc657848c8281518110610bb657610bb56156d7565b5b602002602001015160000151148015610c5d575082600081548110610bde57610bdd6156d7565b5b906000526020600020906004020160000160009054906101000a900473ffffffffffffffffffffffffffffffffffffffff1673ffffffffffffffffffffffffffffffffffffffff168c8281518110610c3957610c386156d7565b5b60200260200101516040015173ffffffffffffffffffffffffffffffffffffffff16145b8015610cab575082600081548110610c7857610c776156d7565b5b9060005260206000209060040201600201548c8281518110610c9d57610c9c6156d7565b5b602002602001015160800151145b15610cb95760019150610cc6565b8080600101915050610b9a565b5080610ec6576040518060e00160405280858152602001846002018054610cec90615735565b80601f0160208091040260200160405190810160405280929190818152602001828054610d1890615735565b8015610d655780601f10610d3a57610100808354040283529160200191610d65565b820191906000526020600020905b815481529060010190602001808311610d4857829003601f168201915b5050505050815260200183600081548110610d8357610d826156d7565b5b906000526020600020906004020160000160009054906101000a900473ffffffffffffffffffffffffffffffffffffffff1673ffffffffffffffffffffffffffffffffffffffff16815260200183600081548110610de457610de36156d7565b5b906000526020600020906004020160000160149054906101000a900460ff166002811115610e1557610e14614a6e565b5b815260200183600081548110610e2e57610e2d6156d7565b5b906000526020600020906004020160020154815260200183600081548110610e5957610e586156d7565b5b906000526020600020906004020160030160009054906101000a900460ff16151581526020018873ffffffffffffffffffffffffffffffffffffffff168152508b8b81518110610eac57610eab6156d7565b5b60200260200101819052508980610ec290615795565b9a50505b505b5050505b8080600101915050610a8f565b50505080806001019150506109d2565b5060008267ffffffffffffffff811115610f0657610f05615269565b5b604051908082528060200260200182016040528015610f3f57816020015b610f2c614870565b815260200190600190039081610f245790505b50905060005b83811015610f9357848181518110610f6057610f5f6156d7565b5b6020026020010151828281518110610f7b57610f7a6156d7565b5b60200260200101819052508080600101915050610f45565b508095505050505050919050565b60008303610fdb576040517f97643b5200000000000000000000000000000000000000000000000000000000815260040160405180910390fd5b60006006600085815260200190815260200160002090508060040160009054906101000a900460ff1661104557836040517f8c209e5600000000000000000000000000000000000000000000000000000000815260040161103c91906151d8565b60405180910390fd5b3373ffffffffffffffffffffffffffffffffffffffff168160010160009054906101000a900473ffffffffffffffffffffffffffffffffffffffff1673ffffffffffffffffffffffffffffffffffffffff16146110ce576040517f0f5e6bd800000000000000000000000000000000000000000000000000000000815260040160405180910390fd5b6110d88383614113565b80600c0160009054906101000a900460ff1615611121576040517f815091e200000000000000000000000000000000000000000000000000000000815260040160405180910390fd5b8281600a01819055508181600b01819055504281600301819055503373ffffffffffffffffffffffffffffffffffffffff167fb84522da2d2039e8f4a7a0993eea2cf0dd5c31c0d7265951c4c4e7985dcda7be84846040516111849291906157dd565b60405180910390a250505050565b6060600360008373ffffffffffffffffffffffffffffffffffffffff1673ffffffffffffffffffffffffffffffffffffffff16815260200190815260200160002060040160009054906101000a900460ff1661121a576040517ff73656bf00000000000000000000000000000000000000000000000000000000815260040160405180910390fd5b600360008373ffffffffffffffffffffffffffffffffffffffff1673ffffffffffffffffffffffffffffffffffffffff1681526020019081526020016000206008018054806020026020016040519081016040528092919081815260200182805480156112dc57602002820191906000526020600020905b8160009054906101000a900473ffffffffffffffffffffffffffffffffffffffff1673ffffffffffffffffffffffffffffffffffffffff1681526020019060010190808311611292575b50505050509050919050565b6000808203611323576040517f97643b5200000000000000000000000000000000000000000000000000000000815260040160405180910390fd5b60006006600084815260200190815260200160002090508060040160009054906101000a900460ff1661138d57826040517f8c209e5600000000000000000000000000000000000000000000000000000000815260040161138491906151d8565b60405180910390fd5b80600c0160009054906101000a900460ff166113ad5760009150506113c7565b80600a015481600d01546113c19190615806565b42119150505b919050565b60066020528060005260406000206000915090508060000154908060010160009054906101000a900473ffffffffffffffffffffffffffffffffffffffff169080600201805461141b90615735565b80601f016020809104026020016040519081016040528092919081815260200182805461144790615735565b80156114945780601f1061146957610100808354040283529160200191611494565b820191906000526020600020905b81548152906001019060200180831161147757829003601f168201915b5050505050908060030154908060040160009054906101000a900460ff169080600601549080600a01549080600b01549080600c0160009054906101000a900460ff169080600d015490508a565b60008060606000806000806000806000606060006114ff8e613dbd565b90508c73ffffffffffffffffffffffffffffffffffffffff168160010160009054906101000a900473ffffffffffffffffffffffffffffffffffffffff1673ffffffffffffffffffffffffffffffffffffffff161461158a576040517f0f5e6bd800000000000000000000000000000000000000000000000000000000815260040160405180910390fd5b80600001548160010160009054906101000a900473ffffffffffffffffffffffffffffffffffffffff168260020183600301548460040160009054906101000a900460ff16856006015486600a015487600b015488600c0160009054906101000a900460ff1689600d01548a60080188805461160590615735565b80601f016020809104026020016040519081016040528092919081815260200182805461163190615735565b801561167e5780601f106116535761010080835404028352916020019161167e565b820191906000526020600020905b81548152906001019060200180831161166157829003601f168201915b505050505098508080548060200260200160405190810160405280929190818152602001828054801561170657602002820191906000526020600020905b8160009054906101000a900473ffffffffffffffffffffffffffffffffffffffff1673ffffffffffffffffffffffffffffffffffffffff16815260200190600101908083116116bc575b505050505090509b509b509b509b509b509b509b509b509b509b509b50509295989b509295989b9093969950565b600460003373ffffffffffffffffffffffffffffffffffffffff1673ffffffffffffffffffffffffffffffffffffffff16815260200190815260200160002060009054906101000a900460ff166117b7576040517f82b4290000000000000000000000000000000000000000000000000000000000815260040160405180910390fd5b6000600360008373ffffffffffffffffffffffffffffffffffffffff1673ffffffffffffffffffffffffffffffffffffffff16815260200190815260200160002090508060040160009054906101000a900460ff16611842576040517f3114099800000000000000000000000000000000000000000000000000000000815260040160405180910390fd5b80600c0160009054906101000a900460ff161561188b576040517f815091e200000000000000000000000000000000000000000000000000000000815260040160405180910390fd5b80600b01548160030154426118a0919061583a565b111561192157600181600c0160006101000a81548160ff0219169083151502179055504281600d01819055508173ffffffffffffffffffffffffffffffffffffffff167f674b29eac3f8db4186c76e9429fa4d70125d68fed7b9a0d862732a7d2fcf4e364283600a01546040516119189291906157dd565b60405180910390a25b5050565b6007602052816000526040600020818154811061194157600080fd5b90600052602060002001600091509150505481565b6000808203611991576040517f97643b5200000000000000000000000000000000000000000000000000000000815260040160405180910390fd5b60006006600084815260200190815260200160002090508060040160009054906101000a900460ff166119fb57826040517f8c209e560000000000000000000000000000000000000000000000000000000081526004016119f291906151d8565b60405180910390fd5b80600c0160009054906101000a900460ff161580611a1e5750611a1d836112e8565b5b15611a2d576000915050611a65565b600081600a015482600d0154611a439190615806565b9050428111611a53576000611a60565b4281611a5f919061583a565b5b925050505b919050565b611a7261420d565b80600460008473ffffffffffffffffffffffffffffffffffffffff1673ffffffffffffffffffffffffffffffffffffffff16815260200190815260200160002060006101000a81548160ff0219169083151502179055505050565b611ad5614294565b600084849050148015611ae85750600034145b15611b1f576040517f5f8a655a00000000000000000000000000000000000000000000000000000000815260040160405180910390fd5b611b298282614113565b600060026000815480929190611b3e90615795565b9190505590506000600660008381526020019081526020016000209050818160000181905550338160010160006101000a81548173ffffffffffffffffffffffffffffffffffffffff021916908373ffffffffffffffffffffffffffffffffffffffff16021790555086816002019081611bb89190615a1a565b508381600a01819055508281600b018190555042816003018190555060018160040160006101000a81548160ff021916908315150217905550600760003373ffffffffffffffffffffffffffffffffffffffff1673ffffffffffffffffffffffffffffffffffffffff1681526020019081526020016000208290806001815401808255809150506001900390600052602060002001600090919091909150556000341115611dc85734816006018190555060005b86866000818110611c8057611c7f6156d7565b5b9050602002810190611c929190615afb565b8060800190611ca19190615b23565b9050811015611dc657600087876000818110611cc057611cbf6156d7565b5b9050602002810190611cd29190615afb565b8060800190611ce19190615b23565b83818110611cf257611cf16156d7565b5b9050602002016020810190611d079190614c1c565b90508260070160008273ffffffffffffffffffffffffffffffffffffffff1673ffffffffffffffffffffffffffffffffffffffff16815260200190815260200160002060009054906101000a900460ff16611d6757611d6681856142da565b5b611db8838260008060008d8d6000818110611d8557611d846156d7565b5b9050602002810190611d979190615afb565b8060800190611da69190615b23565b905034611db39190615bb5565b614624565b508080600101915050611c6c565b505b60005b8686905081101561229e576000878783818110611deb57611dea6156d7565b5b9050602002810190611dfd9190615afb565b6020016020810190611e0f9190615c0b565b9050600280811115611e2457611e23614a6e565b5b816002811115611e3757611e36614a6e565b5b03611e6e576040517fc1ab6dc100000000000000000000000000000000000000000000000000000000815260040160405180910390fd5b60016002811115611e8257611e81614a6e565b5b816002811115611e9557611e94614a6e565b5b03611ff15760005b888884818110611eb057611eaf6156d7565b5b9050602002810190611ec29190615afb565b8060800190611ed19190615b23565b9050811015611fef576000898985818110611eef57611eee6156d7565b5b9050602002810190611f019190615afb565b8060600190611f109190615c38565b83818110611f2157611f206156d7565b5b905060200201359050898985818110611f3d57611f3c6156d7565b5b9050602002810190611f4f9190615afb565b6000016020810190611f619190614c1c565b73ffffffffffffffffffffffffffffffffffffffff166323b872dd3330846040518463ffffffff1660e01b8152600401611f9d93929190615c9b565b6020604051808303816000875af1158015611fbc573d6000803e3d6000fd5b505050506040513d601f19601f82011682018060405250810190611fe09190615ce7565b50508080600101915050611e9d565b505b60005b888884818110612007576120066156d7565b5b90506020028101906120199190615afb565b80608001906120289190615b23565b905081101561228f576000898985818110612046576120456156d7565b5b90506020028101906120589190615afb565b80608001906120679190615b23565b83818110612078576120776156d7565b5b905060200201602081019061208d9190614c1c565b90508460070160008273ffffffffffffffffffffffffffffffffffffffff1673ffffffffffffffffffffffffffffffffffffffff16815260200190815260200160002060009054906101000a900460ff166120ed576120ec81876142da565b5b61217e85828c8c88818110612105576121046156d7565b5b90506020028101906121179190615afb565b60000160208101906121299190614c1c565b600160008f8f8b8181106121405761213f6156d7565b5b90506020028101906121529190615afb565b80606001906121619190615c38565b89818110612172576121716156d7565b5b90506020020135614624565b8073ffffffffffffffffffffffffffffffffffffffff168a8a868181106121a8576121a76156d7565b5b90506020028101906121ba9190615afb565b60000160208101906121cc9190614c1c565b73ffffffffffffffffffffffffffffffffffffffff163373ffffffffffffffffffffffffffffffffffffffff167fb44510937e7a7a5dd39439c63df574818db53dac575444d730f4cc88dda6d1c8600160008f8f8b818110612231576122306156d7565b5b90506020028101906122439190615afb565b80606001906122529190615c38565b89818110612263576122626156d7565b5b9050602002013560405161227993929190615d5e565b60405180910390a4508080600101915050611ff4565b50508080600101915050611dcb565b503373ffffffffffffffffffffffffffffffffffffffff167fdfe6dd715d896ca6c4a17441d3e7a45cb92ec36b4f4a8cdf60a7498ec1341b4f88836008016040516122ea929190615e81565b60405180910390a23373ffffffffffffffffffffffffffffffffffffffff167fb84522da2d2039e8f4a7a0993eea2cf0dd5c31c0d7265951c4c4e7985dcda7be858560405161233a9291906157dd565b60405180910390a2505061234c61479b565b5050505050565b61235b61420d565b61236560006147a4565b565b60606000600760008473ffffffffffffffffffffffffffffffffffffffff1673ffffffffffffffffffffffffffffffffffffffff1681526020019081526020016000208054806020026020016040519081016040528092919081815260200182805480156123f457602002820191906000526020600020905b8154815260200190600101908083116123e0575b505050505090506000815167ffffffffffffffff81111561241857612417615269565b5b60405190808252806020026020018201604052801561245157816020015b61243e6148ed565b8152602001906001900390816124365790505b50905060005b825181101561286757600060066000858481518110612479576124786156d7565b5b60200260200101518152602001908152602001600020905060008160060154905060005b82600801805490508110156125f25760008360080182815481106124c4576124c36156d7565b5b9060005260206000200160009054906101000a900473ffffffffffffffffffffffffffffffffffffffff16905060008460090160008373ffffffffffffffffffffffffffffffffffffffff1673ffffffffffffffffffffffffffffffffffffffff168152602001908152602001600020905060005b81805490508110156125e2576001600281111561255957612558614a6e565b5b82828154811061256c5761256b6156d7565b5b906000526020600020906004020160000160149054906101000a900460ff16600281111561259d5761259c614a6e565b5b036125d5578181815481106125b5576125b46156d7565b5b906000526020600020906004020160020154856125d29190615806565b94505b8080600101915050612539565b505050808060010191505061249d565b5060008060028081111561260957612608614a6e565b5b905060008460080180549050111561274657600084600801600081548110612634576126336156d7565b5b9060005260206000200160009054906101000a900473ffffffffffffffffffffffffffffffffffffffff16905060008560090160008373ffffffffffffffffffffffffffffffffffffffff1673ffffffffffffffffffffffffffffffffffffffff168152602001908152602001600020905060008180549050111561274357806000815481106126c7576126c66156d7565b5b906000526020600020906004020160000160009054906101000a900473ffffffffffffffffffffffffffffffffffffffff1693508060008154811061270f5761270e6156d7565b5b906000526020600020906004020160000160149054906101000a900460ff1660028111156127405761273f614a6e565b5b92505b50505b6040518061010001604052808560000154815260200185600201805461276b90615735565b80601f016020809104026020016040519081016040528092919081815260200182805461279790615735565b80156127e45780601f106127b9576101008083540402835291602001916127e4565b820191906000526020600020905b8154815290600101906020018083116127c757829003601f168201915b505050505081526020018373ffffffffffffffffffffffffffffffffffffffff1681526020018260ff1681526020018481526020018560080180549050815260200185600b0154815260200185600a015481525086868151811061284b5761284a6156d7565b5b6020026020010181905250505050508080600101915050612457565b508092505050919050565b6005602052816000526040600020818154811061288e57600080fd5b906000526020600020016000915091509054906101000a900473ffffffffffffffffffffffffffffffffffffffff1681565b60008060009054906101000a900473ffffffffffffffffffffffffffffffffffffffff16905090565b6128f1614294565b6000810361292b576040517f97643b5200000000000000000000000000000000000000000000000000000000815260040160405180910390fd5b60006006600083815260200190815260200160002090508060040160009054906101000a900460ff1661298a576040517f3114099800000000000000000000000000000000000000000000000000000000815260040160405180910390fd5b8060070160003373ffffffffffffffffffffffffffffffffffffffff1673ffffffffffffffffffffffffffffffffffffffff16815260200190815260200160002060009054906101000a900460ff16612a0f576040517f43290f5b00000000000000000000000000000000000000000000000000000000815260040160405180910390fd5b80600c0160009054906101000a900460ff16612a57576040517f083d2f9700000000000000000000000000000000000000000000000000000000815260040160405180910390fd5b612a60826112e8565b612a96576040517f2850e4fb00000000000000000000000000000000000000000000000000000000815260040160405180910390fd5b80600e0160003373ffffffffffffffffffffffffffffffffffffffff1673ffffffffffffffffffffffffffffffffffffffff16815260200190815260200160002060009054906101000a900460ff1615612b1c576040517f646cf55800000000000000000000000000000000000000000000000000000000815260040160405180910390fd5b600181600e0160003373ffffffffffffffffffffffffffffffffffffffff1673ffffffffffffffffffffffffffffffffffffffff16815260200190815260200160002060006101000a81548160ff02191690831515021790555060008160090160003373ffffffffffffffffffffffffffffffffffffffff1673ffffffffffffffffffffffffffffffffffffffff168152602001908152602001600020905060005b8180549050811015612fae57818181548110612bdd57612bdc6156d7565b5b906000526020600020906004020160030160009054906101000a900460ff16612fa15760006002811115612c1457612c13614a6e565b5b828281548110612c2757612c266156d7565b5b906000526020600020906004020160000160149054906101000a900460ff166002811115612c5857612c57614a6e565b5b03612d2a5760003373ffffffffffffffffffffffffffffffffffffffff16838381548110612c8957612c886156d7565b5b906000526020600020906004020160020154604051612ca790615ee9565b60006040518083038185875af1925050503d8060008114612ce4576040519150601f19603f3d011682016040523d82523d6000602084013e612ce9565b606091505b5050905080612d24576040517f6747a28800000000000000000000000000000000000000000000000000000000815260040160405180910390fd5b50612e70565b60016002811115612d3e57612d3d614a6e565b5b828281548110612d5157612d506156d7565b5b906000526020600020906004020160000160149054906101000a900460ff166002811115612d8257612d81614a6e565b5b03612e6f57818181548110612d9a57612d996156d7565b5b906000526020600020906004020160000160009054906101000a900473ffffffffffffffffffffffffffffffffffffffff1673ffffffffffffffffffffffffffffffffffffffff1663a9059cbb33848481548110612dfb57612dfa6156d7565b5b9060005260206000209060040201600201546040518363ffffffff1660e01b8152600401612e2a929190615efe565b6020604051808303816000875af1158015612e49573d6000803e3d6000fd5b505050506040513d601f19601f82011682018060405250810190612e6d9190615ce7565b505b5b6001828281548110612e8557612e846156d7565b5b906000526020600020906004020160030160006101000a81548160ff021916908315150217905550818181548110612ec057612ebf6156d7565b5b906000526020600020906004020160000160009054906101000a900473ffffffffffffffffffffffffffffffffffffffff1673ffffffffffffffffffffffffffffffffffffffff163373ffffffffffffffffffffffffffffffffffffffff167f2af1ba4c94053430820e17e81238044baf8bab1d5d1975376ca5bad693068bef848481548110612f5357612f526156d7565b5b906000526020600020906004020160010154858581548110612f7857612f776156d7565b5b906000526020600020906004020160020154604051612f989291906157dd565b60405180910390a35b8080600101915050612bbe565b508160010160009054906101000a900473ffffffffffffffffffffffffffffffffffffffff1673ffffffffffffffffffffffffffffffffffffffff163373ffffffffffffffffffffffffffffffffffffffff167fb7acaf12118f88f42ce2f08bb6327569f1fb61bee1b471032f28ec5eaaf44b8560405160405180910390a3505061303761479b565b50565b613042614294565b600073ffffffffffffffffffffffffffffffffffffffff168373ffffffffffffffffffffffffffffffffffffffff16036130a8576040517f5566df5c00000000000000000000000000000000000000000000000000000000815260040160405180910390fd5b600084036130e2576040517f97643b5200000000000000000000000000000000000000000000000000000000815260040160405180910390fd5b60006006600086815260200190815260200160002090508060040160009054906101000a900460ff1661314c57846040517f8c209e5600000000000000000000000000000000000000000000000000000000815260040161314391906151d8565b60405180910390fd5b3373ffffffffffffffffffffffffffffffffffffffff168160010160009054906101000a900473ffffffffffffffffffffffffffffffffffffffff1673ffffffffffffffffffffffffffffffffffffffff16146131d5576040517f0f5e6bd800000000000000000000000000000000000000000000000000000000815260040160405180910390fd5b8060070160008573ffffffffffffffffffffffffffffffffffffffff1673ffffffffffffffffffffffffffffffffffffffff16815260200190815260200160002060009054906101000a900460ff166132335761323284866142da565b5b60005b83839050811015613566576000848483818110613256576132556156d7565b5b90506020028101906132689190615afb565b602001602081019061327a9190615c0b565b905060028081111561328f5761328e614a6e565b5b8160028111156132a2576132a1614a6e565b5b036132d9576040517fc1ab6dc100000000000000000000000000000000000000000000000000000000815260040160405180910390fd5b600160028111156132ed576132ec614a6e565b5b816002811115613300576132ff614a6e565b5b036135585760005b85858481811061331b5761331a6156d7565b5b905060200281019061332d9190615afb565b806060019061333c9190615c38565b905081101561355657600086868581811061335a576133596156d7565b5b905060200281019061336c9190615afb565b806060019061337b9190615c38565b8381811061338c5761338b6156d7565b5b9050602002013590508686858181106133a8576133a76156d7565b5b90506020028101906133ba9190615afb565b60000160208101906133cc9190614c1c565b73ffffffffffffffffffffffffffffffffffffffff166323b872dd3330846040518463ffffffff1660e01b815260040161340893929190615c9b565b6020604051808303816000875af1158015613427573d6000803e3d6000fd5b505050506040513d601f19601f8201168201806040525081019061344b9190615ce7565b506134918589898988818110613464576134636156d7565b5b90506020028101906134769190615afb565b60000160208101906134889190614c1c565b86600086614624565b8773ffffffffffffffffffffffffffffffffffffffff168787868181106134bb576134ba6156d7565b5b90506020028101906134cd9190615afb565b60000160208101906134df9190614c1c565b73ffffffffffffffffffffffffffffffffffffffff163373ffffffffffffffffffffffffffffffffffffffff167fb44510937e7a7a5dd39439c63df574818db53dac575444d730f4cc88dda6d1c88660008660405161354093929190615d5e565b60405180910390a4508080600101915050613308565b505b508080600101915050613236565b504281600301819055505061357961479b565b50505050565b6000600760008373ffffffffffffffffffffffffffffffffffffffff1673ffffffffffffffffffffffffffffffffffffffff168152602001908152602001600020805490509050919050565b60036020528060005260406000206000915090508060000154908060010160009054906101000a900473ffffffffffffffffffffffffffffffffffffffff169080600201805461361a90615735565b80601f016020809104026020016040519081016040528092919081815260200182805461364690615735565b80156136935780601f1061366857610100808354040283529160200191613693565b820191906000526020600020905b81548152906001019060200180831161367657829003601f168201915b5050505050908060030154908060040160009054906101000a900460ff169080600601549080600a01549080600b01549080600c0160009054906101000a900460ff169080600d015490508a565b600080820361371c576040517f97643b5200000000000000000000000000000000000000000000000000000000815260040160405180910390fd5b60006006600084815260200190815260200160002090508060040160009054906101000a900460ff1661378657826040517f8c209e5600000000000000000000000000000000000000000000000000000000815260040161377d91906151d8565b60405180910390fd5b80600c0160009054906101000a900460ff16156137a75760009150506137e6565b60008160030154426137b9919061583a565b905081600b015481106137d1576000925050506137e6565b8082600b01546137e1919061583a565b925050505b919050565b600080600760008473ffffffffffffffffffffffffffffffffffffffff1673ffffffffffffffffffffffffffffffffffffffff16815260200190815260200160002080548060200260200160405190810160405280929190818152602001828054801561387757602002820191906000526020600020905b815481526020019060010190808311613863575b505050505090506000600a825161388e9190615f27565b67ffffffffffffffff8111156138a7576138a6615269565b5b6040519080825280602002602001820160405280156138d55781602001602082028036833780820191505090505b5090506000805b8351811015613a63576000600660008684815181106138fe576138fd6156d7565b5b60200260200101518152602001908152602001600020905060005b8160080180549050811015613a545760008260080182815481106139405761393f6156d7565b5b9060005260206000200160009054906101000a900473ffffffffffffffffffffffffffffffffffffffff16905060006001905060005b868110156139e1578273ffffffffffffffffffffffffffffffffffffffff168882815181106139a8576139a76156d7565b5b602002602001015173ffffffffffffffffffffffffffffffffffffffff16036139d457600091506139e1565b8080600101915050613976565b508015613a4557818787815181106139fc576139fb6156d7565b5b602002602001019073ffffffffffffffffffffffffffffffffffffffff16908173ffffffffffffffffffffffffffffffffffffffff16815250508580613a4190615795565b9650505b50508080600101915050613919565b505080806001019150506138dc565b50809350505050919050565b60046020528060005260406000206000915054906101000a900460ff1681565b600080600090506000600760008573ffffffffffffffffffffffffffffffffffffffff1673ffffffffffffffffffffffffffffffffffffffff168152602001908152602001600020805480602002602001604051908101604052809291908181526020018280548015613b2157602002820191906000526020600020905b815481526020019060010190808311613b0d575b5050505050905060005b8151811015613d2c576000828281518110613b4957613b486156d7565b5b6020026020010151905060006006600083815260200190815260200160002090508060040160009054906101000a900460ff16613b87575050613d1f565b60005b8160080180549050811015613d1b576000826008018281548110613bb157613bb06156d7565b5b9060005260206000200160009054906101000a900473ffffffffffffffffffffffffffffffffffffffff16905060008360090160008373ffffffffffffffffffffffffffffffffffffffff1673ffffffffffffffffffffffffffffffffffffffff168152602001908152602001600020905060005b8180549050811015613d0b57818181548110613c4557613c446156d7565b5b906000526020600020906004020160030160009054906101000a900460ff16158015613cc6575060016002811115613c8057613c7f614a6e565b5b828281548110613c9357613c926156d7565b5b906000526020600020906004020160000160149054906101000a900460ff166002811115613cc457613cc3614a6e565b5b145b15613cfe57818181548110613cde57613cdd6156d7565b5b90600052602060002090600402016002015489613cfb9190615806565b98505b8080600101915050613c26565b5050508080600101915050613b8a565b5050505b8080600101915050613b2b565b508192505050919050565b613d3f61420d565b600073ffffffffffffffffffffffffffffffffffffffff168173ffffffffffffffffffffffffffffffffffffffff1603613db15760006040517f1e4fbdf7000000000000000000000000000000000000000000000000000000008152600401613da89190615648565b60405180910390fd5b613dba816147a4565b50565b6000808203613df8576040517f97643b5200000000000000000000000000000000000000000000000000000000815260040160405180910390fd5b60006006600084815260200190815260200160002090508060040160009054906101000a900460ff16613e6257826040517f8c209e56000000000000000000000000000000000000000000000000000000008152600401613e5991906151d8565b60405180910390fd5b80915050919050565b600080600560008473ffffffffffffffffffffffffffffffffffffffff1673ffffffffffffffffffffffffffffffffffffffff168152602001908152602001600020805480602002602001604051908101604052809291908181526020018280548015613f2d57602002820191906000526020600020905b8160009054906101000a900473ffffffffffffffffffffffffffffffffffffffff1673ffffffffffffffffffffffffffffffffffffffff1681526020019060010190808311613ee3575b505050505090506000805b825181101561410857600060076000858481518110613f5a57613f596156d7565b5b602002602001015173ffffffffffffffffffffffffffffffffffffffff1673ffffffffffffffffffffffffffffffffffffffff168152602001908152602001600020805480602002602001604051908101604052809291908181526020018280548015613fe657602002820191906000526020600020905b815481526020019060010190808311613fd2575b5050505050905060005b81518110156140f957600060066000848481518110614012576140116156d7565b5b6020026020010151815260200190815260200160002090508060040160009054906101000a900460ff16801561409357508060070160008973ffffffffffffffffffffffffffffffffffffffff1673ffffffffffffffffffffffffffffffffffffffff16815260200190815260200160002060009054906101000a900460ff165b156140eb578060090160008973ffffffffffffffffffffffffffffffffffffffff1673ffffffffffffffffffffffffffffffffffffffff16815260200190815260200160002080549050856140e89190615806565b94505b508080600101915050613ff0565b50508080600101915050613f38565b508092505050919050565b60018210806141225750601e82115b1561416a57816001601e6040517f79ab450300000000000000000000000000000000000000000000000000000000815260040161416193929190615f69565b60405180910390fd5b601e81108061417a575061016d81115b156141c35780601e61016d6040517fc4e86f290000000000000000000000000000000000000000000000000000000081526004016141ba93929190615f69565b60405180910390fd5b8181116142095780826040517f2e85a8fc0000000000000000000000000000000000000000000000000000000081526004016142009291906157dd565b60405180910390fd5b5050565b614215614868565b73ffffffffffffffffffffffffffffffffffffffff166142336128c0565b73ffffffffffffffffffffffffffffffffffffffff161461429257614256614868565b6040517f118cdaa70000000000000000000000000000000000000000000000000000000081526004016142899190615648565b60405180910390fd5b565b6002600154036142d0576040517f3ee5aeb500000000000000000000000000000000000000000000000000000000815260040160405180910390fd5b6002600181905550565b600073ffffffffffffffffffffffffffffffffffffffff168273ffffffffffffffffffffffffffffffffffffffff1603614340576040517f5566df5c00000000000000000000000000000000000000000000000000000000815260040160405180910390fd5b60006006600083815260200190815260200160002090508060070160008473ffffffffffffffffffffffffffffffffffffffff1673ffffffffffffffffffffffffffffffffffffffff16815260200190815260200160002060009054906101000a900460ff16156143dd576040517f7ffebe8300000000000000000000000000000000000000000000000000000000815260040160405180910390fd5b3373ffffffffffffffffffffffffffffffffffffffff168160010160009054906101000a900473ffffffffffffffffffffffffffffffffffffffff1673ffffffffffffffffffffffffffffffffffffffff1614614466576040517f0f5e6bd800000000000000000000000000000000000000000000000000000000815260040160405180910390fd5b60018160070160008573ffffffffffffffffffffffffffffffffffffffff1673ffffffffffffffffffffffffffffffffffffffff16815260200190815260200160002060006101000a81548160ff02191690831515021790555080600801839080600181540180825580915050600190039060005260206000200160009091909190916101000a81548173ffffffffffffffffffffffffffffffffffffffff021916908373ffffffffffffffffffffffffffffffffffffffff160217905550600560008473ffffffffffffffffffffffffffffffffffffffff1673ffffffffffffffffffffffffffffffffffffffff168152602001908152602001600020339080600181540180825580915050600190039060005260206000200160009091909190916101000a81548173ffffffffffffffffffffffffffffffffffffffff021916908373ffffffffffffffffffffffffffffffffffffffff1602179055508273ffffffffffffffffffffffffffffffffffffffff163373ffffffffffffffffffffffffffffffffffffffff167fbb39c36a7502b7256e1a687254146a9a2ea7b146c77cb9e40eb0e2b8793781e160405160405180910390a3505050565b60006040518060a001604052808673ffffffffffffffffffffffffffffffffffffffff1681526020018560028111156146605761465f614a6e565b5b81526020018481526020018381526020016000151581525090508660090160008773ffffffffffffffffffffffffffffffffffffffff1673ffffffffffffffffffffffffffffffffffffffff16815260200190815260200160002081908060018154018082558091505060019003906000526020600020906004020160009091909190915060008201518160000160006101000a81548173ffffffffffffffffffffffffffffffffffffffff021916908373ffffffffffffffffffffffffffffffffffffffff16021790555060208201518160000160146101000a81548160ff0219169083600281111561475757614756614a6e565b5b0217905550604082015181600101556060820151816002015560808201518160030160006101000a81548160ff021916908315150217905550505050505050505050565b60018081905550565b60008060009054906101000a900473ffffffffffffffffffffffffffffffffffffffff169050816000806101000a81548173ffffffffffffffffffffffffffffffffffffffff021916908373ffffffffffffffffffffffffffffffffffffffff1602179055508173ffffffffffffffffffffffffffffffffffffffff168173ffffffffffffffffffffffffffffffffffffffff167f8be0079c531659141344cd1fd0a4f28419497f9722a3daafe3b4186f6b6457e060405160405180910390a35050565b600033905090565b6040518060e001604052806000815260200160608152602001600073ffffffffffffffffffffffffffffffffffffffff168152602001600060028111156148ba576148b9614a6e565b5b815260200160008152602001600015158152602001600073ffffffffffffffffffffffffffffffffffffffff1681525090565b6040518061010001604052806000815260200160608152602001600073ffffffffffffffffffffffffffffffffffffffff168152602001600060ff168152602001600081526020016000815260200160008152602001600081525090565b6000604051905090565b600080fd5b600080fd5b6000819050919050565b6149728161495f565b811461497d57600080fd5b50565b60008135905061498f81614969565b92915050565b600073ffffffffffffffffffffffffffffffffffffffff82169050919050565b60006149c082614995565b9050919050565b6149d0816149b5565b81146149db57600080fd5b50565b6000813590506149ed816149c7565b92915050565b60008060408385031215614a0a57614a09614955565b5b6000614a1885828601614980565b9250506020614a29858286016149de565b9150509250929050565b600081519050919050565b600082825260208201905092915050565b6000819050602082019050919050565b614a68816149b5565b82525050565b7f4e487b7100000000000000000000000000000000000000000000000000000000600052602160045260246000fd5b60038110614aae57614aad614a6e565b5b50565b6000819050614abf82614a9d565b919050565b6000614acf82614ab1565b9050919050565b614adf81614ac4565b82525050565b614aee8161495f565b82525050565b60008115159050919050565b614b0981614af4565b82525050565b60a082016000820151614b256000850182614a5f565b506020820151614b386020850182614ad6565b506040820151614b4b6040850182614ae5565b506060820151614b5e6060850182614ae5565b506080820151614b716080850182614b00565b50505050565b6000614b838383614b0f565b60a08301905092915050565b6000602082019050919050565b6000614ba782614a33565b614bb18185614a3e565b9350614bbc83614a4f565b8060005b83811015614bed578151614bd48882614b77565b9750614bdf83614b8f565b925050600181019050614bc0565b5085935050505092915050565b60006020820190508181036000830152614c148184614b9c565b905092915050565b600060208284031215614c3257614c31614955565b5b6000614c40848285016149de565b91505092915050565b600081519050919050565b600082825260208201905092915050565b6000819050602082019050919050565b600081519050919050565b600082825260208201905092915050565b60005b83811015614caf578082015181840152602081019050614c94565b60008484015250505050565b6000601f19601f8301169050919050565b6000614cd782614c75565b614ce18185614c80565b9350614cf1818560208601614c91565b614cfa81614cbb565b840191505092915050565b600060e083016000830151614d1d6000860182614ae5565b5060208301518482036020860152614d358282614ccc565b9150506040830151614d4a6040860182614a5f565b506060830151614d5d6060860182614ad6565b506080830151614d706080860182614ae5565b5060a0830151614d8360a0860182614b00565b5060c0830151614d9660c0860182614a5f565b508091505092915050565b6000614dad8383614d05565b905092915050565b6000602082019050919050565b6000614dcd82614c49565b614dd78185614c54565b935083602082028501614de985614c65565b8060005b85811015614e255784840389528151614e068582614da1565b9450614e1183614db5565b925060208a01995050600181019050614ded565b50829750879550505050505092915050565b60006020820190508181036000830152614e518184614dc2565b905092915050565b600080600060608486031215614e7257614e71614955565b5b6000614e8086828701614980565b9350506020614e9186828701614980565b9250506040614ea286828701614980565b9150509250925092565b600081519050919050565b600082825260208201905092915050565b6000819050602082019050919050565b6000614ee48383614a5f565b60208301905092915050565b6000602082019050919050565b6000614f0882614eac565b614f128185614eb7565b9350614f1d83614ec8565b8060005b83811015614f4e578151614f358882614ed8565b9750614f4083614ef0565b925050600181019050614f21565b5085935050505092915050565b60006020820190508181036000830152614f758184614efd565b905092915050565b600060208284031215614f9357614f92614955565b5b6000614fa184828501614980565b91505092915050565b614fb381614af4565b82525050565b6000602082019050614fce6000830184614faa565b92915050565b614fdd8161495f565b82525050565b614fec816149b5565b82525050565b600082825260208201905092915050565b600061500e82614c75565b6150188185614ff2565b9350615028818560208601614c91565b61503181614cbb565b840191505092915050565b600061014082019050615052600083018d614fd4565b61505f602083018c614fe3565b8181036040830152615071818b615003565b9050615080606083018a614fd4565b61508d6080830189614faa565b61509a60a0830188614fd4565b6150a760c0830187614fd4565b6150b460e0830186614fd4565b6150c2610100830185614faa565b6150d0610120830184614fd4565b9b9a5050505050505050505050565b6000610160820190506150f5600083018e614fd4565b615102602083018d614fe3565b8181036040830152615114818c615003565b9050615123606083018b614fd4565b615130608083018a614faa565b61513d60a0830189614fd4565b61514a60c0830188614fd4565b61515760e0830187614fd4565b615165610100830186614faa565b615173610120830185614fd4565b8181036101408301526151868184614efd565b90509c9b505050505050505050505050565b600080604083850312156151af576151ae614955565b5b60006151bd858286016149de565b92505060206151ce85828601614980565b9150509250929050565b60006020820190506151ed6000830184614fd4565b92915050565b6151fc81614af4565b811461520757600080fd5b50565b600081359050615219816151f3565b92915050565b6000806040838503121561523657615235614955565b5b6000615244858286016149de565b92505060206152558582860161520a565b9150509250929050565b600080fd5b600080fd5b7f4e487b7100000000000000000000000000000000000000000000000000000000600052604160045260246000fd5b6152a182614cbb565b810181811067ffffffffffffffff821117156152c0576152bf615269565b5b80604052505050565b60006152d361494b565b90506152df8282615298565b919050565b600067ffffffffffffffff8211156152ff576152fe615269565b5b61530882614cbb565b9050602081019050919050565b82818337600083830152505050565b6000615337615332846152e4565b6152c9565b90508281526020810184848401111561535357615352615264565b5b61535e848285615315565b509392505050565b600082601f83011261537b5761537a61525f565b5b813561538b848260208601615324565b91505092915050565b600080fd5b600080fd5b60008083601f8401126153b4576153b361525f565b5b8235905067ffffffffffffffff8111156153d1576153d0615394565b5b6020830191508360208202830111156153ed576153ec615399565b5b9250929050565b6000806000806000608086880312156154105761540f614955565b5b600086013567ffffffffffffffff81111561542e5761542d61495a565b5b61543a88828901615366565b955050602086013567ffffffffffffffff81111561545b5761545a61495a565b5b6154678882890161539e565b9450945050604061547a88828901614980565b925050606061548b88828901614980565b9150509295509295909350565b600081519050919050565b600082825260208201905092915050565b6000819050602082019050919050565b600060ff82169050919050565b6154da816154c4565b82525050565b6000610100830160008301516154f96000860182614ae5565b50602083015184820360208601526155118282614ccc565b91505060408301516155266040860182614a5f565b50606083015161553960608601826154d1565b50608083015161554c6080860182614ae5565b5060a083015161555f60a0860182614ae5565b5060c083015161557260c0860182614ae5565b5060e083015161558560e0860182614ae5565b508091505092915050565b600061559c83836154e0565b905092915050565b6000602082019050919050565b60006155bc82615498565b6155c681856154a3565b9350836020820285016155d8856154b4565b8060005b8581101561561457848403895281516155f58582615590565b9450615600836155a4565b925060208a019950506001810190506155dc565b50829750879550505050505092915050565b6000602082019050818103600083015261564081846155b1565b905092915050565b600060208201905061565d6000830184614fe3565b92915050565b6000806000806060858703121561567d5761567c614955565b5b600061568b87828801614980565b945050602061569c878288016149de565b935050604085013567ffffffffffffffff8111156156bd576156bc61495a565b5b6156c98782880161539e565b925092505092959194509250565b7f4e487b7100000000000000000000000000000000000000000000000000000000600052603260045260246000fd5b7f4e487b7100000000000000000000000000000000000000000000000000000000600052602260045260246000fd5b6000600282049050600182168061574d57607f821691505b6020821081036157605761575f615706565b5b50919050565b7f4e487b7100000000000000000000000000000000000000000000000000000000600052601160045260246000fd5b60006157a08261495f565b91507fffffffffffffffffffffffffffffffffffffffffffffffffffffffffffffffff82036157d2576157d1615766565b5b600182019050919050565b60006040820190506157f26000830185614fd4565b6157ff6020830184614fd4565b9392505050565b60006158118261495f565b915061581c8361495f565b925082820190508082111561583457615833615766565b5b92915050565b60006158458261495f565b91506158508361495f565b925082820390508181111561586857615867615766565b5b92915050565b60008190508160005260206000209050919050565b60006020601f8301049050919050565b600082821b905092915050565b6000600883026158d07fffffffffffffffffffffffffffffffffffffffffffffffffffffffffffffffff82615893565b6158da8683615893565b95508019841693508086168417925050509392505050565b6000819050919050565b600061591761591261590d8461495f565b6158f2565b61495f565b9050919050565b6000819050919050565b615931836158fc565b61594561593d8261591e565b8484546158a0565b825550505050565b600090565b61595a61594d565b615965818484615928565b505050565b5b818110156159895761597e600082615952565b60018101905061596b565b5050565b601f8211156159ce5761599f8161586e565b6159a884615883565b810160208510156159b7578190505b6159cb6159c385615883565b83018261596a565b50505b505050565b600082821c905092915050565b60006159f1600019846008026159d3565b1980831691505092915050565b6000615a0a83836159e0565b9150826002028217905092915050565b615a2382614c75565b67ffffffffffffffff811115615a3c57615a3b615269565b5b615a468254615735565b615a5182828561598d565b600060209050601f831160018114615a845760008415615a72578287015190505b615a7c85826159fe565b865550615ae4565b601f198416615a928661586e565b60005b82811015615aba57848901518255600182019150602085019450602081019050615a95565b86831015615ad75784890151615ad3601f8916826159e0565b8355505b6001600288020188555050505b505050505050565b600080fd5b600080fd5b600080fd5b60008235600160a003833603038112615b1757615b16615aec565b5b80830191505092915050565b60008083356001602003843603038112615b4057615b3f615aec565b5b80840192508235915067ffffffffffffffff821115615b6257615b61615af1565b5b602083019250602082023603831315615b7e57615b7d615af6565b5b509250929050565b7f4e487b7100000000000000000000000000000000000000000000000000000000600052601260045260246000fd5b6000615bc08261495f565b9150615bcb8361495f565b925082615bdb57615bda615b86565b5b828204905092915050565b60038110615bf357600080fd5b50565b600081359050615c0581615be6565b92915050565b600060208284031215615c2157615c20614955565b5b6000615c2f84828501615bf6565b91505092915050565b60008083356001602003843603038112615c5557615c54615aec565b5b80840192508235915067ffffffffffffffff821115615c7757615c76615af1565b5b602083019250602082023603831315615c9357615c92615af6565b5b509250929050565b6000606082019050615cb06000830186614fe3565b615cbd6020830185614fe3565b615cca6040830184614fd4565b949350505050565b600081519050615ce1816151f3565b92915050565b600060208284031215615cfd57615cfc614955565b5b6000615d0b84828501615cd2565b91505092915050565b615d1d81614ac4565b82525050565b6000819050919050565b6000615d48615d43615d3e84615d23565b6158f2565b61495f565b9050919050565b615d5881615d2d565b82525050565b6000606082019050615d736000830186615d14565b615d806020830185615d4f565b615d8d6040830184614fd4565b949350505050565b600081549050919050565b60008190508160005260206000209050919050565b60008160001c9050919050565b600073ffffffffffffffffffffffffffffffffffffffff82169050919050565b6000615df5615df083615db5565b615dc2565b9050919050565b6000615e088254615de2565b9050919050565b6000600182019050919050565b6000615e2782615d95565b615e318185614eb7565b9350615e3c83615da0565b8060005b83811015615e7457615e5182615dfc565b615e5b8882614ed8565b9750615e6683615e0f565b925050600181019050615e40565b5085935050505092915050565b60006040820190508181036000830152615e9b8185615003565b90508181036020830152615eaf8184615e1c565b90509392505050565b600081905092915050565b50565b6000615ed3600083615eb8565b9150615ede82615ec3565b600082019050919050565b6000615ef482615ec6565b9150819050919050565b6000604082019050615f136000830185614fe3565b615f206020830184614fd4565b9392505050565b6000615f328261495f565b9150615f3d8361495f565b9250828202615f4b8161495f565b91508282048414831517615f6257615f61615766565b5b5092915050565b6000606082019050615f7e6000830186614fd4565b615f8b6020830185614fd4565b615f986040830184614fd4565b94935050505056fea2646970667358221220582af1ab0f57fa4c55354064ce3a24f57c6deb455d4fdcb0f741450dac515dfb64736f6c63430008180033",
  "linkReferences": {},
  "deployedLinkReferences": {}
}