{
  "_format": "hh-sol-artifact-1",
  "contractName": "WillRegistry",
  "sourceName": "contracts/WillRegistry.sol",
  "abi": [
    {
      "inputs": [],
      "stateMutability": "nonpayable",
      "type": "constructor"
    },
    {
      "inputs": [
        {
          "internalType": "uint256",
          "name": "provided",
          "type": "uint256"
        },
        {
          "internalType": "uint256",
          "name": "min",
          "type": "uint256"
        },
        {
          "internalType": "uint256",
          "name": "max",
          "type": "uint256"
        }
      ],
      "name": "ActivityThresholdInvalid",
      "type": "error"
    },
    {
      "inputs": [
        {
          "internalType": "uint256",
          "name": "activityThreshold",
          "type": "uint256"
        },
        {
          "internalType": "uint256",
          "name": "gracePeriod",
          "type": "uint256"
        }
      ],
      "name": "ActivityThresholdTooShortForGracePeriod",
      "type": "error"
    },
    {
      "inputs": [],
      "name": "AlreadyClaimed",
      "type": "error"
    },
    {
      "inputs": [],
      "name": "BeneficiaryExists",
      "type": "error"
    },
    {
      "inputs": [],
      "name": "BeneficiaryMissing",
      "type": "error"
    },
    {
      "inputs": [],
      "name": "DeadManSwitchNotTriggered",
      "type": "error"
    },
    {
      "inputs": [],
      "name": "DeadSwitchActive",
      "type": "error"
    },
    {
      "inputs": [],
      "name": "EtherTransferFailed",
      "type": "error"
    },
    {
      "inputs": [
        {
          "internalType": "uint256",
          "name": "provided",
          "type": "uint256"
        },
        {
          "internalType": "uint256",
          "name": "min",
          "type": "uint256"
        },
        {
          "internalType": "uint256",
          "name": "max",
          "type": "uint256"
        }
      ],
      "name": "GracePeriodInvalid",
      "type": "error"
    },
    {
      "inputs": [],
      "name": "GracePeriodNotEnded",
      "type": "error"
    },
    {
      "inputs": [],
      "name": "InvalidBeneficiary",
      "type": "error"
    },
    {
      "inputs": [],
      "name": "InvalidToken",
      "type": "error"
    },
    {
      "inputs": [],
      "name": "NoAllocation",
      "type": "error"
    },
    {
      "inputs": [],
      "name": "NotABeneficiary",
      "type": "error"
    },
    {
      "inputs": [],
      "name": "NotWillOwner",
      "type": "error"
    },
    {
      "inputs": [
        {
          "internalType": "address",
          "name": "owner",
          "type": "address"
        }
      ],
      "name": "OwnableInvalidOwner",
      "type": "error"
    },
    {
      "inputs": [
        {
          "internalType": "address",
          "name": "account",
          "type": "address"
        }
      ],
      "name": "OwnableUnauthorizedAccount",
      "type": "error"
    },
    {
      "inputs": [],
      "name": "ReentrancyGuardReentrantCall",
      "type": "error"
    },
    {
      "inputs": [],
      "name": "Unauthorized",
      "type": "error"
    },
    {
      "inputs": [],
      "name": "WillIdInvalid",
      "type": "error"
    },
    {
      "inputs": [
        {
          "internalType": "uint256",
          "name": "willId",
          "type": "uint256"
        }
      ],
      "name": "WillIdNotFound",
      "type": "error"
    },
    {
      "inputs": [],
      "name": "WillInactive",
      "type": "error"
    },
    {
      "inputs": [],
      "name": "WillNotFound",
      "type": "error"
    },
    {
      "anonymous": false,
      "inputs": [
        {
          "indexed": true,
          "internalType": "address",
          "name": "owner",
          "type": "address"
        },
        {
          "indexed": false,
          "internalType": "uint256",
          "name": "timestamp",
          "type": "uint256"
        }
      ],
      "name": "ActivityUpdated",
      "type": "event"
    },
    {
      "anonymous": false,
      "inputs": [
        {
          "indexed": true,
          "internalType": "address",
          "name": "owner",
          "type": "address"
        },
        {
          "indexed": true,
          "internalType": "address",
          "name": "beneficiary",
          "type": "address"
        }
      ],
      "name": "BeneficiaryAdded",
      "type": "event"
    },
    {
      "anonymous": false,
      "inputs": [
        {
          "indexed": true,
          "internalType": "address",
          "name": "beneficiary",
          "type": "address"
        },
        {
          "indexed": true,
          "internalType": "address",
          "name": "token",
          "type": "address"
        },
        {
          "indexed": false,
          "internalType": "uint256",
          "name": "tokenId",
          "type": "uint256"
        },
        {
          "indexed": false,
          "internalType": "uint256",
          "name": "amount",
          "type": "uint256"
        }
      ],
      "name": "BeneficiaryClaimed",
      "type": "event"
    },
    {
      "anonymous": false,
      "inputs": [
        {
          "indexed": true,
          "internalType": "address",
          "name": "owner",
          "type": "address"
        },
        {
          "indexed": true,
          "internalType": "address",
          "name": "beneficiary",
          "type": "address"
        }
      ],
      "name": "BeneficiaryRemoved",
      "type": "event"
    },
    {
      "anonymous": false,
      "inputs": [
        {
          "indexed": true,
          "internalType": "address",
          "name": "owner",
          "type": "address"
        },
        {
          "indexed": false,
          "internalType": "uint256",
          "name": "timestamp",
          "type": "uint256"
        }
      ],
      "name": "DeadManSwitchActivated",
      "type": "event"
    },
    {
      "anonymous": false,
      "inputs": [
        {
          "indexed": true,
          "internalType": "address",
          "name": "owner",
          "type": "address"
        }
      ],
      "name": "DeadManSwitchTriggered",
      "type": "event"
    },
    {
      "anonymous": false,
      "inputs": [
        {
          "indexed": true,
          "internalType": "address",
          "name": "owner",
          "type": "address"
        },
        {
          "indexed": false,
          "internalType": "uint256",
          "name": "amount",
          "type": "uint256"
        },
        {
          "indexed": true,
          "internalType": "address",
          "name": "beneficiary",
          "type": "address"
        }
      ],
      "name": "EtherAllocated",
      "type": "event"
    },
    {
      "anonymous": false,
      "inputs": [
        {
          "indexed": true,
          "internalType": "address",
          "name": "owner",
          "type": "address"
        },
        {
          "indexed": false,
          "internalType": "uint256",
          "name": "timestamp",
          "type": "uint256"
        },
        {
          "indexed": false,
          "internalType": "uint256",
          "name": "gracePeriod",
          "type": "uint256"
        }
      ],
      "name": "GracePeriodStarted",
      "type": "event"
    },
    {
      "anonymous": false,
      "inputs": [
        {
          "indexed": true,
          "internalType": "address",
          "name": "previousOwner",
          "type": "address"
        },
        {
          "indexed": true,
          "internalType": "address",
          "name": "newOwner",
          "type": "address"
        }
      ],
      "name": "OwnershipTransferred",
      "type": "event"
    },
    {
      "anonymous": false,
      "inputs": [
        {
          "indexed": true,
          "internalType": "address",
          "name": "owner",
          "type": "address"
        }
      ],
      "name": "PanicButtonPressed",
      "type": "event"
    },
    {
      "anonymous": false,
      "inputs": [
        {
          "indexed": true,
          "internalType": "address",
          "name": "owner",
          "type": "address"
        },
        {
          "indexed": false,
          "internalType": "uint256",
          "name": "gracePeriod",
          "type": "uint256"
        },
        {
          "indexed": false,
          "internalType": "uint256",
          "name": "activityThreshold",
          "type": "uint256"
        }
      ],
      "name": "TimeframesUpdated",
      "type": "event"
    },
    {
      "anonymous": false,
      "inputs": [
        {
          "indexed": true,
          "internalType": "address",
          "name": "owner",
          "type": "address"
        },
        {
          "indexed": true,
          "internalType": "address",
          "name": "token",
          "type": "address"
        },
        {
          "indexed": false,
          "internalType": "enum WillRegistry.TokenType",
          "name": "tokenType",
          "type": "uint8"
        },
        {
          "indexed": true,
          "internalType": "address",
          "name": "beneficiary",
          "type": "address"
        },
        {
          "indexed": false,
          "internalType": "uint256",
          "name": "tokenId",
          "type": "uint256"
        },
        {
          "indexed": false,
          "internalType": "uint256",
          "name": "amount",
          "type": "uint256"
        }
      ],
      "name": "TokenAllocated",
      "type": "event"
    },
    {
      "anonymous": false,
      "inputs": [
        {
          "indexed": true,
          "internalType": "address",
          "name": "beneficiary",
          "type": "address"
        },
        {
          "indexed": true,
          "internalType": "address",
          "name": "willOwner",
          "type": "address"
        }
      ],
      "name": "WillClaimed",
      "type": "event"
    },
    {
      "anonymous": false,
      "inputs": [
        {
          "indexed": true,
          "internalType": "address",
          "name": "owner",
          "type": "address"
        },
        {
          "indexed": false,
          "internalType": "string",
          "name": "name",
          "type": "string"
        },
        {
          "indexed": false,
          "internalType": "address[]",
          "name": "beneficiaries",
          "type": "address[]"
        }
      ],
      "name": "WillCreated",
      "type": "event"
    },
    {
      "inputs": [
        {
          "internalType": "uint256",
          "name": "willId",
          "type": "uint256"
        },
        {
          "internalType": "address",
          "name": "beneficiary",
          "type": "address"
        },
        {
          "components": [
            {
              "internalType": "address",
              "name": "tokenAddress",
              "type": "address"
            },
            {
              "internalType": "enum WillRegistry.TokenType",
              "name": "tokenType",
              "type": "uint8"
            },
            {
              "internalType": "uint256[]",
              "name": "tokenIds",
              "type": "uint256[]"
            },
            {
              "internalType": "uint256[]",
              "name": "amounts",
              "type": "uint256[]"
            },
            {
              "internalType": "address[]",
              "name": "beneficiaries",
              "type": "address[]"
            }
          ],
          "internalType": "struct WillRegistry.TokenAllocation[]",
          "name": "allocations",
          "type": "tuple[]"
        }
      ],
      "name": "addBeneficiaryWithAllocation",
      "outputs": [],
      "stateMutability": "nonpayable",
      "type": "function"
    },
    {
      "inputs": [
        {
          "internalType": "address",
          "name": "",
          "type": "address"
        }
      ],
      "name": "authorizedBackends",
      "outputs": [
        {
          "internalType": "bool",
          "name": "",
          "type": "bool"
        }
      ],
      "stateMutability": "view",
      "type": "function"
    },
    {
      "inputs": [
        {
          "internalType": "address",
          "name": "",
          "type": "address"
        },
        {
          "internalType": "uint256",
          "name": "",
          "type": "uint256"
        }
      ],
      "name": "beneficiaryWills",
      "outputs": [
        {
          "internalType": "address",
          "name": "",
          "type": "address"
        }
      ],
      "stateMutability": "view",
      "type": "function"
    },
    {
      "inputs": [
        {
          "internalType": "address",
          "name": "willOwner",
          "type": "address"
        }
      ],
      "name": "checkAndTriggerDeadManSwitch",
      "outputs": [],
      "stateMutability": "nonpayable",
      "type": "function"
    },
    {
      "inputs": [
        {
          "internalType": "uint256",
          "name": "willId",
          "type": "uint256"
        }
      ],
      "name": "claimInheritance",
      "outputs": [],
      "stateMutability": "nonpayable",
      "type": "function"
    },
    {
      "inputs": [
        {
          "internalType": "string",
          "name": "_name",
          "type": "string"
        },
        {
          "components": [
            {
              "internalType": "address",
              "name": "tokenAddress",
              "type": "address"
            },
            {
              "internalType": "enum WillRegistry.TokenType",
              "name": "tokenType",
              "type": "uint8"
            },
            {
              "internalType": "uint256[]",
              "name": "tokenIds",
              "type": "uint256[]"
            },
            {
              "internalType": "uint256[]",
              "name": "amounts",
              "type": "uint256[]"
            },
            {
              "internalType": "address[]",
              "name": "beneficiaries",
              "type": "address[]"
            }
          ],
          "internalType": "struct WillRegistry.TokenAllocation[]",
          "name": "_allocations",
          "type": "tuple[]"
        },
        {
          "internalType": "uint256",
          "name": "_gracePeriod",
          "type": "uint256"
        },
        {
          "internalType": "uint256",
          "name": "_activityThreshold",
          "type": "uint256"
        }
      ],
      "name": "createWill",
      "outputs": [],
      "stateMutability": "payable",
      "type": "function"
    },
    {
      "inputs": [
        {
          "internalType": "uint256",
          "name": "willId",
          "type": "uint256"
        }
      ],
      "name": "getActivityThreshold",
      "outputs": [
        {
          "internalType": "uint256",
          "name": "",
          "type": "uint256"
        }
      ],
      "stateMutability": "view",
      "type": "function"
    },
    {
      "inputs": [
        {
          "internalType": "address",
          "name": "owner",
          "type": "address"
        }
      ],
      "name": "getBeneficiaries",
      "outputs": [
        {
          "internalType": "address[]",
          "name": "",
          "type": "address[]"
        }
      ],
      "stateMutability": "view",
      "type": "function"
    },
    {
      "inputs": [
        {
          "internalType": "uint256",
          "name": "willId",
          "type": "uint256"
        },
        {
          "internalType": "address",
          "name": "beneficiary",
          "type": "address"
        }
      ],
      "name": "getBeneficiaryAllocations",
      "outputs": [
        {
          "components": [
            {
              "internalType": "address",
              "name": "tokenAddress",
              "type": "address"
            },
            {
              "internalType": "enum WillRegistry.TokenType",
              "name": "tokenType",
              "type": "uint8"
            },
            {
              "internalType": "uint256",
              "name": "tokenId",
              "type": "uint256"
            },
            {
              "internalType": "uint256",
              "name": "amount",
              "type": "uint256"
            },
            {
              "internalType": "bool",
              "name": "claimed",
              "type": "bool"
            }
          ],
          "internalType": "struct WillRegistry.BeneficiaryAllocation[]",
          "name": "",
          "type": "tuple[]"
        }
      ],
      "stateMutability": "view",
      "type": "function"
    },
    {
      "inputs": [
        {
          "internalType": "uint256",
          "name": "willId",
          "type": "uint256"
        }
      ],
      "name": "getRemainingGracePeriod",
      "outputs": [
        {
          "internalType": "uint256",
          "name": "",
          "type": "uint256"
        }
      ],
      "stateMutability": "view",
      "type": "function"
    },
    {
      "inputs": [
        {
          "internalType": "uint256",
          "name": "willId",
          "type": "uint256"
        }
      ],
      "name": "getTimeUntilDeadManSwitch",
      "outputs": [
        {
          "internalType": "uint256",
          "name": "",
          "type": "uint256"
        }
      ],
      "stateMutability": "view",
      "type": "function"
    },
    {
      "inputs": [],
      "name": "getTotalTokensWilled",
      "outputs": [
        {
          "internalType": "uint256",
          "name": "",
          "type": "uint256"
        }
      ],
      "stateMutability": "view",
      "type": "function"
    },
    {
      "inputs": [],
      "name": "getTotalUniqueBeneficiaries",
      "outputs": [
        {
          "internalType": "uint256",
          "name": "",
          "type": "uint256"
        }
      ],
      "stateMutability": "view",
      "type": "function"
    },
    {
      "inputs": [
        {
          "internalType": "address",
          "name": "owner",
          "type": "address"
        }
      ],
      "name": "getTotalWillsCreated",
      "outputs": [
        {
          "internalType": "uint256",
          "name": "",
          "type": "uint256"
        }
      ],
      "stateMutability": "view",
      "type": "function"
    },
    {
      "inputs": [
        {
          "internalType": "uint256",
          "name": "willId",
          "type": "uint256"
        },
        {
          "internalType": "address",
          "name": "owner",
          "type": "address"
        }
      ],
      "name": "getWillDetailsByIdAndOwner",
      "outputs": [
        {
          "internalType": "uint256",
          "name": "id",
          "type": "uint256"
        },
        {
          "internalType": "address",
          "name": "willOwner",
          "type": "address"
        },
        {
          "internalType": "string",
          "name": "name",
          "type": "string"
        },
        {
          "internalType": "uint256",
          "name": "lastActivity",
          "type": "uint256"
        },
        {
          "internalType": "bool",
          "name": "isActive",
          "type": "bool"
        },
        {
          "internalType": "uint256",
          "name": "etherAllocation",
          "type": "uint256"
        },
        {
          "internalType": "uint256",
          "name": "gracePeriod",
          "type": "uint256"
        },
        {
          "internalType": "uint256",
          "name": "activityThreshold",
          "type": "uint256"
        },
        {
          "internalType": "bool",
          "name": "deadManSwitchTriggered",
          "type": "bool"
        },
        {
          "internalType": "uint256",
          "name": "deadManSwitchTimestamp",
          "type": "uint256"
        },
        {
          "internalType": "address[]",
          "name": "beneficiaries",
          "type": "address[]"
        }
      ],
      "stateMutability": "view",
      "type": "function"
    },
    {
      "inputs": [
        {
          "internalType": "address",
          "name": "beneficiary",
          "type": "address"
        }
      ],
      "name": "getWillsAsBeneficiary",
      "outputs": [
        {
          "internalType": "address[]",
          "name": "",
          "type": "address[]"
        }
      ],
      "stateMutability": "view",
      "type": "function"
    },
    {
      "inputs": [
        {
          "internalType": "address",
          "name": "owner",
          "type": "address"
        }
      ],
      "name": "getWillsByOwner",
      "outputs": [
        {
          "internalType": "uint256[]",
          "name": "",
          "type": "uint256[]"
        }
      ],
      "stateMutability": "view",
      "type": "function"
    },
    {
      "inputs": [
        {
          "internalType": "address",
          "name": "beneficiary",
          "type": "address"
        }
      ],
      "name": "getWillsWilledToBeneficiary",
      "outputs": [
        {
          "components": [
            {
              "internalType": "uint256",
              "name": "willId",
              "type": "uint256"
            },
            {
              "internalType": "string",
              "name": "willName",
              "type": "string"
            },
            {
              "internalType": "address",
              "name": "tokenAddress",
              "type": "address"
            },
            {
              "internalType": "enum WillRegistry.TokenType",
              "name": "tokenType",
              "type": "uint8"
            },
            {
              "internalType": "uint256",
              "name": "amount",
              "type": "uint256"
            },
            {
              "internalType": "bool",
              "name": "claimed",
              "type": "bool"
            },
            {
              "internalType": "address",
              "name": "willOwner",
              "type": "address"
            }
          ],
          "internalType": "struct WillRegistry.BeneficiaryWillInfo[]",
          "name": "",
          "type": "tuple[]"
        }
      ],
      "stateMutability": "view",
      "type": "function"
    },
    {
      "inputs": [
        {
          "internalType": "uint256",
          "name": "willId",
          "type": "uint256"
        }
      ],
      "name": "hasGracePeriodEnded",
      "outputs": [
        {
          "internalType": "bool",
          "name": "",
          "type": "bool"
        }
      ],
      "stateMutability": "view",
      "type": "function"
    },
    {
      "inputs": [],
      "name": "owner",
      "outputs": [
        {
          "internalType": "address",
          "name": "",
          "type": "address"
        }
      ],
      "stateMutability": "view",
      "type": "function"
    },
    {
      "inputs": [
        {
          "internalType": "address",
          "name": "",
          "type": "address"
        },
        {
          "internalType": "uint256",
          "name": "",
          "type": "uint256"
        }
      ],
      "name": "ownerWillIds",
      "outputs": [
        {
          "internalType": "uint256",
          "name": "",
          "type": "uint256"
        }
      ],
      "stateMutability": "view",
      "type": "function"
    },
    {
      "inputs": [],
      "name": "renounceOwnership",
      "outputs": [],
      "stateMutability": "nonpayable",
      "type": "function"
    },
    {
      "inputs": [
        {
          "internalType": "address",
          "name": "backend",
          "type": "address"
        },
        {
          "internalType": "bool",
          "name": "authorized",
          "type": "bool"
        }
      ],
      "name": "setAuthorizedBackend",
      "outputs": [],
      "stateMutability": "nonpayable",
      "type": "function"
    },
    {
      "inputs": [
        {
          "internalType": "address",
          "name": "newOwner",
          "type": "address"
        }
      ],
      "name": "transferOwnership",
      "outputs": [],
      "stateMutability": "nonpayable",
      "type": "function"
    },
    {
      "inputs": [
        {
          "internalType": "uint256",
          "name": "willId",
          "type": "uint256"
        },
        {
          "internalType": "uint256",
          "name": "_gracePeriod",
          "type": "uint256"
        },
        {
          "internalType": "uint256",
          "name": "_activityThreshold",
          "type": "uint256"
        }
      ],
      "name": "updateTimeframes",
      "outputs": [],
      "stateMutability": "nonpayable",
      "type": "function"
    },
    {
      "inputs": [
        {
          "internalType": "address",
          "name": "",
          "type": "address"
        }
      ],
      "name": "wills",
      "outputs": [
        {
          "internalType": "uint256",
          "name": "id",
          "type": "uint256"
        },
        {
          "internalType": "address",
          "name": "owner",
          "type": "address"
        },
        {
          "internalType": "string",
          "name": "name",
          "type": "string"
        },
        {
          "internalType": "uint256",
          "name": "lastActivity",
          "type": "uint256"
        },
        {
          "internalType": "bool",
          "name": "isActive",
          "type": "bool"
        },
        {
          "internalType": "uint256",
          "name": "etherAllocation",
          "type": "uint256"
        },
        {
          "internalType": "uint256",
          "name": "gracePeriod",
          "type": "uint256"
        },
        {
          "internalType": "uint256",
          "name": "activityThreshold",
          "type": "uint256"
        },
        {
          "internalType": "bool",
          "name": "deadManSwitchTriggered",
          "type": "bool"
        },
        {
          "internalType": "uint256",
          "name": "deadManSwitchTimestamp",
          "type": "uint256"
        }
      ],
      "stateMutability": "view",
      "type": "function"
    },
    {
      "inputs": [
        {
          "internalType": "uint256",
          "name": "",
          "type": "uint256"
        }
      ],
      "name": "willsById",
      "outputs": [
        {
          "internalType": "uint256",
          "name": "id",
          "type": "uint256"
        },
        {
          "internalType": "address",
          "name": "owner",
          "type": "address"
        },
        {
          "internalType": "string",
          "name": "name",
          "type": "string"
        },
        {
          "internalType": "uint256",
          "name": "lastActivity",
          "type": "uint256"
        },
        {
          "internalType": "bool",
          "name": "isActive",
          "type": "bool"
        },
        {
          "internalType": "uint256",
          "name": "etherAllocation",
          "type": "uint256"
        },
        {
          "internalType": "uint256",
          "name": "gracePeriod",
          "type": "uint256"
        },
        {
          "internalType": "uint256",
          "name": "activityThreshold",
          "type": "uint256"
        },
        {
          "internalType": "bool",
          "name": "deadManSwitchTriggered",
          "type": "bool"
        },
        {
          "internalType": "uint256",
          "name": "deadManSwitchTimestamp",
          "type": "uint256"
        }
      ],
      "stateMutability": "view",
      "type": "function"
    }
  ],
  "bytecode": "0x608060405260016002553480156200001657600080fd5b5033600073ffffffffffffffffffffffffffffffffffffffff168173ffffffffffffffffffffffffffffffffffffffff16036200008d5760006040517f1e4fbdf7000000000000000000000000000000000000000000000000000000008152600401620000849190620001b5565b60405180910390fd5b6200009e81620000ac60201b60201c565b5060018081905550620001d2565b60008060009054906101000a900473ffffffffffffffffffffffffffffffffffffffff169050816000806101000a81548173ffffffffffffffffffffffffffffffffffffffff021916908373ffffffffffffffffffffffffffffffffffffffff1602179055508173ffffffffffffffffffffffffffffffffffffffff168173ffffffffffffffffffffffffffffffffffffffff167f8be0079c531659141344cd1fd0a4f28419497f9722a3daafe3b4186f6b6457e060405160405180910390a35050565b600073ffffffffffffffffffffffffffffffffffffffff82169050919050565b60006200019d8262000170565b9050919050565b620001af8162000190565b82525050565b6000602082019050620001cc6000830184620001a4565b92915050565b61581580620001e26000396000f3fe60806040526004361061019c5760003560e01c806369f196bb116100ec5780639516e0331161008a578063cfd35b8a11610064578063cfd35b8a14610669578063e712a35d146106a6578063eb75c6a4146106e3578063f2fde38b1461070e5761019c565b80639516e033146105bd5780639f1494b8146105e6578063a4cb92fa146106235761019c565b80637de00a9d116100c65780637de00a9d146104ef578063888253e41461052c5780638da5cb5b1461056957806392ccb8ff146105945761019c565b806369f196bb1461047f5780636bd6cfd61461049b578063715018a6146104d85761019c565b80631ed22bd7116101595780633d9c68fc116101335780633d9c68fc146103b3578063479b7676146103dc5780634a4d6714146104195780634fb37f3c146104565761019c565b80631ed22bd7146102fb5780633bc85b54146103415780633cf9d0731461036c5761019c565b806314f93bf8146101a15780631579673c146101de578063189578361461021b5780631a2cd78f146102585780631cab59a4146102815780631cba3af9146102be575b600080fd5b3480156101ad57600080fd5b506101c860048036038101906101c39190614311565b610737565b6040516101d59190614518565b60405180910390f35b3480156101ea57600080fd5b506102056004803603810190610200919061453a565b61092b565b6040516102129190614755565b60405180910390f35b34801561022757600080fd5b50610242600480360381019061023d9190614777565b611027565b60405161024f91906147b3565b60405180910390f35b34801561026457600080fd5b5061027f600480360381019061027a91906147ce565b6110d9565b005b34801561028d57600080fd5b506102a860048036038101906102a3919061453a565b6112ca565b6040516102b591906148d0565b60405180910390f35b3480156102ca57600080fd5b506102e560048036038101906102e09190614777565b611420565b6040516102f29190614901565b60405180910390f35b34801561030757600080fd5b50610322600480360381019061031d9190614777565b611504565b6040516103389a99989796959493929190614975565b60405180910390f35b34801561034d57600080fd5b5061035661161a565b60405161036391906147b3565b60405180910390f35b34801561037857600080fd5b50610393600480360381019061038e9190614311565b6117ef565b6040516103aa9b9a99989796959493929190614a18565b60405180910390f35b3480156103bf57600080fd5b506103da60048036038101906103d5919061453a565b611a41565b005b3480156103e857600080fd5b5061040360048036038101906103fe9190614ad1565b611c32565b60405161041091906147b3565b60405180910390f35b34801561042557600080fd5b50610440600480360381019061043b9190614777565b611c63565b60405161044d91906147b3565b60405180910390f35b34801561046257600080fd5b5061047d60048036038101906104789190614b3d565b611d77565b005b61049960048036038101906104949190614d12565b611dda565b005b3480156104a757600080fd5b506104c260048036038101906104bd919061453a565b612660565b6040516104cf91906148d0565b60405180910390f35b3480156104e457600080fd5b506104ed61272d565b005b3480156104fb57600080fd5b506105166004803603810190610511919061453a565b612741565b6040516105239190614e65565b60405180910390f35b34801561053857600080fd5b50610553600480360381019061054e9190614ad1565b6127d8565b6040516105609190614e87565b60405180910390f35b34801561057557600080fd5b5061057e612826565b60405161058b9190614e87565b60405180910390f35b3480156105a057600080fd5b506105bb60048036038101906105b69190614777565b61284f565b005b3480156105c957600080fd5b506105e460048036038101906105df9190614ea2565b612fa0565b005b3480156105f257600080fd5b5061060d6004803603810190610608919061453a565b6134e5565b60405161061a91906147b3565b60405180910390f35b34801561062f57600080fd5b5061064a6004803603810190610645919061453a565b613531565b6040516106609a99989796959493929190614975565b60405180910390f35b34801561067557600080fd5b50610690600480360381019061068b9190614777565b613647565b60405161069d91906147b3565b60405180910390f35b3480156106b257600080fd5b506106cd60048036038101906106c8919061453a565b613751565b6040516106da9190614901565b60405180910390f35b3480156106ef57600080fd5b506106f8613771565b60405161070591906147b3565b60405180910390f35b34801561071a57600080fd5b506107356004803603810190610730919061453a565b61394b565b005b60606000610744846139d1565b90508060070160008473ffffffffffffffffffffffffffffffffffffffff1673ffffffffffffffffffffffffffffffffffffffff16815260200190815260200160002060009054906101000a900460ff166107cb576040517f43290f5b00000000000000000000000000000000000000000000000000000000815260040160405180910390fd5b8060090160008473ffffffffffffffffffffffffffffffffffffffff1673ffffffffffffffffffffffffffffffffffffffff168152602001908152602001600020805480602002602001604051908101604052809291908181526020016000905b8282101561091e57838290600052602060002090600402016040518060a00160405290816000820160009054906101000a900473ffffffffffffffffffffffffffffffffffffffff1673ffffffffffffffffffffffffffffffffffffffff1673ffffffffffffffffffffffffffffffffffffffff1681526020016000820160149054906101000a900460ff1660028111156108ca576108c961438c565b5b60028111156108dc576108db61438c565b5b815260200160018201548152602001600282015481526020016003820160009054906101000a900460ff1615151515815250508152602001906001019061082c565b5050505091505092915050565b60606000600560008473ffffffffffffffffffffffffffffffffffffffff1673ffffffffffffffffffffffffffffffffffffffff1681526020019081526020016000208054806020026020016040519081016040528092919081815260200182805480156109ee57602002820191906000526020600020905b8160009054906101000a900473ffffffffffffffffffffffffffffffffffffffff1673ffffffffffffffffffffffffffffffffffffffff16815260200190600101908083116109a4575b505050505090506000805b8251811015610bdb576000838281518110610a1757610a16614f16565b5b602002602001015190506000600760008373ffffffffffffffffffffffffffffffffffffffff1673ffffffffffffffffffffffffffffffffffffffff168152602001908152602001600020805480602002602001604051908101604052809291908181526020018280548015610aac57602002820191906000526020600020905b815481526020019060010190808311610a98575b5050505050905060005b8151811015610bcb576000828281518110610ad457610ad3614f16565b5b6020026020010151905060006006600083815260200190815260200160002090508060040160009054906101000a900460ff168015610b5e57508060070160008b73ffffffffffffffffffffffffffffffffffffffff1673ffffffffffffffffffffffffffffffffffffffff16815260200190815260200160002060009054906101000a900460ff165b15610bbc5760008160090160008c73ffffffffffffffffffffffffffffffffffffffff1673ffffffffffffffffffffffffffffffffffffffff1681526020019081526020016000209050808054905088610bb89190614f74565b9750505b50508080600101915050610ab6565b50505080806001019150506109f9565b5060008167ffffffffffffffff811115610bf857610bf7614b87565b5b604051908082528060200260200182016040528015610c3157816020015b610c1e6141ec565b815260200190600190039081610c165790505b5090506000805b845181101561101a576000858281518110610c5657610c55614f16565b5b602002602001015190506000600760008373ffffffffffffffffffffffffffffffffffffffff1673ffffffffffffffffffffffffffffffffffffffff168152602001908152602001600020805480602002602001604051908101604052809291908181526020018280548015610ceb57602002820191906000526020600020905b815481526020019060010190808311610cd7575b5050505050905060005b815181101561100a576000828281518110610d1357610d12614f16565b5b6020026020010151905060006006600083815260200190815260200160002090508060040160009054906101000a900460ff168015610d9d57508060070160008d73ffffffffffffffffffffffffffffffffffffffff1673ffffffffffffffffffffffffffffffffffffffff16815260200190815260200160002060009054906101000a900460ff165b15610ffb5760008160090160008e73ffffffffffffffffffffffffffffffffffffffff1673ffffffffffffffffffffffffffffffffffffffff168152602001908152602001600020905060005b8180549050811015610ff8576040518060e00160405280858152602001846002018054610e1690614fd7565b80601f0160208091040260200160405190810160405280929190818152602001828054610e4290614fd7565b8015610e8f5780601f10610e6457610100808354040283529160200191610e8f565b820191906000526020600020905b815481529060010190602001808311610e7257829003601f168201915b50505050508152602001838381548110610eac57610eab614f16565b5b906000526020600020906004020160000160009054906101000a900473ffffffffffffffffffffffffffffffffffffffff1673ffffffffffffffffffffffffffffffffffffffff168152602001838381548110610f0c57610f0b614f16565b5b906000526020600020906004020160000160149054906101000a900460ff166002811115610f3d57610f3c61438c565b5b8152602001838381548110610f5557610f54614f16565b5b9060005260206000209060040201600201548152602001838381548110610f7f57610f7e614f16565b5b906000526020600020906004020160030160009054906101000a900460ff16151581526020018873ffffffffffffffffffffffffffffffffffffffff168152508a8a81518110610fd257610fd1614f16565b5b60200260200101819052508880610fe890615008565b9950508080600101915050610dea565b50505b50508080600101915050610cf5565b5050508080600101915050610c38565b5081945050505050919050565b6000808203611062576040517f97643b5200000000000000000000000000000000000000000000000000000000815260040160405180910390fd5b60006006600084815260200190815260200160002090508060040160009054906101000a900460ff166110cc57826040517f8c209e560000000000000000000000000000000000000000000000000000000081526004016110c391906147b3565b60405180910390fd5b80600b0154915050919050565b60008303611113576040517f97643b5200000000000000000000000000000000000000000000000000000000815260040160405180910390fd5b60006006600085815260200190815260200160002090508060040160009054906101000a900460ff1661117d57836040517f8c209e5600000000000000000000000000000000000000000000000000000000815260040161117491906147b3565b60405180910390fd5b3373ffffffffffffffffffffffffffffffffffffffff168160010160009054906101000a900473ffffffffffffffffffffffffffffffffffffffff1673ffffffffffffffffffffffffffffffffffffffff1614611206576040517f0f5e6bd800000000000000000000000000000000000000000000000000000000815260040160405180910390fd5b6112108383613a7f565b80600c0160009054906101000a900460ff1615611259576040517f815091e200000000000000000000000000000000000000000000000000000000815260040160405180910390fd5b8281600a01819055508181600b01819055504281600301819055503373ffffffffffffffffffffffffffffffffffffffff167fb84522da2d2039e8f4a7a0993eea2cf0dd5c31c0d7265951c4c4e7985dcda7be84846040516112bc929190615050565b60405180910390a250505050565b6060600360008373ffffffffffffffffffffffffffffffffffffffff1673ffffffffffffffffffffffffffffffffffffffff16815260200190815260200160002060040160009054906101000a900460ff16611352576040517ff73656bf00000000000000000000000000000000000000000000000000000000815260040160405180910390fd5b600360008373ffffffffffffffffffffffffffffffffffffffff1673ffffffffffffffffffffffffffffffffffffffff16815260200190815260200160002060080180548060200260200160405190810160405280929190818152602001828054801561141457602002820191906000526020600020905b8160009054906101000a900473ffffffffffffffffffffffffffffffffffffffff1673ffffffffffffffffffffffffffffffffffffffff16815260200190600101908083116113ca575b50505050509050919050565b600080820361145b576040517f97643b5200000000000000000000000000000000000000000000000000000000815260040160405180910390fd5b60006006600084815260200190815260200160002090508060040160009054906101000a900460ff166114c557826040517f8c209e560000000000000000000000000000000000000000000000000000000081526004016114bc91906147b3565b60405180910390fd5b80600c0160009054906101000a900460ff166114e55760009150506114ff565b80600a015481600d01546114f99190614f74565b42119150505b919050565b60066020528060005260406000206000915090508060000154908060010160009054906101000a900473ffffffffffffffffffffffffffffffffffffffff169080600201805461155390614fd7565b80601f016020809104026020016040519081016040528092919081815260200182805461157f90614fd7565b80156115cc5780601f106115a1576101008083540402835291602001916115cc565b820191906000526020600020905b8154815290600101906020018083116115af57829003601f168201915b5050505050908060030154908060040160009054906101000a900460ff169080600601549080600a01549080600b01549080600c0160009054906101000a900460ff169080600d015490508a565b600080600a60025461162c9190615079565b67ffffffffffffffff81111561164557611644614b87565b5b6040519080825280602002602001820160405280156116735781602001602082028036833780820191505090505b509050600080600190505b6002548110156117e657600060066000838152602001908152602001600020905060005b81600801805490508110156117d75760008260080182815481106116c9576116c8614f16565b5b9060005260206000200160009054906101000a900473ffffffffffffffffffffffffffffffffffffffff1690506000805b86811015611765578273ffffffffffffffffffffffffffffffffffffffff1688828151811061172c5761172b614f16565b5b602002602001015173ffffffffffffffffffffffffffffffffffffffff16036117585760019150611765565b80806001019150506116fa565b50806117c8578187878151811061177f5761177e614f16565b5b602002602001019073ffffffffffffffffffffffffffffffffffffffff16908173ffffffffffffffffffffffffffffffffffffffff168152505085806117c490615008565b9650505b505080806001019150506116a2565b5050808060010191505061167e565b50809250505090565b600080606060008060008060008060006060600061180c8e6139d1565b90508c73ffffffffffffffffffffffffffffffffffffffff168160010160009054906101000a900473ffffffffffffffffffffffffffffffffffffffff1673ffffffffffffffffffffffffffffffffffffffff1614611897576040517f0f5e6bd800000000000000000000000000000000000000000000000000000000815260040160405180910390fd5b80600001548160010160009054906101000a900473ffffffffffffffffffffffffffffffffffffffff168260020183600301548460040160009054906101000a900460ff16856006015486600a015487600b015488600c0160009054906101000a900460ff1689600d01548a60080188805461191290614fd7565b80601f016020809104026020016040519081016040528092919081815260200182805461193e90614fd7565b801561198b5780601f106119605761010080835404028352916020019161198b565b820191906000526020600020905b81548152906001019060200180831161196e57829003601f168201915b5050505050985080805480602002602001604051908101604052809291908181526020018280548015611a1357602002820191906000526020600020905b8160009054906101000a900473ffffffffffffffffffffffffffffffffffffffff1673ffffffffffffffffffffffffffffffffffffffff16815260200190600101908083116119c9575b505050505090509b509b509b509b509b509b509b509b509b509b509b50509295989b509295989b9093969950565b600460003373ffffffffffffffffffffffffffffffffffffffff1673ffffffffffffffffffffffffffffffffffffffff16815260200190815260200160002060009054906101000a900460ff16611ac4576040517f82b4290000000000000000000000000000000000000000000000000000000000815260040160405180910390fd5b6000600360008373ffffffffffffffffffffffffffffffffffffffff1673ffffffffffffffffffffffffffffffffffffffff16815260200190815260200160002090508060040160009054906101000a900460ff16611b4f576040517f3114099800000000000000000000000000000000000000000000000000000000815260040160405180910390fd5b80600c0160009054906101000a900460ff1615611b98576040517f815091e200000000000000000000000000000000000000000000000000000000815260040160405180910390fd5b80600b0154816003015442611bad91906150bb565b1115611c2e57600181600c0160006101000a81548160ff0219169083151502179055504281600d01819055508173ffffffffffffffffffffffffffffffffffffffff167f674b29eac3f8db4186c76e9429fa4d70125d68fed7b9a0d862732a7d2fcf4e364283600a0154604051611c25929190615050565b60405180910390a25b5050565b60076020528160005260406000208181548110611c4e57600080fd5b90600052602060002001600091509150505481565b6000808203611c9e576040517f97643b5200000000000000000000000000000000000000000000000000000000815260040160405180910390fd5b60006006600084815260200190815260200160002090508060040160009054906101000a900460ff16611d0857826040517f8c209e56000000000000000000000000000000000000000000000000000000008152600401611cff91906147b3565b60405180910390fd5b80600c0160009054906101000a900460ff161580611d2b5750611d2a83611420565b5b15611d3a576000915050611d72565b600081600a015482600d0154611d509190614f74565b9050428111611d60576000611d6d565b4281611d6c91906150bb565b5b925050505b919050565b611d7f613b89565b80600460008473ffffffffffffffffffffffffffffffffffffffff1673ffffffffffffffffffffffffffffffffffffffff16815260200190815260200160002060006101000a81548160ff0219169083151502179055505050565b611de2613c10565b600084849050148015611df55750600034145b15611e2c576040517f5f8a655a00000000000000000000000000000000000000000000000000000000815260040160405180910390fd5b611e368282613a7f565b600060026000815480929190611e4b90615008565b9190505590506000600660008381526020019081526020016000209050818160000181905550338160010160006101000a81548173ffffffffffffffffffffffffffffffffffffffff021916908373ffffffffffffffffffffffffffffffffffffffff16021790555086816002019081611ec5919061529b565b508381600a01819055508281600b018190555042816003018190555060018160040160006101000a81548160ff021916908315150217905550600760003373ffffffffffffffffffffffffffffffffffffffff1673ffffffffffffffffffffffffffffffffffffffff16815260200190815260200160002082908060018154018082558091505060019003906000526020600020016000909190919091505560003411156120d55734816006018190555060005b86866000818110611f8d57611f8c614f16565b5b9050602002810190611f9f919061537c565b8060800190611fae91906153a4565b90508110156120d357600087876000818110611fcd57611fcc614f16565b5b9050602002810190611fdf919061537c565b8060800190611fee91906153a4565b83818110611fff57611ffe614f16565b5b9050602002016020810190612014919061453a565b90508260070160008273ffffffffffffffffffffffffffffffffffffffff1673ffffffffffffffffffffffffffffffffffffffff16815260200190815260200160002060009054906101000a900460ff16612074576120738185613c56565b5b6120c5838260008060008d8d600081811061209257612091614f16565b5b90506020028101906120a4919061537c565b80608001906120b391906153a4565b9050346120c09190615436565b613fa0565b508080600101915050611f79565b505b60005b868690508110156125ab5760008787838181106120f8576120f7614f16565b5b905060200281019061210a919061537c565b602001602081019061211c919061548c565b90506002808111156121315761213061438c565b5b8160028111156121445761214361438c565b5b0361217b576040517fc1ab6dc100000000000000000000000000000000000000000000000000000000815260040160405180910390fd5b6001600281111561218f5761218e61438c565b5b8160028111156121a2576121a161438c565b5b036122fe5760005b8888848181106121bd576121bc614f16565b5b90506020028101906121cf919061537c565b80608001906121de91906153a4565b90508110156122fc5760008989858181106121fc576121fb614f16565b5b905060200281019061220e919061537c565b806060019061221d91906154b9565b8381811061222e5761222d614f16565b5b90506020020135905089898581811061224a57612249614f16565b5b905060200281019061225c919061537c565b600001602081019061226e919061453a565b73ffffffffffffffffffffffffffffffffffffffff166323b872dd3330846040518463ffffffff1660e01b81526004016122aa9392919061551c565b6020604051808303816000875af11580156122c9573d6000803e3d6000fd5b505050506040513d601f19601f820116820180604052508101906122ed9190615568565b505080806001019150506121aa565b505b60005b88888481811061231457612313614f16565b5b9050602002810190612326919061537c565b806080019061233591906153a4565b905081101561259c57600089898581811061235357612352614f16565b5b9050602002810190612365919061537c565b806080019061237491906153a4565b8381811061238557612384614f16565b5b905060200201602081019061239a919061453a565b90508460070160008273ffffffffffffffffffffffffffffffffffffffff1673ffffffffffffffffffffffffffffffffffffffff16815260200190815260200160002060009054906101000a900460ff166123fa576123f98187613c56565b5b61248b85828c8c8881811061241257612411614f16565b5b9050602002810190612424919061537c565b6000016020810190612436919061453a565b600160008f8f8b81811061244d5761244c614f16565b5b905060200281019061245f919061537c565b806060019061246e91906154b9565b8981811061247f5761247e614f16565b5b90506020020135613fa0565b8073ffffffffffffffffffffffffffffffffffffffff168a8a868181106124b5576124b4614f16565b5b90506020028101906124c7919061537c565b60000160208101906124d9919061453a565b73ffffffffffffffffffffffffffffffffffffffff163373ffffffffffffffffffffffffffffffffffffffff167fb44510937e7a7a5dd39439c63df574818db53dac575444d730f4cc88dda6d1c8600160008f8f8b81811061253e5761253d614f16565b5b9050602002810190612550919061537c565b806060019061255f91906154b9565b898181106125705761256f614f16565b5b90506020020135604051612586939291906155df565b60405180910390a4508080600101915050612301565b505080806001019150506120d8565b503373ffffffffffffffffffffffffffffffffffffffff167fdfe6dd715d896ca6c4a17441d3e7a45cb92ec36b4f4a8cdf60a7498ec1341b4f88836008016040516125f7929190615702565b60405180910390a23373ffffffffffffffffffffffffffffffffffffffff167fb84522da2d2039e8f4a7a0993eea2cf0dd5c31c0d7265951c4c4e7985dcda7be8585604051612647929190615050565b60405180910390a25050612659614117565b5050505050565b6060600560008373ffffffffffffffffffffffffffffffffffffffff1673ffffffffffffffffffffffffffffffffffffffff16815260200190815260200160002080548060200260200160405190810160405280929190818152602001828054801561272157602002820191906000526020600020905b8160009054906101000a900473ffffffffffffffffffffffffffffffffffffffff1673ffffffffffffffffffffffffffffffffffffffff16815260200190600101908083116126d7575b50505050509050919050565b612735613b89565b61273f6000614120565b565b6060600760008373ffffffffffffffffffffffffffffffffffffffff1673ffffffffffffffffffffffffffffffffffffffff1681526020019081526020016000208054806020026020016040519081016040528092919081815260200182805480156127cc57602002820191906000526020600020905b8154815260200190600101908083116127b8575b50505050509050919050565b600560205281600052604060002081815481106127f457600080fd5b906000526020600020016000915091509054906101000a900473ffffffffffffffffffffffffffffffffffffffff1681565b60008060009054906101000a900473ffffffffffffffffffffffffffffffffffffffff16905090565b612857613c10565b60008103612891576040517f97643b5200000000000000000000000000000000000000000000000000000000815260040160405180910390fd5b60006006600083815260200190815260200160002090508060040160009054906101000a900460ff166128f0576040517f3114099800000000000000000000000000000000000000000000000000000000815260040160405180910390fd5b8060070160003373ffffffffffffffffffffffffffffffffffffffff1673ffffffffffffffffffffffffffffffffffffffff16815260200190815260200160002060009054906101000a900460ff16612975576040517f43290f5b00000000000000000000000000000000000000000000000000000000815260040160405180910390fd5b80600c0160009054906101000a900460ff166129bd576040517f083d2f9700000000000000000000000000000000000000000000000000000000815260040160405180910390fd5b6129c682611420565b6129fc576040517f2850e4fb00000000000000000000000000000000000000000000000000000000815260040160405180910390fd5b80600e0160003373ffffffffffffffffffffffffffffffffffffffff1673ffffffffffffffffffffffffffffffffffffffff16815260200190815260200160002060009054906101000a900460ff1615612a82576040517f646cf55800000000000000000000000000000000000000000000000000000000815260040160405180910390fd5b600181600e0160003373ffffffffffffffffffffffffffffffffffffffff1673ffffffffffffffffffffffffffffffffffffffff16815260200190815260200160002060006101000a81548160ff02191690831515021790555060008160090160003373ffffffffffffffffffffffffffffffffffffffff1673ffffffffffffffffffffffffffffffffffffffff168152602001908152602001600020905060005b8180549050811015612f1457818181548110612b4357612b42614f16565b5b906000526020600020906004020160030160009054906101000a900460ff16612f075760006002811115612b7a57612b7961438c565b5b828281548110612b8d57612b8c614f16565b5b906000526020600020906004020160000160149054906101000a900460ff166002811115612bbe57612bbd61438c565b5b03612c905760003373ffffffffffffffffffffffffffffffffffffffff16838381548110612bef57612bee614f16565b5b906000526020600020906004020160020154604051612c0d9061576a565b60006040518083038185875af1925050503d8060008114612c4a576040519150601f19603f3d011682016040523d82523d6000602084013e612c4f565b606091505b5050905080612c8a576040517f6747a28800000000000000000000000000000000000000000000000000000000815260040160405180910390fd5b50612dd6565b60016002811115612ca457612ca361438c565b5b828281548110612cb757612cb6614f16565b5b906000526020600020906004020160000160149054906101000a900460ff166002811115612ce857612ce761438c565b5b03612dd557818181548110612d0057612cff614f16565b5b906000526020600020906004020160000160009054906101000a900473ffffffffffffffffffffffffffffffffffffffff1673ffffffffffffffffffffffffffffffffffffffff1663a9059cbb33848481548110612d6157612d60614f16565b5b9060005260206000209060040201600201546040518363ffffffff1660e01b8152600401612d9092919061577f565b6020604051808303816000875af1158015612daf573d6000803e3d6000fd5b505050506040513d601f19601f82011682018060405250810190612dd39190615568565b505b5b6001828281548110612deb57612dea614f16565b5b906000526020600020906004020160030160006101000a81548160ff021916908315150217905550818181548110612e2657612e25614f16565b5b906000526020600020906004020160000160009054906101000a900473ffffffffffffffffffffffffffffffffffffffff1673ffffffffffffffffffffffffffffffffffffffff163373ffffffffffffffffffffffffffffffffffffffff167f2af1ba4c94053430820e17e81238044baf8bab1d5d1975376ca5bad693068bef848481548110612eb957612eb8614f16565b5b906000526020600020906004020160010154858581548110612ede57612edd614f16565b5b906000526020600020906004020160020154604051612efe929190615050565b60405180910390a35b8080600101915050612b24565b508160010160009054906101000a900473ffffffffffffffffffffffffffffffffffffffff1673ffffffffffffffffffffffffffffffffffffffff163373ffffffffffffffffffffffffffffffffffffffff167fb7acaf12118f88f42ce2f08bb6327569f1fb61bee1b471032f28ec5eaaf44b8560405160405180910390a35050612f9d614117565b50565b612fa8613c10565b600073ffffffffffffffffffffffffffffffffffffffff168373ffffffffffffffffffffffffffffffffffffffff160361300e576040517f5566df5c00000000000000000000000000000000000000000000000000000000815260040160405180910390fd5b60008403613048576040517f97643b5200000000000000000000000000000000000000000000000000000000815260040160405180910390fd5b60006006600086815260200190815260200160002090508060040160009054906101000a900460ff166130b257846040517f8c209e560000000000000000000000000000000000000000000000000000000081526004016130a991906147b3565b60405180910390fd5b3373ffffffffffffffffffffffffffffffffffffffff168160010160009054906101000a900473ffffffffffffffffffffffffffffffffffffffff1673ffffffffffffffffffffffffffffffffffffffff161461313b576040517f0f5e6bd800000000000000000000000000000000000000000000000000000000815260040160405180910390fd5b8060070160008573ffffffffffffffffffffffffffffffffffffffff1673ffffffffffffffffffffffffffffffffffffffff16815260200190815260200160002060009054906101000a900460ff16613199576131988486613c56565b5b60005b838390508110156134cc5760008484838181106131bc576131bb614f16565b5b90506020028101906131ce919061537c565b60200160208101906131e0919061548c565b90506002808111156131f5576131f461438c565b5b8160028111156132085761320761438c565b5b0361323f576040517fc1ab6dc100000000000000000000000000000000000000000000000000000000815260040160405180910390fd5b600160028111156132535761325261438c565b5b8160028111156132665761326561438c565b5b036134be5760005b85858481811061328157613280614f16565b5b9050602002810190613293919061537c565b80606001906132a291906154b9565b90508110156134bc5760008686858181106132c0576132bf614f16565b5b90506020028101906132d2919061537c565b80606001906132e191906154b9565b838181106132f2576132f1614f16565b5b90506020020135905086868581811061330e5761330d614f16565b5b9050602002810190613320919061537c565b6000016020810190613332919061453a565b73ffffffffffffffffffffffffffffffffffffffff166323b872dd3330846040518463ffffffff1660e01b815260040161336e9392919061551c565b6020604051808303816000875af115801561338d573d6000803e3d6000fd5b505050506040513d601f19601f820116820180604052508101906133b19190615568565b506133f785898989888181106133ca576133c9614f16565b5b90506020028101906133dc919061537c565b60000160208101906133ee919061453a565b86600086613fa0565b8773ffffffffffffffffffffffffffffffffffffffff1687878681811061342157613420614f16565b5b9050602002810190613433919061537c565b6000016020810190613445919061453a565b73ffffffffffffffffffffffffffffffffffffffff163373ffffffffffffffffffffffffffffffffffffffff167fb44510937e7a7a5dd39439c63df574818db53dac575444d730f4cc88dda6d1c8866000866040516134a6939291906155df565b60405180910390a450808060010191505061326e565b505b50808060010191505061319c565b50428160030181905550506134df614117565b50505050565b6000600760008373ffffffffffffffffffffffffffffffffffffffff1673ffffffffffffffffffffffffffffffffffffffff168152602001908152602001600020805490509050919050565b60036020528060005260406000206000915090508060000154908060010160009054906101000a900473ffffffffffffffffffffffffffffffffffffffff169080600201805461358090614fd7565b80601f01602080910402602001604051908101604052809291908181526020018280546135ac90614fd7565b80156135f95780601f106135ce576101008083540402835291602001916135f9565b820191906000526020600020905b8154815290600101906020018083116135dc57829003601f168201915b5050505050908060030154908060040160009054906101000a900460ff169080600601549080600a01549080600b01549080600c0160009054906101000a900460ff169080600d015490508a565b6000808203613682576040517f97643b5200000000000000000000000000000000000000000000000000000000815260040160405180910390fd5b60006006600084815260200190815260200160002090508060040160009054906101000a900460ff166136ec57826040517f8c209e560000000000000000000000000000000000000000000000000000000081526004016136e391906147b3565b60405180910390fd5b80600c0160009054906101000a900460ff161561370d57600091505061374c565b600081600301544261371f91906150bb565b905081600b015481106137375760009250505061374c565b8082600b015461374791906150bb565b925050505b919050565b60046020528060005260406000206000915054906101000a900460ff1681565b600080600090506000600190505b60025481101561394357600060066000838152602001908152602001600020905060005b81600801805490508110156139345760008260080182815481106137ca576137c9614f16565b5b9060005260206000200160009054906101000a900473ffffffffffffffffffffffffffffffffffffffff16905060008360090160008373ffffffffffffffffffffffffffffffffffffffff1673ffffffffffffffffffffffffffffffffffffffff168152602001908152602001600020905060005b81805490508110156139245781818154811061385e5761385d614f16565b5b906000526020600020906004020160030160009054906101000a900460ff161580156138df5750600160028111156138995761389861438c565b5b8282815481106138ac576138ab614f16565b5b906000526020600020906004020160000160149054906101000a900460ff1660028111156138dd576138dc61438c565b5b145b15613917578181815481106138f7576138f6614f16565b5b906000526020600020906004020160020154876139149190614f74565b96505b808060010191505061383f565b50505080806001019150506137a3565b5050808060010191505061377f565b508091505090565b613953613b89565b600073ffffffffffffffffffffffffffffffffffffffff168173ffffffffffffffffffffffffffffffffffffffff16036139c55760006040517f1e4fbdf70000000000000000000000000000000000000000000000000000000081526004016139bc9190614e87565b60405180910390fd5b6139ce81614120565b50565b6000808203613a0c576040517f97643b5200000000000000000000000000000000000000000000000000000000815260040160405180910390fd5b60006006600084815260200190815260200160002090508060040160009054906101000a900460ff16613a7657826040517f8c209e56000000000000000000000000000000000000000000000000000000008152600401613a6d91906147b3565b60405180910390fd5b80915050919050565b62015180821080613a92575062278d0082115b15613ade57816201518062278d006040517f79ab4503000000000000000000000000000000000000000000000000000000008152600401613ad5939291906157a8565b60405180910390fd5b62278d00811080613af257506301e1338081115b15613b3f578062278d006301e133806040517fc4e86f29000000000000000000000000000000000000000000000000000000008152600401613b36939291906157a8565b60405180910390fd5b818111613b855780826040517f2e85a8fc000000000000000000000000000000000000000000000000000000008152600401613b7c929190615050565b60405180910390fd5b5050565b613b916141e4565b73ffffffffffffffffffffffffffffffffffffffff16613baf612826565b73ffffffffffffffffffffffffffffffffffffffff1614613c0e57613bd26141e4565b6040517f118cdaa7000000000000000000000000000000000000000000000000000000008152600401613c059190614e87565b60405180910390fd5b565b600260015403613c4c576040517f3ee5aeb500000000000000000000000000000000000000000000000000000000815260040160405180910390fd5b6002600181905550565b600073ffffffffffffffffffffffffffffffffffffffff168273ffffffffffffffffffffffffffffffffffffffff1603613cbc576040517f5566df5c00000000000000000000000000000000000000000000000000000000815260040160405180910390fd5b60006006600083815260200190815260200160002090508060070160008473ffffffffffffffffffffffffffffffffffffffff1673ffffffffffffffffffffffffffffffffffffffff16815260200190815260200160002060009054906101000a900460ff1615613d59576040517f7ffebe8300000000000000000000000000000000000000000000000000000000815260040160405180910390fd5b3373ffffffffffffffffffffffffffffffffffffffff168160010160009054906101000a900473ffffffffffffffffffffffffffffffffffffffff1673ffffffffffffffffffffffffffffffffffffffff1614613de2576040517f0f5e6bd800000000000000000000000000000000000000000000000000000000815260040160405180910390fd5b60018160070160008573ffffffffffffffffffffffffffffffffffffffff1673ffffffffffffffffffffffffffffffffffffffff16815260200190815260200160002060006101000a81548160ff02191690831515021790555080600801839080600181540180825580915050600190039060005260206000200160009091909190916101000a81548173ffffffffffffffffffffffffffffffffffffffff021916908373ffffffffffffffffffffffffffffffffffffffff160217905550600560008473ffffffffffffffffffffffffffffffffffffffff1673ffffffffffffffffffffffffffffffffffffffff168152602001908152602001600020339080600181540180825580915050600190039060005260206000200160009091909190916101000a81548173ffffffffffffffffffffffffffffffffffffffff021916908373ffffffffffffffffffffffffffffffffffffffff1602179055508273ffffffffffffffffffffffffffffffffffffffff163373ffffffffffffffffffffffffffffffffffffffff167fbb39c36a7502b7256e1a687254146a9a2ea7b146c77cb9e40eb0e2b8793781e160405160405180910390a3505050565b60006040518060a001604052808673ffffffffffffffffffffffffffffffffffffffff168152602001856002811115613fdc57613fdb61438c565b5b81526020018481526020018381526020016000151581525090508660090160008773ffffffffffffffffffffffffffffffffffffffff1673ffffffffffffffffffffffffffffffffffffffff16815260200190815260200160002081908060018154018082558091505060019003906000526020600020906004020160009091909190915060008201518160000160006101000a81548173ffffffffffffffffffffffffffffffffffffffff021916908373ffffffffffffffffffffffffffffffffffffffff16021790555060208201518160000160146101000a81548160ff021916908360028111156140d3576140d261438c565b5b0217905550604082015181600101556060820151816002015560808201518160030160006101000a81548160ff021916908315150217905550505050505050505050565b60018081905550565b60008060009054906101000a900473ffffffffffffffffffffffffffffffffffffffff169050816000806101000a81548173ffffffffffffffffffffffffffffffffffffffff021916908373ffffffffffffffffffffffffffffffffffffffff1602179055508173ffffffffffffffffffffffffffffffffffffffff168173ffffffffffffffffffffffffffffffffffffffff167f8be0079c531659141344cd1fd0a4f28419497f9722a3daafe3b4186f6b6457e060405160405180910390a35050565b600033905090565b6040518060e001604052806000815260200160608152602001600073ffffffffffffffffffffffffffffffffffffffff168152602001600060028111156142365761423561438c565b5b815260200160008152602001600015158152602001600073ffffffffffffffffffffffffffffffffffffffff1681525090565b6000604051905090565b600080fd5b600080fd5b6000819050919050565b6142908161427d565b811461429b57600080fd5b50565b6000813590506142ad81614287565b92915050565b600073ffffffffffffffffffffffffffffffffffffffff82169050919050565b60006142de826142b3565b9050919050565b6142ee816142d3565b81146142f957600080fd5b50565b60008135905061430b816142e5565b92915050565b6000806040838503121561432857614327614273565b5b60006143368582860161429e565b9250506020614347858286016142fc565b9150509250929050565b600081519050919050565b600082825260208201905092915050565b6000819050602082019050919050565b614386816142d3565b82525050565b7f4e487b7100000000000000000000000000000000000000000000000000000000600052602160045260246000fd5b600381106143cc576143cb61438c565b5b50565b60008190506143dd826143bb565b919050565b60006143ed826143cf565b9050919050565b6143fd816143e2565b82525050565b61440c8161427d565b82525050565b60008115159050919050565b61442781614412565b82525050565b60a082016000820151614443600085018261437d565b50602082015161445660208501826143f4565b5060408201516144696040850182614403565b50606082015161447c6060850182614403565b50608082015161448f608085018261441e565b50505050565b60006144a1838361442d565b60a08301905092915050565b6000602082019050919050565b60006144c582614351565b6144cf818561435c565b93506144da8361436d565b8060005b8381101561450b5781516144f28882614495565b97506144fd836144ad565b9250506001810190506144de565b5085935050505092915050565b6000602082019050818103600083015261453281846144ba565b905092915050565b6000602082840312156145505761454f614273565b5b600061455e848285016142fc565b91505092915050565b600081519050919050565b600082825260208201905092915050565b6000819050602082019050919050565b600081519050919050565b600082825260208201905092915050565b60005b838110156145cd5780820151818401526020810190506145b2565b60008484015250505050565b6000601f19601f8301169050919050565b60006145f582614593565b6145ff818561459e565b935061460f8185602086016145af565b614618816145d9565b840191505092915050565b600060e08301600083015161463b6000860182614403565b506020830151848203602086015261465382826145ea565b9150506040830151614668604086018261437d565b50606083015161467b60608601826143f4565b50608083015161468e6080860182614403565b5060a08301516146a160a086018261441e565b5060c08301516146b460c086018261437d565b508091505092915050565b60006146cb8383614623565b905092915050565b6000602082019050919050565b60006146eb82614567565b6146f58185614572565b93508360208202850161470785614583565b8060005b85811015614743578484038952815161472485826146bf565b945061472f836146d3565b925060208a0199505060018101905061470b565b50829750879550505050505092915050565b6000602082019050818103600083015261476f81846146e0565b905092915050565b60006020828403121561478d5761478c614273565b5b600061479b8482850161429e565b91505092915050565b6147ad8161427d565b82525050565b60006020820190506147c860008301846147a4565b92915050565b6000806000606084860312156147e7576147e6614273565b5b60006147f58682870161429e565b93505060206148068682870161429e565b92505060406148178682870161429e565b9150509250925092565b600081519050919050565b600082825260208201905092915050565b6000819050602082019050919050565b6000614859838361437d565b60208301905092915050565b6000602082019050919050565b600061487d82614821565b614887818561482c565b93506148928361483d565b8060005b838110156148c35781516148aa888261484d565b97506148b583614865565b925050600181019050614896565b5085935050505092915050565b600060208201905081810360008301526148ea8184614872565b905092915050565b6148fb81614412565b82525050565b600060208201905061491660008301846148f2565b92915050565b614925816142d3565b82525050565b600082825260208201905092915050565b600061494782614593565b614951818561492b565b93506149618185602086016145af565b61496a816145d9565b840191505092915050565b60006101408201905061498b600083018d6147a4565b614998602083018c61491c565b81810360408301526149aa818b61493c565b90506149b9606083018a6147a4565b6149c660808301896148f2565b6149d360a08301886147a4565b6149e060c08301876147a4565b6149ed60e08301866147a4565b6149fb6101008301856148f2565b614a096101208301846147a4565b9b9a5050505050505050505050565b600061016082019050614a2e600083018e6147a4565b614a3b602083018d61491c565b8181036040830152614a4d818c61493c565b9050614a5c606083018b6147a4565b614a69608083018a6148f2565b614a7660a08301896147a4565b614a8360c08301886147a4565b614a9060e08301876147a4565b614a9e6101008301866148f2565b614aac6101208301856147a4565b818103610140830152614abf8184614872565b90509c9b505050505050505050505050565b60008060408385031215614ae857614ae7614273565b5b6000614af6858286016142fc565b9250506020614b078582860161429e565b9150509250929050565b614b1a81614412565b8114614b2557600080fd5b50565b600081359050614b3781614b11565b92915050565b60008060408385031215614b5457614b53614273565b5b6000614b62858286016142fc565b9250506020614b7385828601614b28565b9150509250929050565b600080fd5b600080fd5b7f4e487b7100000000000000000000000000000000000000000000000000000000600052604160045260246000fd5b614bbf826145d9565b810181811067ffffffffffffffff82111715614bde57614bdd614b87565b5b80604052505050565b6000614bf1614269565b9050614bfd8282614bb6565b919050565b600067ffffffffffffffff821115614c1d57614c1c614b87565b5b614c26826145d9565b9050602081019050919050565b82818337600083830152505050565b6000614c55614c5084614c02565b614be7565b905082815260208101848484011115614c7157614c70614b82565b5b614c7c848285614c33565b509392505050565b600082601f830112614c9957614c98614b7d565b5b8135614ca9848260208601614c42565b91505092915050565b600080fd5b600080fd5b60008083601f840112614cd257614cd1614b7d565b5b8235905067ffffffffffffffff811115614cef57614cee614cb2565b5b602083019150836020820283011115614d0b57614d0a614cb7565b5b9250929050565b600080600080600060808688031215614d2e57614d2d614273565b5b600086013567ffffffffffffffff811115614d4c57614d4b614278565b5b614d5888828901614c84565b955050602086013567ffffffffffffffff811115614d7957614d78614278565b5b614d8588828901614cbc565b94509450506040614d988882890161429e565b9250506060614da98882890161429e565b9150509295509295909350565b600081519050919050565b600082825260208201905092915050565b6000819050602082019050919050565b6000614dee8383614403565b60208301905092915050565b6000602082019050919050565b6000614e1282614db6565b614e1c8185614dc1565b9350614e2783614dd2565b8060005b83811015614e58578151614e3f8882614de2565b9750614e4a83614dfa565b925050600181019050614e2b565b5085935050505092915050565b60006020820190508181036000830152614e7f8184614e07565b905092915050565b6000602082019050614e9c600083018461491c565b92915050565b60008060008060608587031215614ebc57614ebb614273565b5b6000614eca8782880161429e565b9450506020614edb878288016142fc565b935050604085013567ffffffffffffffff811115614efc57614efb614278565b5b614f0887828801614cbc565b925092505092959194509250565b7f4e487b7100000000000000000000000000000000000000000000000000000000600052603260045260246000fd5b7f4e487b7100000000000000000000000000000000000000000000000000000000600052601160045260246000fd5b6000614f7f8261427d565b9150614f8a8361427d565b9250828201905080821115614fa257614fa1614f45565b5b92915050565b7f4e487b7100000000000000000000000000000000000000000000000000000000600052602260045260246000fd5b60006002820490506001821680614fef57607f821691505b60208210810361500257615001614fa8565b5b50919050565b60006150138261427d565b91507fffffffffffffffffffffffffffffffffffffffffffffffffffffffffffffffff820361504557615044614f45565b5b600182019050919050565b600060408201905061506560008301856147a4565b61507260208301846147a4565b9392505050565b60006150848261427d565b915061508f8361427d565b925082820261509d8161427d565b915082820484148315176150b4576150b3614f45565b5b5092915050565b60006150c68261427d565b91506150d18361427d565b92508282039050818111156150e9576150e8614f45565b5b92915050565b60008190508160005260206000209050919050565b60006020601f8301049050919050565b600082821b905092915050565b6000600883026151517fffffffffffffffffffffffffffffffffffffffffffffffffffffffffffffffff82615114565b61515b8683615114565b95508019841693508086168417925050509392505050565b6000819050919050565b600061519861519361518e8461427d565b615173565b61427d565b9050919050565b6000819050919050565b6151b28361517d565b6151c66151be8261519f565b848454615121565b825550505050565b600090565b6151db6151ce565b6151e68184846151a9565b505050565b5b8181101561520a576151ff6000826151d3565b6001810190506151ec565b5050565b601f82111561524f57615220816150ef565b61522984615104565b81016020851015615238578190505b61524c61524485615104565b8301826151eb565b50505b505050565b600082821c905092915050565b600061527260001984600802615254565b1980831691505092915050565b600061528b8383615261565b9150826002028217905092915050565b6152a482614593565b67ffffffffffffffff8111156152bd576152bc614b87565b5b6152c78254614fd7565b6152d282828561520e565b600060209050601f83116001811461530557600084156152f3578287015190505b6152fd858261527f565b865550615365565b601f198416615313866150ef565b60005b8281101561533b57848901518255600182019150602085019450602081019050615316565b868310156153585784890151615354601f891682615261565b8355505b6001600288020188555050505b505050505050565b600080fd5b600080fd5b600080fd5b60008235600160a0038336030381126153985761539761536d565b5b80830191505092915050565b600080833560016020038436030381126153c1576153c061536d565b5b80840192508235915067ffffffffffffffff8211156153e3576153e2615372565b5b6020830192506020820236038313156153ff576153fe615377565b5b509250929050565b7f4e487b7100000000000000000000000000000000000000000000000000000000600052601260045260246000fd5b60006154418261427d565b915061544c8361427d565b92508261545c5761545b615407565b5b828204905092915050565b6003811061547457600080fd5b50565b60008135905061548681615467565b92915050565b6000602082840312156154a2576154a1614273565b5b60006154b084828501615477565b91505092915050565b600080833560016020038436030381126154d6576154d561536d565b5b80840192508235915067ffffffffffffffff8211156154f8576154f7615372565b5b60208301925060208202360383131561551457615513615377565b5b509250929050565b6000606082019050615531600083018661491c565b61553e602083018561491c565b61554b60408301846147a4565b949350505050565b60008151905061556281614b11565b92915050565b60006020828403121561557e5761557d614273565b5b600061558c84828501615553565b91505092915050565b61559e816143e2565b82525050565b6000819050919050565b60006155c96155c46155bf846155a4565b615173565b61427d565b9050919050565b6155d9816155ae565b82525050565b60006060820190506155f46000830186615595565b61560160208301856155d0565b61560e60408301846147a4565b949350505050565b600081549050919050565b60008190508160005260206000209050919050565b60008160001c9050919050565b600073ffffffffffffffffffffffffffffffffffffffff82169050919050565b600061567661567183615636565b615643565b9050919050565b60006156898254615663565b9050919050565b6000600182019050919050565b60006156a882615616565b6156b2818561482c565b93506156bd83615621565b8060005b838110156156f5576156d28261567d565b6156dc888261484d565b97506156e783615690565b9250506001810190506156c1565b5085935050505092915050565b6000604082019050818103600083015261571c818561493c565b90508181036020830152615730818461569d565b90509392505050565b600081905092915050565b50565b6000615754600083615739565b915061575f82615744565b600082019050919050565b600061577582615747565b9150819050919050565b6000604082019050615794600083018561491c565b6157a160208301846147a4565b9392505050565b60006060820190506157bd60008301866147a4565b6157ca60208301856147a4565b6157d760408301846147a4565b94935050505056fea2646970667358221220cedd6b57ef0451af31fec5f6131ed2659e6253ce1def18ff668da7e99115b74f64736f6c63430008180033",
  "linkReferences": {},
  "deployedLinkReferences": {}
}